{
	"data": {
		"bytecode": {
			"linkReferences": {},
			"object": "60806040526000805460ff19168155600681905560075534801561002257600080fd5b5060008054610100600160a81b031916336101008102919091178255604051909182917f8be0079c531659141344cd1fd0a4f28419497f9722a3daafe3b4186f6b6457e0908290a3506000805460ff60a81b19169055615e9180620000886000396000f3fe6080604052600436106101c25760003560e01c80637b103999116100f7578063a8a41c7011610095578063d537e13111610064578063d537e131146104f5578063e57d4adb14610515578063f2fde38b14610545578063f7b188a51461056557600080fd5b8063a8a41c701461048c578063ab834bab146104ac578063ca595b9a146104bf578063cae6047f146104df57600080fd5b80638076f005116100d15780638076f005146104045780638456cb59146104345780638da5cb5b14610449578063a25eb5d91461046c57600080fd5b80637b103999146103ae5780637ccefc52146103ce5780637d766981146103e457600080fd5b80635c975abb1161016457806364df049e1161013e57806364df049e14610339578063715018a61461035957806371d02b381461036e578063796668681461038e57600080fd5b80635c975abb146102da5780635ef527e4146102f957806360bef33a1461031957600080fd5b80631a6b13e2116101a05780631a6b13e21461025657806328a8ee68146102765780633f67ee0d1461029a578063514f0330146102ba57600080fd5b80630eefdbad146101c757806310796a471461020457806314350c2414610234575b600080fd5b3480156101d357600080fd5b506003546101e7906001600160a01b031681565b6040516001600160a01b0390911681526020015b60405180910390f35b34801561021057600080fd5b5061022461021f366004615540565b61057a565b60405190151581526020016101fb565b34801561024057600080fd5b5061025461024f366004615b55565b610612565b005b34801561026257600080fd5b50610254610271366004615b55565b61067a565b34801561028257600080fd5b5061028c60075481565b6040519081526020016101fb565b3480156102a657600080fd5b5061028c6102b536600461583b565b6106d9565b3480156102c657600080fd5b506102546102d5366004615508565b610a31565b3480156102e657600080fd5b50600054600160a81b900460ff16610224565b34801561030557600080fd5b50610254610314366004615508565b610aad565b34801561032557600080fd5b50610224610334366004615a10565b610b68565b34801561034557600080fd5b506008546101e7906001600160a01b031681565b34801561036557600080fd5b50610254610f13565b34801561037a57600080fd5b5061028c61038936600461583b565b610f92565b34801561039a57600080fd5b506102546103a936600461590e565b6112dc565b3480156103ba57600080fd5b506002546101e7906001600160a01b031681565b3480156103da57600080fd5b5061028c60065481565b3480156103f057600080fd5b5061028c6103ff36600461583b565b611661565b34801561041057600080fd5b5061022461041f366004615b55565b60046020526000908152604090205460ff1681565b34801561044057600080fd5b506102546119ab565b34801561045557600080fd5b5060005461010090046001600160a01b03166101e7565b34801561047857600080fd5b506001546101e7906001600160a01b031681565b34801561049857600080fd5b506102546104a7366004615a10565b6119e5565b6102546104ba3660046156dd565b611da5565b3480156104cb57600080fd5b506102246104da36600461583b565b6126a0565b3480156104eb57600080fd5b5061028c61271081565b34801561050157600080fd5b5061028c6105103660046155b2565b6129fd565b34801561052157600080fd5b50610224610530366004615b55565b60056020526000908152604090205460ff1681565b34801561055157600080fd5b50610254610560366004615508565b613202565b34801561057157600080fd5b506102546132fd565b6000808251845161058b9190615d62565b6001600160401b038111156105b057634e487b7160e01b600052604160045260246000fd5b6040519080825280601f01601f1916602001820160405280156105da576020820181803683370190505b509050602081016105eb8185613335565b90506105f78186613335565b506000604051835160208501895afa925050505b9392505050565b6000546001600160a01b0361010090910416331461064b5760405162461bcd60e51b815260040161064290615d2d565b60405180910390fd5b600054600160a81b900460ff16156106755760405162461bcd60e51b815260040161064290615d03565b600655565b6000546001600160a01b036101009091041633146106aa5760405162461bcd60e51b815260040161064290615d2d565b600054600160a81b900460ff16156106d45760405162461bcd60e51b815260040161064290615d03565b600755565b6000610a23604051806102e001604052808c60006007811061070b57634e487b7160e01b600052603260045260246000fd5b60200201516001600160a01b031681526020018c60016007811061073f57634e487b7160e01b600052603260045260246000fd5b60200201516001600160a01b031681526020018c60026007811061077357634e487b7160e01b600052603260045260246000fd5b60200201516001600160a01b031681526020018b6000600981106107a757634e487b7160e01b600052603260045260246000fd5b602002015181526020018b6001600981106107d257634e487b7160e01b600052603260045260246000fd5b602002015181526020018b6002600981106107fd57634e487b7160e01b600052603260045260246000fd5b602002015181526020018b60036009811061082857634e487b7160e01b600052603260045260246000fd5b602002015181526020018c60036007811061085357634e487b7160e01b600052603260045260246000fd5b60200201516001600160a01b031681526020018a600181111561088657634e487b7160e01b600052602160045260246000fd5b81526020018960018111156108ab57634e487b7160e01b600052602160045260246000fd5b81526020018860018111156108d057634e487b7160e01b600052602160045260246000fd5b815260808d01516001600160a01b0316602082015260400187600181111561090857634e487b7160e01b600052602160045260246000fd5b8152602081018790526040810186905260a0808e01516001600160a01b0316606083015260808201869052018c600660200201516001600160a01b031681526020018b60046009811061096b57634e487b7160e01b600052603260045260246000fd5b602002015181526020018b60056009811061099657634e487b7160e01b600052603260045260246000fd5b602002015181526020018b6006600981106109c157634e487b7160e01b600052603260045260246000fd5b602002015181526020018b6007600981106109ec57634e487b7160e01b600052603260045260246000fd5b602002015181526020018b600860098110610a1757634e487b7160e01b600052603260045260246000fd5b60200201519052613378565b9a9950505050505050505050565b6000546001600160a01b03610100909104163314610a615760405162461bcd60e51b815260040161064290615d2d565b600054600160a81b900460ff1615610a8b5760405162461bcd60e51b815260040161064290615d03565b600880546001600160a01b0319166001600160a01b0392909216919091179055565b6000546001600160a01b03610100909104163314610add5760405162461bcd60e51b815260040161064290615d2d565b600054600160a81b900460ff1615610b075760405162461bcd60e51b815260040161064290615d03565b600180546001600160a01b038381166001600160a01b031983168117909355604080519190921680825260208201939093527f114cfa1c61a2b039de4a4dd89821f0664d2a5dc26f70a270c615a9d14fd40632910160405180910390a15050565b600080604051806102e001604052808f600060078110610b9857634e487b7160e01b600052603260045260246000fd5b60200201516001600160a01b031681526020018f600160078110610bcc57634e487b7160e01b600052603260045260246000fd5b60200201516001600160a01b031681526020018f600260078110610c0057634e487b7160e01b600052603260045260246000fd5b60200201516001600160a01b031681526020018e600060098110610c3457634e487b7160e01b600052603260045260246000fd5b602002015181526020018e600160098110610c5f57634e487b7160e01b600052603260045260246000fd5b602002015181526020018e600260098110610c8a57634e487b7160e01b600052603260045260246000fd5b602002015181526020018e600360098110610cb557634e487b7160e01b600052603260045260246000fd5b602002015181526020018f600360078110610ce057634e487b7160e01b600052603260045260246000fd5b60200201516001600160a01b031681526020018d6001811115610d1357634e487b7160e01b600052602160045260246000fd5b81526020018c6001811115610d3857634e487b7160e01b600052602160045260246000fd5b81526020018b6001811115610d5d57634e487b7160e01b600052602160045260246000fd5b81526020018f600460200201516001600160a01b031681526020018a6001811115610d9857634e487b7160e01b600052602160045260246000fd5b8152602081018a9052604081018990526060018f600560200201516001600160a01b031681526020018781526020018f600660078110610de857634e487b7160e01b600052603260045260246000fd5b60200201516001600160a01b031681526020018e600460098110610e1c57634e487b7160e01b600052603260045260246000fd5b602002015181526020018e600560098110610e4757634e487b7160e01b600052603260045260246000fd5b602002015181526020018e600660098110610e7257634e487b7160e01b600052603260045260246000fd5b602002015181526020018e600760098110610e9d57634e487b7160e01b600052603260045260246000fd5b602002015181526020018e600860098110610ec857634e487b7160e01b600052603260045260246000fd5b602002015190529050610f01610edd826133ac565b8260405180606001604052808960ff16815260200188815260200187815250613408565b9e9d5050505050505050505050505050565b6000546001600160a01b03610100909104163314610f435760405162461bcd60e51b815260040161064290615d2d565b600080546040516101009091046001600160a01b0316907f8be0079c531659141344cd1fd0a4f28419497f9722a3daafe3b4186f6b6457e0908390a360008054610100600160a81b0319169055565b6000610a23604051806102e001604052808c600060078110610fc457634e487b7160e01b600052603260045260246000fd5b60200201516001600160a01b031681526020018c600160078110610ff857634e487b7160e01b600052603260045260246000fd5b60200201516001600160a01b031681526020018c60026007811061102c57634e487b7160e01b600052603260045260246000fd5b60200201516001600160a01b031681526020018b60006009811061106057634e487b7160e01b600052603260045260246000fd5b602002015181526020018b60016009811061108b57634e487b7160e01b600052603260045260246000fd5b602002015181526020018b6002600981106110b657634e487b7160e01b600052603260045260246000fd5b602002015181526020018b6003600981106110e157634e487b7160e01b600052603260045260246000fd5b602002015181526020018c60036007811061110c57634e487b7160e01b600052603260045260246000fd5b60200201516001600160a01b031681526020018a600181111561113f57634e487b7160e01b600052602160045260246000fd5b815260200189600181111561116457634e487b7160e01b600052602160045260246000fd5b815260200188600181111561118957634e487b7160e01b600052602160045260246000fd5b815260808d01516001600160a01b031660208201526040018760018111156111c157634e487b7160e01b600052602160045260246000fd5b8152602081018790526040810186905260a0808e01516001600160a01b0316606083015260808201869052018c600660200201516001600160a01b031681526020018b60046009811061122457634e487b7160e01b600052603260045260246000fd5b602002015181526020018b60056009811061124f57634e487b7160e01b600052603260045260246000fd5b602002015181526020018b60066009811061127a57634e487b7160e01b600052603260045260246000fd5b602002015181526020018b6007600981106112a557634e487b7160e01b600052603260045260246000fd5b602002015181526020018b6008600981106112d057634e487b7160e01b600052603260045260246000fd5b602002015190526134ee565b600054600160a81b900460ff16156113065760405162461bcd60e51b815260040161064290615d03565b6000604051806102e001604052808c60006007811061133557634e487b7160e01b600052603260045260246000fd5b60200201516001600160a01b031681526020018c60016007811061136957634e487b7160e01b600052603260045260246000fd5b60200201516001600160a01b031681526020018c60026007811061139d57634e487b7160e01b600052603260045260246000fd5b60200201516001600160a01b031681526020018b6000600981106113d157634e487b7160e01b600052603260045260246000fd5b602002015181526020018b6001600981106113fc57634e487b7160e01b600052603260045260246000fd5b602002015181526020018b60026009811061142757634e487b7160e01b600052603260045260246000fd5b602002015181526020018b60036009811061145257634e487b7160e01b600052603260045260246000fd5b602002015181526020018c60036007811061147d57634e487b7160e01b600052603260045260246000fd5b60200201516001600160a01b031681526020018a60018111156114b057634e487b7160e01b600052602160045260246000fd5b81526020018960018111156114d557634e487b7160e01b600052602160045260246000fd5b81526020018860018111156114fa57634e487b7160e01b600052602160045260246000fd5b815260808d01516001600160a01b0316602082015260400187600181111561153257634e487b7160e01b600052602160045260246000fd5b8152602081018790526040810186905260a0808e01516001600160a01b0316606083015260808201869052018c600660200201516001600160a01b031681526020018b60046009811061159557634e487b7160e01b600052603260045260246000fd5b602002015181526020018b6005600981106115c057634e487b7160e01b600052603260045260246000fd5b602002015181526020018b6006600981106115eb57634e487b7160e01b600052603260045260246000fd5b602002015181526020018b60076009811061161657634e487b7160e01b600052603260045260246000fd5b602002015181526020018b60086009811061164157634e487b7160e01b600052603260045260246000fd5b602002015190529050611654818361371f565b5050505050505050505050565b6000610a23604051806102e001604052808c60006007811061169357634e487b7160e01b600052603260045260246000fd5b60200201516001600160a01b031681526020018c6001600781106116c757634e487b7160e01b600052603260045260246000fd5b60200201516001600160a01b031681526020018c6002600781106116fb57634e487b7160e01b600052603260045260246000fd5b60200201516001600160a01b031681526020018b60006009811061172f57634e487b7160e01b600052603260045260246000fd5b602002015181526020018b60016009811061175a57634e487b7160e01b600052603260045260246000fd5b602002015181526020018b60026009811061178557634e487b7160e01b600052603260045260246000fd5b602002015181526020018b6003600981106117b057634e487b7160e01b600052603260045260246000fd5b602002015181526020018c6003600781106117db57634e487b7160e01b600052603260045260246000fd5b60200201516001600160a01b031681526020018a600181111561180e57634e487b7160e01b600052602160045260246000fd5b815260200189600181111561183357634e487b7160e01b600052602160045260246000fd5b815260200188600181111561185857634e487b7160e01b600052602160045260246000fd5b815260808d01516001600160a01b0316602082015260400187600181111561189057634e487b7160e01b600052602160045260246000fd5b8152602081018790526040810186905260a0808e01516001600160a01b0316606083015260808201869052018c600660200201516001600160a01b031681526020018b6004600981106118f357634e487b7160e01b600052603260045260246000fd5b602002015181526020018b60056009811061191e57634e487b7160e01b600052603260045260246000fd5b602002015181526020018b60066009811061194957634e487b7160e01b600052603260045260246000fd5b602002015181526020018b60076009811061197457634e487b7160e01b600052603260045260246000fd5b602002015181526020018b60086009811061199f57634e487b7160e01b600052603260045260246000fd5b602002015190526133ac565b6000546001600160a01b036101009091041633146119db5760405162461bcd60e51b815260040161064290615d2d565b6119e36138b3565b565b600054600160a81b900460ff1615611a0f5760405162461bcd60e51b815260040161064290615d03565b611d97604051806102e001604052808e600060078110611a3f57634e487b7160e01b600052603260045260246000fd5b60200201516001600160a01b031681526020018e600160078110611a7357634e487b7160e01b600052603260045260246000fd5b60200201516001600160a01b031681526020018e600260078110611aa757634e487b7160e01b600052603260045260246000fd5b60200201516001600160a01b031681526020018d600060098110611adb57634e487b7160e01b600052603260045260246000fd5b602002015181526020018d600160098110611b0657634e487b7160e01b600052603260045260246000fd5b602002015181526020018d600260098110611b3157634e487b7160e01b600052603260045260246000fd5b602002015181526020018d600360098110611b5c57634e487b7160e01b600052603260045260246000fd5b602002015181526020018e600360078110611b8757634e487b7160e01b600052603260045260246000fd5b60200201516001600160a01b031681526020018c6001811115611bba57634e487b7160e01b600052602160045260246000fd5b81526020018b6001811115611bdf57634e487b7160e01b600052602160045260246000fd5b81526020018a6001811115611c0457634e487b7160e01b600052602160045260246000fd5b815260808f01516001600160a01b03166020820152604001896001811115611c3c57634e487b7160e01b600052602160045260246000fd5b815260208101899052604081018890526060018e600560200201516001600160a01b031681526020018681526020018e600660078110611c8c57634e487b7160e01b600052603260045260246000fd5b60200201516001600160a01b031681526020018d600460098110611cc057634e487b7160e01b600052603260045260246000fd5b602002015181526020018d600560098110611ceb57634e487b7160e01b600052603260045260246000fd5b602002015181526020018d600660098110611d1657634e487b7160e01b600052603260045260246000fd5b602002015181526020018d600760098110611d4157634e487b7160e01b600052603260045260246000fd5b602002015181526020018d600860098110611d6c57634e487b7160e01b600052603260045260246000fd5b602002015181525060405180606001604052808660ff16815260200185815260200184815250613935565b505050505050505050505050565b600054600160a81b900460ff1615611dcf5760405162461bcd60e51b815260040161064290615d03565b611654604051806102e001604052808d6000600e8110611dff57634e487b7160e01b600052603260045260246000fd5b60200201516001600160a01b031681526020018d6001600e8110611e3357634e487b7160e01b600052603260045260246000fd5b60200201516001600160a01b031681526020018d6002600e8110611e6757634e487b7160e01b600052603260045260246000fd5b60200201516001600160a01b031681526020018c600060128110611e9b57634e487b7160e01b600052603260045260246000fd5b602002015181526020018c600160128110611ec657634e487b7160e01b600052603260045260246000fd5b602002015181526020018c600260128110611ef157634e487b7160e01b600052603260045260246000fd5b602002015181526020018c600360128110611f1c57634e487b7160e01b600052603260045260246000fd5b602002015181526020018d6003600e8110611f4757634e487b7160e01b600052603260045260246000fd5b60200201516001600160a01b031681526020018b600060088110611f7b57634e487b7160e01b600052603260045260246000fd5b602002015160ff166001811115611fa257634e487b7160e01b600052602160045260246000fd5b6001811115611fc157634e487b7160e01b600052602160045260246000fd5b81526020018b6001602002015160ff166001811115611ff057634e487b7160e01b600052602160045260246000fd5b600181111561200f57634e487b7160e01b600052602160045260246000fd5b81526020018b6002602002015160ff16600181111561203e57634e487b7160e01b600052602160045260246000fd5b600181111561205d57634e487b7160e01b600052602160045260246000fd5b815260808e01516001600160a01b031660208201526040018b6003602002015160ff16600181111561209f57634e487b7160e01b600052602160045260246000fd5b60018111156120be57634e487b7160e01b600052602160045260246000fd5b8152602081018b90526040810189905260a0808f01516001600160a01b0316606083015260808201889052018d600660200201516001600160a01b031681526020018c60046012811061212157634e487b7160e01b600052603260045260246000fd5b602002015181526020018c60056012811061214c57634e487b7160e01b600052603260045260246000fd5b602002015181526020018c60066012811061217757634e487b7160e01b600052603260045260246000fd5b602002015181526020018c6007601281106121a257634e487b7160e01b600052603260045260246000fd5b602002015181526020018c6008601281106121cd57634e487b7160e01b600052603260045260246000fd5b6020908102919091015190915260408051606081018252865160ff168152855192810192909252810184600160200201519052604080516102e08101909152808f600760200201516001600160a01b031681526020018f6008600e811061224457634e487b7160e01b600052603260045260246000fd5b60200201516001600160a01b031681526020018f6009600e811061227857634e487b7160e01b600052603260045260246000fd5b60200201516001600160a01b031681526020018e6009601281106122ac57634e487b7160e01b600052603260045260246000fd5b602002015181526020018e600a601281106122d757634e487b7160e01b600052603260045260246000fd5b602002015181526020018e600b6012811061230257634e487b7160e01b600052603260045260246000fd5b602002015181526020018e600c6012811061232d57634e487b7160e01b600052603260045260246000fd5b602002015181526020018f600a600e811061235857634e487b7160e01b600052603260045260246000fd5b60200201516001600160a01b031681526020018d60046008811061238c57634e487b7160e01b600052603260045260246000fd5b602002015160ff1660018111156123b357634e487b7160e01b600052602160045260246000fd5b60018111156123d257634e487b7160e01b600052602160045260246000fd5b81526020018d6005602002015160ff16600181111561240157634e487b7160e01b600052602160045260246000fd5b600181111561242057634e487b7160e01b600052602160045260246000fd5b81526020018d6006602002015160ff16600181111561244f57634e487b7160e01b600052602160045260246000fd5b600181111561246e57634e487b7160e01b600052602160045260246000fd5b81526020018f600b60200201516001600160a01b031681526020018d6007600881106124aa57634e487b7160e01b600052603260045260246000fd5b602002015160ff1660018111156124d157634e487b7160e01b600052602160045260246000fd5b60018111156124f057634e487b7160e01b600052602160045260246000fd5b8152602081018c9052604081018a90526060018f600c60200201516001600160a01b031681526020018781526020018f600d600e811061254057634e487b7160e01b600052603260045260246000fd5b60200201516001600160a01b031681526020018e600d6012811061257457634e487b7160e01b600052603260045260246000fd5b602002015181526020018e600e6012811061259f57634e487b7160e01b600052603260045260246000fd5b602002015181526020018e600f601281106125ca57634e487b7160e01b600052603260045260246000fd5b602002015181526020018e6010601281106125f557634e487b7160e01b600052603260045260246000fd5b602002015181526020018e60116012811061262057634e487b7160e01b600052603260045260246000fd5b60200201519052604080516060810190915280876001602002015160ff1681526020018660026005811061266457634e487b7160e01b600052603260045260246000fd5b602002015181526020018660036005811061268f57634e487b7160e01b600052603260045260246000fd5b6020020151905260808601516139de565b600080604051806102e001604052808c6000600781106126d057634e487b7160e01b600052603260045260246000fd5b60200201516001600160a01b031681526020018c60016007811061270457634e487b7160e01b600052603260045260246000fd5b60200201516001600160a01b031681526020018c60026007811061273857634e487b7160e01b600052603260045260246000fd5b60200201516001600160a01b031681526020018b60006009811061276c57634e487b7160e01b600052603260045260246000fd5b602002015181526020018b60016009811061279757634e487b7160e01b600052603260045260246000fd5b602002015181526020018b6002600981106127c257634e487b7160e01b600052603260045260246000fd5b602002015181526020018b6003600981106127ed57634e487b7160e01b600052603260045260246000fd5b602002015181526020018c60036007811061281857634e487b7160e01b600052603260045260246000fd5b60200201516001600160a01b031681526020018a600181111561284b57634e487b7160e01b600052602160045260246000fd5b815260200189600181111561287057634e487b7160e01b600052602160045260246000fd5b815260200188600181111561289557634e487b7160e01b600052602160045260246000fd5b815260808d01516001600160a01b031660208201526040018760018111156128cd57634e487b7160e01b600052602160045260246000fd5b8152602081018790526040810186905260a0808e01516001600160a01b0316606083015260808201869052018c600660200201516001600160a01b031681526020018b60046009811061293057634e487b7160e01b600052603260045260246000fd5b602002015181526020018b60056009811061295b57634e487b7160e01b600052603260045260246000fd5b602002015181526020018b60066009811061298657634e487b7160e01b600052603260045260246000fd5b602002015181526020018b6007600981106129b157634e487b7160e01b600052603260045260246000fd5b602002015181526020018b6008600981106129dc57634e487b7160e01b600052603260045260246000fd5b6020020151905290506129ee81614194565b9b9a5050505050505050505050565b600080604051806102e001604052808c6000600e8110612a2d57634e487b7160e01b600052603260045260246000fd5b60200201516001600160a01b031681526020018c6001600e8110612a6157634e487b7160e01b600052603260045260246000fd5b60200201516001600160a01b031681526020018c6002600e8110612a9557634e487b7160e01b600052603260045260246000fd5b60200201516001600160a01b031681526020018b600060128110612ac957634e487b7160e01b600052603260045260246000fd5b602002015181526020018b600160128110612af457634e487b7160e01b600052603260045260246000fd5b602002015181526020018b600260128110612b1f57634e487b7160e01b600052603260045260246000fd5b602002015181526020018b600360128110612b4a57634e487b7160e01b600052603260045260246000fd5b602002015181526020018c6003600e8110612b7557634e487b7160e01b600052603260045260246000fd5b60200201516001600160a01b031681526020018a600060088110612ba957634e487b7160e01b600052603260045260246000fd5b602002015160ff166001811115612bd057634e487b7160e01b600052602160045260246000fd5b6001811115612bef57634e487b7160e01b600052602160045260246000fd5b81526020018a6001602002015160ff166001811115612c1e57634e487b7160e01b600052602160045260246000fd5b6001811115612c3d57634e487b7160e01b600052602160045260246000fd5b81526020018a6002602002015160ff166001811115612c6c57634e487b7160e01b600052602160045260246000fd5b6001811115612c8b57634e487b7160e01b600052602160045260246000fd5b815260808d01516001600160a01b031660208201526040018a6003602002015160ff166001811115612ccd57634e487b7160e01b600052602160045260246000fd5b6001811115612cec57634e487b7160e01b600052602160045260246000fd5b8152602081018a90526040810188905260a0808e01516001600160a01b0316606083015260808201879052018c600660200201516001600160a01b031681526020018b600460128110612d4f57634e487b7160e01b600052603260045260246000fd5b602002015181526020018b600560128110612d7a57634e487b7160e01b600052603260045260246000fd5b602002015181526020018b600660128110612da557634e487b7160e01b600052603260045260246000fd5b602002015181526020018b600760128110612dd057634e487b7160e01b600052603260045260246000fd5b602002015181526020018b600860128110612dfb57634e487b7160e01b600052603260045260246000fd5b602002015181525090506000604051806102e001604052808d6007600e8110612e3457634e487b7160e01b600052603260045260246000fd5b60200201516001600160a01b031681526020018d6008600e8110612e6857634e487b7160e01b600052603260045260246000fd5b60200201516001600160a01b031681526020018d6009600e8110612e9c57634e487b7160e01b600052603260045260246000fd5b60200201516001600160a01b031681526020018c600960128110612ed057634e487b7160e01b600052603260045260246000fd5b602002015181526020018c600a60128110612efb57634e487b7160e01b600052603260045260246000fd5b602002015181526020018c600b60128110612f2657634e487b7160e01b600052603260045260246000fd5b602002015181526020018c600c60128110612f5157634e487b7160e01b600052603260045260246000fd5b602002015181526020018d600a600e8110612f7c57634e487b7160e01b600052603260045260246000fd5b60200201516001600160a01b031681526020018b600460088110612fb057634e487b7160e01b600052603260045260246000fd5b602002015160ff166001811115612fd757634e487b7160e01b600052602160045260246000fd5b6001811115612ff657634e487b7160e01b600052602160045260246000fd5b81526020018b6005602002015160ff16600181111561302557634e487b7160e01b600052602160045260246000fd5b600181111561304457634e487b7160e01b600052602160045260246000fd5b81526020018b6006602002015160ff16600181111561307357634e487b7160e01b600052602160045260246000fd5b600181111561309257634e487b7160e01b600052602160045260246000fd5b81526101608e01516001600160a01b031660208201526040018b6007602002015160ff1660018111156130d557634e487b7160e01b600052602160045260246000fd5b60018111156130f457634e487b7160e01b600052602160045260246000fd5b8152602081018a9052604081018890526101808e01516001600160a01b039081166060830152608082018790526101a08f01511660a082015260c0018c600d602002015181526020018c600e6012811061315e57634e487b7160e01b600052603260045260246000fd5b602002015181526020018c600f6012811061318957634e487b7160e01b600052603260045260246000fd5b602002015181526020018c6010601281106131b457634e487b7160e01b600052603260045260246000fd5b602002015181526020018c6011601281106131df57634e487b7160e01b600052603260045260246000fd5b6020020151905290506131f2828261422d565b9c9b505050505050505050505050565b6000546001600160a01b036101009091041633146132325760405162461bcd60e51b815260040161064290615d2d565b6001600160a01b0381166132975760405162461bcd60e51b815260206004820152602660248201527f4f776e61626c653a206e6577206f776e657220697320746865207a65726f206160448201526564647265737360d01b6064820152608401610642565b600080546040516001600160a01b038085169361010090930416917f8be0079c531659141344cd1fd0a4f28419497f9722a3daafe3b4186f6b6457e091a3600080546001600160a01b0390921661010002610100600160a81b0319909216919091179055565b6000546001600160a01b0361010090910416331461332d5760405162461bcd60e51b815260040161064290615d2d565b6119e36142be565b80516000901561337157815180602001830160208401855b6001838310141561336857815181526020918201910161334d565b50505092909201915b5090919050565b60006133a6826101200151836101400151846102400151856102600151866102800151876102a00151614342565b92915050565b60006133b7826134ee565b6040517f19457468657265756d205369676e6564204d6573736167653a0a3332000000006020820152603c810191909152605c01604051602081830303815290604052805190602001209050919050565b600061341383614194565b61341f5750600061060b565b60008481526004602052604090205460ff161561343e5750600061060b565b60008481526005602052604090205460ff161561345d5750600161060b565b6020808401518351848301516040808701518151600081529586018083528a905260ff90931690850152606084015260808301526001600160a01b03169060019060a0016020604051602081039080840390855afa1580156134c3573d6000803e3d6000fd5b505050602060405103516001600160a01b031614156134e45750600161060b565b5060009392505050565b6000806134fa83614414565b90506000816001600160401b0381111561352457634e487b7160e01b600052604160045260246000fd5b6040519080825280601f01601f19166020018201604052801561354e576020820181803683370190505b508451909150602082019061356490829061444c565b905061357481866020015161444c565b905061358481866040015161444c565b6060868101518252608080880151602084015260a0880151604084015260c08801519183019190915260e0870151910191506135c190829061444c565b90506135f18186610100015160018111156135ec57634e487b7160e01b600052602160045260246000fd5b614466565b905061361c8186610120015160018111156135ec57634e487b7160e01b600052602160045260246000fd5b90506136478186610140015160018111156135ec57634e487b7160e01b600052602160045260246000fd5b90506136588186610160015161444c565b90506136838186610180015160018111156135ec57634e487b7160e01b600052602160045260246000fd5b905061369481866101a00151613335565b90506136a581866101c00151613335565b90506136b681866101e0015161444c565b90506136c781866102000151613335565b90506136d88186610220015161444c565b610240860151815261026086015160208083019190915261028087015160408301526102a087015160608301526102c0909601516080909101525090920191909120919050565b81602001516001600160a01b0316336001600160a01b03161461374157600080fd5b600061374c836133ac565b60008181526005602052604090205490915060ff161561376b57600080fd5b60016005600083815260200190815260200160002060006101000a81548160ff0219169083151502179055508260e001516001600160a01b031683602001516001600160a01b0316827f90c7f9f5b58c15f0f635bfb99f55d3d78fdbef3559e7d8abf5c81052a527662286600001518760400151886060015189608001518a60a001518b60c001518c61010001518d61012001518e61014001518f61016001516040516138219a99989796959493929190615bb8565b60405180910390a4807fe55393c778364e440d958b39ac1debd99dcfae3775a8a04d1e79124adf6a2d08846101800151856101a00151866101c00151876101e001518861020001518961022001518a61024001518b61026001518c61028001518d6102a001518e6102c001518e6040516138a69c9b9a99989796959493929190615c67565b60405180910390a2505050565b600054600160a81b900460ff16156138dd5760405162461bcd60e51b815260040161064290615d03565b6000805460ff60a81b1916600160a81b1790557f62e78cea01bee320cd4e420270b5ea74000d11b0c9f74754ebdbfc544b05a2586139183390565b6040516001600160a01b03909116815260200160405180910390a1565b60006139418383614473565b905082602001516001600160a01b0316336001600160a01b0316146139995760405162461bcd60e51b815260206004820152600e60248201526d135052d157d393d517d59053125160921b6044820152606401610642565b600081815260046020526040808220805460ff191660011790555182917f5152abf959f6564662358c2e52b702259b78bac5ee7842a0f01937e670efcc7d91a2505050565b60005460ff1615613a275760405162461bcd60e51b81526020600482015260136024820152721499595b9d1c985b98de4819195d1958dd1959606a1b6044820152606401610642565b6000805460ff1916600117815560208601516001600160a01b0316331415613a9b57613a5286614194565b613a965760405162461bcd60e51b8152602060048201526015602482015274213abc9037b93232b91034b99034b73b30b634b21760591b6044820152606401610642565b613aa8565b613aa58686614473565b90505b60208401516000906001600160a01b0316331415613b1357613ac985614194565b613b0e5760405162461bcd60e51b815260206004820152601660248201527529b2b6361037b93232b91034b99034b73b30b634b21760511b6044820152606401610642565b613b20565b613b1d8585614473565b90505b613b2a87866144c9565b613b765760405162461bcd60e51b815260206004820152601860248201527f4f7264657273206973206e6f74206d6174636861626c652e00000000000000006044820152606401610642565b610160850151803b9081613bbf5760405162461bcd60e51b815260206004820152601060248201526f15185c99d95d081b9bdd08195e1a5cdd60821b6044820152606401610642565b6101c08901515115613be557613be5896101a00151886101a001518b6101c0015161471b565b6101c08701515115613c0b57613c0b876101a001518a6101a00151896101c0015161471b565b613c1f896101a00151886101a0015161498f565b613c605760405162461bcd60e51b8152602060048201526012602482015271086c2d8d85ac8c2e8c240dad2e6dac2e8c6d60731b6044820152606401610642565b600254602088015160405163c455279160e01b81526001600160a01b039182166004820152600092919091169063c45527919060240160206040518083038186803b158015613cae57600080fd5b505afa158015613cc2573d6000803e3d6000fd5b505050506040513d601f19601f82011682018060405250810190613ce69190615524565b90506001600160a01b038116613d305760405162461bcd60e51b815260206004820152600f60248201526e141c9bde1e481b9bdd08195e1a5cdd608a1b6044820152606401610642565b600260009054906101000a90046001600160a01b03166001600160a01b03166397204d8e6040518163ffffffff1660e01b815260040160206040518083038186803b158015613d7e57600080fd5b505afa158015613d92573d6000803e3d6000fd5b505050506040513d601f19601f82011682018060405250810190613db69190615524565b6001600160a01b0316816001600160a01b0316635c60da1b6040518163ffffffff1660e01b815260040160206040518083038186803b158015613df857600080fd5b505afa158015613e0c573d6000803e3d6000fd5b505050506040513d601f19601f82011682018060405250810190613e309190615524565b6001600160a01b031614613e865760405162461bcd60e51b815260206004820152601860248201527f50726f7879206973206e6f7420696d706c656d656e74656400000000000000006044820152606401610642565b60208a015181906001600160a01b03163314613eb6576000868152600460205260409020805460ff191660011790555b88602001516001600160a01b0316336001600160a01b031614613eed576000858152600460205260409020805460ff191660011790555b6000613ef98c8b6149f3565b9050816001600160a01b0316631b0f7ba98b61016001518c61018001518d6101a001516040518463ffffffff1660e01b8152600401613f3a93929190615c36565b602060405180830381600087803b158015613f5457600080fd5b505af1158015613f68573d6000803e3d6000fd5b505050506040513d601f19601f82011682018060405250810190613f8c9190615b39565b613fd85760405162461bcd60e51b815260206004820152601960248201527f43616e6e6f742063616c6c207468726f7567682070726f7879000000000000006044820152606401610642565b6101e08c01516001600160a01b03161561405e576140068c6101e001518b6101a001518e610200015161057a565b61405e5760405162461bcd60e51b815260206004820152602360248201527f43616e6e6f742065786563757465206275792d73696465207374617469632063604482015262185b1b60ea1b6064820152608401610642565b6101e08a01516001600160a01b0316156140e45761408c8a6101e001518b6101a001518c610200015161057a565b6140e45760405162461bcd60e51b8152602060048201526024808201527f43616e6e6f7420657865637574652073656c6c2d73696465207374617469632060448201526318d85b1b60e21b6064820152608401610642565b60e08a015188906001600160a01b0316614102578a60200151614108565b8c602001515b60e08c01516001600160a01b039182169116614128578d6020015161412e565b8b602001515b604080518b8152602081018b90529081018590526001600160a01b0391909116907fc4109843e0b7d514e4c093114b863f8e7d8d9a458c372cd51bfe526b588006c99060600160405180910390a450506000805460ff1916905550505050505050505050565b80516000906001600160a01b031630146141b057506000919050565b6141c4826101400151836102a0015161502c565b6141d057506000919050565b600182610100015160018111156141f757634e487b7160e01b600052602160045260246000fd5b14801561421857506006548260a00151108061421857506007548260c00151105b1561422557506000919050565b506001919050565b60008061425c836101200151846101400151856102400151866102600151876102800151886102a00151614342565b9050600061428c8561012001518661014001518761024001518861026001518961028001518a6102a00151614342565b90508181101561429b57600080fd5b60e08401516001600160a01b03166142b357806142b5565b815b95945050505050565b600054600160a81b900460ff1661430e5760405162461bcd60e51b815260206004820152601460248201527314185d5cd8589b194e881b9bdd081c185d5cd95960621b6044820152606401610642565b6000805460ff60a81b191690557f5db9ee0a495bf2e6ff9c91a7834c1ba4fdd244a5e8aa4e537bd38aeae4b073aa33613918565b60008086600181111561436557634e487b7160e01b600052602160045260246000fd5b141561437257508361440a565b600186600181111561439457634e487b7160e01b600052602160045260246000fd5b141561440a5760006143a68484615db9565b6143b08542615db9565b6143ba9087615d9a565b6143c49190615d7a565b905060018860018111156143e857634e487b7160e01b600052602160045260246000fd5b1415614400576143f88187615db9565b91505061440a565b6143f88187615d62565b9695505050505050565b600081610200015151826101c0015151836101a00151516101b06144389190615d62565b6144429190615d62565b6133a69190615d62565b60601b6bffffffffffffffffffffffff1916815260140190565b6000818353505060010190565b60008061447f846133ac565b905061448c818585613408565b61060b5760405162461bcd60e51b815260206004820152600e60248201526d121054d217d393d517d59053125160921b6044820152606401610642565b60008083610120015160018111156144f157634e487b7160e01b600052602160045260246000fd5b14801561452257506001826101200151600181111561452057634e487b7160e01b600052602160045260246000fd5b145b80156145755750816101000151600181111561454e57634e487b7160e01b600052602160045260246000fd5b836101000151600181111561457357634e487b7160e01b600052602160045260246000fd5b145b801561459c57508161022001516001600160a01b03168361022001516001600160a01b0316145b80156145d6575060408201516001600160a01b031615806145d6575082602001516001600160a01b031682604001516001600160a01b0316145b8015614610575060408301516001600160a01b03161580614610575081602001516001600160a01b031683604001516001600160a01b0316145b801561466b575060e08201516001600160a01b031615801561463e575060e08301516001600160a01b031615155b8061466b575060e08201516001600160a01b03161580159061466b575060e08301516001600160a01b0316155b801561469257508161016001516001600160a01b03168361016001516001600160a01b0316145b80156146e5575081610180015160018111156146be57634e487b7160e01b600052602160045260246000fd5b83610180015160018111156146e357634e487b7160e01b600052602160045260246000fd5b145b80156147005750614700836102800151846102a0015161505e565b801561060b575061060b826102800151836102a0015161505e565b815183511461476c5760405162461bcd60e51b815260206004820152601d60248201527f417272617973206861766520646966666572656e74206c656e677468730000006044820152606401610642565b80518351146147cb5760405162461bcd60e51b815260206004820152602560248201527f417272617920616e64206d61736b206861766520646966666572656e74206c656044820152646e6774687360d81b6064820152608401610642565b6000602084516147db9190615d7a565b905060006147ea826020615d9a565b9050816147f8602083615d7a565b1461481357634e487b7160e01b600052600160045260246000fd5b60005b828110156148505780600101602002808501518187015181168289015182191617828901525050808061484890615dd0565b915050614816565b821561487d5782905080600101602002808501518187015181168289015182191617828901525050614987565b50805b8551811015614987578481815181106148a957634e487b7160e01b600052603260045260246000fd5b602001015160f81c60f81b8482815181106148d457634e487b7160e01b600052603260045260246000fd5b602001015160f81c60f81b1686828151811061490057634e487b7160e01b600052603260045260246000fd5b602001015160f81c60f81b85838151811061492b57634e487b7160e01b600052603260045260246000fd5b602001015160f81c60f81b60ff60f81b18161786828151811061495e57634e487b7160e01b600052603260045260246000fd5b60200101906001600160f81b031916908160001a9053508061497f81615dd0565b915050614880565b505050505050565b8151815160009160019181148083146149ab57600092506149e9565b600160208701838101602088015b6002848385100114156149e45780518351146149d85760009650600093505b602092830192016149b9565b505050505b5090949350505050565b6102208101516000906001600160a01b031615614a15573415614a1557600080fd5b6000614a21848461422d565b9050600081118015614a4057506102208301516001600160a01b031615155b15614a5e57614a5e836102200151856020015185602001518461507a565b60e0830151819081906001600160a01b031615614dab57856080015185608001511115614a8a57600080fd5b60018561010001516001811115614ab157634e487b7160e01b600052602160045260246000fd5b1415614d7d578560c001518560c001511115614acc57600080fd5b606085015115614b73576000612710848760600151614aeb9190615d9a565b614af59190615d7a565b6102208701519091506001600160a01b0316614b5857614b158184615db9565b60e08701516040519194506001600160a01b03169082156108fc029083906000818181858888f19350505050158015614b52573d6000803e3d6000fd5b50614b71565b614b7186610220015187602001518860e001518461507a565b505b608085015115614c1a576000612710848760800151614b929190615d9a565b614b9c9190615d7a565b6102208701519091506001600160a01b0316614bff57614bbc8183615d62565b60e08701516040519193506001600160a01b03169082156108fc029083906000818181858888f19350505050158015614bf9573d6000803e3d6000fd5b50614c18565b614c1886610220015188602001518860e001518461507a565b505b60a085015115614cc9576000612710848760a00151614c399190615d9a565b614c439190615d7a565b6102208701519091506001600160a01b0316614ca457614c638184615db9565b6008546040519194506001600160a01b03169082156108fc029083906000818181858888f19350505050158015614c9e573d6000803e3d6000fd5b50614cc7565b6102208601516020870151600854614cc79291906001600160a01b03168461507a565b505b60c085015115614d78576000612710848760c00151614ce89190615d9a565b614cf29190615d7a565b6102208701519091506001600160a01b0316614d5357614d128183615d62565b6008546040519193506001600160a01b03169082156108fc029083906000818181858888f19350505050158015614d4d573d6000803e3d6000fd5b50614d76565b6102208601516020880151600854614d769291906001600160a01b03168461507a565b505b614f70565b614d9485602001518660e001518760600151615125565b614d7886602001518660e001518760800151615125565b846080015186608001511115614dc057600080fd5b60018561010001516001811115614de757634e487b7160e01b600052602160045260246000fd5b1415614f42576102208501516001600160a01b0316614e0557600080fd5b8460c001518660c001511115614e1a57600080fd5b606086015115614e60576000612710848860600151614e399190615d9a565b614e439190615d7a565b9050614e5e86610220015188602001518960e001518461507a565b505b608086015115614ea6576000612710848860800151614e7f9190615d9a565b614e899190615d7a565b9050614ea486610220015187602001518960e001518461507a565b505b60a086015115614ef5576000612710848860a00151614ec59190615d9a565b614ecf9190615d7a565b6102208701516020890151600854929350614ef3926001600160a01b03168461507a565b505b60c086015115614d78576000612710848860c00151614f149190615d9a565b614f1e9190615d7a565b6102208701516020880151600854929350614d76926001600160a01b03168461507a565b614f5986602001518760e001518860600151615125565b614f7085602001518760e001518860800151615125565b6102208501516001600160a01b03166149e95780341015614f9057600080fd5b84602001516001600160a01b03166108fc839081150290604051600060405180830381858888f19350505050158015614fcd573d6000803e3d6000fd5b506000614fda8234615db9565b905080156150215786602001516001600160a01b03166108fc829081150290604051600060405180830381858888f1935050505015801561501f573d6000803e3d6000fd5b505b505090949350505050565b60008083600181111561504f57634e487b7160e01b600052602160045260246000fd5b148061060b5750501515919050565b6000428310801561060b575081158061060b5750504210919050565b801561511f57600354604051630aed65f560e11b81526001600160a01b0386811660048301528581166024830152848116604483015260648201849052909116906315dacbea90608401602060405180830381600087803b1580156150de57600080fd5b505af11580156150f2573d6000803e3d6000fd5b505050506040513d601f19601f820116820180604052508101906151169190615b39565b61511f57600080fd5b50505050565b60015461513d906001600160a01b031684848461507a565b505050565b600082601f830112615152578081fd5b6040516101c08082018281106001600160401b038211171561517657615176615e01565b6040528184828101871015615189578485fd5b8492505b600e8310156151b65780356151a181615e38565b8252600192909201916020918201910161518d565b509195945050505050565b600082601f8301126151d1578081fd5b60405160e081018181106001600160401b03821117156151f3576151f3615e01565b604052808360e08101861015615207578384fd5b835b60078110156151b657813561521d81615e38565b83526020928301929190910190600101615209565b600082601f830112615242578081fd5b60405160a081018181106001600160401b038211171561526457615264615e01565b604052808360a08101861015615278578384fd5b835b60058110156151b657813583526020928301929091019060010161527a565b600082601f8301126152a9578081fd5b6040516102408082018281106001600160401b03821117156152cd576152cd615e01565b60405281848281018710156152e0578485fd5b8492505b60128310156151b6578035825260019290920191602091820191016152e4565b600082601f830112615314578081fd5b6040516101208082018281106001600160401b038211171561533857615338615e01565b604052818482810187101561534b578485fd5b8492505b60098310156151b65780358252600192909201916020918201910161534f565b600082601f83011261537f578081fd5b604051604081018181106001600160401b03821117156153a1576153a1615e01565b80604052508083856040860111156153b7578384fd5b835b60028110156151b6576153cb826154f7565b835260209283019291909101906001016153b9565b600082601f8301126153f0578081fd5b6040516101008082018281106001600160401b038211171561541457615414615e01565b6040528184828101871015615427578485fd5b8492505b60088310156151b65761543d816154f7565b8252600192909201916020918201910161542b565b803561545d81615e4d565b919050565b600082601f830112615472578081fd5b81356001600160401b038082111561548c5761548c615e01565b604051601f8301601f19908116603f011681019082821181831017156154b4576154b4615e01565b816040528381528660208588010111156154cc578485fd5b8360208701602083013792830160200193909352509392505050565b80356002811061545d57600080fd5b803560ff8116811461545d57600080fd5b600060208284031215615519578081fd5b813561060b81615e38565b600060208284031215615535578081fd5b815161060b81615e38565b600080600060608486031215615554578182fd5b833561555f81615e38565b925060208401356001600160401b038082111561557a578384fd5b61558687838801615462565b9350604086013591508082111561559b578283fd5b506155a886828701615462565b9150509250925092565b60008060008060008060008060006105c08a8c0312156155d0578687fd5b6155da8b8b615142565b98506155ea8b6101c08c01615299565b97506155fa8b6104008c016153e0565b96506105008a01356001600160401b0380821115615616578687fd5b6156228d838e01615462565b97506105208c0135915080821115615638578687fd5b6156448d838e01615462565b96506105408c013591508082111561565a578586fd5b6156668d838e01615462565b95506105608c013591508082111561567c578485fd5b6156888d838e01615462565b94506105808c013591508082111561569e578384fd5b6156aa8d838e01615462565b93506105a08c01359150808211156156c0578283fd5b506156cd8c828d01615462565b9150509295985092959850929598565b60008060008060008060008060008060006106a08c8e0312156156fe578485fd5b6157088d8d615142565b9a506157188d6101c08e01615299565b99506157288d6104008e016153e0565b98506001600160401b03806105008e01351115615743578586fd5b6157548e6105008f01358f01615462565b9850806105208e01351115615767578586fd5b6157788e6105208f01358f01615462565b9750806105408e0135111561578b578586fd5b61579c8e6105408f01358f01615462565b9650806105608e013511156157af578586fd5b6157c08e6105608f01358f01615462565b9550806105808e013511156157d3578283fd5b6157e48e6105808f01358f01615462565b9450806105a08e013511156157f7578283fd5b506158098d6105a08e01358e01615462565b92506158198d6105c08e0161536f565b91506158298d6106008e01615232565b90509295989b509295989b9093969950565b60008060008060008060008060006102e08a8c031215615859578283fd5b6158638b8b6151c1565b98506158728b60e08c01615304565b97506158816102008b016154e8565b96506158906102208b016154e8565b955061589f6102408b016154e8565b94506158ae6102608b016154e8565b93506102808a01356001600160401b03808211156158ca578485fd5b6158d68d838e01615462565b94506102a08c01359150808211156158ec578384fd5b6158f88d838e01615462565b93506102c08c01359150808211156156c0578283fd5b6000806000806000806000806000806103008b8d03121561592d578384fd5b6159378c8c6151c1565b99506159468c60e08d01615304565b98506159556102008c016154e8565b97506159646102208c016154e8565b96506159736102408c016154e8565b95506159826102608c016154e8565b94506102808b01356001600160401b038082111561599e578586fd5b6159aa8e838f01615462565b95506102a08d01359150808211156159c0578485fd5b6159cc8e838f01615462565b94506102c08d01359150808211156159e2578384fd5b506159ef8d828e01615462565b9250506159ff6102e08c01615452565b90509295989b9194979a5092959850565b6000806000806000806000806000806000806103408d8f031215615a32578586fd5b615a3c8e8e6151c1565b9b50615a4b8e60e08f01615304565b9a50615a5a6102008e016154e8565b9950615a696102208e016154e8565b9850615a786102408e016154e8565b9750615a876102608e016154e8565b96506001600160401b036102808e01351115615aa1578586fd5b615ab28e6102808f01358f01615462565b95506001600160401b036102a08e01351115615acc578081fd5b615add8e6102a08f01358f01615462565b94506001600160401b036102c08e01351115615af7578081fd5b615b088e6102c08f01358f01615462565b9350615b176102e08e016154f7565b92506103008d013591506103208d013590509295989b509295989b509295989b565b600060208284031215615b4a578081fd5b815161060b81615e4d565b600060208284031215615b66578081fd5b5035919050565b60008151808452815b81811015615b9257602081850181015186830182015201615b76565b81811115615ba35782602083870101525b50601f01601f19169290920160200192915050565b6001600160a01b038b811682528a81166020830152604082018a9052606082018990526080820188905260a08201879052610140820190615bf887615e17565b8660c0840152615c0786615e17565b8560e0840152615c1685615e17565b84610100840152808416610120840152509b9a5050505050505050505050565b6001600160a01b0384168152615c4b83615e17565b8260208201526060604082015260006142b56060830184615b6d565b6000610180615c758f615e17565b8e8352806020840152615c8a8184018f615b6d565b90508281036040840152615c9e818e615b6d565b6001600160a01b038d811660608601528482036080860152909150615cc3828d615b6d565b9a1660a0840152505060c081019690965260e086019490945261010085019290925261012084015261014083015215156101609091015295945050505050565b60208082526010908201526f14185d5cd8589b194e881c185d5cd95960821b604082015260600190565b6020808252818101527f4f776e61626c653a2063616c6c6572206973206e6f7420746865206f776e6572604082015260600190565b60008219821115615d7557615d75615deb565b500190565b600082615d9557634e487b7160e01b81526012600452602481fd5b500490565b6000816000190483118215151615615db457615db4615deb565b500290565b600082821015615dcb57615dcb615deb565b500390565b6000600019821415615de457615de4615deb565b5060010190565b634e487b7160e01b600052601160045260246000fd5b634e487b7160e01b600052604160045260246000fd5b60028110615e3557634e487b7160e01b600052602160045260246000fd5b50565b6001600160a01b0381168114615e3557600080fd5b8015158114615e3557600080fdfea2646970667358221220969ab738f209d80f17f3375a6ef6287d4ecc17be303e6f7bf3d95dfb9a4fb22164736f6c63430008040033",
			"opcodes": "PUSH1 0x80 PUSH1 0x40 MSTORE PUSH1 0x0 DUP1 SLOAD PUSH1 0xFF NOT AND DUP2 SSTORE PUSH1 0x6 DUP2 SWAP1 SSTORE PUSH1 0x7 SSTORE CALLVALUE DUP1 ISZERO PUSH2 0x22 JUMPI PUSH1 0x0 DUP1 REVERT JUMPDEST POP PUSH1 0x0 DUP1 SLOAD PUSH2 0x100 PUSH1 0x1 PUSH1 0xA8 SHL SUB NOT AND CALLER PUSH2 0x100 DUP2 MUL SWAP2 SWAP1 SWAP2 OR DUP3 SSTORE PUSH1 0x40 MLOAD SWAP1 SWAP2 DUP3 SWAP2 PUSH32 0x8BE0079C531659141344CD1FD0A4F28419497F9722A3DAAFE3B4186F6B6457E0 SWAP1 DUP3 SWAP1 LOG3 POP PUSH1 0x0 DUP1 SLOAD PUSH1 0xFF PUSH1 0xA8 SHL NOT AND SWAP1 SSTORE PUSH2 0x5E91 DUP1 PUSH3 0x88 PUSH1 0x0 CODECOPY PUSH1 0x0 RETURN INVALID PUSH1 0x80 PUSH1 0x40 MSTORE PUSH1 0x4 CALLDATASIZE LT PUSH2 0x1C2 JUMPI PUSH1 0x0 CALLDATALOAD PUSH1 0xE0 SHR DUP1 PUSH4 0x7B103999 GT PUSH2 0xF7 JUMPI DUP1 PUSH4 0xA8A41C70 GT PUSH2 0x95 JUMPI DUP1 PUSH4 0xD537E131 GT PUSH2 0x64 JUMPI DUP1 PUSH4 0xD537E131 EQ PUSH2 0x4F5 JUMPI DUP1 PUSH4 0xE57D4ADB EQ PUSH2 0x515 JUMPI DUP1 PUSH4 0xF2FDE38B EQ PUSH2 0x545 JUMPI DUP1 PUSH4 0xF7B188A5 EQ PUSH2 0x565 JUMPI PUSH1 0x0 DUP1 REVERT JUMPDEST DUP1 PUSH4 0xA8A41C70 EQ PUSH2 0x48C JUMPI DUP1 PUSH4 0xAB834BAB EQ PUSH2 0x4AC JUMPI DUP1 PUSH4 0xCA595B9A EQ PUSH2 0x4BF JUMPI DUP1 PUSH4 0xCAE6047F EQ PUSH2 0x4DF JUMPI PUSH1 0x0 DUP1 REVERT JUMPDEST DUP1 PUSH4 0x8076F005 GT PUSH2 0xD1 JUMPI DUP1 PUSH4 0x8076F005 EQ PUSH2 0x404 JUMPI DUP1 PUSH4 0x8456CB59 EQ PUSH2 0x434 JUMPI DUP1 PUSH4 0x8DA5CB5B EQ PUSH2 0x449 JUMPI DUP1 PUSH4 0xA25EB5D9 EQ PUSH2 0x46C JUMPI PUSH1 0x0 DUP1 REVERT JUMPDEST DUP1 PUSH4 0x7B103999 EQ PUSH2 0x3AE JUMPI DUP1 PUSH4 0x7CCEFC52 EQ PUSH2 0x3CE JUMPI DUP1 PUSH4 0x7D766981 EQ PUSH2 0x3E4 JUMPI PUSH1 0x0 DUP1 REVERT JUMPDEST DUP1 PUSH4 0x5C975ABB GT PUSH2 0x164 JUMPI DUP1 PUSH4 0x64DF049E GT PUSH2 0x13E JUMPI DUP1 PUSH4 0x64DF049E EQ PUSH2 0x339 JUMPI DUP1 PUSH4 0x715018A6 EQ PUSH2 0x359 JUMPI DUP1 PUSH4 0x71D02B38 EQ PUSH2 0x36E JUMPI DUP1 PUSH4 0x79666868 EQ PUSH2 0x38E JUMPI PUSH1 0x0 DUP1 REVERT JUMPDEST DUP1 PUSH4 0x5C975ABB EQ PUSH2 0x2DA JUMPI DUP1 PUSH4 0x5EF527E4 EQ PUSH2 0x2F9 JUMPI DUP1 PUSH4 0x60BEF33A EQ PUSH2 0x319 JUMPI PUSH1 0x0 DUP1 REVERT JUMPDEST DUP1 PUSH4 0x1A6B13E2 GT PUSH2 0x1A0 JUMPI DUP1 PUSH4 0x1A6B13E2 EQ PUSH2 0x256 JUMPI DUP1 PUSH4 0x28A8EE68 EQ PUSH2 0x276 JUMPI DUP1 PUSH4 0x3F67EE0D EQ PUSH2 0x29A JUMPI DUP1 PUSH4 0x514F0330 EQ PUSH2 0x2BA JUMPI PUSH1 0x0 DUP1 REVERT JUMPDEST DUP1 PUSH4 0xEEFDBAD EQ PUSH2 0x1C7 JUMPI DUP1 PUSH4 0x10796A47 EQ PUSH2 0x204 JUMPI DUP1 PUSH4 0x14350C24 EQ PUSH2 0x234 JUMPI JUMPDEST PUSH1 0x0 DUP1 REVERT JUMPDEST CALLVALUE DUP1 ISZERO PUSH2 0x1D3 JUMPI PUSH1 0x0 DUP1 REVERT JUMPDEST POP PUSH1 0x3 SLOAD PUSH2 0x1E7 SWAP1 PUSH1 0x1 PUSH1 0x1 PUSH1 0xA0 SHL SUB AND DUP2 JUMP JUMPDEST PUSH1 0x40 MLOAD PUSH1 0x1 PUSH1 0x1 PUSH1 0xA0 SHL SUB SWAP1 SWAP2 AND DUP2 MSTORE PUSH1 0x20 ADD JUMPDEST PUSH1 0x40 MLOAD DUP1 SWAP2 SUB SWAP1 RETURN JUMPDEST CALLVALUE DUP1 ISZERO PUSH2 0x210 JUMPI PUSH1 0x0 DUP1 REVERT JUMPDEST POP PUSH2 0x224 PUSH2 0x21F CALLDATASIZE PUSH1 0x4 PUSH2 0x5540 JUMP JUMPDEST PUSH2 0x57A JUMP JUMPDEST PUSH1 0x40 MLOAD SWAP1 ISZERO ISZERO DUP2 MSTORE PUSH1 0x20 ADD PUSH2 0x1FB JUMP JUMPDEST CALLVALUE DUP1 ISZERO PUSH2 0x240 JUMPI PUSH1 0x0 DUP1 REVERT JUMPDEST POP PUSH2 0x254 PUSH2 0x24F CALLDATASIZE PUSH1 0x4 PUSH2 0x5B55 JUMP JUMPDEST PUSH2 0x612 JUMP JUMPDEST STOP JUMPDEST CALLVALUE DUP1 ISZERO PUSH2 0x262 JUMPI PUSH1 0x0 DUP1 REVERT JUMPDEST POP PUSH2 0x254 PUSH2 0x271 CALLDATASIZE PUSH1 0x4 PUSH2 0x5B55 JUMP JUMPDEST PUSH2 0x67A JUMP JUMPDEST CALLVALUE DUP1 ISZERO PUSH2 0x282 JUMPI PUSH1 0x0 DUP1 REVERT JUMPDEST POP PUSH2 0x28C PUSH1 0x7 SLOAD DUP2 JUMP JUMPDEST PUSH1 0x40 MLOAD SWAP1 DUP2 MSTORE PUSH1 0x20 ADD PUSH2 0x1FB JUMP JUMPDEST CALLVALUE DUP1 ISZERO PUSH2 0x2A6 JUMPI PUSH1 0x0 DUP1 REVERT JUMPDEST POP PUSH2 0x28C PUSH2 0x2B5 CALLDATASIZE PUSH1 0x4 PUSH2 0x583B JUMP JUMPDEST PUSH2 0x6D9 JUMP JUMPDEST CALLVALUE DUP1 ISZERO PUSH2 0x2C6 JUMPI PUSH1 0x0 DUP1 REVERT JUMPDEST POP PUSH2 0x254 PUSH2 0x2D5 CALLDATASIZE PUSH1 0x4 PUSH2 0x5508 JUMP JUMPDEST PUSH2 0xA31 JUMP JUMPDEST CALLVALUE DUP1 ISZERO PUSH2 0x2E6 JUMPI PUSH1 0x0 DUP1 REVERT JUMPDEST POP PUSH1 0x0 SLOAD PUSH1 0x1 PUSH1 0xA8 SHL SWAP1 DIV PUSH1 0xFF AND PUSH2 0x224 JUMP JUMPDEST CALLVALUE DUP1 ISZERO PUSH2 0x305 JUMPI PUSH1 0x0 DUP1 REVERT JUMPDEST POP PUSH2 0x254 PUSH2 0x314 CALLDATASIZE PUSH1 0x4 PUSH2 0x5508 JUMP JUMPDEST PUSH2 0xAAD JUMP JUMPDEST CALLVALUE DUP1 ISZERO PUSH2 0x325 JUMPI PUSH1 0x0 DUP1 REVERT JUMPDEST POP PUSH2 0x224 PUSH2 0x334 CALLDATASIZE PUSH1 0x4 PUSH2 0x5A10 JUMP JUMPDEST PUSH2 0xB68 JUMP JUMPDEST CALLVALUE DUP1 ISZERO PUSH2 0x345 JUMPI PUSH1 0x0 DUP1 REVERT JUMPDEST POP PUSH1 0x8 SLOAD PUSH2 0x1E7 SWAP1 PUSH1 0x1 PUSH1 0x1 PUSH1 0xA0 SHL SUB AND DUP2 JUMP JUMPDEST CALLVALUE DUP1 ISZERO PUSH2 0x365 JUMPI PUSH1 0x0 DUP1 REVERT JUMPDEST POP PUSH2 0x254 PUSH2 0xF13 JUMP JUMPDEST CALLVALUE DUP1 ISZERO PUSH2 0x37A JUMPI PUSH1 0x0 DUP1 REVERT JUMPDEST POP PUSH2 0x28C PUSH2 0x389 CALLDATASIZE PUSH1 0x4 PUSH2 0x583B JUMP JUMPDEST PUSH2 0xF92 JUMP JUMPDEST CALLVALUE DUP1 ISZERO PUSH2 0x39A JUMPI PUSH1 0x0 DUP1 REVERT JUMPDEST POP PUSH2 0x254 PUSH2 0x3A9 CALLDATASIZE PUSH1 0x4 PUSH2 0x590E JUMP JUMPDEST PUSH2 0x12DC JUMP JUMPDEST CALLVALUE DUP1 ISZERO PUSH2 0x3BA JUMPI PUSH1 0x0 DUP1 REVERT JUMPDEST POP PUSH1 0x2 SLOAD PUSH2 0x1E7 SWAP1 PUSH1 0x1 PUSH1 0x1 PUSH1 0xA0 SHL SUB AND DUP2 JUMP JUMPDEST CALLVALUE DUP1 ISZERO PUSH2 0x3DA JUMPI PUSH1 0x0 DUP1 REVERT JUMPDEST POP PUSH2 0x28C PUSH1 0x6 SLOAD DUP2 JUMP JUMPDEST CALLVALUE DUP1 ISZERO PUSH2 0x3F0 JUMPI PUSH1 0x0 DUP1 REVERT JUMPDEST POP PUSH2 0x28C PUSH2 0x3FF CALLDATASIZE PUSH1 0x4 PUSH2 0x583B JUMP JUMPDEST PUSH2 0x1661 JUMP JUMPDEST CALLVALUE DUP1 ISZERO PUSH2 0x410 JUMPI PUSH1 0x0 DUP1 REVERT JUMPDEST POP PUSH2 0x224 PUSH2 0x41F CALLDATASIZE PUSH1 0x4 PUSH2 0x5B55 JUMP JUMPDEST PUSH1 0x4 PUSH1 0x20 MSTORE PUSH1 0x0 SWAP1 DUP2 MSTORE PUSH1 0x40 SWAP1 KECCAK256 SLOAD PUSH1 0xFF AND DUP2 JUMP JUMPDEST CALLVALUE DUP1 ISZERO PUSH2 0x440 JUMPI PUSH1 0x0 DUP1 REVERT JUMPDEST POP PUSH2 0x254 PUSH2 0x19AB JUMP JUMPDEST CALLVALUE DUP1 ISZERO PUSH2 0x455 JUMPI PUSH1 0x0 DUP1 REVERT JUMPDEST POP PUSH1 0x0 SLOAD PUSH2 0x100 SWAP1 DIV PUSH1 0x1 PUSH1 0x1 PUSH1 0xA0 SHL SUB AND PUSH2 0x1E7 JUMP JUMPDEST CALLVALUE DUP1 ISZERO PUSH2 0x478 JUMPI PUSH1 0x0 DUP1 REVERT JUMPDEST POP PUSH1 0x1 SLOAD PUSH2 0x1E7 SWAP1 PUSH1 0x1 PUSH1 0x1 PUSH1 0xA0 SHL SUB AND DUP2 JUMP JUMPDEST CALLVALUE DUP1 ISZERO PUSH2 0x498 JUMPI PUSH1 0x0 DUP1 REVERT JUMPDEST POP PUSH2 0x254 PUSH2 0x4A7 CALLDATASIZE PUSH1 0x4 PUSH2 0x5A10 JUMP JUMPDEST PUSH2 0x19E5 JUMP JUMPDEST PUSH2 0x254 PUSH2 0x4BA CALLDATASIZE PUSH1 0x4 PUSH2 0x56DD JUMP JUMPDEST PUSH2 0x1DA5 JUMP JUMPDEST CALLVALUE DUP1 ISZERO PUSH2 0x4CB JUMPI PUSH1 0x0 DUP1 REVERT JUMPDEST POP PUSH2 0x224 PUSH2 0x4DA CALLDATASIZE PUSH1 0x4 PUSH2 0x583B JUMP JUMPDEST PUSH2 0x26A0 JUMP JUMPDEST CALLVALUE DUP1 ISZERO PUSH2 0x4EB JUMPI PUSH1 0x0 DUP1 REVERT JUMPDEST POP PUSH2 0x28C PUSH2 0x2710 DUP2 JUMP JUMPDEST CALLVALUE DUP1 ISZERO PUSH2 0x501 JUMPI PUSH1 0x0 DUP1 REVERT JUMPDEST POP PUSH2 0x28C PUSH2 0x510 CALLDATASIZE PUSH1 0x4 PUSH2 0x55B2 JUMP JUMPDEST PUSH2 0x29FD JUMP JUMPDEST CALLVALUE DUP1 ISZERO PUSH2 0x521 JUMPI PUSH1 0x0 DUP1 REVERT JUMPDEST POP PUSH2 0x224 PUSH2 0x530 CALLDATASIZE PUSH1 0x4 PUSH2 0x5B55 JUMP JUMPDEST PUSH1 0x5 PUSH1 0x20 MSTORE PUSH1 0x0 SWAP1 DUP2 MSTORE PUSH1 0x40 SWAP1 KECCAK256 SLOAD PUSH1 0xFF AND DUP2 JUMP JUMPDEST CALLVALUE DUP1 ISZERO PUSH2 0x551 JUMPI PUSH1 0x0 DUP1 REVERT JUMPDEST POP PUSH2 0x254 PUSH2 0x560 CALLDATASIZE PUSH1 0x4 PUSH2 0x5508 JUMP JUMPDEST PUSH2 0x3202 JUMP JUMPDEST CALLVALUE DUP1 ISZERO PUSH2 0x571 JUMPI PUSH1 0x0 DUP1 REVERT JUMPDEST POP PUSH2 0x254 PUSH2 0x32FD JUMP JUMPDEST PUSH1 0x0 DUP1 DUP3 MLOAD DUP5 MLOAD PUSH2 0x58B SWAP2 SWAP1 PUSH2 0x5D62 JUMP JUMPDEST PUSH1 0x1 PUSH1 0x1 PUSH1 0x40 SHL SUB DUP2 GT ISZERO PUSH2 0x5B0 JUMPI PUSH4 0x4E487B71 PUSH1 0xE0 SHL PUSH1 0x0 MSTORE PUSH1 0x41 PUSH1 0x4 MSTORE PUSH1 0x24 PUSH1 0x0 REVERT JUMPDEST PUSH1 0x40 MLOAD SWAP1 DUP1 DUP3 MSTORE DUP1 PUSH1 0x1F ADD PUSH1 0x1F NOT AND PUSH1 0x20 ADD DUP3 ADD PUSH1 0x40 MSTORE DUP1 ISZERO PUSH2 0x5DA JUMPI PUSH1 0x20 DUP3 ADD DUP2 DUP1 CALLDATASIZE DUP4 CALLDATACOPY ADD SWAP1 POP JUMPDEST POP SWAP1 POP PUSH1 0x20 DUP2 ADD PUSH2 0x5EB DUP2 DUP6 PUSH2 0x3335 JUMP JUMPDEST SWAP1 POP PUSH2 0x5F7 DUP2 DUP7 PUSH2 0x3335 JUMP JUMPDEST POP PUSH1 0x0 PUSH1 0x40 MLOAD DUP4 MLOAD PUSH1 0x20 DUP6 ADD DUP10 GAS STATICCALL SWAP3 POP POP POP JUMPDEST SWAP4 SWAP3 POP POP POP JUMP JUMPDEST PUSH1 0x0 SLOAD PUSH1 0x1 PUSH1 0x1 PUSH1 0xA0 SHL SUB PUSH2 0x100 SWAP1 SWAP2 DIV AND CALLER EQ PUSH2 0x64B JUMPI PUSH1 0x40 MLOAD PUSH3 0x461BCD PUSH1 0xE5 SHL DUP2 MSTORE PUSH1 0x4 ADD PUSH2 0x642 SWAP1 PUSH2 0x5D2D JUMP JUMPDEST PUSH1 0x40 MLOAD DUP1 SWAP2 SUB SWAP1 REVERT JUMPDEST PUSH1 0x0 SLOAD PUSH1 0x1 PUSH1 0xA8 SHL SWAP1 DIV PUSH1 0xFF AND ISZERO PUSH2 0x675 JUMPI PUSH1 0x40 MLOAD PUSH3 0x461BCD PUSH1 0xE5 SHL DUP2 MSTORE PUSH1 0x4 ADD PUSH2 0x642 SWAP1 PUSH2 0x5D03 JUMP JUMPDEST PUSH1 0x6 SSTORE JUMP JUMPDEST PUSH1 0x0 SLOAD PUSH1 0x1 PUSH1 0x1 PUSH1 0xA0 SHL SUB PUSH2 0x100 SWAP1 SWAP2 DIV AND CALLER EQ PUSH2 0x6AA JUMPI PUSH1 0x40 MLOAD PUSH3 0x461BCD PUSH1 0xE5 SHL DUP2 MSTORE PUSH1 0x4 ADD PUSH2 0x642 SWAP1 PUSH2 0x5D2D JUMP JUMPDEST PUSH1 0x0 SLOAD PUSH1 0x1 PUSH1 0xA8 SHL SWAP1 DIV PUSH1 0xFF AND ISZERO PUSH2 0x6D4 JUMPI PUSH1 0x40 MLOAD PUSH3 0x461BCD PUSH1 0xE5 SHL DUP2 MSTORE PUSH1 0x4 ADD PUSH2 0x642 SWAP1 PUSH2 0x5D03 JUMP JUMPDEST PUSH1 0x7 SSTORE JUMP JUMPDEST PUSH1 0x0 PUSH2 0xA23 PUSH1 0x40 MLOAD DUP1 PUSH2 0x2E0 ADD PUSH1 0x40 MSTORE DUP1 DUP13 PUSH1 0x0 PUSH1 0x7 DUP2 LT PUSH2 0x70B JUMPI PUSH4 0x4E487B71 PUSH1 0xE0 SHL PUSH1 0x0 MSTORE PUSH1 0x32 PUSH1 0x4 MSTORE PUSH1 0x24 PUSH1 0x0 REVERT JUMPDEST PUSH1 0x20 MUL ADD MLOAD PUSH1 0x1 PUSH1 0x1 PUSH1 0xA0 SHL SUB AND DUP2 MSTORE PUSH1 0x20 ADD DUP13 PUSH1 0x1 PUSH1 0x7 DUP2 LT PUSH2 0x73F JUMPI PUSH4 0x4E487B71 PUSH1 0xE0 SHL PUSH1 0x0 MSTORE PUSH1 0x32 PUSH1 0x4 MSTORE PUSH1 0x24 PUSH1 0x0 REVERT JUMPDEST PUSH1 0x20 MUL ADD MLOAD PUSH1 0x1 PUSH1 0x1 PUSH1 0xA0 SHL SUB AND DUP2 MSTORE PUSH1 0x20 ADD DUP13 PUSH1 0x2 PUSH1 0x7 DUP2 LT PUSH2 0x773 JUMPI PUSH4 0x4E487B71 PUSH1 0xE0 SHL PUSH1 0x0 MSTORE PUSH1 0x32 PUSH1 0x4 MSTORE PUSH1 0x24 PUSH1 0x0 REVERT JUMPDEST PUSH1 0x20 MUL ADD MLOAD PUSH1 0x1 PUSH1 0x1 PUSH1 0xA0 SHL SUB AND DUP2 MSTORE PUSH1 0x20 ADD DUP12 PUSH1 0x0 PUSH1 0x9 DUP2 LT PUSH2 0x7A7 JUMPI PUSH4 0x4E487B71 PUSH1 0xE0 SHL PUSH1 0x0 MSTORE PUSH1 0x32 PUSH1 0x4 MSTORE PUSH1 0x24 PUSH1 0x0 REVERT JUMPDEST PUSH1 0x20 MUL ADD MLOAD DUP2 MSTORE PUSH1 0x20 ADD DUP12 PUSH1 0x1 PUSH1 0x9 DUP2 LT PUSH2 0x7D2 JUMPI PUSH4 0x4E487B71 PUSH1 0xE0 SHL PUSH1 0x0 MSTORE PUSH1 0x32 PUSH1 0x4 MSTORE PUSH1 0x24 PUSH1 0x0 REVERT JUMPDEST PUSH1 0x20 MUL ADD MLOAD DUP2 MSTORE PUSH1 0x20 ADD DUP12 PUSH1 0x2 PUSH1 0x9 DUP2 LT PUSH2 0x7FD JUMPI PUSH4 0x4E487B71 PUSH1 0xE0 SHL PUSH1 0x0 MSTORE PUSH1 0x32 PUSH1 0x4 MSTORE PUSH1 0x24 PUSH1 0x0 REVERT JUMPDEST PUSH1 0x20 MUL ADD MLOAD DUP2 MSTORE PUSH1 0x20 ADD DUP12 PUSH1 0x3 PUSH1 0x9 DUP2 LT PUSH2 0x828 JUMPI PUSH4 0x4E487B71 PUSH1 0xE0 SHL PUSH1 0x0 MSTORE PUSH1 0x32 PUSH1 0x4 MSTORE PUSH1 0x24 PUSH1 0x0 REVERT JUMPDEST PUSH1 0x20 MUL ADD MLOAD DUP2 MSTORE PUSH1 0x20 ADD DUP13 PUSH1 0x3 PUSH1 0x7 DUP2 LT PUSH2 0x853 JUMPI PUSH4 0x4E487B71 PUSH1 0xE0 SHL PUSH1 0x0 MSTORE PUSH1 0x32 PUSH1 0x4 MSTORE PUSH1 0x24 PUSH1 0x0 REVERT JUMPDEST PUSH1 0x20 MUL ADD MLOAD PUSH1 0x1 PUSH1 0x1 PUSH1 0xA0 SHL SUB AND DUP2 MSTORE PUSH1 0x20 ADD DUP11 PUSH1 0x1 DUP2 GT ISZERO PUSH2 0x886 JUMPI PUSH4 0x4E487B71 PUSH1 0xE0 SHL PUSH1 0x0 MSTORE PUSH1 0x21 PUSH1 0x4 MSTORE PUSH1 0x24 PUSH1 0x0 REVERT JUMPDEST DUP2 MSTORE PUSH1 0x20 ADD DUP10 PUSH1 0x1 DUP2 GT ISZERO PUSH2 0x8AB JUMPI PUSH4 0x4E487B71 PUSH1 0xE0 SHL PUSH1 0x0 MSTORE PUSH1 0x21 PUSH1 0x4 MSTORE PUSH1 0x24 PUSH1 0x0 REVERT JUMPDEST DUP2 MSTORE PUSH1 0x20 ADD DUP9 PUSH1 0x1 DUP2 GT ISZERO PUSH2 0x8D0 JUMPI PUSH4 0x4E487B71 PUSH1 0xE0 SHL PUSH1 0x0 MSTORE PUSH1 0x21 PUSH1 0x4 MSTORE PUSH1 0x24 PUSH1 0x0 REVERT JUMPDEST DUP2 MSTORE PUSH1 0x80 DUP14 ADD MLOAD PUSH1 0x1 PUSH1 0x1 PUSH1 0xA0 SHL SUB AND PUSH1 0x20 DUP3 ADD MSTORE PUSH1 0x40 ADD DUP8 PUSH1 0x1 DUP2 GT ISZERO PUSH2 0x908 JUMPI PUSH4 0x4E487B71 PUSH1 0xE0 SHL PUSH1 0x0 MSTORE PUSH1 0x21 PUSH1 0x4 MSTORE PUSH1 0x24 PUSH1 0x0 REVERT JUMPDEST DUP2 MSTORE PUSH1 0x20 DUP2 ADD DUP8 SWAP1 MSTORE PUSH1 0x40 DUP2 ADD DUP7 SWAP1 MSTORE PUSH1 0xA0 DUP1 DUP15 ADD MLOAD PUSH1 0x1 PUSH1 0x1 PUSH1 0xA0 SHL SUB AND PUSH1 0x60 DUP4 ADD MSTORE PUSH1 0x80 DUP3 ADD DUP7 SWAP1 MSTORE ADD DUP13 PUSH1 0x6 PUSH1 0x20 MUL ADD MLOAD PUSH1 0x1 PUSH1 0x1 PUSH1 0xA0 SHL SUB AND DUP2 MSTORE PUSH1 0x20 ADD DUP12 PUSH1 0x4 PUSH1 0x9 DUP2 LT PUSH2 0x96B JUMPI PUSH4 0x4E487B71 PUSH1 0xE0 SHL PUSH1 0x0 MSTORE PUSH1 0x32 PUSH1 0x4 MSTORE PUSH1 0x24 PUSH1 0x0 REVERT JUMPDEST PUSH1 0x20 MUL ADD MLOAD DUP2 MSTORE PUSH1 0x20 ADD DUP12 PUSH1 0x5 PUSH1 0x9 DUP2 LT PUSH2 0x996 JUMPI PUSH4 0x4E487B71 PUSH1 0xE0 SHL PUSH1 0x0 MSTORE PUSH1 0x32 PUSH1 0x4 MSTORE PUSH1 0x24 PUSH1 0x0 REVERT JUMPDEST PUSH1 0x20 MUL ADD MLOAD DUP2 MSTORE PUSH1 0x20 ADD DUP12 PUSH1 0x6 PUSH1 0x9 DUP2 LT PUSH2 0x9C1 JUMPI PUSH4 0x4E487B71 PUSH1 0xE0 SHL PUSH1 0x0 MSTORE PUSH1 0x32 PUSH1 0x4 MSTORE PUSH1 0x24 PUSH1 0x0 REVERT JUMPDEST PUSH1 0x20 MUL ADD MLOAD DUP2 MSTORE PUSH1 0x20 ADD DUP12 PUSH1 0x7 PUSH1 0x9 DUP2 LT PUSH2 0x9EC JUMPI PUSH4 0x4E487B71 PUSH1 0xE0 SHL PUSH1 0x0 MSTORE PUSH1 0x32 PUSH1 0x4 MSTORE PUSH1 0x24 PUSH1 0x0 REVERT JUMPDEST PUSH1 0x20 MUL ADD MLOAD DUP2 MSTORE PUSH1 0x20 ADD DUP12 PUSH1 0x8 PUSH1 0x9 DUP2 LT PUSH2 0xA17 JUMPI PUSH4 0x4E487B71 PUSH1 0xE0 SHL PUSH1 0x0 MSTORE PUSH1 0x32 PUSH1 0x4 MSTORE PUSH1 0x24 PUSH1 0x0 REVERT JUMPDEST PUSH1 0x20 MUL ADD MLOAD SWAP1 MSTORE PUSH2 0x3378 JUMP JUMPDEST SWAP11 SWAP10 POP POP POP POP POP POP POP POP POP POP JUMP JUMPDEST PUSH1 0x0 SLOAD PUSH1 0x1 PUSH1 0x1 PUSH1 0xA0 SHL SUB PUSH2 0x100 SWAP1 SWAP2 DIV AND CALLER EQ PUSH2 0xA61 JUMPI PUSH1 0x40 MLOAD PUSH3 0x461BCD PUSH1 0xE5 SHL DUP2 MSTORE PUSH1 0x4 ADD PUSH2 0x642 SWAP1 PUSH2 0x5D2D JUMP JUMPDEST PUSH1 0x0 SLOAD PUSH1 0x1 PUSH1 0xA8 SHL SWAP1 DIV PUSH1 0xFF AND ISZERO PUSH2 0xA8B JUMPI PUSH1 0x40 MLOAD PUSH3 0x461BCD PUSH1 0xE5 SHL DUP2 MSTORE PUSH1 0x4 ADD PUSH2 0x642 SWAP1 PUSH2 0x5D03 JUMP JUMPDEST PUSH1 0x8 DUP1 SLOAD PUSH1 0x1 PUSH1 0x1 PUSH1 0xA0 SHL SUB NOT AND PUSH1 0x1 PUSH1 0x1 PUSH1 0xA0 SHL SUB SWAP3 SWAP1 SWAP3 AND SWAP2 SWAP1 SWAP2 OR SWAP1 SSTORE JUMP JUMPDEST PUSH1 0x0 SLOAD PUSH1 0x1 PUSH1 0x1 PUSH1 0xA0 SHL SUB PUSH2 0x100 SWAP1 SWAP2 DIV AND CALLER EQ PUSH2 0xADD JUMPI PUSH1 0x40 MLOAD PUSH3 0x461BCD PUSH1 0xE5 SHL DUP2 MSTORE PUSH1 0x4 ADD PUSH2 0x642 SWAP1 PUSH2 0x5D2D JUMP JUMPDEST PUSH1 0x0 SLOAD PUSH1 0x1 PUSH1 0xA8 SHL SWAP1 DIV PUSH1 0xFF AND ISZERO PUSH2 0xB07 JUMPI PUSH1 0x40 MLOAD PUSH3 0x461BCD PUSH1 0xE5 SHL DUP2 MSTORE PUSH1 0x4 ADD PUSH2 0x642 SWAP1 PUSH2 0x5D03 JUMP JUMPDEST PUSH1 0x1 DUP1 SLOAD PUSH1 0x1 PUSH1 0x1 PUSH1 0xA0 SHL SUB DUP4 DUP2 AND PUSH1 0x1 PUSH1 0x1 PUSH1 0xA0 SHL SUB NOT DUP4 AND DUP2 OR SWAP1 SWAP4 SSTORE PUSH1 0x40 DUP1 MLOAD SWAP2 SWAP1 SWAP3 AND DUP1 DUP3 MSTORE PUSH1 0x20 DUP3 ADD SWAP4 SWAP1 SWAP4 MSTORE PUSH32 0x114CFA1C61A2B039DE4A4DD89821F0664D2A5DC26F70A270C615A9D14FD40632 SWAP2 ADD PUSH1 0x40 MLOAD DUP1 SWAP2 SUB SWAP1 LOG1 POP POP JUMP JUMPDEST PUSH1 0x0 DUP1 PUSH1 0x40 MLOAD DUP1 PUSH2 0x2E0 ADD PUSH1 0x40 MSTORE DUP1 DUP16 PUSH1 0x0 PUSH1 0x7 DUP2 LT PUSH2 0xB98 JUMPI PUSH4 0x4E487B71 PUSH1 0xE0 SHL PUSH1 0x0 MSTORE PUSH1 0x32 PUSH1 0x4 MSTORE PUSH1 0x24 PUSH1 0x0 REVERT JUMPDEST PUSH1 0x20 MUL ADD MLOAD PUSH1 0x1 PUSH1 0x1 PUSH1 0xA0 SHL SUB AND DUP2 MSTORE PUSH1 0x20 ADD DUP16 PUSH1 0x1 PUSH1 0x7 DUP2 LT PUSH2 0xBCC JUMPI PUSH4 0x4E487B71 PUSH1 0xE0 SHL PUSH1 0x0 MSTORE PUSH1 0x32 PUSH1 0x4 MSTORE PUSH1 0x24 PUSH1 0x0 REVERT JUMPDEST PUSH1 0x20 MUL ADD MLOAD PUSH1 0x1 PUSH1 0x1 PUSH1 0xA0 SHL SUB AND DUP2 MSTORE PUSH1 0x20 ADD DUP16 PUSH1 0x2 PUSH1 0x7 DUP2 LT PUSH2 0xC00 JUMPI PUSH4 0x4E487B71 PUSH1 0xE0 SHL PUSH1 0x0 MSTORE PUSH1 0x32 PUSH1 0x4 MSTORE PUSH1 0x24 PUSH1 0x0 REVERT JUMPDEST PUSH1 0x20 MUL ADD MLOAD PUSH1 0x1 PUSH1 0x1 PUSH1 0xA0 SHL SUB AND DUP2 MSTORE PUSH1 0x20 ADD DUP15 PUSH1 0x0 PUSH1 0x9 DUP2 LT PUSH2 0xC34 JUMPI PUSH4 0x4E487B71 PUSH1 0xE0 SHL PUSH1 0x0 MSTORE PUSH1 0x32 PUSH1 0x4 MSTORE PUSH1 0x24 PUSH1 0x0 REVERT JUMPDEST PUSH1 0x20 MUL ADD MLOAD DUP2 MSTORE PUSH1 0x20 ADD DUP15 PUSH1 0x1 PUSH1 0x9 DUP2 LT PUSH2 0xC5F JUMPI PUSH4 0x4E487B71 PUSH1 0xE0 SHL PUSH1 0x0 MSTORE PUSH1 0x32 PUSH1 0x4 MSTORE PUSH1 0x24 PUSH1 0x0 REVERT JUMPDEST PUSH1 0x20 MUL ADD MLOAD DUP2 MSTORE PUSH1 0x20 ADD DUP15 PUSH1 0x2 PUSH1 0x9 DUP2 LT PUSH2 0xC8A JUMPI PUSH4 0x4E487B71 PUSH1 0xE0 SHL PUSH1 0x0 MSTORE PUSH1 0x32 PUSH1 0x4 MSTORE PUSH1 0x24 PUSH1 0x0 REVERT JUMPDEST PUSH1 0x20 MUL ADD MLOAD DUP2 MSTORE PUSH1 0x20 ADD DUP15 PUSH1 0x3 PUSH1 0x9 DUP2 LT PUSH2 0xCB5 JUMPI PUSH4 0x4E487B71 PUSH1 0xE0 SHL PUSH1 0x0 MSTORE PUSH1 0x32 PUSH1 0x4 MSTORE PUSH1 0x24 PUSH1 0x0 REVERT JUMPDEST PUSH1 0x20 MUL ADD MLOAD DUP2 MSTORE PUSH1 0x20 ADD DUP16 PUSH1 0x3 PUSH1 0x7 DUP2 LT PUSH2 0xCE0 JUMPI PUSH4 0x4E487B71 PUSH1 0xE0 SHL PUSH1 0x0 MSTORE PUSH1 0x32 PUSH1 0x4 MSTORE PUSH1 0x24 PUSH1 0x0 REVERT JUMPDEST PUSH1 0x20 MUL ADD MLOAD PUSH1 0x1 PUSH1 0x1 PUSH1 0xA0 SHL SUB AND DUP2 MSTORE PUSH1 0x20 ADD DUP14 PUSH1 0x1 DUP2 GT ISZERO PUSH2 0xD13 JUMPI PUSH4 0x4E487B71 PUSH1 0xE0 SHL PUSH1 0x0 MSTORE PUSH1 0x21 PUSH1 0x4 MSTORE PUSH1 0x24 PUSH1 0x0 REVERT JUMPDEST DUP2 MSTORE PUSH1 0x20 ADD DUP13 PUSH1 0x1 DUP2 GT ISZERO PUSH2 0xD38 JUMPI PUSH4 0x4E487B71 PUSH1 0xE0 SHL PUSH1 0x0 MSTORE PUSH1 0x21 PUSH1 0x4 MSTORE PUSH1 0x24 PUSH1 0x0 REVERT JUMPDEST DUP2 MSTORE PUSH1 0x20 ADD DUP12 PUSH1 0x1 DUP2 GT ISZERO PUSH2 0xD5D JUMPI PUSH4 0x4E487B71 PUSH1 0xE0 SHL PUSH1 0x0 MSTORE PUSH1 0x21 PUSH1 0x4 MSTORE PUSH1 0x24 PUSH1 0x0 REVERT JUMPDEST DUP2 MSTORE PUSH1 0x20 ADD DUP16 PUSH1 0x4 PUSH1 0x20 MUL ADD MLOAD PUSH1 0x1 PUSH1 0x1 PUSH1 0xA0 SHL SUB AND DUP2 MSTORE PUSH1 0x20 ADD DUP11 PUSH1 0x1 DUP2 GT ISZERO PUSH2 0xD98 JUMPI PUSH4 0x4E487B71 PUSH1 0xE0 SHL PUSH1 0x0 MSTORE PUSH1 0x21 PUSH1 0x4 MSTORE PUSH1 0x24 PUSH1 0x0 REVERT JUMPDEST DUP2 MSTORE PUSH1 0x20 DUP2 ADD DUP11 SWAP1 MSTORE PUSH1 0x40 DUP2 ADD DUP10 SWAP1 MSTORE PUSH1 0x60 ADD DUP16 PUSH1 0x5 PUSH1 0x20 MUL ADD MLOAD PUSH1 0x1 PUSH1 0x1 PUSH1 0xA0 SHL SUB AND DUP2 MSTORE PUSH1 0x20 ADD DUP8 DUP2 MSTORE PUSH1 0x20 ADD DUP16 PUSH1 0x6 PUSH1 0x7 DUP2 LT PUSH2 0xDE8 JUMPI PUSH4 0x4E487B71 PUSH1 0xE0 SHL PUSH1 0x0 MSTORE PUSH1 0x32 PUSH1 0x4 MSTORE PUSH1 0x24 PUSH1 0x0 REVERT JUMPDEST PUSH1 0x20 MUL ADD MLOAD PUSH1 0x1 PUSH1 0x1 PUSH1 0xA0 SHL SUB AND DUP2 MSTORE PUSH1 0x20 ADD DUP15 PUSH1 0x4 PUSH1 0x9 DUP2 LT PUSH2 0xE1C JUMPI PUSH4 0x4E487B71 PUSH1 0xE0 SHL PUSH1 0x0 MSTORE PUSH1 0x32 PUSH1 0x4 MSTORE PUSH1 0x24 PUSH1 0x0 REVERT JUMPDEST PUSH1 0x20 MUL ADD MLOAD DUP2 MSTORE PUSH1 0x20 ADD DUP15 PUSH1 0x5 PUSH1 0x9 DUP2 LT PUSH2 0xE47 JUMPI PUSH4 0x4E487B71 PUSH1 0xE0 SHL PUSH1 0x0 MSTORE PUSH1 0x32 PUSH1 0x4 MSTORE PUSH1 0x24 PUSH1 0x0 REVERT JUMPDEST PUSH1 0x20 MUL ADD MLOAD DUP2 MSTORE PUSH1 0x20 ADD DUP15 PUSH1 0x6 PUSH1 0x9 DUP2 LT PUSH2 0xE72 JUMPI PUSH4 0x4E487B71 PUSH1 0xE0 SHL PUSH1 0x0 MSTORE PUSH1 0x32 PUSH1 0x4 MSTORE PUSH1 0x24 PUSH1 0x0 REVERT JUMPDEST PUSH1 0x20 MUL ADD MLOAD DUP2 MSTORE PUSH1 0x20 ADD DUP15 PUSH1 0x7 PUSH1 0x9 DUP2 LT PUSH2 0xE9D JUMPI PUSH4 0x4E487B71 PUSH1 0xE0 SHL PUSH1 0x0 MSTORE PUSH1 0x32 PUSH1 0x4 MSTORE PUSH1 0x24 PUSH1 0x0 REVERT JUMPDEST PUSH1 0x20 MUL ADD MLOAD DUP2 MSTORE PUSH1 0x20 ADD DUP15 PUSH1 0x8 PUSH1 0x9 DUP2 LT PUSH2 0xEC8 JUMPI PUSH4 0x4E487B71 PUSH1 0xE0 SHL PUSH1 0x0 MSTORE PUSH1 0x32 PUSH1 0x4 MSTORE PUSH1 0x24 PUSH1 0x0 REVERT JUMPDEST PUSH1 0x20 MUL ADD MLOAD SWAP1 MSTORE SWAP1 POP PUSH2 0xF01 PUSH2 0xEDD DUP3 PUSH2 0x33AC JUMP JUMPDEST DUP3 PUSH1 0x40 MLOAD DUP1 PUSH1 0x60 ADD PUSH1 0x40 MSTORE DUP1 DUP10 PUSH1 0xFF AND DUP2 MSTORE PUSH1 0x20 ADD DUP9 DUP2 MSTORE PUSH1 0x20 ADD DUP8 DUP2 MSTORE POP PUSH2 0x3408 JUMP JUMPDEST SWAP15 SWAP14 POP POP POP POP POP POP POP POP POP POP POP POP POP POP JUMP JUMPDEST PUSH1 0x0 SLOAD PUSH1 0x1 PUSH1 0x1 PUSH1 0xA0 SHL SUB PUSH2 0x100 SWAP1 SWAP2 DIV AND CALLER EQ PUSH2 0xF43 JUMPI PUSH1 0x40 MLOAD PUSH3 0x461BCD PUSH1 0xE5 SHL DUP2 MSTORE PUSH1 0x4 ADD PUSH2 0x642 SWAP1 PUSH2 0x5D2D JUMP JUMPDEST PUSH1 0x0 DUP1 SLOAD PUSH1 0x40 MLOAD PUSH2 0x100 SWAP1 SWAP2 DIV PUSH1 0x1 PUSH1 0x1 PUSH1 0xA0 SHL SUB AND SWAP1 PUSH32 0x8BE0079C531659141344CD1FD0A4F28419497F9722A3DAAFE3B4186F6B6457E0 SWAP1 DUP4 SWAP1 LOG3 PUSH1 0x0 DUP1 SLOAD PUSH2 0x100 PUSH1 0x1 PUSH1 0xA8 SHL SUB NOT AND SWAP1 SSTORE JUMP JUMPDEST PUSH1 0x0 PUSH2 0xA23 PUSH1 0x40 MLOAD DUP1 PUSH2 0x2E0 ADD PUSH1 0x40 MSTORE DUP1 DUP13 PUSH1 0x0 PUSH1 0x7 DUP2 LT PUSH2 0xFC4 JUMPI PUSH4 0x4E487B71 PUSH1 0xE0 SHL PUSH1 0x0 MSTORE PUSH1 0x32 PUSH1 0x4 MSTORE PUSH1 0x24 PUSH1 0x0 REVERT JUMPDEST PUSH1 0x20 MUL ADD MLOAD PUSH1 0x1 PUSH1 0x1 PUSH1 0xA0 SHL SUB AND DUP2 MSTORE PUSH1 0x20 ADD DUP13 PUSH1 0x1 PUSH1 0x7 DUP2 LT PUSH2 0xFF8 JUMPI PUSH4 0x4E487B71 PUSH1 0xE0 SHL PUSH1 0x0 MSTORE PUSH1 0x32 PUSH1 0x4 MSTORE PUSH1 0x24 PUSH1 0x0 REVERT JUMPDEST PUSH1 0x20 MUL ADD MLOAD PUSH1 0x1 PUSH1 0x1 PUSH1 0xA0 SHL SUB AND DUP2 MSTORE PUSH1 0x20 ADD DUP13 PUSH1 0x2 PUSH1 0x7 DUP2 LT PUSH2 0x102C JUMPI PUSH4 0x4E487B71 PUSH1 0xE0 SHL PUSH1 0x0 MSTORE PUSH1 0x32 PUSH1 0x4 MSTORE PUSH1 0x24 PUSH1 0x0 REVERT JUMPDEST PUSH1 0x20 MUL ADD MLOAD PUSH1 0x1 PUSH1 0x1 PUSH1 0xA0 SHL SUB AND DUP2 MSTORE PUSH1 0x20 ADD DUP12 PUSH1 0x0 PUSH1 0x9 DUP2 LT PUSH2 0x1060 JUMPI PUSH4 0x4E487B71 PUSH1 0xE0 SHL PUSH1 0x0 MSTORE PUSH1 0x32 PUSH1 0x4 MSTORE PUSH1 0x24 PUSH1 0x0 REVERT JUMPDEST PUSH1 0x20 MUL ADD MLOAD DUP2 MSTORE PUSH1 0x20 ADD DUP12 PUSH1 0x1 PUSH1 0x9 DUP2 LT PUSH2 0x108B JUMPI PUSH4 0x4E487B71 PUSH1 0xE0 SHL PUSH1 0x0 MSTORE PUSH1 0x32 PUSH1 0x4 MSTORE PUSH1 0x24 PUSH1 0x0 REVERT JUMPDEST PUSH1 0x20 MUL ADD MLOAD DUP2 MSTORE PUSH1 0x20 ADD DUP12 PUSH1 0x2 PUSH1 0x9 DUP2 LT PUSH2 0x10B6 JUMPI PUSH4 0x4E487B71 PUSH1 0xE0 SHL PUSH1 0x0 MSTORE PUSH1 0x32 PUSH1 0x4 MSTORE PUSH1 0x24 PUSH1 0x0 REVERT JUMPDEST PUSH1 0x20 MUL ADD MLOAD DUP2 MSTORE PUSH1 0x20 ADD DUP12 PUSH1 0x3 PUSH1 0x9 DUP2 LT PUSH2 0x10E1 JUMPI PUSH4 0x4E487B71 PUSH1 0xE0 SHL PUSH1 0x0 MSTORE PUSH1 0x32 PUSH1 0x4 MSTORE PUSH1 0x24 PUSH1 0x0 REVERT JUMPDEST PUSH1 0x20 MUL ADD MLOAD DUP2 MSTORE PUSH1 0x20 ADD DUP13 PUSH1 0x3 PUSH1 0x7 DUP2 LT PUSH2 0x110C JUMPI PUSH4 0x4E487B71 PUSH1 0xE0 SHL PUSH1 0x0 MSTORE PUSH1 0x32 PUSH1 0x4 MSTORE PUSH1 0x24 PUSH1 0x0 REVERT JUMPDEST PUSH1 0x20 MUL ADD MLOAD PUSH1 0x1 PUSH1 0x1 PUSH1 0xA0 SHL SUB AND DUP2 MSTORE PUSH1 0x20 ADD DUP11 PUSH1 0x1 DUP2 GT ISZERO PUSH2 0x113F JUMPI PUSH4 0x4E487B71 PUSH1 0xE0 SHL PUSH1 0x0 MSTORE PUSH1 0x21 PUSH1 0x4 MSTORE PUSH1 0x24 PUSH1 0x0 REVERT JUMPDEST DUP2 MSTORE PUSH1 0x20 ADD DUP10 PUSH1 0x1 DUP2 GT ISZERO PUSH2 0x1164 JUMPI PUSH4 0x4E487B71 PUSH1 0xE0 SHL PUSH1 0x0 MSTORE PUSH1 0x21 PUSH1 0x4 MSTORE PUSH1 0x24 PUSH1 0x0 REVERT JUMPDEST DUP2 MSTORE PUSH1 0x20 ADD DUP9 PUSH1 0x1 DUP2 GT ISZERO PUSH2 0x1189 JUMPI PUSH4 0x4E487B71 PUSH1 0xE0 SHL PUSH1 0x0 MSTORE PUSH1 0x21 PUSH1 0x4 MSTORE PUSH1 0x24 PUSH1 0x0 REVERT JUMPDEST DUP2 MSTORE PUSH1 0x80 DUP14 ADD MLOAD PUSH1 0x1 PUSH1 0x1 PUSH1 0xA0 SHL SUB AND PUSH1 0x20 DUP3 ADD MSTORE PUSH1 0x40 ADD DUP8 PUSH1 0x1 DUP2 GT ISZERO PUSH2 0x11C1 JUMPI PUSH4 0x4E487B71 PUSH1 0xE0 SHL PUSH1 0x0 MSTORE PUSH1 0x21 PUSH1 0x4 MSTORE PUSH1 0x24 PUSH1 0x0 REVERT JUMPDEST DUP2 MSTORE PUSH1 0x20 DUP2 ADD DUP8 SWAP1 MSTORE PUSH1 0x40 DUP2 ADD DUP7 SWAP1 MSTORE PUSH1 0xA0 DUP1 DUP15 ADD MLOAD PUSH1 0x1 PUSH1 0x1 PUSH1 0xA0 SHL SUB AND PUSH1 0x60 DUP4 ADD MSTORE PUSH1 0x80 DUP3 ADD DUP7 SWAP1 MSTORE ADD DUP13 PUSH1 0x6 PUSH1 0x20 MUL ADD MLOAD PUSH1 0x1 PUSH1 0x1 PUSH1 0xA0 SHL SUB AND DUP2 MSTORE PUSH1 0x20 ADD DUP12 PUSH1 0x4 PUSH1 0x9 DUP2 LT PUSH2 0x1224 JUMPI PUSH4 0x4E487B71 PUSH1 0xE0 SHL PUSH1 0x0 MSTORE PUSH1 0x32 PUSH1 0x4 MSTORE PUSH1 0x24 PUSH1 0x0 REVERT JUMPDEST PUSH1 0x20 MUL ADD MLOAD DUP2 MSTORE PUSH1 0x20 ADD DUP12 PUSH1 0x5 PUSH1 0x9 DUP2 LT PUSH2 0x124F JUMPI PUSH4 0x4E487B71 PUSH1 0xE0 SHL PUSH1 0x0 MSTORE PUSH1 0x32 PUSH1 0x4 MSTORE PUSH1 0x24 PUSH1 0x0 REVERT JUMPDEST PUSH1 0x20 MUL ADD MLOAD DUP2 MSTORE PUSH1 0x20 ADD DUP12 PUSH1 0x6 PUSH1 0x9 DUP2 LT PUSH2 0x127A JUMPI PUSH4 0x4E487B71 PUSH1 0xE0 SHL PUSH1 0x0 MSTORE PUSH1 0x32 PUSH1 0x4 MSTORE PUSH1 0x24 PUSH1 0x0 REVERT JUMPDEST PUSH1 0x20 MUL ADD MLOAD DUP2 MSTORE PUSH1 0x20 ADD DUP12 PUSH1 0x7 PUSH1 0x9 DUP2 LT PUSH2 0x12A5 JUMPI PUSH4 0x4E487B71 PUSH1 0xE0 SHL PUSH1 0x0 MSTORE PUSH1 0x32 PUSH1 0x4 MSTORE PUSH1 0x24 PUSH1 0x0 REVERT JUMPDEST PUSH1 0x20 MUL ADD MLOAD DUP2 MSTORE PUSH1 0x20 ADD DUP12 PUSH1 0x8 PUSH1 0x9 DUP2 LT PUSH2 0x12D0 JUMPI PUSH4 0x4E487B71 PUSH1 0xE0 SHL PUSH1 0x0 MSTORE PUSH1 0x32 PUSH1 0x4 MSTORE PUSH1 0x24 PUSH1 0x0 REVERT JUMPDEST PUSH1 0x20 MUL ADD MLOAD SWAP1 MSTORE PUSH2 0x34EE JUMP JUMPDEST PUSH1 0x0 SLOAD PUSH1 0x1 PUSH1 0xA8 SHL SWAP1 DIV PUSH1 0xFF AND ISZERO PUSH2 0x1306 JUMPI PUSH1 0x40 MLOAD PUSH3 0x461BCD PUSH1 0xE5 SHL DUP2 MSTORE PUSH1 0x4 ADD PUSH2 0x642 SWAP1 PUSH2 0x5D03 JUMP JUMPDEST PUSH1 0x0 PUSH1 0x40 MLOAD DUP1 PUSH2 0x2E0 ADD PUSH1 0x40 MSTORE DUP1 DUP13 PUSH1 0x0 PUSH1 0x7 DUP2 LT PUSH2 0x1335 JUMPI PUSH4 0x4E487B71 PUSH1 0xE0 SHL PUSH1 0x0 MSTORE PUSH1 0x32 PUSH1 0x4 MSTORE PUSH1 0x24 PUSH1 0x0 REVERT JUMPDEST PUSH1 0x20 MUL ADD MLOAD PUSH1 0x1 PUSH1 0x1 PUSH1 0xA0 SHL SUB AND DUP2 MSTORE PUSH1 0x20 ADD DUP13 PUSH1 0x1 PUSH1 0x7 DUP2 LT PUSH2 0x1369 JUMPI PUSH4 0x4E487B71 PUSH1 0xE0 SHL PUSH1 0x0 MSTORE PUSH1 0x32 PUSH1 0x4 MSTORE PUSH1 0x24 PUSH1 0x0 REVERT JUMPDEST PUSH1 0x20 MUL ADD MLOAD PUSH1 0x1 PUSH1 0x1 PUSH1 0xA0 SHL SUB AND DUP2 MSTORE PUSH1 0x20 ADD DUP13 PUSH1 0x2 PUSH1 0x7 DUP2 LT PUSH2 0x139D JUMPI PUSH4 0x4E487B71 PUSH1 0xE0 SHL PUSH1 0x0 MSTORE PUSH1 0x32 PUSH1 0x4 MSTORE PUSH1 0x24 PUSH1 0x0 REVERT JUMPDEST PUSH1 0x20 MUL ADD MLOAD PUSH1 0x1 PUSH1 0x1 PUSH1 0xA0 SHL SUB AND DUP2 MSTORE PUSH1 0x20 ADD DUP12 PUSH1 0x0 PUSH1 0x9 DUP2 LT PUSH2 0x13D1 JUMPI PUSH4 0x4E487B71 PUSH1 0xE0 SHL PUSH1 0x0 MSTORE PUSH1 0x32 PUSH1 0x4 MSTORE PUSH1 0x24 PUSH1 0x0 REVERT JUMPDEST PUSH1 0x20 MUL ADD MLOAD DUP2 MSTORE PUSH1 0x20 ADD DUP12 PUSH1 0x1 PUSH1 0x9 DUP2 LT PUSH2 0x13FC JUMPI PUSH4 0x4E487B71 PUSH1 0xE0 SHL PUSH1 0x0 MSTORE PUSH1 0x32 PUSH1 0x4 MSTORE PUSH1 0x24 PUSH1 0x0 REVERT JUMPDEST PUSH1 0x20 MUL ADD MLOAD DUP2 MSTORE PUSH1 0x20 ADD DUP12 PUSH1 0x2 PUSH1 0x9 DUP2 LT PUSH2 0x1427 JUMPI PUSH4 0x4E487B71 PUSH1 0xE0 SHL PUSH1 0x0 MSTORE PUSH1 0x32 PUSH1 0x4 MSTORE PUSH1 0x24 PUSH1 0x0 REVERT JUMPDEST PUSH1 0x20 MUL ADD MLOAD DUP2 MSTORE PUSH1 0x20 ADD DUP12 PUSH1 0x3 PUSH1 0x9 DUP2 LT PUSH2 0x1452 JUMPI PUSH4 0x4E487B71 PUSH1 0xE0 SHL PUSH1 0x0 MSTORE PUSH1 0x32 PUSH1 0x4 MSTORE PUSH1 0x24 PUSH1 0x0 REVERT JUMPDEST PUSH1 0x20 MUL ADD MLOAD DUP2 MSTORE PUSH1 0x20 ADD DUP13 PUSH1 0x3 PUSH1 0x7 DUP2 LT PUSH2 0x147D JUMPI PUSH4 0x4E487B71 PUSH1 0xE0 SHL PUSH1 0x0 MSTORE PUSH1 0x32 PUSH1 0x4 MSTORE PUSH1 0x24 PUSH1 0x0 REVERT JUMPDEST PUSH1 0x20 MUL ADD MLOAD PUSH1 0x1 PUSH1 0x1 PUSH1 0xA0 SHL SUB AND DUP2 MSTORE PUSH1 0x20 ADD DUP11 PUSH1 0x1 DUP2 GT ISZERO PUSH2 0x14B0 JUMPI PUSH4 0x4E487B71 PUSH1 0xE0 SHL PUSH1 0x0 MSTORE PUSH1 0x21 PUSH1 0x4 MSTORE PUSH1 0x24 PUSH1 0x0 REVERT JUMPDEST DUP2 MSTORE PUSH1 0x20 ADD DUP10 PUSH1 0x1 DUP2 GT ISZERO PUSH2 0x14D5 JUMPI PUSH4 0x4E487B71 PUSH1 0xE0 SHL PUSH1 0x0 MSTORE PUSH1 0x21 PUSH1 0x4 MSTORE PUSH1 0x24 PUSH1 0x0 REVERT JUMPDEST DUP2 MSTORE PUSH1 0x20 ADD DUP9 PUSH1 0x1 DUP2 GT ISZERO PUSH2 0x14FA JUMPI PUSH4 0x4E487B71 PUSH1 0xE0 SHL PUSH1 0x0 MSTORE PUSH1 0x21 PUSH1 0x4 MSTORE PUSH1 0x24 PUSH1 0x0 REVERT JUMPDEST DUP2 MSTORE PUSH1 0x80 DUP14 ADD MLOAD PUSH1 0x1 PUSH1 0x1 PUSH1 0xA0 SHL SUB AND PUSH1 0x20 DUP3 ADD MSTORE PUSH1 0x40 ADD DUP8 PUSH1 0x1 DUP2 GT ISZERO PUSH2 0x1532 JUMPI PUSH4 0x4E487B71 PUSH1 0xE0 SHL PUSH1 0x0 MSTORE PUSH1 0x21 PUSH1 0x4 MSTORE PUSH1 0x24 PUSH1 0x0 REVERT JUMPDEST DUP2 MSTORE PUSH1 0x20 DUP2 ADD DUP8 SWAP1 MSTORE PUSH1 0x40 DUP2 ADD DUP7 SWAP1 MSTORE PUSH1 0xA0 DUP1 DUP15 ADD MLOAD PUSH1 0x1 PUSH1 0x1 PUSH1 0xA0 SHL SUB AND PUSH1 0x60 DUP4 ADD MSTORE PUSH1 0x80 DUP3 ADD DUP7 SWAP1 MSTORE ADD DUP13 PUSH1 0x6 PUSH1 0x20 MUL ADD MLOAD PUSH1 0x1 PUSH1 0x1 PUSH1 0xA0 SHL SUB AND DUP2 MSTORE PUSH1 0x20 ADD DUP12 PUSH1 0x4 PUSH1 0x9 DUP2 LT PUSH2 0x1595 JUMPI PUSH4 0x4E487B71 PUSH1 0xE0 SHL PUSH1 0x0 MSTORE PUSH1 0x32 PUSH1 0x4 MSTORE PUSH1 0x24 PUSH1 0x0 REVERT JUMPDEST PUSH1 0x20 MUL ADD MLOAD DUP2 MSTORE PUSH1 0x20 ADD DUP12 PUSH1 0x5 PUSH1 0x9 DUP2 LT PUSH2 0x15C0 JUMPI PUSH4 0x4E487B71 PUSH1 0xE0 SHL PUSH1 0x0 MSTORE PUSH1 0x32 PUSH1 0x4 MSTORE PUSH1 0x24 PUSH1 0x0 REVERT JUMPDEST PUSH1 0x20 MUL ADD MLOAD DUP2 MSTORE PUSH1 0x20 ADD DUP12 PUSH1 0x6 PUSH1 0x9 DUP2 LT PUSH2 0x15EB JUMPI PUSH4 0x4E487B71 PUSH1 0xE0 SHL PUSH1 0x0 MSTORE PUSH1 0x32 PUSH1 0x4 MSTORE PUSH1 0x24 PUSH1 0x0 REVERT JUMPDEST PUSH1 0x20 MUL ADD MLOAD DUP2 MSTORE PUSH1 0x20 ADD DUP12 PUSH1 0x7 PUSH1 0x9 DUP2 LT PUSH2 0x1616 JUMPI PUSH4 0x4E487B71 PUSH1 0xE0 SHL PUSH1 0x0 MSTORE PUSH1 0x32 PUSH1 0x4 MSTORE PUSH1 0x24 PUSH1 0x0 REVERT JUMPDEST PUSH1 0x20 MUL ADD MLOAD DUP2 MSTORE PUSH1 0x20 ADD DUP12 PUSH1 0x8 PUSH1 0x9 DUP2 LT PUSH2 0x1641 JUMPI PUSH4 0x4E487B71 PUSH1 0xE0 SHL PUSH1 0x0 MSTORE PUSH1 0x32 PUSH1 0x4 MSTORE PUSH1 0x24 PUSH1 0x0 REVERT JUMPDEST PUSH1 0x20 MUL ADD MLOAD SWAP1 MSTORE SWAP1 POP PUSH2 0x1654 DUP2 DUP4 PUSH2 0x371F JUMP JUMPDEST POP POP POP POP POP POP POP POP POP POP POP JUMP JUMPDEST PUSH1 0x0 PUSH2 0xA23 PUSH1 0x40 MLOAD DUP1 PUSH2 0x2E0 ADD PUSH1 0x40 MSTORE DUP1 DUP13 PUSH1 0x0 PUSH1 0x7 DUP2 LT PUSH2 0x1693 JUMPI PUSH4 0x4E487B71 PUSH1 0xE0 SHL PUSH1 0x0 MSTORE PUSH1 0x32 PUSH1 0x4 MSTORE PUSH1 0x24 PUSH1 0x0 REVERT JUMPDEST PUSH1 0x20 MUL ADD MLOAD PUSH1 0x1 PUSH1 0x1 PUSH1 0xA0 SHL SUB AND DUP2 MSTORE PUSH1 0x20 ADD DUP13 PUSH1 0x1 PUSH1 0x7 DUP2 LT PUSH2 0x16C7 JUMPI PUSH4 0x4E487B71 PUSH1 0xE0 SHL PUSH1 0x0 MSTORE PUSH1 0x32 PUSH1 0x4 MSTORE PUSH1 0x24 PUSH1 0x0 REVERT JUMPDEST PUSH1 0x20 MUL ADD MLOAD PUSH1 0x1 PUSH1 0x1 PUSH1 0xA0 SHL SUB AND DUP2 MSTORE PUSH1 0x20 ADD DUP13 PUSH1 0x2 PUSH1 0x7 DUP2 LT PUSH2 0x16FB JUMPI PUSH4 0x4E487B71 PUSH1 0xE0 SHL PUSH1 0x0 MSTORE PUSH1 0x32 PUSH1 0x4 MSTORE PUSH1 0x24 PUSH1 0x0 REVERT JUMPDEST PUSH1 0x20 MUL ADD MLOAD PUSH1 0x1 PUSH1 0x1 PUSH1 0xA0 SHL SUB AND DUP2 MSTORE PUSH1 0x20 ADD DUP12 PUSH1 0x0 PUSH1 0x9 DUP2 LT PUSH2 0x172F JUMPI PUSH4 0x4E487B71 PUSH1 0xE0 SHL PUSH1 0x0 MSTORE PUSH1 0x32 PUSH1 0x4 MSTORE PUSH1 0x24 PUSH1 0x0 REVERT JUMPDEST PUSH1 0x20 MUL ADD MLOAD DUP2 MSTORE PUSH1 0x20 ADD DUP12 PUSH1 0x1 PUSH1 0x9 DUP2 LT PUSH2 0x175A JUMPI PUSH4 0x4E487B71 PUSH1 0xE0 SHL PUSH1 0x0 MSTORE PUSH1 0x32 PUSH1 0x4 MSTORE PUSH1 0x24 PUSH1 0x0 REVERT JUMPDEST PUSH1 0x20 MUL ADD MLOAD DUP2 MSTORE PUSH1 0x20 ADD DUP12 PUSH1 0x2 PUSH1 0x9 DUP2 LT PUSH2 0x1785 JUMPI PUSH4 0x4E487B71 PUSH1 0xE0 SHL PUSH1 0x0 MSTORE PUSH1 0x32 PUSH1 0x4 MSTORE PUSH1 0x24 PUSH1 0x0 REVERT JUMPDEST PUSH1 0x20 MUL ADD MLOAD DUP2 MSTORE PUSH1 0x20 ADD DUP12 PUSH1 0x3 PUSH1 0x9 DUP2 LT PUSH2 0x17B0 JUMPI PUSH4 0x4E487B71 PUSH1 0xE0 SHL PUSH1 0x0 MSTORE PUSH1 0x32 PUSH1 0x4 MSTORE PUSH1 0x24 PUSH1 0x0 REVERT JUMPDEST PUSH1 0x20 MUL ADD MLOAD DUP2 MSTORE PUSH1 0x20 ADD DUP13 PUSH1 0x3 PUSH1 0x7 DUP2 LT PUSH2 0x17DB JUMPI PUSH4 0x4E487B71 PUSH1 0xE0 SHL PUSH1 0x0 MSTORE PUSH1 0x32 PUSH1 0x4 MSTORE PUSH1 0x24 PUSH1 0x0 REVERT JUMPDEST PUSH1 0x20 MUL ADD MLOAD PUSH1 0x1 PUSH1 0x1 PUSH1 0xA0 SHL SUB AND DUP2 MSTORE PUSH1 0x20 ADD DUP11 PUSH1 0x1 DUP2 GT ISZERO PUSH2 0x180E JUMPI PUSH4 0x4E487B71 PUSH1 0xE0 SHL PUSH1 0x0 MSTORE PUSH1 0x21 PUSH1 0x4 MSTORE PUSH1 0x24 PUSH1 0x0 REVERT JUMPDEST DUP2 MSTORE PUSH1 0x20 ADD DUP10 PUSH1 0x1 DUP2 GT ISZERO PUSH2 0x1833 JUMPI PUSH4 0x4E487B71 PUSH1 0xE0 SHL PUSH1 0x0 MSTORE PUSH1 0x21 PUSH1 0x4 MSTORE PUSH1 0x24 PUSH1 0x0 REVERT JUMPDEST DUP2 MSTORE PUSH1 0x20 ADD DUP9 PUSH1 0x1 DUP2 GT ISZERO PUSH2 0x1858 JUMPI PUSH4 0x4E487B71 PUSH1 0xE0 SHL PUSH1 0x0 MSTORE PUSH1 0x21 PUSH1 0x4 MSTORE PUSH1 0x24 PUSH1 0x0 REVERT JUMPDEST DUP2 MSTORE PUSH1 0x80 DUP14 ADD MLOAD PUSH1 0x1 PUSH1 0x1 PUSH1 0xA0 SHL SUB AND PUSH1 0x20 DUP3 ADD MSTORE PUSH1 0x40 ADD DUP8 PUSH1 0x1 DUP2 GT ISZERO PUSH2 0x1890 JUMPI PUSH4 0x4E487B71 PUSH1 0xE0 SHL PUSH1 0x0 MSTORE PUSH1 0x21 PUSH1 0x4 MSTORE PUSH1 0x24 PUSH1 0x0 REVERT JUMPDEST DUP2 MSTORE PUSH1 0x20 DUP2 ADD DUP8 SWAP1 MSTORE PUSH1 0x40 DUP2 ADD DUP7 SWAP1 MSTORE PUSH1 0xA0 DUP1 DUP15 ADD MLOAD PUSH1 0x1 PUSH1 0x1 PUSH1 0xA0 SHL SUB AND PUSH1 0x60 DUP4 ADD MSTORE PUSH1 0x80 DUP3 ADD DUP7 SWAP1 MSTORE ADD DUP13 PUSH1 0x6 PUSH1 0x20 MUL ADD MLOAD PUSH1 0x1 PUSH1 0x1 PUSH1 0xA0 SHL SUB AND DUP2 MSTORE PUSH1 0x20 ADD DUP12 PUSH1 0x4 PUSH1 0x9 DUP2 LT PUSH2 0x18F3 JUMPI PUSH4 0x4E487B71 PUSH1 0xE0 SHL PUSH1 0x0 MSTORE PUSH1 0x32 PUSH1 0x4 MSTORE PUSH1 0x24 PUSH1 0x0 REVERT JUMPDEST PUSH1 0x20 MUL ADD MLOAD DUP2 MSTORE PUSH1 0x20 ADD DUP12 PUSH1 0x5 PUSH1 0x9 DUP2 LT PUSH2 0x191E JUMPI PUSH4 0x4E487B71 PUSH1 0xE0 SHL PUSH1 0x0 MSTORE PUSH1 0x32 PUSH1 0x4 MSTORE PUSH1 0x24 PUSH1 0x0 REVERT JUMPDEST PUSH1 0x20 MUL ADD MLOAD DUP2 MSTORE PUSH1 0x20 ADD DUP12 PUSH1 0x6 PUSH1 0x9 DUP2 LT PUSH2 0x1949 JUMPI PUSH4 0x4E487B71 PUSH1 0xE0 SHL PUSH1 0x0 MSTORE PUSH1 0x32 PUSH1 0x4 MSTORE PUSH1 0x24 PUSH1 0x0 REVERT JUMPDEST PUSH1 0x20 MUL ADD MLOAD DUP2 MSTORE PUSH1 0x20 ADD DUP12 PUSH1 0x7 PUSH1 0x9 DUP2 LT PUSH2 0x1974 JUMPI PUSH4 0x4E487B71 PUSH1 0xE0 SHL PUSH1 0x0 MSTORE PUSH1 0x32 PUSH1 0x4 MSTORE PUSH1 0x24 PUSH1 0x0 REVERT JUMPDEST PUSH1 0x20 MUL ADD MLOAD DUP2 MSTORE PUSH1 0x20 ADD DUP12 PUSH1 0x8 PUSH1 0x9 DUP2 LT PUSH2 0x199F JUMPI PUSH4 0x4E487B71 PUSH1 0xE0 SHL PUSH1 0x0 MSTORE PUSH1 0x32 PUSH1 0x4 MSTORE PUSH1 0x24 PUSH1 0x0 REVERT JUMPDEST PUSH1 0x20 MUL ADD MLOAD SWAP1 MSTORE PUSH2 0x33AC JUMP JUMPDEST PUSH1 0x0 SLOAD PUSH1 0x1 PUSH1 0x1 PUSH1 0xA0 SHL SUB PUSH2 0x100 SWAP1 SWAP2 DIV AND CALLER EQ PUSH2 0x19DB JUMPI PUSH1 0x40 MLOAD PUSH3 0x461BCD PUSH1 0xE5 SHL DUP2 MSTORE PUSH1 0x4 ADD PUSH2 0x642 SWAP1 PUSH2 0x5D2D JUMP JUMPDEST PUSH2 0x19E3 PUSH2 0x38B3 JUMP JUMPDEST JUMP JUMPDEST PUSH1 0x0 SLOAD PUSH1 0x1 PUSH1 0xA8 SHL SWAP1 DIV PUSH1 0xFF AND ISZERO PUSH2 0x1A0F JUMPI PUSH1 0x40 MLOAD PUSH3 0x461BCD PUSH1 0xE5 SHL DUP2 MSTORE PUSH1 0x4 ADD PUSH2 0x642 SWAP1 PUSH2 0x5D03 JUMP JUMPDEST PUSH2 0x1D97 PUSH1 0x40 MLOAD DUP1 PUSH2 0x2E0 ADD PUSH1 0x40 MSTORE DUP1 DUP15 PUSH1 0x0 PUSH1 0x7 DUP2 LT PUSH2 0x1A3F JUMPI PUSH4 0x4E487B71 PUSH1 0xE0 SHL PUSH1 0x0 MSTORE PUSH1 0x32 PUSH1 0x4 MSTORE PUSH1 0x24 PUSH1 0x0 REVERT JUMPDEST PUSH1 0x20 MUL ADD MLOAD PUSH1 0x1 PUSH1 0x1 PUSH1 0xA0 SHL SUB AND DUP2 MSTORE PUSH1 0x20 ADD DUP15 PUSH1 0x1 PUSH1 0x7 DUP2 LT PUSH2 0x1A73 JUMPI PUSH4 0x4E487B71 PUSH1 0xE0 SHL PUSH1 0x0 MSTORE PUSH1 0x32 PUSH1 0x4 MSTORE PUSH1 0x24 PUSH1 0x0 REVERT JUMPDEST PUSH1 0x20 MUL ADD MLOAD PUSH1 0x1 PUSH1 0x1 PUSH1 0xA0 SHL SUB AND DUP2 MSTORE PUSH1 0x20 ADD DUP15 PUSH1 0x2 PUSH1 0x7 DUP2 LT PUSH2 0x1AA7 JUMPI PUSH4 0x4E487B71 PUSH1 0xE0 SHL PUSH1 0x0 MSTORE PUSH1 0x32 PUSH1 0x4 MSTORE PUSH1 0x24 PUSH1 0x0 REVERT JUMPDEST PUSH1 0x20 MUL ADD MLOAD PUSH1 0x1 PUSH1 0x1 PUSH1 0xA0 SHL SUB AND DUP2 MSTORE PUSH1 0x20 ADD DUP14 PUSH1 0x0 PUSH1 0x9 DUP2 LT PUSH2 0x1ADB JUMPI PUSH4 0x4E487B71 PUSH1 0xE0 SHL PUSH1 0x0 MSTORE PUSH1 0x32 PUSH1 0x4 MSTORE PUSH1 0x24 PUSH1 0x0 REVERT JUMPDEST PUSH1 0x20 MUL ADD MLOAD DUP2 MSTORE PUSH1 0x20 ADD DUP14 PUSH1 0x1 PUSH1 0x9 DUP2 LT PUSH2 0x1B06 JUMPI PUSH4 0x4E487B71 PUSH1 0xE0 SHL PUSH1 0x0 MSTORE PUSH1 0x32 PUSH1 0x4 MSTORE PUSH1 0x24 PUSH1 0x0 REVERT JUMPDEST PUSH1 0x20 MUL ADD MLOAD DUP2 MSTORE PUSH1 0x20 ADD DUP14 PUSH1 0x2 PUSH1 0x9 DUP2 LT PUSH2 0x1B31 JUMPI PUSH4 0x4E487B71 PUSH1 0xE0 SHL PUSH1 0x0 MSTORE PUSH1 0x32 PUSH1 0x4 MSTORE PUSH1 0x24 PUSH1 0x0 REVERT JUMPDEST PUSH1 0x20 MUL ADD MLOAD DUP2 MSTORE PUSH1 0x20 ADD DUP14 PUSH1 0x3 PUSH1 0x9 DUP2 LT PUSH2 0x1B5C JUMPI PUSH4 0x4E487B71 PUSH1 0xE0 SHL PUSH1 0x0 MSTORE PUSH1 0x32 PUSH1 0x4 MSTORE PUSH1 0x24 PUSH1 0x0 REVERT JUMPDEST PUSH1 0x20 MUL ADD MLOAD DUP2 MSTORE PUSH1 0x20 ADD DUP15 PUSH1 0x3 PUSH1 0x7 DUP2 LT PUSH2 0x1B87 JUMPI PUSH4 0x4E487B71 PUSH1 0xE0 SHL PUSH1 0x0 MSTORE PUSH1 0x32 PUSH1 0x4 MSTORE PUSH1 0x24 PUSH1 0x0 REVERT JUMPDEST PUSH1 0x20 MUL ADD MLOAD PUSH1 0x1 PUSH1 0x1 PUSH1 0xA0 SHL SUB AND DUP2 MSTORE PUSH1 0x20 ADD DUP13 PUSH1 0x1 DUP2 GT ISZERO PUSH2 0x1BBA JUMPI PUSH4 0x4E487B71 PUSH1 0xE0 SHL PUSH1 0x0 MSTORE PUSH1 0x21 PUSH1 0x4 MSTORE PUSH1 0x24 PUSH1 0x0 REVERT JUMPDEST DUP2 MSTORE PUSH1 0x20 ADD DUP12 PUSH1 0x1 DUP2 GT ISZERO PUSH2 0x1BDF JUMPI PUSH4 0x4E487B71 PUSH1 0xE0 SHL PUSH1 0x0 MSTORE PUSH1 0x21 PUSH1 0x4 MSTORE PUSH1 0x24 PUSH1 0x0 REVERT JUMPDEST DUP2 MSTORE PUSH1 0x20 ADD DUP11 PUSH1 0x1 DUP2 GT ISZERO PUSH2 0x1C04 JUMPI PUSH4 0x4E487B71 PUSH1 0xE0 SHL PUSH1 0x0 MSTORE PUSH1 0x21 PUSH1 0x4 MSTORE PUSH1 0x24 PUSH1 0x0 REVERT JUMPDEST DUP2 MSTORE PUSH1 0x80 DUP16 ADD MLOAD PUSH1 0x1 PUSH1 0x1 PUSH1 0xA0 SHL SUB AND PUSH1 0x20 DUP3 ADD MSTORE PUSH1 0x40 ADD DUP10 PUSH1 0x1 DUP2 GT ISZERO PUSH2 0x1C3C JUMPI PUSH4 0x4E487B71 PUSH1 0xE0 SHL PUSH1 0x0 MSTORE PUSH1 0x21 PUSH1 0x4 MSTORE PUSH1 0x24 PUSH1 0x0 REVERT JUMPDEST DUP2 MSTORE PUSH1 0x20 DUP2 ADD DUP10 SWAP1 MSTORE PUSH1 0x40 DUP2 ADD DUP9 SWAP1 MSTORE PUSH1 0x60 ADD DUP15 PUSH1 0x5 PUSH1 0x20 MUL ADD MLOAD PUSH1 0x1 PUSH1 0x1 PUSH1 0xA0 SHL SUB AND DUP2 MSTORE PUSH1 0x20 ADD DUP7 DUP2 MSTORE PUSH1 0x20 ADD DUP15 PUSH1 0x6 PUSH1 0x7 DUP2 LT PUSH2 0x1C8C JUMPI PUSH4 0x4E487B71 PUSH1 0xE0 SHL PUSH1 0x0 MSTORE PUSH1 0x32 PUSH1 0x4 MSTORE PUSH1 0x24 PUSH1 0x0 REVERT JUMPDEST PUSH1 0x20 MUL ADD MLOAD PUSH1 0x1 PUSH1 0x1 PUSH1 0xA0 SHL SUB AND DUP2 MSTORE PUSH1 0x20 ADD DUP14 PUSH1 0x4 PUSH1 0x9 DUP2 LT PUSH2 0x1CC0 JUMPI PUSH4 0x4E487B71 PUSH1 0xE0 SHL PUSH1 0x0 MSTORE PUSH1 0x32 PUSH1 0x4 MSTORE PUSH1 0x24 PUSH1 0x0 REVERT JUMPDEST PUSH1 0x20 MUL ADD MLOAD DUP2 MSTORE PUSH1 0x20 ADD DUP14 PUSH1 0x5 PUSH1 0x9 DUP2 LT PUSH2 0x1CEB JUMPI PUSH4 0x4E487B71 PUSH1 0xE0 SHL PUSH1 0x0 MSTORE PUSH1 0x32 PUSH1 0x4 MSTORE PUSH1 0x24 PUSH1 0x0 REVERT JUMPDEST PUSH1 0x20 MUL ADD MLOAD DUP2 MSTORE PUSH1 0x20 ADD DUP14 PUSH1 0x6 PUSH1 0x9 DUP2 LT PUSH2 0x1D16 JUMPI PUSH4 0x4E487B71 PUSH1 0xE0 SHL PUSH1 0x0 MSTORE PUSH1 0x32 PUSH1 0x4 MSTORE PUSH1 0x24 PUSH1 0x0 REVERT JUMPDEST PUSH1 0x20 MUL ADD MLOAD DUP2 MSTORE PUSH1 0x20 ADD DUP14 PUSH1 0x7 PUSH1 0x9 DUP2 LT PUSH2 0x1D41 JUMPI PUSH4 0x4E487B71 PUSH1 0xE0 SHL PUSH1 0x0 MSTORE PUSH1 0x32 PUSH1 0x4 MSTORE PUSH1 0x24 PUSH1 0x0 REVERT JUMPDEST PUSH1 0x20 MUL ADD MLOAD DUP2 MSTORE PUSH1 0x20 ADD DUP14 PUSH1 0x8 PUSH1 0x9 DUP2 LT PUSH2 0x1D6C JUMPI PUSH4 0x4E487B71 PUSH1 0xE0 SHL PUSH1 0x0 MSTORE PUSH1 0x32 PUSH1 0x4 MSTORE PUSH1 0x24 PUSH1 0x0 REVERT JUMPDEST PUSH1 0x20 MUL ADD MLOAD DUP2 MSTORE POP PUSH1 0x40 MLOAD DUP1 PUSH1 0x60 ADD PUSH1 0x40 MSTORE DUP1 DUP7 PUSH1 0xFF AND DUP2 MSTORE PUSH1 0x20 ADD DUP6 DUP2 MSTORE PUSH1 0x20 ADD DUP5 DUP2 MSTORE POP PUSH2 0x3935 JUMP JUMPDEST POP POP POP POP POP POP POP POP POP POP POP POP JUMP JUMPDEST PUSH1 0x0 SLOAD PUSH1 0x1 PUSH1 0xA8 SHL SWAP1 DIV PUSH1 0xFF AND ISZERO PUSH2 0x1DCF JUMPI PUSH1 0x40 MLOAD PUSH3 0x461BCD PUSH1 0xE5 SHL DUP2 MSTORE PUSH1 0x4 ADD PUSH2 0x642 SWAP1 PUSH2 0x5D03 JUMP JUMPDEST PUSH2 0x1654 PUSH1 0x40 MLOAD DUP1 PUSH2 0x2E0 ADD PUSH1 0x40 MSTORE DUP1 DUP14 PUSH1 0x0 PUSH1 0xE DUP2 LT PUSH2 0x1DFF JUMPI PUSH4 0x4E487B71 PUSH1 0xE0 SHL PUSH1 0x0 MSTORE PUSH1 0x32 PUSH1 0x4 MSTORE PUSH1 0x24 PUSH1 0x0 REVERT JUMPDEST PUSH1 0x20 MUL ADD MLOAD PUSH1 0x1 PUSH1 0x1 PUSH1 0xA0 SHL SUB AND DUP2 MSTORE PUSH1 0x20 ADD DUP14 PUSH1 0x1 PUSH1 0xE DUP2 LT PUSH2 0x1E33 JUMPI PUSH4 0x4E487B71 PUSH1 0xE0 SHL PUSH1 0x0 MSTORE PUSH1 0x32 PUSH1 0x4 MSTORE PUSH1 0x24 PUSH1 0x0 REVERT JUMPDEST PUSH1 0x20 MUL ADD MLOAD PUSH1 0x1 PUSH1 0x1 PUSH1 0xA0 SHL SUB AND DUP2 MSTORE PUSH1 0x20 ADD DUP14 PUSH1 0x2 PUSH1 0xE DUP2 LT PUSH2 0x1E67 JUMPI PUSH4 0x4E487B71 PUSH1 0xE0 SHL PUSH1 0x0 MSTORE PUSH1 0x32 PUSH1 0x4 MSTORE PUSH1 0x24 PUSH1 0x0 REVERT JUMPDEST PUSH1 0x20 MUL ADD MLOAD PUSH1 0x1 PUSH1 0x1 PUSH1 0xA0 SHL SUB AND DUP2 MSTORE PUSH1 0x20 ADD DUP13 PUSH1 0x0 PUSH1 0x12 DUP2 LT PUSH2 0x1E9B JUMPI PUSH4 0x4E487B71 PUSH1 0xE0 SHL PUSH1 0x0 MSTORE PUSH1 0x32 PUSH1 0x4 MSTORE PUSH1 0x24 PUSH1 0x0 REVERT JUMPDEST PUSH1 0x20 MUL ADD MLOAD DUP2 MSTORE PUSH1 0x20 ADD DUP13 PUSH1 0x1 PUSH1 0x12 DUP2 LT PUSH2 0x1EC6 JUMPI PUSH4 0x4E487B71 PUSH1 0xE0 SHL PUSH1 0x0 MSTORE PUSH1 0x32 PUSH1 0x4 MSTORE PUSH1 0x24 PUSH1 0x0 REVERT JUMPDEST PUSH1 0x20 MUL ADD MLOAD DUP2 MSTORE PUSH1 0x20 ADD DUP13 PUSH1 0x2 PUSH1 0x12 DUP2 LT PUSH2 0x1EF1 JUMPI PUSH4 0x4E487B71 PUSH1 0xE0 SHL PUSH1 0x0 MSTORE PUSH1 0x32 PUSH1 0x4 MSTORE PUSH1 0x24 PUSH1 0x0 REVERT JUMPDEST PUSH1 0x20 MUL ADD MLOAD DUP2 MSTORE PUSH1 0x20 ADD DUP13 PUSH1 0x3 PUSH1 0x12 DUP2 LT PUSH2 0x1F1C JUMPI PUSH4 0x4E487B71 PUSH1 0xE0 SHL PUSH1 0x0 MSTORE PUSH1 0x32 PUSH1 0x4 MSTORE PUSH1 0x24 PUSH1 0x0 REVERT JUMPDEST PUSH1 0x20 MUL ADD MLOAD DUP2 MSTORE PUSH1 0x20 ADD DUP14 PUSH1 0x3 PUSH1 0xE DUP2 LT PUSH2 0x1F47 JUMPI PUSH4 0x4E487B71 PUSH1 0xE0 SHL PUSH1 0x0 MSTORE PUSH1 0x32 PUSH1 0x4 MSTORE PUSH1 0x24 PUSH1 0x0 REVERT JUMPDEST PUSH1 0x20 MUL ADD MLOAD PUSH1 0x1 PUSH1 0x1 PUSH1 0xA0 SHL SUB AND DUP2 MSTORE PUSH1 0x20 ADD DUP12 PUSH1 0x0 PUSH1 0x8 DUP2 LT PUSH2 0x1F7B JUMPI PUSH4 0x4E487B71 PUSH1 0xE0 SHL PUSH1 0x0 MSTORE PUSH1 0x32 PUSH1 0x4 MSTORE PUSH1 0x24 PUSH1 0x0 REVERT JUMPDEST PUSH1 0x20 MUL ADD MLOAD PUSH1 0xFF AND PUSH1 0x1 DUP2 GT ISZERO PUSH2 0x1FA2 JUMPI PUSH4 0x4E487B71 PUSH1 0xE0 SHL PUSH1 0x0 MSTORE PUSH1 0x21 PUSH1 0x4 MSTORE PUSH1 0x24 PUSH1 0x0 REVERT JUMPDEST PUSH1 0x1 DUP2 GT ISZERO PUSH2 0x1FC1 JUMPI PUSH4 0x4E487B71 PUSH1 0xE0 SHL PUSH1 0x0 MSTORE PUSH1 0x21 PUSH1 0x4 MSTORE PUSH1 0x24 PUSH1 0x0 REVERT JUMPDEST DUP2 MSTORE PUSH1 0x20 ADD DUP12 PUSH1 0x1 PUSH1 0x20 MUL ADD MLOAD PUSH1 0xFF AND PUSH1 0x1 DUP2 GT ISZERO PUSH2 0x1FF0 JUMPI PUSH4 0x4E487B71 PUSH1 0xE0 SHL PUSH1 0x0 MSTORE PUSH1 0x21 PUSH1 0x4 MSTORE PUSH1 0x24 PUSH1 0x0 REVERT JUMPDEST PUSH1 0x1 DUP2 GT ISZERO PUSH2 0x200F JUMPI PUSH4 0x4E487B71 PUSH1 0xE0 SHL PUSH1 0x0 MSTORE PUSH1 0x21 PUSH1 0x4 MSTORE PUSH1 0x24 PUSH1 0x0 REVERT JUMPDEST DUP2 MSTORE PUSH1 0x20 ADD DUP12 PUSH1 0x2 PUSH1 0x20 MUL ADD MLOAD PUSH1 0xFF AND PUSH1 0x1 DUP2 GT ISZERO PUSH2 0x203E JUMPI PUSH4 0x4E487B71 PUSH1 0xE0 SHL PUSH1 0x0 MSTORE PUSH1 0x21 PUSH1 0x4 MSTORE PUSH1 0x24 PUSH1 0x0 REVERT JUMPDEST PUSH1 0x1 DUP2 GT ISZERO PUSH2 0x205D JUMPI PUSH4 0x4E487B71 PUSH1 0xE0 SHL PUSH1 0x0 MSTORE PUSH1 0x21 PUSH1 0x4 MSTORE PUSH1 0x24 PUSH1 0x0 REVERT JUMPDEST DUP2 MSTORE PUSH1 0x80 DUP15 ADD MLOAD PUSH1 0x1 PUSH1 0x1 PUSH1 0xA0 SHL SUB AND PUSH1 0x20 DUP3 ADD MSTORE PUSH1 0x40 ADD DUP12 PUSH1 0x3 PUSH1 0x20 MUL ADD MLOAD PUSH1 0xFF AND PUSH1 0x1 DUP2 GT ISZERO PUSH2 0x209F JUMPI PUSH4 0x4E487B71 PUSH1 0xE0 SHL PUSH1 0x0 MSTORE PUSH1 0x21 PUSH1 0x4 MSTORE PUSH1 0x24 PUSH1 0x0 REVERT JUMPDEST PUSH1 0x1 DUP2 GT ISZERO PUSH2 0x20BE JUMPI PUSH4 0x4E487B71 PUSH1 0xE0 SHL PUSH1 0x0 MSTORE PUSH1 0x21 PUSH1 0x4 MSTORE PUSH1 0x24 PUSH1 0x0 REVERT JUMPDEST DUP2 MSTORE PUSH1 0x20 DUP2 ADD DUP12 SWAP1 MSTORE PUSH1 0x40 DUP2 ADD DUP10 SWAP1 MSTORE PUSH1 0xA0 DUP1 DUP16 ADD MLOAD PUSH1 0x1 PUSH1 0x1 PUSH1 0xA0 SHL SUB AND PUSH1 0x60 DUP4 ADD MSTORE PUSH1 0x80 DUP3 ADD DUP9 SWAP1 MSTORE ADD DUP14 PUSH1 0x6 PUSH1 0x20 MUL ADD MLOAD PUSH1 0x1 PUSH1 0x1 PUSH1 0xA0 SHL SUB AND DUP2 MSTORE PUSH1 0x20 ADD DUP13 PUSH1 0x4 PUSH1 0x12 DUP2 LT PUSH2 0x2121 JUMPI PUSH4 0x4E487B71 PUSH1 0xE0 SHL PUSH1 0x0 MSTORE PUSH1 0x32 PUSH1 0x4 MSTORE PUSH1 0x24 PUSH1 0x0 REVERT JUMPDEST PUSH1 0x20 MUL ADD MLOAD DUP2 MSTORE PUSH1 0x20 ADD DUP13 PUSH1 0x5 PUSH1 0x12 DUP2 LT PUSH2 0x214C JUMPI PUSH4 0x4E487B71 PUSH1 0xE0 SHL PUSH1 0x0 MSTORE PUSH1 0x32 PUSH1 0x4 MSTORE PUSH1 0x24 PUSH1 0x0 REVERT JUMPDEST PUSH1 0x20 MUL ADD MLOAD DUP2 MSTORE PUSH1 0x20 ADD DUP13 PUSH1 0x6 PUSH1 0x12 DUP2 LT PUSH2 0x2177 JUMPI PUSH4 0x4E487B71 PUSH1 0xE0 SHL PUSH1 0x0 MSTORE PUSH1 0x32 PUSH1 0x4 MSTORE PUSH1 0x24 PUSH1 0x0 REVERT JUMPDEST PUSH1 0x20 MUL ADD MLOAD DUP2 MSTORE PUSH1 0x20 ADD DUP13 PUSH1 0x7 PUSH1 0x12 DUP2 LT PUSH2 0x21A2 JUMPI PUSH4 0x4E487B71 PUSH1 0xE0 SHL PUSH1 0x0 MSTORE PUSH1 0x32 PUSH1 0x4 MSTORE PUSH1 0x24 PUSH1 0x0 REVERT JUMPDEST PUSH1 0x20 MUL ADD MLOAD DUP2 MSTORE PUSH1 0x20 ADD DUP13 PUSH1 0x8 PUSH1 0x12 DUP2 LT PUSH2 0x21CD JUMPI PUSH4 0x4E487B71 PUSH1 0xE0 SHL PUSH1 0x0 MSTORE PUSH1 0x32 PUSH1 0x4 MSTORE PUSH1 0x24 PUSH1 0x0 REVERT JUMPDEST PUSH1 0x20 SWAP1 DUP2 MUL SWAP2 SWAP1 SWAP2 ADD MLOAD SWAP1 SWAP2 MSTORE PUSH1 0x40 DUP1 MLOAD PUSH1 0x60 DUP2 ADD DUP3 MSTORE DUP7 MLOAD PUSH1 0xFF AND DUP2 MSTORE DUP6 MLOAD SWAP3 DUP2 ADD SWAP3 SWAP1 SWAP3 MSTORE DUP2 ADD DUP5 PUSH1 0x1 PUSH1 0x20 MUL ADD MLOAD SWAP1 MSTORE PUSH1 0x40 DUP1 MLOAD PUSH2 0x2E0 DUP2 ADD SWAP1 SWAP2 MSTORE DUP1 DUP16 PUSH1 0x7 PUSH1 0x20 MUL ADD MLOAD PUSH1 0x1 PUSH1 0x1 PUSH1 0xA0 SHL SUB AND DUP2 MSTORE PUSH1 0x20 ADD DUP16 PUSH1 0x8 PUSH1 0xE DUP2 LT PUSH2 0x2244 JUMPI PUSH4 0x4E487B71 PUSH1 0xE0 SHL PUSH1 0x0 MSTORE PUSH1 0x32 PUSH1 0x4 MSTORE PUSH1 0x24 PUSH1 0x0 REVERT JUMPDEST PUSH1 0x20 MUL ADD MLOAD PUSH1 0x1 PUSH1 0x1 PUSH1 0xA0 SHL SUB AND DUP2 MSTORE PUSH1 0x20 ADD DUP16 PUSH1 0x9 PUSH1 0xE DUP2 LT PUSH2 0x2278 JUMPI PUSH4 0x4E487B71 PUSH1 0xE0 SHL PUSH1 0x0 MSTORE PUSH1 0x32 PUSH1 0x4 MSTORE PUSH1 0x24 PUSH1 0x0 REVERT JUMPDEST PUSH1 0x20 MUL ADD MLOAD PUSH1 0x1 PUSH1 0x1 PUSH1 0xA0 SHL SUB AND DUP2 MSTORE PUSH1 0x20 ADD DUP15 PUSH1 0x9 PUSH1 0x12 DUP2 LT PUSH2 0x22AC JUMPI PUSH4 0x4E487B71 PUSH1 0xE0 SHL PUSH1 0x0 MSTORE PUSH1 0x32 PUSH1 0x4 MSTORE PUSH1 0x24 PUSH1 0x0 REVERT JUMPDEST PUSH1 0x20 MUL ADD MLOAD DUP2 MSTORE PUSH1 0x20 ADD DUP15 PUSH1 0xA PUSH1 0x12 DUP2 LT PUSH2 0x22D7 JUMPI PUSH4 0x4E487B71 PUSH1 0xE0 SHL PUSH1 0x0 MSTORE PUSH1 0x32 PUSH1 0x4 MSTORE PUSH1 0x24 PUSH1 0x0 REVERT JUMPDEST PUSH1 0x20 MUL ADD MLOAD DUP2 MSTORE PUSH1 0x20 ADD DUP15 PUSH1 0xB PUSH1 0x12 DUP2 LT PUSH2 0x2302 JUMPI PUSH4 0x4E487B71 PUSH1 0xE0 SHL PUSH1 0x0 MSTORE PUSH1 0x32 PUSH1 0x4 MSTORE PUSH1 0x24 PUSH1 0x0 REVERT JUMPDEST PUSH1 0x20 MUL ADD MLOAD DUP2 MSTORE PUSH1 0x20 ADD DUP15 PUSH1 0xC PUSH1 0x12 DUP2 LT PUSH2 0x232D JUMPI PUSH4 0x4E487B71 PUSH1 0xE0 SHL PUSH1 0x0 MSTORE PUSH1 0x32 PUSH1 0x4 MSTORE PUSH1 0x24 PUSH1 0x0 REVERT JUMPDEST PUSH1 0x20 MUL ADD MLOAD DUP2 MSTORE PUSH1 0x20 ADD DUP16 PUSH1 0xA PUSH1 0xE DUP2 LT PUSH2 0x2358 JUMPI PUSH4 0x4E487B71 PUSH1 0xE0 SHL PUSH1 0x0 MSTORE PUSH1 0x32 PUSH1 0x4 MSTORE PUSH1 0x24 PUSH1 0x0 REVERT JUMPDEST PUSH1 0x20 MUL ADD MLOAD PUSH1 0x1 PUSH1 0x1 PUSH1 0xA0 SHL SUB AND DUP2 MSTORE PUSH1 0x20 ADD DUP14 PUSH1 0x4 PUSH1 0x8 DUP2 LT PUSH2 0x238C JUMPI PUSH4 0x4E487B71 PUSH1 0xE0 SHL PUSH1 0x0 MSTORE PUSH1 0x32 PUSH1 0x4 MSTORE PUSH1 0x24 PUSH1 0x0 REVERT JUMPDEST PUSH1 0x20 MUL ADD MLOAD PUSH1 0xFF AND PUSH1 0x1 DUP2 GT ISZERO PUSH2 0x23B3 JUMPI PUSH4 0x4E487B71 PUSH1 0xE0 SHL PUSH1 0x0 MSTORE PUSH1 0x21 PUSH1 0x4 MSTORE PUSH1 0x24 PUSH1 0x0 REVERT JUMPDEST PUSH1 0x1 DUP2 GT ISZERO PUSH2 0x23D2 JUMPI PUSH4 0x4E487B71 PUSH1 0xE0 SHL PUSH1 0x0 MSTORE PUSH1 0x21 PUSH1 0x4 MSTORE PUSH1 0x24 PUSH1 0x0 REVERT JUMPDEST DUP2 MSTORE PUSH1 0x20 ADD DUP14 PUSH1 0x5 PUSH1 0x20 MUL ADD MLOAD PUSH1 0xFF AND PUSH1 0x1 DUP2 GT ISZERO PUSH2 0x2401 JUMPI PUSH4 0x4E487B71 PUSH1 0xE0 SHL PUSH1 0x0 MSTORE PUSH1 0x21 PUSH1 0x4 MSTORE PUSH1 0x24 PUSH1 0x0 REVERT JUMPDEST PUSH1 0x1 DUP2 GT ISZERO PUSH2 0x2420 JUMPI PUSH4 0x4E487B71 PUSH1 0xE0 SHL PUSH1 0x0 MSTORE PUSH1 0x21 PUSH1 0x4 MSTORE PUSH1 0x24 PUSH1 0x0 REVERT JUMPDEST DUP2 MSTORE PUSH1 0x20 ADD DUP14 PUSH1 0x6 PUSH1 0x20 MUL ADD MLOAD PUSH1 0xFF AND PUSH1 0x1 DUP2 GT ISZERO PUSH2 0x244F JUMPI PUSH4 0x4E487B71 PUSH1 0xE0 SHL PUSH1 0x0 MSTORE PUSH1 0x21 PUSH1 0x4 MSTORE PUSH1 0x24 PUSH1 0x0 REVERT JUMPDEST PUSH1 0x1 DUP2 GT ISZERO PUSH2 0x246E JUMPI PUSH4 0x4E487B71 PUSH1 0xE0 SHL PUSH1 0x0 MSTORE PUSH1 0x21 PUSH1 0x4 MSTORE PUSH1 0x24 PUSH1 0x0 REVERT JUMPDEST DUP2 MSTORE PUSH1 0x20 ADD DUP16 PUSH1 0xB PUSH1 0x20 MUL ADD MLOAD PUSH1 0x1 PUSH1 0x1 PUSH1 0xA0 SHL SUB AND DUP2 MSTORE PUSH1 0x20 ADD DUP14 PUSH1 0x7 PUSH1 0x8 DUP2 LT PUSH2 0x24AA JUMPI PUSH4 0x4E487B71 PUSH1 0xE0 SHL PUSH1 0x0 MSTORE PUSH1 0x32 PUSH1 0x4 MSTORE PUSH1 0x24 PUSH1 0x0 REVERT JUMPDEST PUSH1 0x20 MUL ADD MLOAD PUSH1 0xFF AND PUSH1 0x1 DUP2 GT ISZERO PUSH2 0x24D1 JUMPI PUSH4 0x4E487B71 PUSH1 0xE0 SHL PUSH1 0x0 MSTORE PUSH1 0x21 PUSH1 0x4 MSTORE PUSH1 0x24 PUSH1 0x0 REVERT JUMPDEST PUSH1 0x1 DUP2 GT ISZERO PUSH2 0x24F0 JUMPI PUSH4 0x4E487B71 PUSH1 0xE0 SHL PUSH1 0x0 MSTORE PUSH1 0x21 PUSH1 0x4 MSTORE PUSH1 0x24 PUSH1 0x0 REVERT JUMPDEST DUP2 MSTORE PUSH1 0x20 DUP2 ADD DUP13 SWAP1 MSTORE PUSH1 0x40 DUP2 ADD DUP11 SWAP1 MSTORE PUSH1 0x60 ADD DUP16 PUSH1 0xC PUSH1 0x20 MUL ADD MLOAD PUSH1 0x1 PUSH1 0x1 PUSH1 0xA0 SHL SUB AND DUP2 MSTORE PUSH1 0x20 ADD DUP8 DUP2 MSTORE PUSH1 0x20 ADD DUP16 PUSH1 0xD PUSH1 0xE DUP2 LT PUSH2 0x2540 JUMPI PUSH4 0x4E487B71 PUSH1 0xE0 SHL PUSH1 0x0 MSTORE PUSH1 0x32 PUSH1 0x4 MSTORE PUSH1 0x24 PUSH1 0x0 REVERT JUMPDEST PUSH1 0x20 MUL ADD MLOAD PUSH1 0x1 PUSH1 0x1 PUSH1 0xA0 SHL SUB AND DUP2 MSTORE PUSH1 0x20 ADD DUP15 PUSH1 0xD PUSH1 0x12 DUP2 LT PUSH2 0x2574 JUMPI PUSH4 0x4E487B71 PUSH1 0xE0 SHL PUSH1 0x0 MSTORE PUSH1 0x32 PUSH1 0x4 MSTORE PUSH1 0x24 PUSH1 0x0 REVERT JUMPDEST PUSH1 0x20 MUL ADD MLOAD DUP2 MSTORE PUSH1 0x20 ADD DUP15 PUSH1 0xE PUSH1 0x12 DUP2 LT PUSH2 0x259F JUMPI PUSH4 0x4E487B71 PUSH1 0xE0 SHL PUSH1 0x0 MSTORE PUSH1 0x32 PUSH1 0x4 MSTORE PUSH1 0x24 PUSH1 0x0 REVERT JUMPDEST PUSH1 0x20 MUL ADD MLOAD DUP2 MSTORE PUSH1 0x20 ADD DUP15 PUSH1 0xF PUSH1 0x12 DUP2 LT PUSH2 0x25CA JUMPI PUSH4 0x4E487B71 PUSH1 0xE0 SHL PUSH1 0x0 MSTORE PUSH1 0x32 PUSH1 0x4 MSTORE PUSH1 0x24 PUSH1 0x0 REVERT JUMPDEST PUSH1 0x20 MUL ADD MLOAD DUP2 MSTORE PUSH1 0x20 ADD DUP15 PUSH1 0x10 PUSH1 0x12 DUP2 LT PUSH2 0x25F5 JUMPI PUSH4 0x4E487B71 PUSH1 0xE0 SHL PUSH1 0x0 MSTORE PUSH1 0x32 PUSH1 0x4 MSTORE PUSH1 0x24 PUSH1 0x0 REVERT JUMPDEST PUSH1 0x20 MUL ADD MLOAD DUP2 MSTORE PUSH1 0x20 ADD DUP15 PUSH1 0x11 PUSH1 0x12 DUP2 LT PUSH2 0x2620 JUMPI PUSH4 0x4E487B71 PUSH1 0xE0 SHL PUSH1 0x0 MSTORE PUSH1 0x32 PUSH1 0x4 MSTORE PUSH1 0x24 PUSH1 0x0 REVERT JUMPDEST PUSH1 0x20 MUL ADD MLOAD SWAP1 MSTORE PUSH1 0x40 DUP1 MLOAD PUSH1 0x60 DUP2 ADD SWAP1 SWAP2 MSTORE DUP1 DUP8 PUSH1 0x1 PUSH1 0x20 MUL ADD MLOAD PUSH1 0xFF AND DUP2 MSTORE PUSH1 0x20 ADD DUP7 PUSH1 0x2 PUSH1 0x5 DUP2 LT PUSH2 0x2664 JUMPI PUSH4 0x4E487B71 PUSH1 0xE0 SHL PUSH1 0x0 MSTORE PUSH1 0x32 PUSH1 0x4 MSTORE PUSH1 0x24 PUSH1 0x0 REVERT JUMPDEST PUSH1 0x20 MUL ADD MLOAD DUP2 MSTORE PUSH1 0x20 ADD DUP7 PUSH1 0x3 PUSH1 0x5 DUP2 LT PUSH2 0x268F JUMPI PUSH4 0x4E487B71 PUSH1 0xE0 SHL PUSH1 0x0 MSTORE PUSH1 0x32 PUSH1 0x4 MSTORE PUSH1 0x24 PUSH1 0x0 REVERT JUMPDEST PUSH1 0x20 MUL ADD MLOAD SWAP1 MSTORE PUSH1 0x80 DUP7 ADD MLOAD PUSH2 0x39DE JUMP JUMPDEST PUSH1 0x0 DUP1 PUSH1 0x40 MLOAD DUP1 PUSH2 0x2E0 ADD PUSH1 0x40 MSTORE DUP1 DUP13 PUSH1 0x0 PUSH1 0x7 DUP2 LT PUSH2 0x26D0 JUMPI PUSH4 0x4E487B71 PUSH1 0xE0 SHL PUSH1 0x0 MSTORE PUSH1 0x32 PUSH1 0x4 MSTORE PUSH1 0x24 PUSH1 0x0 REVERT JUMPDEST PUSH1 0x20 MUL ADD MLOAD PUSH1 0x1 PUSH1 0x1 PUSH1 0xA0 SHL SUB AND DUP2 MSTORE PUSH1 0x20 ADD DUP13 PUSH1 0x1 PUSH1 0x7 DUP2 LT PUSH2 0x2704 JUMPI PUSH4 0x4E487B71 PUSH1 0xE0 SHL PUSH1 0x0 MSTORE PUSH1 0x32 PUSH1 0x4 MSTORE PUSH1 0x24 PUSH1 0x0 REVERT JUMPDEST PUSH1 0x20 MUL ADD MLOAD PUSH1 0x1 PUSH1 0x1 PUSH1 0xA0 SHL SUB AND DUP2 MSTORE PUSH1 0x20 ADD DUP13 PUSH1 0x2 PUSH1 0x7 DUP2 LT PUSH2 0x2738 JUMPI PUSH4 0x4E487B71 PUSH1 0xE0 SHL PUSH1 0x0 MSTORE PUSH1 0x32 PUSH1 0x4 MSTORE PUSH1 0x24 PUSH1 0x0 REVERT JUMPDEST PUSH1 0x20 MUL ADD MLOAD PUSH1 0x1 PUSH1 0x1 PUSH1 0xA0 SHL SUB AND DUP2 MSTORE PUSH1 0x20 ADD DUP12 PUSH1 0x0 PUSH1 0x9 DUP2 LT PUSH2 0x276C JUMPI PUSH4 0x4E487B71 PUSH1 0xE0 SHL PUSH1 0x0 MSTORE PUSH1 0x32 PUSH1 0x4 MSTORE PUSH1 0x24 PUSH1 0x0 REVERT JUMPDEST PUSH1 0x20 MUL ADD MLOAD DUP2 MSTORE PUSH1 0x20 ADD DUP12 PUSH1 0x1 PUSH1 0x9 DUP2 LT PUSH2 0x2797 JUMPI PUSH4 0x4E487B71 PUSH1 0xE0 SHL PUSH1 0x0 MSTORE PUSH1 0x32 PUSH1 0x4 MSTORE PUSH1 0x24 PUSH1 0x0 REVERT JUMPDEST PUSH1 0x20 MUL ADD MLOAD DUP2 MSTORE PUSH1 0x20 ADD DUP12 PUSH1 0x2 PUSH1 0x9 DUP2 LT PUSH2 0x27C2 JUMPI PUSH4 0x4E487B71 PUSH1 0xE0 SHL PUSH1 0x0 MSTORE PUSH1 0x32 PUSH1 0x4 MSTORE PUSH1 0x24 PUSH1 0x0 REVERT JUMPDEST PUSH1 0x20 MUL ADD MLOAD DUP2 MSTORE PUSH1 0x20 ADD DUP12 PUSH1 0x3 PUSH1 0x9 DUP2 LT PUSH2 0x27ED JUMPI PUSH4 0x4E487B71 PUSH1 0xE0 SHL PUSH1 0x0 MSTORE PUSH1 0x32 PUSH1 0x4 MSTORE PUSH1 0x24 PUSH1 0x0 REVERT JUMPDEST PUSH1 0x20 MUL ADD MLOAD DUP2 MSTORE PUSH1 0x20 ADD DUP13 PUSH1 0x3 PUSH1 0x7 DUP2 LT PUSH2 0x2818 JUMPI PUSH4 0x4E487B71 PUSH1 0xE0 SHL PUSH1 0x0 MSTORE PUSH1 0x32 PUSH1 0x4 MSTORE PUSH1 0x24 PUSH1 0x0 REVERT JUMPDEST PUSH1 0x20 MUL ADD MLOAD PUSH1 0x1 PUSH1 0x1 PUSH1 0xA0 SHL SUB AND DUP2 MSTORE PUSH1 0x20 ADD DUP11 PUSH1 0x1 DUP2 GT ISZERO PUSH2 0x284B JUMPI PUSH4 0x4E487B71 PUSH1 0xE0 SHL PUSH1 0x0 MSTORE PUSH1 0x21 PUSH1 0x4 MSTORE PUSH1 0x24 PUSH1 0x0 REVERT JUMPDEST DUP2 MSTORE PUSH1 0x20 ADD DUP10 PUSH1 0x1 DUP2 GT ISZERO PUSH2 0x2870 JUMPI PUSH4 0x4E487B71 PUSH1 0xE0 SHL PUSH1 0x0 MSTORE PUSH1 0x21 PUSH1 0x4 MSTORE PUSH1 0x24 PUSH1 0x0 REVERT JUMPDEST DUP2 MSTORE PUSH1 0x20 ADD DUP9 PUSH1 0x1 DUP2 GT ISZERO PUSH2 0x2895 JUMPI PUSH4 0x4E487B71 PUSH1 0xE0 SHL PUSH1 0x0 MSTORE PUSH1 0x21 PUSH1 0x4 MSTORE PUSH1 0x24 PUSH1 0x0 REVERT JUMPDEST DUP2 MSTORE PUSH1 0x80 DUP14 ADD MLOAD PUSH1 0x1 PUSH1 0x1 PUSH1 0xA0 SHL SUB AND PUSH1 0x20 DUP3 ADD MSTORE PUSH1 0x40 ADD DUP8 PUSH1 0x1 DUP2 GT ISZERO PUSH2 0x28CD JUMPI PUSH4 0x4E487B71 PUSH1 0xE0 SHL PUSH1 0x0 MSTORE PUSH1 0x21 PUSH1 0x4 MSTORE PUSH1 0x24 PUSH1 0x0 REVERT JUMPDEST DUP2 MSTORE PUSH1 0x20 DUP2 ADD DUP8 SWAP1 MSTORE PUSH1 0x40 DUP2 ADD DUP7 SWAP1 MSTORE PUSH1 0xA0 DUP1 DUP15 ADD MLOAD PUSH1 0x1 PUSH1 0x1 PUSH1 0xA0 SHL SUB AND PUSH1 0x60 DUP4 ADD MSTORE PUSH1 0x80 DUP3 ADD DUP7 SWAP1 MSTORE ADD DUP13 PUSH1 0x6 PUSH1 0x20 MUL ADD MLOAD PUSH1 0x1 PUSH1 0x1 PUSH1 0xA0 SHL SUB AND DUP2 MSTORE PUSH1 0x20 ADD DUP12 PUSH1 0x4 PUSH1 0x9 DUP2 LT PUSH2 0x2930 JUMPI PUSH4 0x4E487B71 PUSH1 0xE0 SHL PUSH1 0x0 MSTORE PUSH1 0x32 PUSH1 0x4 MSTORE PUSH1 0x24 PUSH1 0x0 REVERT JUMPDEST PUSH1 0x20 MUL ADD MLOAD DUP2 MSTORE PUSH1 0x20 ADD DUP12 PUSH1 0x5 PUSH1 0x9 DUP2 LT PUSH2 0x295B JUMPI PUSH4 0x4E487B71 PUSH1 0xE0 SHL PUSH1 0x0 MSTORE PUSH1 0x32 PUSH1 0x4 MSTORE PUSH1 0x24 PUSH1 0x0 REVERT JUMPDEST PUSH1 0x20 MUL ADD MLOAD DUP2 MSTORE PUSH1 0x20 ADD DUP12 PUSH1 0x6 PUSH1 0x9 DUP2 LT PUSH2 0x2986 JUMPI PUSH4 0x4E487B71 PUSH1 0xE0 SHL PUSH1 0x0 MSTORE PUSH1 0x32 PUSH1 0x4 MSTORE PUSH1 0x24 PUSH1 0x0 REVERT JUMPDEST PUSH1 0x20 MUL ADD MLOAD DUP2 MSTORE PUSH1 0x20 ADD DUP12 PUSH1 0x7 PUSH1 0x9 DUP2 LT PUSH2 0x29B1 JUMPI PUSH4 0x4E487B71 PUSH1 0xE0 SHL PUSH1 0x0 MSTORE PUSH1 0x32 PUSH1 0x4 MSTORE PUSH1 0x24 PUSH1 0x0 REVERT JUMPDEST PUSH1 0x20 MUL ADD MLOAD DUP2 MSTORE PUSH1 0x20 ADD DUP12 PUSH1 0x8 PUSH1 0x9 DUP2 LT PUSH2 0x29DC JUMPI PUSH4 0x4E487B71 PUSH1 0xE0 SHL PUSH1 0x0 MSTORE PUSH1 0x32 PUSH1 0x4 MSTORE PUSH1 0x24 PUSH1 0x0 REVERT JUMPDEST PUSH1 0x20 MUL ADD MLOAD SWAP1 MSTORE SWAP1 POP PUSH2 0x29EE DUP2 PUSH2 0x4194 JUMP JUMPDEST SWAP12 SWAP11 POP POP POP POP POP POP POP POP POP POP POP JUMP JUMPDEST PUSH1 0x0 DUP1 PUSH1 0x40 MLOAD DUP1 PUSH2 0x2E0 ADD PUSH1 0x40 MSTORE DUP1 DUP13 PUSH1 0x0 PUSH1 0xE DUP2 LT PUSH2 0x2A2D JUMPI PUSH4 0x4E487B71 PUSH1 0xE0 SHL PUSH1 0x0 MSTORE PUSH1 0x32 PUSH1 0x4 MSTORE PUSH1 0x24 PUSH1 0x0 REVERT JUMPDEST PUSH1 0x20 MUL ADD MLOAD PUSH1 0x1 PUSH1 0x1 PUSH1 0xA0 SHL SUB AND DUP2 MSTORE PUSH1 0x20 ADD DUP13 PUSH1 0x1 PUSH1 0xE DUP2 LT PUSH2 0x2A61 JUMPI PUSH4 0x4E487B71 PUSH1 0xE0 SHL PUSH1 0x0 MSTORE PUSH1 0x32 PUSH1 0x4 MSTORE PUSH1 0x24 PUSH1 0x0 REVERT JUMPDEST PUSH1 0x20 MUL ADD MLOAD PUSH1 0x1 PUSH1 0x1 PUSH1 0xA0 SHL SUB AND DUP2 MSTORE PUSH1 0x20 ADD DUP13 PUSH1 0x2 PUSH1 0xE DUP2 LT PUSH2 0x2A95 JUMPI PUSH4 0x4E487B71 PUSH1 0xE0 SHL PUSH1 0x0 MSTORE PUSH1 0x32 PUSH1 0x4 MSTORE PUSH1 0x24 PUSH1 0x0 REVERT JUMPDEST PUSH1 0x20 MUL ADD MLOAD PUSH1 0x1 PUSH1 0x1 PUSH1 0xA0 SHL SUB AND DUP2 MSTORE PUSH1 0x20 ADD DUP12 PUSH1 0x0 PUSH1 0x12 DUP2 LT PUSH2 0x2AC9 JUMPI PUSH4 0x4E487B71 PUSH1 0xE0 SHL PUSH1 0x0 MSTORE PUSH1 0x32 PUSH1 0x4 MSTORE PUSH1 0x24 PUSH1 0x0 REVERT JUMPDEST PUSH1 0x20 MUL ADD MLOAD DUP2 MSTORE PUSH1 0x20 ADD DUP12 PUSH1 0x1 PUSH1 0x12 DUP2 LT PUSH2 0x2AF4 JUMPI PUSH4 0x4E487B71 PUSH1 0xE0 SHL PUSH1 0x0 MSTORE PUSH1 0x32 PUSH1 0x4 MSTORE PUSH1 0x24 PUSH1 0x0 REVERT JUMPDEST PUSH1 0x20 MUL ADD MLOAD DUP2 MSTORE PUSH1 0x20 ADD DUP12 PUSH1 0x2 PUSH1 0x12 DUP2 LT PUSH2 0x2B1F JUMPI PUSH4 0x4E487B71 PUSH1 0xE0 SHL PUSH1 0x0 MSTORE PUSH1 0x32 PUSH1 0x4 MSTORE PUSH1 0x24 PUSH1 0x0 REVERT JUMPDEST PUSH1 0x20 MUL ADD MLOAD DUP2 MSTORE PUSH1 0x20 ADD DUP12 PUSH1 0x3 PUSH1 0x12 DUP2 LT PUSH2 0x2B4A JUMPI PUSH4 0x4E487B71 PUSH1 0xE0 SHL PUSH1 0x0 MSTORE PUSH1 0x32 PUSH1 0x4 MSTORE PUSH1 0x24 PUSH1 0x0 REVERT JUMPDEST PUSH1 0x20 MUL ADD MLOAD DUP2 MSTORE PUSH1 0x20 ADD DUP13 PUSH1 0x3 PUSH1 0xE DUP2 LT PUSH2 0x2B75 JUMPI PUSH4 0x4E487B71 PUSH1 0xE0 SHL PUSH1 0x0 MSTORE PUSH1 0x32 PUSH1 0x4 MSTORE PUSH1 0x24 PUSH1 0x0 REVERT JUMPDEST PUSH1 0x20 MUL ADD MLOAD PUSH1 0x1 PUSH1 0x1 PUSH1 0xA0 SHL SUB AND DUP2 MSTORE PUSH1 0x20 ADD DUP11 PUSH1 0x0 PUSH1 0x8 DUP2 LT PUSH2 0x2BA9 JUMPI PUSH4 0x4E487B71 PUSH1 0xE0 SHL PUSH1 0x0 MSTORE PUSH1 0x32 PUSH1 0x4 MSTORE PUSH1 0x24 PUSH1 0x0 REVERT JUMPDEST PUSH1 0x20 MUL ADD MLOAD PUSH1 0xFF AND PUSH1 0x1 DUP2 GT ISZERO PUSH2 0x2BD0 JUMPI PUSH4 0x4E487B71 PUSH1 0xE0 SHL PUSH1 0x0 MSTORE PUSH1 0x21 PUSH1 0x4 MSTORE PUSH1 0x24 PUSH1 0x0 REVERT JUMPDEST PUSH1 0x1 DUP2 GT ISZERO PUSH2 0x2BEF JUMPI PUSH4 0x4E487B71 PUSH1 0xE0 SHL PUSH1 0x0 MSTORE PUSH1 0x21 PUSH1 0x4 MSTORE PUSH1 0x24 PUSH1 0x0 REVERT JUMPDEST DUP2 MSTORE PUSH1 0x20 ADD DUP11 PUSH1 0x1 PUSH1 0x20 MUL ADD MLOAD PUSH1 0xFF AND PUSH1 0x1 DUP2 GT ISZERO PUSH2 0x2C1E JUMPI PUSH4 0x4E487B71 PUSH1 0xE0 SHL PUSH1 0x0 MSTORE PUSH1 0x21 PUSH1 0x4 MSTORE PUSH1 0x24 PUSH1 0x0 REVERT JUMPDEST PUSH1 0x1 DUP2 GT ISZERO PUSH2 0x2C3D JUMPI PUSH4 0x4E487B71 PUSH1 0xE0 SHL PUSH1 0x0 MSTORE PUSH1 0x21 PUSH1 0x4 MSTORE PUSH1 0x24 PUSH1 0x0 REVERT JUMPDEST DUP2 MSTORE PUSH1 0x20 ADD DUP11 PUSH1 0x2 PUSH1 0x20 MUL ADD MLOAD PUSH1 0xFF AND PUSH1 0x1 DUP2 GT ISZERO PUSH2 0x2C6C JUMPI PUSH4 0x4E487B71 PUSH1 0xE0 SHL PUSH1 0x0 MSTORE PUSH1 0x21 PUSH1 0x4 MSTORE PUSH1 0x24 PUSH1 0x0 REVERT JUMPDEST PUSH1 0x1 DUP2 GT ISZERO PUSH2 0x2C8B JUMPI PUSH4 0x4E487B71 PUSH1 0xE0 SHL PUSH1 0x0 MSTORE PUSH1 0x21 PUSH1 0x4 MSTORE PUSH1 0x24 PUSH1 0x0 REVERT JUMPDEST DUP2 MSTORE PUSH1 0x80 DUP14 ADD MLOAD PUSH1 0x1 PUSH1 0x1 PUSH1 0xA0 SHL SUB AND PUSH1 0x20 DUP3 ADD MSTORE PUSH1 0x40 ADD DUP11 PUSH1 0x3 PUSH1 0x20 MUL ADD MLOAD PUSH1 0xFF AND PUSH1 0x1 DUP2 GT ISZERO PUSH2 0x2CCD JUMPI PUSH4 0x4E487B71 PUSH1 0xE0 SHL PUSH1 0x0 MSTORE PUSH1 0x21 PUSH1 0x4 MSTORE PUSH1 0x24 PUSH1 0x0 REVERT JUMPDEST PUSH1 0x1 DUP2 GT ISZERO PUSH2 0x2CEC JUMPI PUSH4 0x4E487B71 PUSH1 0xE0 SHL PUSH1 0x0 MSTORE PUSH1 0x21 PUSH1 0x4 MSTORE PUSH1 0x24 PUSH1 0x0 REVERT JUMPDEST DUP2 MSTORE PUSH1 0x20 DUP2 ADD DUP11 SWAP1 MSTORE PUSH1 0x40 DUP2 ADD DUP9 SWAP1 MSTORE PUSH1 0xA0 DUP1 DUP15 ADD MLOAD PUSH1 0x1 PUSH1 0x1 PUSH1 0xA0 SHL SUB AND PUSH1 0x60 DUP4 ADD MSTORE PUSH1 0x80 DUP3 ADD DUP8 SWAP1 MSTORE ADD DUP13 PUSH1 0x6 PUSH1 0x20 MUL ADD MLOAD PUSH1 0x1 PUSH1 0x1 PUSH1 0xA0 SHL SUB AND DUP2 MSTORE PUSH1 0x20 ADD DUP12 PUSH1 0x4 PUSH1 0x12 DUP2 LT PUSH2 0x2D4F JUMPI PUSH4 0x4E487B71 PUSH1 0xE0 SHL PUSH1 0x0 MSTORE PUSH1 0x32 PUSH1 0x4 MSTORE PUSH1 0x24 PUSH1 0x0 REVERT JUMPDEST PUSH1 0x20 MUL ADD MLOAD DUP2 MSTORE PUSH1 0x20 ADD DUP12 PUSH1 0x5 PUSH1 0x12 DUP2 LT PUSH2 0x2D7A JUMPI PUSH4 0x4E487B71 PUSH1 0xE0 SHL PUSH1 0x0 MSTORE PUSH1 0x32 PUSH1 0x4 MSTORE PUSH1 0x24 PUSH1 0x0 REVERT JUMPDEST PUSH1 0x20 MUL ADD MLOAD DUP2 MSTORE PUSH1 0x20 ADD DUP12 PUSH1 0x6 PUSH1 0x12 DUP2 LT PUSH2 0x2DA5 JUMPI PUSH4 0x4E487B71 PUSH1 0xE0 SHL PUSH1 0x0 MSTORE PUSH1 0x32 PUSH1 0x4 MSTORE PUSH1 0x24 PUSH1 0x0 REVERT JUMPDEST PUSH1 0x20 MUL ADD MLOAD DUP2 MSTORE PUSH1 0x20 ADD DUP12 PUSH1 0x7 PUSH1 0x12 DUP2 LT PUSH2 0x2DD0 JUMPI PUSH4 0x4E487B71 PUSH1 0xE0 SHL PUSH1 0x0 MSTORE PUSH1 0x32 PUSH1 0x4 MSTORE PUSH1 0x24 PUSH1 0x0 REVERT JUMPDEST PUSH1 0x20 MUL ADD MLOAD DUP2 MSTORE PUSH1 0x20 ADD DUP12 PUSH1 0x8 PUSH1 0x12 DUP2 LT PUSH2 0x2DFB JUMPI PUSH4 0x4E487B71 PUSH1 0xE0 SHL PUSH1 0x0 MSTORE PUSH1 0x32 PUSH1 0x4 MSTORE PUSH1 0x24 PUSH1 0x0 REVERT JUMPDEST PUSH1 0x20 MUL ADD MLOAD DUP2 MSTORE POP SWAP1 POP PUSH1 0x0 PUSH1 0x40 MLOAD DUP1 PUSH2 0x2E0 ADD PUSH1 0x40 MSTORE DUP1 DUP14 PUSH1 0x7 PUSH1 0xE DUP2 LT PUSH2 0x2E34 JUMPI PUSH4 0x4E487B71 PUSH1 0xE0 SHL PUSH1 0x0 MSTORE PUSH1 0x32 PUSH1 0x4 MSTORE PUSH1 0x24 PUSH1 0x0 REVERT JUMPDEST PUSH1 0x20 MUL ADD MLOAD PUSH1 0x1 PUSH1 0x1 PUSH1 0xA0 SHL SUB AND DUP2 MSTORE PUSH1 0x20 ADD DUP14 PUSH1 0x8 PUSH1 0xE DUP2 LT PUSH2 0x2E68 JUMPI PUSH4 0x4E487B71 PUSH1 0xE0 SHL PUSH1 0x0 MSTORE PUSH1 0x32 PUSH1 0x4 MSTORE PUSH1 0x24 PUSH1 0x0 REVERT JUMPDEST PUSH1 0x20 MUL ADD MLOAD PUSH1 0x1 PUSH1 0x1 PUSH1 0xA0 SHL SUB AND DUP2 MSTORE PUSH1 0x20 ADD DUP14 PUSH1 0x9 PUSH1 0xE DUP2 LT PUSH2 0x2E9C JUMPI PUSH4 0x4E487B71 PUSH1 0xE0 SHL PUSH1 0x0 MSTORE PUSH1 0x32 PUSH1 0x4 MSTORE PUSH1 0x24 PUSH1 0x0 REVERT JUMPDEST PUSH1 0x20 MUL ADD MLOAD PUSH1 0x1 PUSH1 0x1 PUSH1 0xA0 SHL SUB AND DUP2 MSTORE PUSH1 0x20 ADD DUP13 PUSH1 0x9 PUSH1 0x12 DUP2 LT PUSH2 0x2ED0 JUMPI PUSH4 0x4E487B71 PUSH1 0xE0 SHL PUSH1 0x0 MSTORE PUSH1 0x32 PUSH1 0x4 MSTORE PUSH1 0x24 PUSH1 0x0 REVERT JUMPDEST PUSH1 0x20 MUL ADD MLOAD DUP2 MSTORE PUSH1 0x20 ADD DUP13 PUSH1 0xA PUSH1 0x12 DUP2 LT PUSH2 0x2EFB JUMPI PUSH4 0x4E487B71 PUSH1 0xE0 SHL PUSH1 0x0 MSTORE PUSH1 0x32 PUSH1 0x4 MSTORE PUSH1 0x24 PUSH1 0x0 REVERT JUMPDEST PUSH1 0x20 MUL ADD MLOAD DUP2 MSTORE PUSH1 0x20 ADD DUP13 PUSH1 0xB PUSH1 0x12 DUP2 LT PUSH2 0x2F26 JUMPI PUSH4 0x4E487B71 PUSH1 0xE0 SHL PUSH1 0x0 MSTORE PUSH1 0x32 PUSH1 0x4 MSTORE PUSH1 0x24 PUSH1 0x0 REVERT JUMPDEST PUSH1 0x20 MUL ADD MLOAD DUP2 MSTORE PUSH1 0x20 ADD DUP13 PUSH1 0xC PUSH1 0x12 DUP2 LT PUSH2 0x2F51 JUMPI PUSH4 0x4E487B71 PUSH1 0xE0 SHL PUSH1 0x0 MSTORE PUSH1 0x32 PUSH1 0x4 MSTORE PUSH1 0x24 PUSH1 0x0 REVERT JUMPDEST PUSH1 0x20 MUL ADD MLOAD DUP2 MSTORE PUSH1 0x20 ADD DUP14 PUSH1 0xA PUSH1 0xE DUP2 LT PUSH2 0x2F7C JUMPI PUSH4 0x4E487B71 PUSH1 0xE0 SHL PUSH1 0x0 MSTORE PUSH1 0x32 PUSH1 0x4 MSTORE PUSH1 0x24 PUSH1 0x0 REVERT JUMPDEST PUSH1 0x20 MUL ADD MLOAD PUSH1 0x1 PUSH1 0x1 PUSH1 0xA0 SHL SUB AND DUP2 MSTORE PUSH1 0x20 ADD DUP12 PUSH1 0x4 PUSH1 0x8 DUP2 LT PUSH2 0x2FB0 JUMPI PUSH4 0x4E487B71 PUSH1 0xE0 SHL PUSH1 0x0 MSTORE PUSH1 0x32 PUSH1 0x4 MSTORE PUSH1 0x24 PUSH1 0x0 REVERT JUMPDEST PUSH1 0x20 MUL ADD MLOAD PUSH1 0xFF AND PUSH1 0x1 DUP2 GT ISZERO PUSH2 0x2FD7 JUMPI PUSH4 0x4E487B71 PUSH1 0xE0 SHL PUSH1 0x0 MSTORE PUSH1 0x21 PUSH1 0x4 MSTORE PUSH1 0x24 PUSH1 0x0 REVERT JUMPDEST PUSH1 0x1 DUP2 GT ISZERO PUSH2 0x2FF6 JUMPI PUSH4 0x4E487B71 PUSH1 0xE0 SHL PUSH1 0x0 MSTORE PUSH1 0x21 PUSH1 0x4 MSTORE PUSH1 0x24 PUSH1 0x0 REVERT JUMPDEST DUP2 MSTORE PUSH1 0x20 ADD DUP12 PUSH1 0x5 PUSH1 0x20 MUL ADD MLOAD PUSH1 0xFF AND PUSH1 0x1 DUP2 GT ISZERO PUSH2 0x3025 JUMPI PUSH4 0x4E487B71 PUSH1 0xE0 SHL PUSH1 0x0 MSTORE PUSH1 0x21 PUSH1 0x4 MSTORE PUSH1 0x24 PUSH1 0x0 REVERT JUMPDEST PUSH1 0x1 DUP2 GT ISZERO PUSH2 0x3044 JUMPI PUSH4 0x4E487B71 PUSH1 0xE0 SHL PUSH1 0x0 MSTORE PUSH1 0x21 PUSH1 0x4 MSTORE PUSH1 0x24 PUSH1 0x0 REVERT JUMPDEST DUP2 MSTORE PUSH1 0x20 ADD DUP12 PUSH1 0x6 PUSH1 0x20 MUL ADD MLOAD PUSH1 0xFF AND PUSH1 0x1 DUP2 GT ISZERO PUSH2 0x3073 JUMPI PUSH4 0x4E487B71 PUSH1 0xE0 SHL PUSH1 0x0 MSTORE PUSH1 0x21 PUSH1 0x4 MSTORE PUSH1 0x24 PUSH1 0x0 REVERT JUMPDEST PUSH1 0x1 DUP2 GT ISZERO PUSH2 0x3092 JUMPI PUSH4 0x4E487B71 PUSH1 0xE0 SHL PUSH1 0x0 MSTORE PUSH1 0x21 PUSH1 0x4 MSTORE PUSH1 0x24 PUSH1 0x0 REVERT JUMPDEST DUP2 MSTORE PUSH2 0x160 DUP15 ADD MLOAD PUSH1 0x1 PUSH1 0x1 PUSH1 0xA0 SHL SUB AND PUSH1 0x20 DUP3 ADD MSTORE PUSH1 0x40 ADD DUP12 PUSH1 0x7 PUSH1 0x20 MUL ADD MLOAD PUSH1 0xFF AND PUSH1 0x1 DUP2 GT ISZERO PUSH2 0x30D5 JUMPI PUSH4 0x4E487B71 PUSH1 0xE0 SHL PUSH1 0x0 MSTORE PUSH1 0x21 PUSH1 0x4 MSTORE PUSH1 0x24 PUSH1 0x0 REVERT JUMPDEST PUSH1 0x1 DUP2 GT ISZERO PUSH2 0x30F4 JUMPI PUSH4 0x4E487B71 PUSH1 0xE0 SHL PUSH1 0x0 MSTORE PUSH1 0x21 PUSH1 0x4 MSTORE PUSH1 0x24 PUSH1 0x0 REVERT JUMPDEST DUP2 MSTORE PUSH1 0x20 DUP2 ADD DUP11 SWAP1 MSTORE PUSH1 0x40 DUP2 ADD DUP9 SWAP1 MSTORE PUSH2 0x180 DUP15 ADD MLOAD PUSH1 0x1 PUSH1 0x1 PUSH1 0xA0 SHL SUB SWAP1 DUP2 AND PUSH1 0x60 DUP4 ADD MSTORE PUSH1 0x80 DUP3 ADD DUP8 SWAP1 MSTORE PUSH2 0x1A0 DUP16 ADD MLOAD AND PUSH1 0xA0 DUP3 ADD MSTORE PUSH1 0xC0 ADD DUP13 PUSH1 0xD PUSH1 0x20 MUL ADD MLOAD DUP2 MSTORE PUSH1 0x20 ADD DUP13 PUSH1 0xE PUSH1 0x12 DUP2 LT PUSH2 0x315E JUMPI PUSH4 0x4E487B71 PUSH1 0xE0 SHL PUSH1 0x0 MSTORE PUSH1 0x32 PUSH1 0x4 MSTORE PUSH1 0x24 PUSH1 0x0 REVERT JUMPDEST PUSH1 0x20 MUL ADD MLOAD DUP2 MSTORE PUSH1 0x20 ADD DUP13 PUSH1 0xF PUSH1 0x12 DUP2 LT PUSH2 0x3189 JUMPI PUSH4 0x4E487B71 PUSH1 0xE0 SHL PUSH1 0x0 MSTORE PUSH1 0x32 PUSH1 0x4 MSTORE PUSH1 0x24 PUSH1 0x0 REVERT JUMPDEST PUSH1 0x20 MUL ADD MLOAD DUP2 MSTORE PUSH1 0x20 ADD DUP13 PUSH1 0x10 PUSH1 0x12 DUP2 LT PUSH2 0x31B4 JUMPI PUSH4 0x4E487B71 PUSH1 0xE0 SHL PUSH1 0x0 MSTORE PUSH1 0x32 PUSH1 0x4 MSTORE PUSH1 0x24 PUSH1 0x0 REVERT JUMPDEST PUSH1 0x20 MUL ADD MLOAD DUP2 MSTORE PUSH1 0x20 ADD DUP13 PUSH1 0x11 PUSH1 0x12 DUP2 LT PUSH2 0x31DF JUMPI PUSH4 0x4E487B71 PUSH1 0xE0 SHL PUSH1 0x0 MSTORE PUSH1 0x32 PUSH1 0x4 MSTORE PUSH1 0x24 PUSH1 0x0 REVERT JUMPDEST PUSH1 0x20 MUL ADD MLOAD SWAP1 MSTORE SWAP1 POP PUSH2 0x31F2 DUP3 DUP3 PUSH2 0x422D JUMP JUMPDEST SWAP13 SWAP12 POP POP POP POP POP POP POP POP POP POP POP POP JUMP JUMPDEST PUSH1 0x0 SLOAD PUSH1 0x1 PUSH1 0x1 PUSH1 0xA0 SHL SUB PUSH2 0x100 SWAP1 SWAP2 DIV AND CALLER EQ PUSH2 0x3232 JUMPI PUSH1 0x40 MLOAD PUSH3 0x461BCD PUSH1 0xE5 SHL DUP2 MSTORE PUSH1 0x4 ADD PUSH2 0x642 SWAP1 PUSH2 0x5D2D JUMP JUMPDEST PUSH1 0x1 PUSH1 0x1 PUSH1 0xA0 SHL SUB DUP2 AND PUSH2 0x3297 JUMPI PUSH1 0x40 MLOAD PUSH3 0x461BCD PUSH1 0xE5 SHL DUP2 MSTORE PUSH1 0x20 PUSH1 0x4 DUP3 ADD MSTORE PUSH1 0x26 PUSH1 0x24 DUP3 ADD MSTORE PUSH32 0x4F776E61626C653A206E6577206F776E657220697320746865207A65726F2061 PUSH1 0x44 DUP3 ADD MSTORE PUSH6 0x646472657373 PUSH1 0xD0 SHL PUSH1 0x64 DUP3 ADD MSTORE PUSH1 0x84 ADD PUSH2 0x642 JUMP JUMPDEST PUSH1 0x0 DUP1 SLOAD PUSH1 0x40 MLOAD PUSH1 0x1 PUSH1 0x1 PUSH1 0xA0 SHL SUB DUP1 DUP6 AND SWAP4 PUSH2 0x100 SWAP1 SWAP4 DIV AND SWAP2 PUSH32 0x8BE0079C531659141344CD1FD0A4F28419497F9722A3DAAFE3B4186F6B6457E0 SWAP2 LOG3 PUSH1 0x0 DUP1 SLOAD PUSH1 0x1 PUSH1 0x1 PUSH1 0xA0 SHL SUB SWAP1 SWAP3 AND PUSH2 0x100 MUL PUSH2 0x100 PUSH1 0x1 PUSH1 0xA8 SHL SUB NOT SWAP1 SWAP3 AND SWAP2 SWAP1 SWAP2 OR SWAP1 SSTORE JUMP JUMPDEST PUSH1 0x0 SLOAD PUSH1 0x1 PUSH1 0x1 PUSH1 0xA0 SHL SUB PUSH2 0x100 SWAP1 SWAP2 DIV AND CALLER EQ PUSH2 0x332D JUMPI PUSH1 0x40 MLOAD PUSH3 0x461BCD PUSH1 0xE5 SHL DUP2 MSTORE PUSH1 0x4 ADD PUSH2 0x642 SWAP1 PUSH2 0x5D2D JUMP JUMPDEST PUSH2 0x19E3 PUSH2 0x42BE JUMP JUMPDEST DUP1 MLOAD PUSH1 0x0 SWAP1 ISZERO PUSH2 0x3371 JUMPI DUP2 MLOAD DUP1 PUSH1 0x20 ADD DUP4 ADD PUSH1 0x20 DUP5 ADD DUP6 JUMPDEST PUSH1 0x1 DUP4 DUP4 LT EQ ISZERO PUSH2 0x3368 JUMPI DUP2 MLOAD DUP2 MSTORE PUSH1 0x20 SWAP2 DUP3 ADD SWAP2 ADD PUSH2 0x334D JUMP JUMPDEST POP POP POP SWAP3 SWAP1 SWAP3 ADD SWAP2 JUMPDEST POP SWAP1 SWAP2 SWAP1 POP JUMP JUMPDEST PUSH1 0x0 PUSH2 0x33A6 DUP3 PUSH2 0x120 ADD MLOAD DUP4 PUSH2 0x140 ADD MLOAD DUP5 PUSH2 0x240 ADD MLOAD DUP6 PUSH2 0x260 ADD MLOAD DUP7 PUSH2 0x280 ADD MLOAD DUP8 PUSH2 0x2A0 ADD MLOAD PUSH2 0x4342 JUMP JUMPDEST SWAP3 SWAP2 POP POP JUMP JUMPDEST PUSH1 0x0 PUSH2 0x33B7 DUP3 PUSH2 0x34EE JUMP JUMPDEST PUSH1 0x40 MLOAD PUSH32 0x19457468657265756D205369676E6564204D6573736167653A0A333200000000 PUSH1 0x20 DUP3 ADD MSTORE PUSH1 0x3C DUP2 ADD SWAP2 SWAP1 SWAP2 MSTORE PUSH1 0x5C ADD PUSH1 0x40 MLOAD PUSH1 0x20 DUP2 DUP4 SUB SUB DUP2 MSTORE SWAP1 PUSH1 0x40 MSTORE DUP1 MLOAD SWAP1 PUSH1 0x20 ADD KECCAK256 SWAP1 POP SWAP2 SWAP1 POP JUMP JUMPDEST PUSH1 0x0 PUSH2 0x3413 DUP4 PUSH2 0x4194 JUMP JUMPDEST PUSH2 0x341F JUMPI POP PUSH1 0x0 PUSH2 0x60B JUMP JUMPDEST PUSH1 0x0 DUP5 DUP2 MSTORE PUSH1 0x4 PUSH1 0x20 MSTORE PUSH1 0x40 SWAP1 KECCAK256 SLOAD PUSH1 0xFF AND ISZERO PUSH2 0x343E JUMPI POP PUSH1 0x0 PUSH2 0x60B JUMP JUMPDEST PUSH1 0x0 DUP5 DUP2 MSTORE PUSH1 0x5 PUSH1 0x20 MSTORE PUSH1 0x40 SWAP1 KECCAK256 SLOAD PUSH1 0xFF AND ISZERO PUSH2 0x345D JUMPI POP PUSH1 0x1 PUSH2 0x60B JUMP JUMPDEST PUSH1 0x20 DUP1 DUP5 ADD MLOAD DUP4 MLOAD DUP5 DUP4 ADD MLOAD PUSH1 0x40 DUP1 DUP8 ADD MLOAD DUP2 MLOAD PUSH1 0x0 DUP2 MSTORE SWAP6 DUP7 ADD DUP1 DUP4 MSTORE DUP11 SWAP1 MSTORE PUSH1 0xFF SWAP1 SWAP4 AND SWAP1 DUP6 ADD MSTORE PUSH1 0x60 DUP5 ADD MSTORE PUSH1 0x80 DUP4 ADD MSTORE PUSH1 0x1 PUSH1 0x1 PUSH1 0xA0 SHL SUB AND SWAP1 PUSH1 0x1 SWAP1 PUSH1 0xA0 ADD PUSH1 0x20 PUSH1 0x40 MLOAD PUSH1 0x20 DUP2 SUB SWAP1 DUP1 DUP5 SUB SWAP1 DUP6 GAS STATICCALL ISZERO DUP1 ISZERO PUSH2 0x34C3 JUMPI RETURNDATASIZE PUSH1 0x0 DUP1 RETURNDATACOPY RETURNDATASIZE PUSH1 0x0 REVERT JUMPDEST POP POP POP PUSH1 0x20 PUSH1 0x40 MLOAD SUB MLOAD PUSH1 0x1 PUSH1 0x1 PUSH1 0xA0 SHL SUB AND EQ ISZERO PUSH2 0x34E4 JUMPI POP PUSH1 0x1 PUSH2 0x60B JUMP JUMPDEST POP PUSH1 0x0 SWAP4 SWAP3 POP POP POP JUMP JUMPDEST PUSH1 0x0 DUP1 PUSH2 0x34FA DUP4 PUSH2 0x4414 JUMP JUMPDEST SWAP1 POP PUSH1 0x0 DUP2 PUSH1 0x1 PUSH1 0x1 PUSH1 0x40 SHL SUB DUP2 GT ISZERO PUSH2 0x3524 JUMPI PUSH4 0x4E487B71 PUSH1 0xE0 SHL PUSH1 0x0 MSTORE PUSH1 0x41 PUSH1 0x4 MSTORE PUSH1 0x24 PUSH1 0x0 REVERT JUMPDEST PUSH1 0x40 MLOAD SWAP1 DUP1 DUP3 MSTORE DUP1 PUSH1 0x1F ADD PUSH1 0x1F NOT AND PUSH1 0x20 ADD DUP3 ADD PUSH1 0x40 MSTORE DUP1 ISZERO PUSH2 0x354E JUMPI PUSH1 0x20 DUP3 ADD DUP2 DUP1 CALLDATASIZE DUP4 CALLDATACOPY ADD SWAP1 POP JUMPDEST POP DUP5 MLOAD SWAP1 SWAP2 POP PUSH1 0x20 DUP3 ADD SWAP1 PUSH2 0x3564 SWAP1 DUP3 SWAP1 PUSH2 0x444C JUMP JUMPDEST SWAP1 POP PUSH2 0x3574 DUP2 DUP7 PUSH1 0x20 ADD MLOAD PUSH2 0x444C JUMP JUMPDEST SWAP1 POP PUSH2 0x3584 DUP2 DUP7 PUSH1 0x40 ADD MLOAD PUSH2 0x444C JUMP JUMPDEST PUSH1 0x60 DUP7 DUP2 ADD MLOAD DUP3 MSTORE PUSH1 0x80 DUP1 DUP9 ADD MLOAD PUSH1 0x20 DUP5 ADD MSTORE PUSH1 0xA0 DUP9 ADD MLOAD PUSH1 0x40 DUP5 ADD MSTORE PUSH1 0xC0 DUP9 ADD MLOAD SWAP2 DUP4 ADD SWAP2 SWAP1 SWAP2 MSTORE PUSH1 0xE0 DUP8 ADD MLOAD SWAP2 ADD SWAP2 POP PUSH2 0x35C1 SWAP1 DUP3 SWAP1 PUSH2 0x444C JUMP JUMPDEST SWAP1 POP PUSH2 0x35F1 DUP2 DUP7 PUSH2 0x100 ADD MLOAD PUSH1 0x1 DUP2 GT ISZERO PUSH2 0x35EC JUMPI PUSH4 0x4E487B71 PUSH1 0xE0 SHL PUSH1 0x0 MSTORE PUSH1 0x21 PUSH1 0x4 MSTORE PUSH1 0x24 PUSH1 0x0 REVERT JUMPDEST PUSH2 0x4466 JUMP JUMPDEST SWAP1 POP PUSH2 0x361C DUP2 DUP7 PUSH2 0x120 ADD MLOAD PUSH1 0x1 DUP2 GT ISZERO PUSH2 0x35EC JUMPI PUSH4 0x4E487B71 PUSH1 0xE0 SHL PUSH1 0x0 MSTORE PUSH1 0x21 PUSH1 0x4 MSTORE PUSH1 0x24 PUSH1 0x0 REVERT JUMPDEST SWAP1 POP PUSH2 0x3647 DUP2 DUP7 PUSH2 0x140 ADD MLOAD PUSH1 0x1 DUP2 GT ISZERO PUSH2 0x35EC JUMPI PUSH4 0x4E487B71 PUSH1 0xE0 SHL PUSH1 0x0 MSTORE PUSH1 0x21 PUSH1 0x4 MSTORE PUSH1 0x24 PUSH1 0x0 REVERT JUMPDEST SWAP1 POP PUSH2 0x3658 DUP2 DUP7 PUSH2 0x160 ADD MLOAD PUSH2 0x444C JUMP JUMPDEST SWAP1 POP PUSH2 0x3683 DUP2 DUP7 PUSH2 0x180 ADD MLOAD PUSH1 0x1 DUP2 GT ISZERO PUSH2 0x35EC JUMPI PUSH4 0x4E487B71 PUSH1 0xE0 SHL PUSH1 0x0 MSTORE PUSH1 0x21 PUSH1 0x4 MSTORE PUSH1 0x24 PUSH1 0x0 REVERT JUMPDEST SWAP1 POP PUSH2 0x3694 DUP2 DUP7 PUSH2 0x1A0 ADD MLOAD PUSH2 0x3335 JUMP JUMPDEST SWAP1 POP PUSH2 0x36A5 DUP2 DUP7 PUSH2 0x1C0 ADD MLOAD PUSH2 0x3335 JUMP JUMPDEST SWAP1 POP PUSH2 0x36B6 DUP2 DUP7 PUSH2 0x1E0 ADD MLOAD PUSH2 0x444C JUMP JUMPDEST SWAP1 POP PUSH2 0x36C7 DUP2 DUP7 PUSH2 0x200 ADD MLOAD PUSH2 0x3335 JUMP JUMPDEST SWAP1 POP PUSH2 0x36D8 DUP2 DUP7 PUSH2 0x220 ADD MLOAD PUSH2 0x444C JUMP JUMPDEST PUSH2 0x240 DUP7 ADD MLOAD DUP2 MSTORE PUSH2 0x260 DUP7 ADD MLOAD PUSH1 0x20 DUP1 DUP4 ADD SWAP2 SWAP1 SWAP2 MSTORE PUSH2 0x280 DUP8 ADD MLOAD PUSH1 0x40 DUP4 ADD MSTORE PUSH2 0x2A0 DUP8 ADD MLOAD PUSH1 0x60 DUP4 ADD MSTORE PUSH2 0x2C0 SWAP1 SWAP7 ADD MLOAD PUSH1 0x80 SWAP1 SWAP2 ADD MSTORE POP SWAP1 SWAP3 ADD SWAP2 SWAP1 SWAP2 KECCAK256 SWAP2 SWAP1 POP JUMP JUMPDEST DUP2 PUSH1 0x20 ADD MLOAD PUSH1 0x1 PUSH1 0x1 PUSH1 0xA0 SHL SUB AND CALLER PUSH1 0x1 PUSH1 0x1 PUSH1 0xA0 SHL SUB AND EQ PUSH2 0x3741 JUMPI PUSH1 0x0 DUP1 REVERT JUMPDEST PUSH1 0x0 PUSH2 0x374C DUP4 PUSH2 0x33AC JUMP JUMPDEST PUSH1 0x0 DUP2 DUP2 MSTORE PUSH1 0x5 PUSH1 0x20 MSTORE PUSH1 0x40 SWAP1 KECCAK256 SLOAD SWAP1 SWAP2 POP PUSH1 0xFF AND ISZERO PUSH2 0x376B JUMPI PUSH1 0x0 DUP1 REVERT JUMPDEST PUSH1 0x1 PUSH1 0x5 PUSH1 0x0 DUP4 DUP2 MSTORE PUSH1 0x20 ADD SWAP1 DUP2 MSTORE PUSH1 0x20 ADD PUSH1 0x0 KECCAK256 PUSH1 0x0 PUSH2 0x100 EXP DUP2 SLOAD DUP2 PUSH1 0xFF MUL NOT AND SWAP1 DUP4 ISZERO ISZERO MUL OR SWAP1 SSTORE POP DUP3 PUSH1 0xE0 ADD MLOAD PUSH1 0x1 PUSH1 0x1 PUSH1 0xA0 SHL SUB AND DUP4 PUSH1 0x20 ADD MLOAD PUSH1 0x1 PUSH1 0x1 PUSH1 0xA0 SHL SUB AND DUP3 PUSH32 0x90C7F9F5B58C15F0F635BFB99F55D3D78FDBEF3559E7D8ABF5C81052A5276622 DUP7 PUSH1 0x0 ADD MLOAD DUP8 PUSH1 0x40 ADD MLOAD DUP9 PUSH1 0x60 ADD MLOAD DUP10 PUSH1 0x80 ADD MLOAD DUP11 PUSH1 0xA0 ADD MLOAD DUP12 PUSH1 0xC0 ADD MLOAD DUP13 PUSH2 0x100 ADD MLOAD DUP14 PUSH2 0x120 ADD MLOAD DUP15 PUSH2 0x140 ADD MLOAD DUP16 PUSH2 0x160 ADD MLOAD PUSH1 0x40 MLOAD PUSH2 0x3821 SWAP11 SWAP10 SWAP9 SWAP8 SWAP7 SWAP6 SWAP5 SWAP4 SWAP3 SWAP2 SWAP1 PUSH2 0x5BB8 JUMP JUMPDEST PUSH1 0x40 MLOAD DUP1 SWAP2 SUB SWAP1 LOG4 DUP1 PUSH32 0xE55393C778364E440D958B39AC1DEBD99DCFAE3775A8A04D1E79124ADF6A2D08 DUP5 PUSH2 0x180 ADD MLOAD DUP6 PUSH2 0x1A0 ADD MLOAD DUP7 PUSH2 0x1C0 ADD MLOAD DUP8 PUSH2 0x1E0 ADD MLOAD DUP9 PUSH2 0x200 ADD MLOAD DUP10 PUSH2 0x220 ADD MLOAD DUP11 PUSH2 0x240 ADD MLOAD DUP12 PUSH2 0x260 ADD MLOAD DUP13 PUSH2 0x280 ADD MLOAD DUP14 PUSH2 0x2A0 ADD MLOAD DUP15 PUSH2 0x2C0 ADD MLOAD DUP15 PUSH1 0x40 MLOAD PUSH2 0x38A6 SWAP13 SWAP12 SWAP11 SWAP10 SWAP9 SWAP8 SWAP7 SWAP6 SWAP5 SWAP4 SWAP3 SWAP2 SWAP1 PUSH2 0x5C67 JUMP JUMPDEST PUSH1 0x40 MLOAD DUP1 SWAP2 SUB SWAP1 LOG2 POP POP POP JUMP JUMPDEST PUSH1 0x0 SLOAD PUSH1 0x1 PUSH1 0xA8 SHL SWAP1 DIV PUSH1 0xFF AND ISZERO PUSH2 0x38DD JUMPI PUSH1 0x40 MLOAD PUSH3 0x461BCD PUSH1 0xE5 SHL DUP2 MSTORE PUSH1 0x4 ADD PUSH2 0x642 SWAP1 PUSH2 0x5D03 JUMP JUMPDEST PUSH1 0x0 DUP1 SLOAD PUSH1 0xFF PUSH1 0xA8 SHL NOT AND PUSH1 0x1 PUSH1 0xA8 SHL OR SWAP1 SSTORE PUSH32 0x62E78CEA01BEE320CD4E420270B5EA74000D11B0C9F74754EBDBFC544B05A258 PUSH2 0x3918 CALLER SWAP1 JUMP JUMPDEST PUSH1 0x40 MLOAD PUSH1 0x1 PUSH1 0x1 PUSH1 0xA0 SHL SUB SWAP1 SWAP2 AND DUP2 MSTORE PUSH1 0x20 ADD PUSH1 0x40 MLOAD DUP1 SWAP2 SUB SWAP1 LOG1 JUMP JUMPDEST PUSH1 0x0 PUSH2 0x3941 DUP4 DUP4 PUSH2 0x4473 JUMP JUMPDEST SWAP1 POP DUP3 PUSH1 0x20 ADD MLOAD PUSH1 0x1 PUSH1 0x1 PUSH1 0xA0 SHL SUB AND CALLER PUSH1 0x1 PUSH1 0x1 PUSH1 0xA0 SHL SUB AND EQ PUSH2 0x3999 JUMPI PUSH1 0x40 MLOAD PUSH3 0x461BCD PUSH1 0xE5 SHL DUP2 MSTORE PUSH1 0x20 PUSH1 0x4 DUP3 ADD MSTORE PUSH1 0xE PUSH1 0x24 DUP3 ADD MSTORE PUSH14 0x135052D157D393D517D590531251 PUSH1 0x92 SHL PUSH1 0x44 DUP3 ADD MSTORE PUSH1 0x64 ADD PUSH2 0x642 JUMP JUMPDEST PUSH1 0x0 DUP2 DUP2 MSTORE PUSH1 0x4 PUSH1 0x20 MSTORE PUSH1 0x40 DUP1 DUP3 KECCAK256 DUP1 SLOAD PUSH1 0xFF NOT AND PUSH1 0x1 OR SWAP1 SSTORE MLOAD DUP3 SWAP2 PUSH32 0x5152ABF959F6564662358C2E52B702259B78BAC5EE7842A0F01937E670EFCC7D SWAP2 LOG2 POP POP POP JUMP JUMPDEST PUSH1 0x0 SLOAD PUSH1 0xFF AND ISZERO PUSH2 0x3A27 JUMPI PUSH1 0x40 MLOAD PUSH3 0x461BCD PUSH1 0xE5 SHL DUP2 MSTORE PUSH1 0x20 PUSH1 0x4 DUP3 ADD MSTORE PUSH1 0x13 PUSH1 0x24 DUP3 ADD MSTORE PUSH19 0x1499595B9D1C985B98DE4819195D1958DD1959 PUSH1 0x6A SHL PUSH1 0x44 DUP3 ADD MSTORE PUSH1 0x64 ADD PUSH2 0x642 JUMP JUMPDEST PUSH1 0x0 DUP1 SLOAD PUSH1 0xFF NOT AND PUSH1 0x1 OR DUP2 SSTORE PUSH1 0x20 DUP7 ADD MLOAD PUSH1 0x1 PUSH1 0x1 PUSH1 0xA0 SHL SUB AND CALLER EQ ISZERO PUSH2 0x3A9B JUMPI PUSH2 0x3A52 DUP7 PUSH2 0x4194 JUMP JUMPDEST PUSH2 0x3A96 JUMPI PUSH1 0x40 MLOAD PUSH3 0x461BCD PUSH1 0xE5 SHL DUP2 MSTORE PUSH1 0x20 PUSH1 0x4 DUP3 ADD MSTORE PUSH1 0x15 PUSH1 0x24 DUP3 ADD MSTORE PUSH21 0x213ABC9037B93232B91034B99034B73B30B634B217 PUSH1 0x59 SHL PUSH1 0x44 DUP3 ADD MSTORE PUSH1 0x64 ADD PUSH2 0x642 JUMP JUMPDEST PUSH2 0x3AA8 JUMP JUMPDEST PUSH2 0x3AA5 DUP7 DUP7 PUSH2 0x4473 JUMP JUMPDEST SWAP1 POP JUMPDEST PUSH1 0x20 DUP5 ADD MLOAD PUSH1 0x0 SWAP1 PUSH1 0x1 PUSH1 0x1 PUSH1 0xA0 SHL SUB AND CALLER EQ ISZERO PUSH2 0x3B13 JUMPI PUSH2 0x3AC9 DUP6 PUSH2 0x4194 JUMP JUMPDEST PUSH2 0x3B0E JUMPI PUSH1 0x40 MLOAD PUSH3 0x461BCD PUSH1 0xE5 SHL DUP2 MSTORE PUSH1 0x20 PUSH1 0x4 DUP3 ADD MSTORE PUSH1 0x16 PUSH1 0x24 DUP3 ADD MSTORE PUSH22 0x29B2B6361037B93232B91034B99034B73B30B634B217 PUSH1 0x51 SHL PUSH1 0x44 DUP3 ADD MSTORE PUSH1 0x64 ADD PUSH2 0x642 JUMP JUMPDEST PUSH2 0x3B20 JUMP JUMPDEST PUSH2 0x3B1D DUP6 DUP6 PUSH2 0x4473 JUMP JUMPDEST SWAP1 POP JUMPDEST PUSH2 0x3B2A DUP8 DUP7 PUSH2 0x44C9 JUMP JUMPDEST PUSH2 0x3B76 JUMPI PUSH1 0x40 MLOAD PUSH3 0x461BCD PUSH1 0xE5 SHL DUP2 MSTORE PUSH1 0x20 PUSH1 0x4 DUP3 ADD MSTORE PUSH1 0x18 PUSH1 0x24 DUP3 ADD MSTORE PUSH32 0x4F7264657273206973206E6F74206D6174636861626C652E0000000000000000 PUSH1 0x44 DUP3 ADD MSTORE PUSH1 0x64 ADD PUSH2 0x642 JUMP JUMPDEST PUSH2 0x160 DUP6 ADD MLOAD DUP1 EXTCODESIZE SWAP1 DUP2 PUSH2 0x3BBF JUMPI PUSH1 0x40 MLOAD PUSH3 0x461BCD PUSH1 0xE5 SHL DUP2 MSTORE PUSH1 0x20 PUSH1 0x4 DUP3 ADD MSTORE PUSH1 0x10 PUSH1 0x24 DUP3 ADD MSTORE PUSH16 0x15185C99D95D081B9BDD08195E1A5CDD PUSH1 0x82 SHL PUSH1 0x44 DUP3 ADD MSTORE PUSH1 0x64 ADD PUSH2 0x642 JUMP JUMPDEST PUSH2 0x1C0 DUP10 ADD MLOAD MLOAD ISZERO PUSH2 0x3BE5 JUMPI PUSH2 0x3BE5 DUP10 PUSH2 0x1A0 ADD MLOAD DUP9 PUSH2 0x1A0 ADD MLOAD DUP12 PUSH2 0x1C0 ADD MLOAD PUSH2 0x471B JUMP JUMPDEST PUSH2 0x1C0 DUP8 ADD MLOAD MLOAD ISZERO PUSH2 0x3C0B JUMPI PUSH2 0x3C0B DUP8 PUSH2 0x1A0 ADD MLOAD DUP11 PUSH2 0x1A0 ADD MLOAD DUP10 PUSH2 0x1C0 ADD MLOAD PUSH2 0x471B JUMP JUMPDEST PUSH2 0x3C1F DUP10 PUSH2 0x1A0 ADD MLOAD DUP9 PUSH2 0x1A0 ADD MLOAD PUSH2 0x498F JUMP JUMPDEST PUSH2 0x3C60 JUMPI PUSH1 0x40 MLOAD PUSH3 0x461BCD PUSH1 0xE5 SHL DUP2 MSTORE PUSH1 0x20 PUSH1 0x4 DUP3 ADD MSTORE PUSH1 0x12 PUSH1 0x24 DUP3 ADD MSTORE PUSH18 0x86C2D8D85AC8C2E8C240DAD2E6DAC2E8C6D PUSH1 0x73 SHL PUSH1 0x44 DUP3 ADD MSTORE PUSH1 0x64 ADD PUSH2 0x642 JUMP JUMPDEST PUSH1 0x2 SLOAD PUSH1 0x20 DUP9 ADD MLOAD PUSH1 0x40 MLOAD PUSH4 0xC4552791 PUSH1 0xE0 SHL DUP2 MSTORE PUSH1 0x1 PUSH1 0x1 PUSH1 0xA0 SHL SUB SWAP2 DUP3 AND PUSH1 0x4 DUP3 ADD MSTORE PUSH1 0x0 SWAP3 SWAP2 SWAP1 SWAP2 AND SWAP1 PUSH4 0xC4552791 SWAP1 PUSH1 0x24 ADD PUSH1 0x20 PUSH1 0x40 MLOAD DUP1 DUP4 SUB DUP2 DUP7 DUP1 EXTCODESIZE ISZERO DUP1 ISZERO PUSH2 0x3CAE JUMPI PUSH1 0x0 DUP1 REVERT JUMPDEST POP GAS STATICCALL ISZERO DUP1 ISZERO PUSH2 0x3CC2 JUMPI RETURNDATASIZE PUSH1 0x0 DUP1 RETURNDATACOPY RETURNDATASIZE PUSH1 0x0 REVERT JUMPDEST POP POP POP POP PUSH1 0x40 MLOAD RETURNDATASIZE PUSH1 0x1F NOT PUSH1 0x1F DUP3 ADD AND DUP3 ADD DUP1 PUSH1 0x40 MSTORE POP DUP2 ADD SWAP1 PUSH2 0x3CE6 SWAP2 SWAP1 PUSH2 0x5524 JUMP JUMPDEST SWAP1 POP PUSH1 0x1 PUSH1 0x1 PUSH1 0xA0 SHL SUB DUP2 AND PUSH2 0x3D30 JUMPI PUSH1 0x40 MLOAD PUSH3 0x461BCD PUSH1 0xE5 SHL DUP2 MSTORE PUSH1 0x20 PUSH1 0x4 DUP3 ADD MSTORE PUSH1 0xF PUSH1 0x24 DUP3 ADD MSTORE PUSH15 0x141C9BDE1E481B9BDD08195E1A5CDD PUSH1 0x8A SHL PUSH1 0x44 DUP3 ADD MSTORE PUSH1 0x64 ADD PUSH2 0x642 JUMP JUMPDEST PUSH1 0x2 PUSH1 0x0 SWAP1 SLOAD SWAP1 PUSH2 0x100 EXP SWAP1 DIV PUSH1 0x1 PUSH1 0x1 PUSH1 0xA0 SHL SUB AND PUSH1 0x1 PUSH1 0x1 PUSH1 0xA0 SHL SUB AND PUSH4 0x97204D8E PUSH1 0x40 MLOAD DUP2 PUSH4 0xFFFFFFFF AND PUSH1 0xE0 SHL DUP2 MSTORE PUSH1 0x4 ADD PUSH1 0x20 PUSH1 0x40 MLOAD DUP1 DUP4 SUB DUP2 DUP7 DUP1 EXTCODESIZE ISZERO DUP1 ISZERO PUSH2 0x3D7E JUMPI PUSH1 0x0 DUP1 REVERT JUMPDEST POP GAS STATICCALL ISZERO DUP1 ISZERO PUSH2 0x3D92 JUMPI RETURNDATASIZE PUSH1 0x0 DUP1 RETURNDATACOPY RETURNDATASIZE PUSH1 0x0 REVERT JUMPDEST POP POP POP POP PUSH1 0x40 MLOAD RETURNDATASIZE PUSH1 0x1F NOT PUSH1 0x1F DUP3 ADD AND DUP3 ADD DUP1 PUSH1 0x40 MSTORE POP DUP2 ADD SWAP1 PUSH2 0x3DB6 SWAP2 SWAP1 PUSH2 0x5524 JUMP JUMPDEST PUSH1 0x1 PUSH1 0x1 PUSH1 0xA0 SHL SUB AND DUP2 PUSH1 0x1 PUSH1 0x1 PUSH1 0xA0 SHL SUB AND PUSH4 0x5C60DA1B PUSH1 0x40 MLOAD DUP2 PUSH4 0xFFFFFFFF AND PUSH1 0xE0 SHL DUP2 MSTORE PUSH1 0x4 ADD PUSH1 0x20 PUSH1 0x40 MLOAD DUP1 DUP4 SUB DUP2 DUP7 DUP1 EXTCODESIZE ISZERO DUP1 ISZERO PUSH2 0x3DF8 JUMPI PUSH1 0x0 DUP1 REVERT JUMPDEST POP GAS STATICCALL ISZERO DUP1 ISZERO PUSH2 0x3E0C JUMPI RETURNDATASIZE PUSH1 0x0 DUP1 RETURNDATACOPY RETURNDATASIZE PUSH1 0x0 REVERT JUMPDEST POP POP POP POP PUSH1 0x40 MLOAD RETURNDATASIZE PUSH1 0x1F NOT PUSH1 0x1F DUP3 ADD AND DUP3 ADD DUP1 PUSH1 0x40 MSTORE POP DUP2 ADD SWAP1 PUSH2 0x3E30 SWAP2 SWAP1 PUSH2 0x5524 JUMP JUMPDEST PUSH1 0x1 PUSH1 0x1 PUSH1 0xA0 SHL SUB AND EQ PUSH2 0x3E86 JUMPI PUSH1 0x40 MLOAD PUSH3 0x461BCD PUSH1 0xE5 SHL DUP2 MSTORE PUSH1 0x20 PUSH1 0x4 DUP3 ADD MSTORE PUSH1 0x18 PUSH1 0x24 DUP3 ADD MSTORE PUSH32 0x50726F7879206973206E6F7420696D706C656D656E7465640000000000000000 PUSH1 0x44 DUP3 ADD MSTORE PUSH1 0x64 ADD PUSH2 0x642 JUMP JUMPDEST PUSH1 0x20 DUP11 ADD MLOAD DUP2 SWAP1 PUSH1 0x1 PUSH1 0x1 PUSH1 0xA0 SHL SUB AND CALLER EQ PUSH2 0x3EB6 JUMPI PUSH1 0x0 DUP7 DUP2 MSTORE PUSH1 0x4 PUSH1 0x20 MSTORE PUSH1 0x40 SWAP1 KECCAK256 DUP1 SLOAD PUSH1 0xFF NOT AND PUSH1 0x1 OR SWAP1 SSTORE JUMPDEST DUP9 PUSH1 0x20 ADD MLOAD PUSH1 0x1 PUSH1 0x1 PUSH1 0xA0 SHL SUB AND CALLER PUSH1 0x1 PUSH1 0x1 PUSH1 0xA0 SHL SUB AND EQ PUSH2 0x3EED JUMPI PUSH1 0x0 DUP6 DUP2 MSTORE PUSH1 0x4 PUSH1 0x20 MSTORE PUSH1 0x40 SWAP1 KECCAK256 DUP1 SLOAD PUSH1 0xFF NOT AND PUSH1 0x1 OR SWAP1 SSTORE JUMPDEST PUSH1 0x0 PUSH2 0x3EF9 DUP13 DUP12 PUSH2 0x49F3 JUMP JUMPDEST SWAP1 POP DUP2 PUSH1 0x1 PUSH1 0x1 PUSH1 0xA0 SHL SUB AND PUSH4 0x1B0F7BA9 DUP12 PUSH2 0x160 ADD MLOAD DUP13 PUSH2 0x180 ADD MLOAD DUP14 PUSH2 0x1A0 ADD MLOAD PUSH1 0x40 MLOAD DUP5 PUSH4 0xFFFFFFFF AND PUSH1 0xE0 SHL DUP2 MSTORE PUSH1 0x4 ADD PUSH2 0x3F3A SWAP4 SWAP3 SWAP2 SWAP1 PUSH2 0x5C36 JUMP JUMPDEST PUSH1 0x20 PUSH1 0x40 MLOAD DUP1 DUP4 SUB DUP2 PUSH1 0x0 DUP8 DUP1 EXTCODESIZE ISZERO DUP1 ISZERO PUSH2 0x3F54 JUMPI PUSH1 0x0 DUP1 REVERT JUMPDEST POP GAS CALL ISZERO DUP1 ISZERO PUSH2 0x3F68 JUMPI RETURNDATASIZE PUSH1 0x0 DUP1 RETURNDATACOPY RETURNDATASIZE PUSH1 0x0 REVERT JUMPDEST POP POP POP POP PUSH1 0x40 MLOAD RETURNDATASIZE PUSH1 0x1F NOT PUSH1 0x1F DUP3 ADD AND DUP3 ADD DUP1 PUSH1 0x40 MSTORE POP DUP2 ADD SWAP1 PUSH2 0x3F8C SWAP2 SWAP1 PUSH2 0x5B39 JUMP JUMPDEST PUSH2 0x3FD8 JUMPI PUSH1 0x40 MLOAD PUSH3 0x461BCD PUSH1 0xE5 SHL DUP2 MSTORE PUSH1 0x20 PUSH1 0x4 DUP3 ADD MSTORE PUSH1 0x19 PUSH1 0x24 DUP3 ADD MSTORE PUSH32 0x43616E6E6F742063616C6C207468726F7567682070726F787900000000000000 PUSH1 0x44 DUP3 ADD MSTORE PUSH1 0x64 ADD PUSH2 0x642 JUMP JUMPDEST PUSH2 0x1E0 DUP13 ADD MLOAD PUSH1 0x1 PUSH1 0x1 PUSH1 0xA0 SHL SUB AND ISZERO PUSH2 0x405E JUMPI PUSH2 0x4006 DUP13 PUSH2 0x1E0 ADD MLOAD DUP12 PUSH2 0x1A0 ADD MLOAD DUP15 PUSH2 0x200 ADD MLOAD PUSH2 0x57A JUMP JUMPDEST PUSH2 0x405E JUMPI PUSH1 0x40 MLOAD PUSH3 0x461BCD PUSH1 0xE5 SHL DUP2 MSTORE PUSH1 0x20 PUSH1 0x4 DUP3 ADD MSTORE PUSH1 0x23 PUSH1 0x24 DUP3 ADD MSTORE PUSH32 0x43616E6E6F742065786563757465206275792D73696465207374617469632063 PUSH1 0x44 DUP3 ADD MSTORE PUSH3 0x185B1B PUSH1 0xEA SHL PUSH1 0x64 DUP3 ADD MSTORE PUSH1 0x84 ADD PUSH2 0x642 JUMP JUMPDEST PUSH2 0x1E0 DUP11 ADD MLOAD PUSH1 0x1 PUSH1 0x1 PUSH1 0xA0 SHL SUB AND ISZERO PUSH2 0x40E4 JUMPI PUSH2 0x408C DUP11 PUSH2 0x1E0 ADD MLOAD DUP12 PUSH2 0x1A0 ADD MLOAD DUP13 PUSH2 0x200 ADD MLOAD PUSH2 0x57A JUMP JUMPDEST PUSH2 0x40E4 JUMPI PUSH1 0x40 MLOAD PUSH3 0x461BCD PUSH1 0xE5 SHL DUP2 MSTORE PUSH1 0x20 PUSH1 0x4 DUP3 ADD MSTORE PUSH1 0x24 DUP1 DUP3 ADD MSTORE PUSH32 0x43616E6E6F7420657865637574652073656C6C2D736964652073746174696320 PUSH1 0x44 DUP3 ADD MSTORE PUSH4 0x18D85B1B PUSH1 0xE2 SHL PUSH1 0x64 DUP3 ADD MSTORE PUSH1 0x84 ADD PUSH2 0x642 JUMP JUMPDEST PUSH1 0xE0 DUP11 ADD MLOAD DUP9 SWAP1 PUSH1 0x1 PUSH1 0x1 PUSH1 0xA0 SHL SUB AND PUSH2 0x4102 JUMPI DUP11 PUSH1 0x20 ADD MLOAD PUSH2 0x4108 JUMP JUMPDEST DUP13 PUSH1 0x20 ADD MLOAD JUMPDEST PUSH1 0xE0 DUP13 ADD MLOAD PUSH1 0x1 PUSH1 0x1 PUSH1 0xA0 SHL SUB SWAP2 DUP3 AND SWAP2 AND PUSH2 0x4128 JUMPI DUP14 PUSH1 0x20 ADD MLOAD PUSH2 0x412E JUMP JUMPDEST DUP12 PUSH1 0x20 ADD MLOAD JUMPDEST PUSH1 0x40 DUP1 MLOAD DUP12 DUP2 MSTORE PUSH1 0x20 DUP2 ADD DUP12 SWAP1 MSTORE SWAP1 DUP2 ADD DUP6 SWAP1 MSTORE PUSH1 0x1 PUSH1 0x1 PUSH1 0xA0 SHL SUB SWAP2 SWAP1 SWAP2 AND SWAP1 PUSH32 0xC4109843E0B7D514E4C093114B863F8E7D8D9A458C372CD51BFE526B588006C9 SWAP1 PUSH1 0x60 ADD PUSH1 0x40 MLOAD DUP1 SWAP2 SUB SWAP1 LOG4 POP POP PUSH1 0x0 DUP1 SLOAD PUSH1 0xFF NOT AND SWAP1 SSTORE POP POP POP POP POP POP POP POP POP POP JUMP JUMPDEST DUP1 MLOAD PUSH1 0x0 SWAP1 PUSH1 0x1 PUSH1 0x1 PUSH1 0xA0 SHL SUB AND ADDRESS EQ PUSH2 0x41B0 JUMPI POP PUSH1 0x0 SWAP2 SWAP1 POP JUMP JUMPDEST PUSH2 0x41C4 DUP3 PUSH2 0x140 ADD MLOAD DUP4 PUSH2 0x2A0 ADD MLOAD PUSH2 0x502C JUMP JUMPDEST PUSH2 0x41D0 JUMPI POP PUSH1 0x0 SWAP2 SWAP1 POP JUMP JUMPDEST PUSH1 0x1 DUP3 PUSH2 0x100 ADD MLOAD PUSH1 0x1 DUP2 GT ISZERO PUSH2 0x41F7 JUMPI PUSH4 0x4E487B71 PUSH1 0xE0 SHL PUSH1 0x0 MSTORE PUSH1 0x21 PUSH1 0x4 MSTORE PUSH1 0x24 PUSH1 0x0 REVERT JUMPDEST EQ DUP1 ISZERO PUSH2 0x4218 JUMPI POP PUSH1 0x6 SLOAD DUP3 PUSH1 0xA0 ADD MLOAD LT DUP1 PUSH2 0x4218 JUMPI POP PUSH1 0x7 SLOAD DUP3 PUSH1 0xC0 ADD MLOAD LT JUMPDEST ISZERO PUSH2 0x4225 JUMPI POP PUSH1 0x0 SWAP2 SWAP1 POP JUMP JUMPDEST POP PUSH1 0x1 SWAP2 SWAP1 POP JUMP JUMPDEST PUSH1 0x0 DUP1 PUSH2 0x425C DUP4 PUSH2 0x120 ADD MLOAD DUP5 PUSH2 0x140 ADD MLOAD DUP6 PUSH2 0x240 ADD MLOAD DUP7 PUSH2 0x260 ADD MLOAD DUP8 PUSH2 0x280 ADD MLOAD DUP9 PUSH2 0x2A0 ADD MLOAD PUSH2 0x4342 JUMP JUMPDEST SWAP1 POP PUSH1 0x0 PUSH2 0x428C DUP6 PUSH2 0x120 ADD MLOAD DUP7 PUSH2 0x140 ADD MLOAD DUP8 PUSH2 0x240 ADD MLOAD DUP9 PUSH2 0x260 ADD MLOAD DUP10 PUSH2 0x280 ADD MLOAD DUP11 PUSH2 0x2A0 ADD MLOAD PUSH2 0x4342 JUMP JUMPDEST SWAP1 POP DUP2 DUP2 LT ISZERO PUSH2 0x429B JUMPI PUSH1 0x0 DUP1 REVERT JUMPDEST PUSH1 0xE0 DUP5 ADD MLOAD PUSH1 0x1 PUSH1 0x1 PUSH1 0xA0 SHL SUB AND PUSH2 0x42B3 JUMPI DUP1 PUSH2 0x42B5 JUMP JUMPDEST DUP2 JUMPDEST SWAP6 SWAP5 POP POP POP POP POP JUMP JUMPDEST PUSH1 0x0 SLOAD PUSH1 0x1 PUSH1 0xA8 SHL SWAP1 DIV PUSH1 0xFF AND PUSH2 0x430E JUMPI PUSH1 0x40 MLOAD PUSH3 0x461BCD PUSH1 0xE5 SHL DUP2 MSTORE PUSH1 0x20 PUSH1 0x4 DUP3 ADD MSTORE PUSH1 0x14 PUSH1 0x24 DUP3 ADD MSTORE PUSH20 0x14185D5CD8589B194E881B9BDD081C185D5CD959 PUSH1 0x62 SHL PUSH1 0x44 DUP3 ADD MSTORE PUSH1 0x64 ADD PUSH2 0x642 JUMP JUMPDEST PUSH1 0x0 DUP1 SLOAD PUSH1 0xFF PUSH1 0xA8 SHL NOT AND SWAP1 SSTORE PUSH32 0x5DB9EE0A495BF2E6FF9C91A7834C1BA4FDD244A5E8AA4E537BD38AEAE4B073AA CALLER PUSH2 0x3918 JUMP JUMPDEST PUSH1 0x0 DUP1 DUP7 PUSH1 0x1 DUP2 GT ISZERO PUSH2 0x4365 JUMPI PUSH4 0x4E487B71 PUSH1 0xE0 SHL PUSH1 0x0 MSTORE PUSH1 0x21 PUSH1 0x4 MSTORE PUSH1 0x24 PUSH1 0x0 REVERT JUMPDEST EQ ISZERO PUSH2 0x4372 JUMPI POP DUP4 PUSH2 0x440A JUMP JUMPDEST PUSH1 0x1 DUP7 PUSH1 0x1 DUP2 GT ISZERO PUSH2 0x4394 JUMPI PUSH4 0x4E487B71 PUSH1 0xE0 SHL PUSH1 0x0 MSTORE PUSH1 0x21 PUSH1 0x4 MSTORE PUSH1 0x24 PUSH1 0x0 REVERT JUMPDEST EQ ISZERO PUSH2 0x440A JUMPI PUSH1 0x0 PUSH2 0x43A6 DUP5 DUP5 PUSH2 0x5DB9 JUMP JUMPDEST PUSH2 0x43B0 DUP6 TIMESTAMP PUSH2 0x5DB9 JUMP JUMPDEST PUSH2 0x43BA SWAP1 DUP8 PUSH2 0x5D9A JUMP JUMPDEST PUSH2 0x43C4 SWAP2 SWAP1 PUSH2 0x5D7A JUMP JUMPDEST SWAP1 POP PUSH1 0x1 DUP9 PUSH1 0x1 DUP2 GT ISZERO PUSH2 0x43E8 JUMPI PUSH4 0x4E487B71 PUSH1 0xE0 SHL PUSH1 0x0 MSTORE PUSH1 0x21 PUSH1 0x4 MSTORE PUSH1 0x24 PUSH1 0x0 REVERT JUMPDEST EQ ISZERO PUSH2 0x4400 JUMPI PUSH2 0x43F8 DUP2 DUP8 PUSH2 0x5DB9 JUMP JUMPDEST SWAP2 POP POP PUSH2 0x440A JUMP JUMPDEST PUSH2 0x43F8 DUP2 DUP8 PUSH2 0x5D62 JUMP JUMPDEST SWAP7 SWAP6 POP POP POP POP POP POP JUMP JUMPDEST PUSH1 0x0 DUP2 PUSH2 0x200 ADD MLOAD MLOAD DUP3 PUSH2 0x1C0 ADD MLOAD MLOAD DUP4 PUSH2 0x1A0 ADD MLOAD MLOAD PUSH2 0x1B0 PUSH2 0x4438 SWAP2 SWAP1 PUSH2 0x5D62 JUMP JUMPDEST PUSH2 0x4442 SWAP2 SWAP1 PUSH2 0x5D62 JUMP JUMPDEST PUSH2 0x33A6 SWAP2 SWAP1 PUSH2 0x5D62 JUMP JUMPDEST PUSH1 0x60 SHL PUSH12 0xFFFFFFFFFFFFFFFFFFFFFFFF NOT AND DUP2 MSTORE PUSH1 0x14 ADD SWAP1 JUMP JUMPDEST PUSH1 0x0 DUP2 DUP4 MSTORE8 POP POP PUSH1 0x1 ADD SWAP1 JUMP JUMPDEST PUSH1 0x0 DUP1 PUSH2 0x447F DUP5 PUSH2 0x33AC JUMP JUMPDEST SWAP1 POP PUSH2 0x448C DUP2 DUP6 DUP6 PUSH2 0x3408 JUMP JUMPDEST PUSH2 0x60B JUMPI PUSH1 0x40 MLOAD PUSH3 0x461BCD PUSH1 0xE5 SHL DUP2 MSTORE PUSH1 0x20 PUSH1 0x4 DUP3 ADD MSTORE PUSH1 0xE PUSH1 0x24 DUP3 ADD MSTORE PUSH14 0x121054D217D393D517D590531251 PUSH1 0x92 SHL PUSH1 0x44 DUP3 ADD MSTORE PUSH1 0x64 ADD PUSH2 0x642 JUMP JUMPDEST PUSH1 0x0 DUP1 DUP4 PUSH2 0x120 ADD MLOAD PUSH1 0x1 DUP2 GT ISZERO PUSH2 0x44F1 JUMPI PUSH4 0x4E487B71 PUSH1 0xE0 SHL PUSH1 0x0 MSTORE PUSH1 0x21 PUSH1 0x4 MSTORE PUSH1 0x24 PUSH1 0x0 REVERT JUMPDEST EQ DUP1 ISZERO PUSH2 0x4522 JUMPI POP PUSH1 0x1 DUP3 PUSH2 0x120 ADD MLOAD PUSH1 0x1 DUP2 GT ISZERO PUSH2 0x4520 JUMPI PUSH4 0x4E487B71 PUSH1 0xE0 SHL PUSH1 0x0 MSTORE PUSH1 0x21 PUSH1 0x4 MSTORE PUSH1 0x24 PUSH1 0x0 REVERT JUMPDEST EQ JUMPDEST DUP1 ISZERO PUSH2 0x4575 JUMPI POP DUP2 PUSH2 0x100 ADD MLOAD PUSH1 0x1 DUP2 GT ISZERO PUSH2 0x454E JUMPI PUSH4 0x4E487B71 PUSH1 0xE0 SHL PUSH1 0x0 MSTORE PUSH1 0x21 PUSH1 0x4 MSTORE PUSH1 0x24 PUSH1 0x0 REVERT JUMPDEST DUP4 PUSH2 0x100 ADD MLOAD PUSH1 0x1 DUP2 GT ISZERO PUSH2 0x4573 JUMPI PUSH4 0x4E487B71 PUSH1 0xE0 SHL PUSH1 0x0 MSTORE PUSH1 0x21 PUSH1 0x4 MSTORE PUSH1 0x24 PUSH1 0x0 REVERT JUMPDEST EQ JUMPDEST DUP1 ISZERO PUSH2 0x459C JUMPI POP DUP2 PUSH2 0x220 ADD MLOAD PUSH1 0x1 PUSH1 0x1 PUSH1 0xA0 SHL SUB AND DUP4 PUSH2 0x220 ADD MLOAD PUSH1 0x1 PUSH1 0x1 PUSH1 0xA0 SHL SUB AND EQ JUMPDEST DUP1 ISZERO PUSH2 0x45D6 JUMPI POP PUSH1 0x40 DUP3 ADD MLOAD PUSH1 0x1 PUSH1 0x1 PUSH1 0xA0 SHL SUB AND ISZERO DUP1 PUSH2 0x45D6 JUMPI POP DUP3 PUSH1 0x20 ADD MLOAD PUSH1 0x1 PUSH1 0x1 PUSH1 0xA0 SHL SUB AND DUP3 PUSH1 0x40 ADD MLOAD PUSH1 0x1 PUSH1 0x1 PUSH1 0xA0 SHL SUB AND EQ JUMPDEST DUP1 ISZERO PUSH2 0x4610 JUMPI POP PUSH1 0x40 DUP4 ADD MLOAD PUSH1 0x1 PUSH1 0x1 PUSH1 0xA0 SHL SUB AND ISZERO DUP1 PUSH2 0x4610 JUMPI POP DUP2 PUSH1 0x20 ADD MLOAD PUSH1 0x1 PUSH1 0x1 PUSH1 0xA0 SHL SUB AND DUP4 PUSH1 0x40 ADD MLOAD PUSH1 0x1 PUSH1 0x1 PUSH1 0xA0 SHL SUB AND EQ JUMPDEST DUP1 ISZERO PUSH2 0x466B JUMPI POP PUSH1 0xE0 DUP3 ADD MLOAD PUSH1 0x1 PUSH1 0x1 PUSH1 0xA0 SHL SUB AND ISZERO DUP1 ISZERO PUSH2 0x463E JUMPI POP PUSH1 0xE0 DUP4 ADD MLOAD PUSH1 0x1 PUSH1 0x1 PUSH1 0xA0 SHL SUB AND ISZERO ISZERO JUMPDEST DUP1 PUSH2 0x466B JUMPI POP PUSH1 0xE0 DUP3 ADD MLOAD PUSH1 0x1 PUSH1 0x1 PUSH1 0xA0 SHL SUB AND ISZERO DUP1 ISZERO SWAP1 PUSH2 0x466B JUMPI POP PUSH1 0xE0 DUP4 ADD MLOAD PUSH1 0x1 PUSH1 0x1 PUSH1 0xA0 SHL SUB AND ISZERO JUMPDEST DUP1 ISZERO PUSH2 0x4692 JUMPI POP DUP2 PUSH2 0x160 ADD MLOAD PUSH1 0x1 PUSH1 0x1 PUSH1 0xA0 SHL SUB AND DUP4 PUSH2 0x160 ADD MLOAD PUSH1 0x1 PUSH1 0x1 PUSH1 0xA0 SHL SUB AND EQ JUMPDEST DUP1 ISZERO PUSH2 0x46E5 JUMPI POP DUP2 PUSH2 0x180 ADD MLOAD PUSH1 0x1 DUP2 GT ISZERO PUSH2 0x46BE JUMPI PUSH4 0x4E487B71 PUSH1 0xE0 SHL PUSH1 0x0 MSTORE PUSH1 0x21 PUSH1 0x4 MSTORE PUSH1 0x24 PUSH1 0x0 REVERT JUMPDEST DUP4 PUSH2 0x180 ADD MLOAD PUSH1 0x1 DUP2 GT ISZERO PUSH2 0x46E3 JUMPI PUSH4 0x4E487B71 PUSH1 0xE0 SHL PUSH1 0x0 MSTORE PUSH1 0x21 PUSH1 0x4 MSTORE PUSH1 0x24 PUSH1 0x0 REVERT JUMPDEST EQ JUMPDEST DUP1 ISZERO PUSH2 0x4700 JUMPI POP PUSH2 0x4700 DUP4 PUSH2 0x280 ADD MLOAD DUP5 PUSH2 0x2A0 ADD MLOAD PUSH2 0x505E JUMP JUMPDEST DUP1 ISZERO PUSH2 0x60B JUMPI POP PUSH2 0x60B DUP3 PUSH2 0x280 ADD MLOAD DUP4 PUSH2 0x2A0 ADD MLOAD PUSH2 0x505E JUMP JUMPDEST DUP2 MLOAD DUP4 MLOAD EQ PUSH2 0x476C JUMPI PUSH1 0x40 MLOAD PUSH3 0x461BCD PUSH1 0xE5 SHL DUP2 MSTORE PUSH1 0x20 PUSH1 0x4 DUP3 ADD MSTORE PUSH1 0x1D PUSH1 0x24 DUP3 ADD MSTORE PUSH32 0x417272617973206861766520646966666572656E74206C656E67746873000000 PUSH1 0x44 DUP3 ADD MSTORE PUSH1 0x64 ADD PUSH2 0x642 JUMP JUMPDEST DUP1 MLOAD DUP4 MLOAD EQ PUSH2 0x47CB JUMPI PUSH1 0x40 MLOAD PUSH3 0x461BCD PUSH1 0xE5 SHL DUP2 MSTORE PUSH1 0x20 PUSH1 0x4 DUP3 ADD MSTORE PUSH1 0x25 PUSH1 0x24 DUP3 ADD MSTORE PUSH32 0x417272617920616E64206D61736B206861766520646966666572656E74206C65 PUSH1 0x44 DUP3 ADD MSTORE PUSH5 0x6E67746873 PUSH1 0xD8 SHL PUSH1 0x64 DUP3 ADD MSTORE PUSH1 0x84 ADD PUSH2 0x642 JUMP JUMPDEST PUSH1 0x0 PUSH1 0x20 DUP5 MLOAD PUSH2 0x47DB SWAP2 SWAP1 PUSH2 0x5D7A JUMP JUMPDEST SWAP1 POP PUSH1 0x0 PUSH2 0x47EA DUP3 PUSH1 0x20 PUSH2 0x5D9A JUMP JUMPDEST SWAP1 POP DUP2 PUSH2 0x47F8 PUSH1 0x20 DUP4 PUSH2 0x5D7A JUMP JUMPDEST EQ PUSH2 0x4813 JUMPI PUSH4 0x4E487B71 PUSH1 0xE0 SHL PUSH1 0x0 MSTORE PUSH1 0x1 PUSH1 0x4 MSTORE PUSH1 0x24 PUSH1 0x0 REVERT JUMPDEST PUSH1 0x0 JUMPDEST DUP3 DUP2 LT ISZERO PUSH2 0x4850 JUMPI DUP1 PUSH1 0x1 ADD PUSH1 0x20 MUL DUP1 DUP6 ADD MLOAD DUP2 DUP8 ADD MLOAD DUP2 AND DUP3 DUP10 ADD MLOAD DUP3 NOT AND OR DUP3 DUP10 ADD MSTORE POP POP DUP1 DUP1 PUSH2 0x4848 SWAP1 PUSH2 0x5DD0 JUMP JUMPDEST SWAP2 POP POP PUSH2 0x4816 JUMP JUMPDEST DUP3 ISZERO PUSH2 0x487D JUMPI DUP3 SWAP1 POP DUP1 PUSH1 0x1 ADD PUSH1 0x20 MUL DUP1 DUP6 ADD MLOAD DUP2 DUP8 ADD MLOAD DUP2 AND DUP3 DUP10 ADD MLOAD DUP3 NOT AND OR DUP3 DUP10 ADD MSTORE POP POP PUSH2 0x4987 JUMP JUMPDEST POP DUP1 JUMPDEST DUP6 MLOAD DUP2 LT ISZERO PUSH2 0x4987 JUMPI DUP5 DUP2 DUP2 MLOAD DUP2 LT PUSH2 0x48A9 JUMPI PUSH4 0x4E487B71 PUSH1 0xE0 SHL PUSH1 0x0 MSTORE PUSH1 0x32 PUSH1 0x4 MSTORE PUSH1 0x24 PUSH1 0x0 REVERT JUMPDEST PUSH1 0x20 ADD ADD MLOAD PUSH1 0xF8 SHR PUSH1 0xF8 SHL DUP5 DUP3 DUP2 MLOAD DUP2 LT PUSH2 0x48D4 JUMPI PUSH4 0x4E487B71 PUSH1 0xE0 SHL PUSH1 0x0 MSTORE PUSH1 0x32 PUSH1 0x4 MSTORE PUSH1 0x24 PUSH1 0x0 REVERT JUMPDEST PUSH1 0x20 ADD ADD MLOAD PUSH1 0xF8 SHR PUSH1 0xF8 SHL AND DUP7 DUP3 DUP2 MLOAD DUP2 LT PUSH2 0x4900 JUMPI PUSH4 0x4E487B71 PUSH1 0xE0 SHL PUSH1 0x0 MSTORE PUSH1 0x32 PUSH1 0x4 MSTORE PUSH1 0x24 PUSH1 0x0 REVERT JUMPDEST PUSH1 0x20 ADD ADD MLOAD PUSH1 0xF8 SHR PUSH1 0xF8 SHL DUP6 DUP4 DUP2 MLOAD DUP2 LT PUSH2 0x492B JUMPI PUSH4 0x4E487B71 PUSH1 0xE0 SHL PUSH1 0x0 MSTORE PUSH1 0x32 PUSH1 0x4 MSTORE PUSH1 0x24 PUSH1 0x0 REVERT JUMPDEST PUSH1 0x20 ADD ADD MLOAD PUSH1 0xF8 SHR PUSH1 0xF8 SHL PUSH1 0xFF PUSH1 0xF8 SHL XOR AND OR DUP7 DUP3 DUP2 MLOAD DUP2 LT PUSH2 0x495E JUMPI PUSH4 0x4E487B71 PUSH1 0xE0 SHL PUSH1 0x0 MSTORE PUSH1 0x32 PUSH1 0x4 MSTORE PUSH1 0x24 PUSH1 0x0 REVERT JUMPDEST PUSH1 0x20 ADD ADD SWAP1 PUSH1 0x1 PUSH1 0x1 PUSH1 0xF8 SHL SUB NOT AND SWAP1 DUP2 PUSH1 0x0 BYTE SWAP1 MSTORE8 POP DUP1 PUSH2 0x497F DUP2 PUSH2 0x5DD0 JUMP JUMPDEST SWAP2 POP POP PUSH2 0x4880 JUMP JUMPDEST POP POP POP POP POP POP JUMP JUMPDEST DUP2 MLOAD DUP2 MLOAD PUSH1 0x0 SWAP2 PUSH1 0x1 SWAP2 DUP2 EQ DUP1 DUP4 EQ PUSH2 0x49AB JUMPI PUSH1 0x0 SWAP3 POP PUSH2 0x49E9 JUMP JUMPDEST PUSH1 0x1 PUSH1 0x20 DUP8 ADD DUP4 DUP2 ADD PUSH1 0x20 DUP9 ADD JUMPDEST PUSH1 0x2 DUP5 DUP4 DUP6 LT ADD EQ ISZERO PUSH2 0x49E4 JUMPI DUP1 MLOAD DUP4 MLOAD EQ PUSH2 0x49D8 JUMPI PUSH1 0x0 SWAP7 POP PUSH1 0x0 SWAP4 POP JUMPDEST PUSH1 0x20 SWAP3 DUP4 ADD SWAP3 ADD PUSH2 0x49B9 JUMP JUMPDEST POP POP POP POP JUMPDEST POP SWAP1 SWAP5 SWAP4 POP POP POP POP JUMP JUMPDEST PUSH2 0x220 DUP2 ADD MLOAD PUSH1 0x0 SWAP1 PUSH1 0x1 PUSH1 0x1 PUSH1 0xA0 SHL SUB AND ISZERO PUSH2 0x4A15 JUMPI CALLVALUE ISZERO PUSH2 0x4A15 JUMPI PUSH1 0x0 DUP1 REVERT JUMPDEST PUSH1 0x0 PUSH2 0x4A21 DUP5 DUP5 PUSH2 0x422D JUMP JUMPDEST SWAP1 POP PUSH1 0x0 DUP2 GT DUP1 ISZERO PUSH2 0x4A40 JUMPI POP PUSH2 0x220 DUP4 ADD MLOAD PUSH1 0x1 PUSH1 0x1 PUSH1 0xA0 SHL SUB AND ISZERO ISZERO JUMPDEST ISZERO PUSH2 0x4A5E JUMPI PUSH2 0x4A5E DUP4 PUSH2 0x220 ADD MLOAD DUP6 PUSH1 0x20 ADD MLOAD DUP6 PUSH1 0x20 ADD MLOAD DUP5 PUSH2 0x507A JUMP JUMPDEST PUSH1 0xE0 DUP4 ADD MLOAD DUP2 SWAP1 DUP2 SWAP1 PUSH1 0x1 PUSH1 0x1 PUSH1 0xA0 SHL SUB AND ISZERO PUSH2 0x4DAB JUMPI DUP6 PUSH1 0x80 ADD MLOAD DUP6 PUSH1 0x80 ADD MLOAD GT ISZERO PUSH2 0x4A8A JUMPI PUSH1 0x0 DUP1 REVERT JUMPDEST PUSH1 0x1 DUP6 PUSH2 0x100 ADD MLOAD PUSH1 0x1 DUP2 GT ISZERO PUSH2 0x4AB1 JUMPI PUSH4 0x4E487B71 PUSH1 0xE0 SHL PUSH1 0x0 MSTORE PUSH1 0x21 PUSH1 0x4 MSTORE PUSH1 0x24 PUSH1 0x0 REVERT JUMPDEST EQ ISZERO PUSH2 0x4D7D JUMPI DUP6 PUSH1 0xC0 ADD MLOAD DUP6 PUSH1 0xC0 ADD MLOAD GT ISZERO PUSH2 0x4ACC JUMPI PUSH1 0x0 DUP1 REVERT JUMPDEST PUSH1 0x60 DUP6 ADD MLOAD ISZERO PUSH2 0x4B73 JUMPI PUSH1 0x0 PUSH2 0x2710 DUP5 DUP8 PUSH1 0x60 ADD MLOAD PUSH2 0x4AEB SWAP2 SWAP1 PUSH2 0x5D9A JUMP JUMPDEST PUSH2 0x4AF5 SWAP2 SWAP1 PUSH2 0x5D7A JUMP JUMPDEST PUSH2 0x220 DUP8 ADD MLOAD SWAP1 SWAP2 POP PUSH1 0x1 PUSH1 0x1 PUSH1 0xA0 SHL SUB AND PUSH2 0x4B58 JUMPI PUSH2 0x4B15 DUP2 DUP5 PUSH2 0x5DB9 JUMP JUMPDEST PUSH1 0xE0 DUP8 ADD MLOAD PUSH1 0x40 MLOAD SWAP2 SWAP5 POP PUSH1 0x1 PUSH1 0x1 PUSH1 0xA0 SHL SUB AND SWAP1 DUP3 ISZERO PUSH2 0x8FC MUL SWAP1 DUP4 SWAP1 PUSH1 0x0 DUP2 DUP2 DUP2 DUP6 DUP9 DUP9 CALL SWAP4 POP POP POP POP ISZERO DUP1 ISZERO PUSH2 0x4B52 JUMPI RETURNDATASIZE PUSH1 0x0 DUP1 RETURNDATACOPY RETURNDATASIZE PUSH1 0x0 REVERT JUMPDEST POP PUSH2 0x4B71 JUMP JUMPDEST PUSH2 0x4B71 DUP7 PUSH2 0x220 ADD MLOAD DUP8 PUSH1 0x20 ADD MLOAD DUP9 PUSH1 0xE0 ADD MLOAD DUP5 PUSH2 0x507A JUMP JUMPDEST POP JUMPDEST PUSH1 0x80 DUP6 ADD MLOAD ISZERO PUSH2 0x4C1A JUMPI PUSH1 0x0 PUSH2 0x2710 DUP5 DUP8 PUSH1 0x80 ADD MLOAD PUSH2 0x4B92 SWAP2 SWAP1 PUSH2 0x5D9A JUMP JUMPDEST PUSH2 0x4B9C SWAP2 SWAP1 PUSH2 0x5D7A JUMP JUMPDEST PUSH2 0x220 DUP8 ADD MLOAD SWAP1 SWAP2 POP PUSH1 0x1 PUSH1 0x1 PUSH1 0xA0 SHL SUB AND PUSH2 0x4BFF JUMPI PUSH2 0x4BBC DUP2 DUP4 PUSH2 0x5D62 JUMP JUMPDEST PUSH1 0xE0 DUP8 ADD MLOAD PUSH1 0x40 MLOAD SWAP2 SWAP4 POP PUSH1 0x1 PUSH1 0x1 PUSH1 0xA0 SHL SUB AND SWAP1 DUP3 ISZERO PUSH2 0x8FC MUL SWAP1 DUP4 SWAP1 PUSH1 0x0 DUP2 DUP2 DUP2 DUP6 DUP9 DUP9 CALL SWAP4 POP POP POP POP ISZERO DUP1 ISZERO PUSH2 0x4BF9 JUMPI RETURNDATASIZE PUSH1 0x0 DUP1 RETURNDATACOPY RETURNDATASIZE PUSH1 0x0 REVERT JUMPDEST POP PUSH2 0x4C18 JUMP JUMPDEST PUSH2 0x4C18 DUP7 PUSH2 0x220 ADD MLOAD DUP9 PUSH1 0x20 ADD MLOAD DUP9 PUSH1 0xE0 ADD MLOAD DUP5 PUSH2 0x507A JUMP JUMPDEST POP JUMPDEST PUSH1 0xA0 DUP6 ADD MLOAD ISZERO PUSH2 0x4CC9 JUMPI PUSH1 0x0 PUSH2 0x2710 DUP5 DUP8 PUSH1 0xA0 ADD MLOAD PUSH2 0x4C39 SWAP2 SWAP1 PUSH2 0x5D9A JUMP JUMPDEST PUSH2 0x4C43 SWAP2 SWAP1 PUSH2 0x5D7A JUMP JUMPDEST PUSH2 0x220 DUP8 ADD MLOAD SWAP1 SWAP2 POP PUSH1 0x1 PUSH1 0x1 PUSH1 0xA0 SHL SUB AND PUSH2 0x4CA4 JUMPI PUSH2 0x4C63 DUP2 DUP5 PUSH2 0x5DB9 JUMP JUMPDEST PUSH1 0x8 SLOAD PUSH1 0x40 MLOAD SWAP2 SWAP5 POP PUSH1 0x1 PUSH1 0x1 PUSH1 0xA0 SHL SUB AND SWAP1 DUP3 ISZERO PUSH2 0x8FC MUL SWAP1 DUP4 SWAP1 PUSH1 0x0 DUP2 DUP2 DUP2 DUP6 DUP9 DUP9 CALL SWAP4 POP POP POP POP ISZERO DUP1 ISZERO PUSH2 0x4C9E JUMPI RETURNDATASIZE PUSH1 0x0 DUP1 RETURNDATACOPY RETURNDATASIZE PUSH1 0x0 REVERT JUMPDEST POP PUSH2 0x4CC7 JUMP JUMPDEST PUSH2 0x220 DUP7 ADD MLOAD PUSH1 0x20 DUP8 ADD MLOAD PUSH1 0x8 SLOAD PUSH2 0x4CC7 SWAP3 SWAP2 SWAP1 PUSH1 0x1 PUSH1 0x1 PUSH1 0xA0 SHL SUB AND DUP5 PUSH2 0x507A JUMP JUMPDEST POP JUMPDEST PUSH1 0xC0 DUP6 ADD MLOAD ISZERO PUSH2 0x4D78 JUMPI PUSH1 0x0 PUSH2 0x2710 DUP5 DUP8 PUSH1 0xC0 ADD MLOAD PUSH2 0x4CE8 SWAP2 SWAP1 PUSH2 0x5D9A JUMP JUMPDEST PUSH2 0x4CF2 SWAP2 SWAP1 PUSH2 0x5D7A JUMP JUMPDEST PUSH2 0x220 DUP8 ADD MLOAD SWAP1 SWAP2 POP PUSH1 0x1 PUSH1 0x1 PUSH1 0xA0 SHL SUB AND PUSH2 0x4D53 JUMPI PUSH2 0x4D12 DUP2 DUP4 PUSH2 0x5D62 JUMP JUMPDEST PUSH1 0x8 SLOAD PUSH1 0x40 MLOAD SWAP2 SWAP4 POP PUSH1 0x1 PUSH1 0x1 PUSH1 0xA0 SHL SUB AND SWAP1 DUP3 ISZERO PUSH2 0x8FC MUL SWAP1 DUP4 SWAP1 PUSH1 0x0 DUP2 DUP2 DUP2 DUP6 DUP9 DUP9 CALL SWAP4 POP POP POP POP ISZERO DUP1 ISZERO PUSH2 0x4D4D JUMPI RETURNDATASIZE PUSH1 0x0 DUP1 RETURNDATACOPY RETURNDATASIZE PUSH1 0x0 REVERT JUMPDEST POP PUSH2 0x4D76 JUMP JUMPDEST PUSH2 0x220 DUP7 ADD MLOAD PUSH1 0x20 DUP9 ADD MLOAD PUSH1 0x8 SLOAD PUSH2 0x4D76 SWAP3 SWAP2 SWAP1 PUSH1 0x1 PUSH1 0x1 PUSH1 0xA0 SHL SUB AND DUP5 PUSH2 0x507A JUMP JUMPDEST POP JUMPDEST PUSH2 0x4F70 JUMP JUMPDEST PUSH2 0x4D94 DUP6 PUSH1 0x20 ADD MLOAD DUP7 PUSH1 0xE0 ADD MLOAD DUP8 PUSH1 0x60 ADD MLOAD PUSH2 0x5125 JUMP JUMPDEST PUSH2 0x4D78 DUP7 PUSH1 0x20 ADD MLOAD DUP7 PUSH1 0xE0 ADD MLOAD DUP8 PUSH1 0x80 ADD MLOAD PUSH2 0x5125 JUMP JUMPDEST DUP5 PUSH1 0x80 ADD MLOAD DUP7 PUSH1 0x80 ADD MLOAD GT ISZERO PUSH2 0x4DC0 JUMPI PUSH1 0x0 DUP1 REVERT JUMPDEST PUSH1 0x1 DUP6 PUSH2 0x100 ADD MLOAD PUSH1 0x1 DUP2 GT ISZERO PUSH2 0x4DE7 JUMPI PUSH4 0x4E487B71 PUSH1 0xE0 SHL PUSH1 0x0 MSTORE PUSH1 0x21 PUSH1 0x4 MSTORE PUSH1 0x24 PUSH1 0x0 REVERT JUMPDEST EQ ISZERO PUSH2 0x4F42 JUMPI PUSH2 0x220 DUP6 ADD MLOAD PUSH1 0x1 PUSH1 0x1 PUSH1 0xA0 SHL SUB AND PUSH2 0x4E05 JUMPI PUSH1 0x0 DUP1 REVERT JUMPDEST DUP5 PUSH1 0xC0 ADD MLOAD DUP7 PUSH1 0xC0 ADD MLOAD GT ISZERO PUSH2 0x4E1A JUMPI PUSH1 0x0 DUP1 REVERT JUMPDEST PUSH1 0x60 DUP7 ADD MLOAD ISZERO PUSH2 0x4E60 JUMPI PUSH1 0x0 PUSH2 0x2710 DUP5 DUP9 PUSH1 0x60 ADD MLOAD PUSH2 0x4E39 SWAP2 SWAP1 PUSH2 0x5D9A JUMP JUMPDEST PUSH2 0x4E43 SWAP2 SWAP1 PUSH2 0x5D7A JUMP JUMPDEST SWAP1 POP PUSH2 0x4E5E DUP7 PUSH2 0x220 ADD MLOAD DUP9 PUSH1 0x20 ADD MLOAD DUP10 PUSH1 0xE0 ADD MLOAD DUP5 PUSH2 0x507A JUMP JUMPDEST POP JUMPDEST PUSH1 0x80 DUP7 ADD MLOAD ISZERO PUSH2 0x4EA6 JUMPI PUSH1 0x0 PUSH2 0x2710 DUP5 DUP9 PUSH1 0x80 ADD MLOAD PUSH2 0x4E7F SWAP2 SWAP1 PUSH2 0x5D9A JUMP JUMPDEST PUSH2 0x4E89 SWAP2 SWAP1 PUSH2 0x5D7A JUMP JUMPDEST SWAP1 POP PUSH2 0x4EA4 DUP7 PUSH2 0x220 ADD MLOAD DUP8 PUSH1 0x20 ADD MLOAD DUP10 PUSH1 0xE0 ADD MLOAD DUP5 PUSH2 0x507A JUMP JUMPDEST POP JUMPDEST PUSH1 0xA0 DUP7 ADD MLOAD ISZERO PUSH2 0x4EF5 JUMPI PUSH1 0x0 PUSH2 0x2710 DUP5 DUP9 PUSH1 0xA0 ADD MLOAD PUSH2 0x4EC5 SWAP2 SWAP1 PUSH2 0x5D9A JUMP JUMPDEST PUSH2 0x4ECF SWAP2 SWAP1 PUSH2 0x5D7A JUMP JUMPDEST PUSH2 0x220 DUP8 ADD MLOAD PUSH1 0x20 DUP10 ADD MLOAD PUSH1 0x8 SLOAD SWAP3 SWAP4 POP PUSH2 0x4EF3 SWAP3 PUSH1 0x1 PUSH1 0x1 PUSH1 0xA0 SHL SUB AND DUP5 PUSH2 0x507A JUMP JUMPDEST POP JUMPDEST PUSH1 0xC0 DUP7 ADD MLOAD ISZERO PUSH2 0x4D78 JUMPI PUSH1 0x0 PUSH2 0x2710 DUP5 DUP9 PUSH1 0xC0 ADD MLOAD PUSH2 0x4F14 SWAP2 SWAP1 PUSH2 0x5D9A JUMP JUMPDEST PUSH2 0x4F1E SWAP2 SWAP1 PUSH2 0x5D7A JUMP JUMPDEST PUSH2 0x220 DUP8 ADD MLOAD PUSH1 0x20 DUP9 ADD MLOAD PUSH1 0x8 SLOAD SWAP3 SWAP4 POP PUSH2 0x4D76 SWAP3 PUSH1 0x1 PUSH1 0x1 PUSH1 0xA0 SHL SUB AND DUP5 PUSH2 0x507A JUMP JUMPDEST PUSH2 0x4F59 DUP7 PUSH1 0x20 ADD MLOAD DUP8 PUSH1 0xE0 ADD MLOAD DUP9 PUSH1 0x60 ADD MLOAD PUSH2 0x5125 JUMP JUMPDEST PUSH2 0x4F70 DUP6 PUSH1 0x20 ADD MLOAD DUP8 PUSH1 0xE0 ADD MLOAD DUP9 PUSH1 0x80 ADD MLOAD PUSH2 0x5125 JUMP JUMPDEST PUSH2 0x220 DUP6 ADD MLOAD PUSH1 0x1 PUSH1 0x1 PUSH1 0xA0 SHL SUB AND PUSH2 0x49E9 JUMPI DUP1 CALLVALUE LT ISZERO PUSH2 0x4F90 JUMPI PUSH1 0x0 DUP1 REVERT JUMPDEST DUP5 PUSH1 0x20 ADD MLOAD PUSH1 0x1 PUSH1 0x1 PUSH1 0xA0 SHL SUB AND PUSH2 0x8FC DUP4 SWAP1 DUP2 ISZERO MUL SWAP1 PUSH1 0x40 MLOAD PUSH1 0x0 PUSH1 0x40 MLOAD DUP1 DUP4 SUB DUP2 DUP6 DUP9 DUP9 CALL SWAP4 POP POP POP POP ISZERO DUP1 ISZERO PUSH2 0x4FCD JUMPI RETURNDATASIZE PUSH1 0x0 DUP1 RETURNDATACOPY RETURNDATASIZE PUSH1 0x0 REVERT JUMPDEST POP PUSH1 0x0 PUSH2 0x4FDA DUP3 CALLVALUE PUSH2 0x5DB9 JUMP JUMPDEST SWAP1 POP DUP1 ISZERO PUSH2 0x5021 JUMPI DUP7 PUSH1 0x20 ADD MLOAD PUSH1 0x1 PUSH1 0x1 PUSH1 0xA0 SHL SUB AND PUSH2 0x8FC DUP3 SWAP1 DUP2 ISZERO MUL SWAP1 PUSH1 0x40 MLOAD PUSH1 0x0 PUSH1 0x40 MLOAD DUP1 DUP4 SUB DUP2 DUP6 DUP9 DUP9 CALL SWAP4 POP POP POP POP ISZERO DUP1 ISZERO PUSH2 0x501F JUMPI RETURNDATASIZE PUSH1 0x0 DUP1 RETURNDATACOPY RETURNDATASIZE PUSH1 0x0 REVERT JUMPDEST POP JUMPDEST POP POP SWAP1 SWAP5 SWAP4 POP POP POP POP JUMP JUMPDEST PUSH1 0x0 DUP1 DUP4 PUSH1 0x1 DUP2 GT ISZERO PUSH2 0x504F JUMPI PUSH4 0x4E487B71 PUSH1 0xE0 SHL PUSH1 0x0 MSTORE PUSH1 0x21 PUSH1 0x4 MSTORE PUSH1 0x24 PUSH1 0x0 REVERT JUMPDEST EQ DUP1 PUSH2 0x60B JUMPI POP POP ISZERO ISZERO SWAP2 SWAP1 POP JUMP JUMPDEST PUSH1 0x0 TIMESTAMP DUP4 LT DUP1 ISZERO PUSH2 0x60B JUMPI POP DUP2 ISZERO DUP1 PUSH2 0x60B JUMPI POP POP TIMESTAMP LT SWAP2 SWAP1 POP JUMP JUMPDEST DUP1 ISZERO PUSH2 0x511F JUMPI PUSH1 0x3 SLOAD PUSH1 0x40 MLOAD PUSH4 0xAED65F5 PUSH1 0xE1 SHL DUP2 MSTORE PUSH1 0x1 PUSH1 0x1 PUSH1 0xA0 SHL SUB DUP7 DUP2 AND PUSH1 0x4 DUP4 ADD MSTORE DUP6 DUP2 AND PUSH1 0x24 DUP4 ADD MSTORE DUP5 DUP2 AND PUSH1 0x44 DUP4 ADD MSTORE PUSH1 0x64 DUP3 ADD DUP5 SWAP1 MSTORE SWAP1 SWAP2 AND SWAP1 PUSH4 0x15DACBEA SWAP1 PUSH1 0x84 ADD PUSH1 0x20 PUSH1 0x40 MLOAD DUP1 DUP4 SUB DUP2 PUSH1 0x0 DUP8 DUP1 EXTCODESIZE ISZERO DUP1 ISZERO PUSH2 0x50DE JUMPI PUSH1 0x0 DUP1 REVERT JUMPDEST POP GAS CALL ISZERO DUP1 ISZERO PUSH2 0x50F2 JUMPI RETURNDATASIZE PUSH1 0x0 DUP1 RETURNDATACOPY RETURNDATASIZE PUSH1 0x0 REVERT JUMPDEST POP POP POP POP PUSH1 0x40 MLOAD RETURNDATASIZE PUSH1 0x1F NOT PUSH1 0x1F DUP3 ADD AND DUP3 ADD DUP1 PUSH1 0x40 MSTORE POP DUP2 ADD SWAP1 PUSH2 0x5116 SWAP2 SWAP1 PUSH2 0x5B39 JUMP JUMPDEST PUSH2 0x511F JUMPI PUSH1 0x0 DUP1 REVERT JUMPDEST POP POP POP POP JUMP JUMPDEST PUSH1 0x1 SLOAD PUSH2 0x513D SWAP1 PUSH1 0x1 PUSH1 0x1 PUSH1 0xA0 SHL SUB AND DUP5 DUP5 DUP5 PUSH2 0x507A JUMP JUMPDEST POP POP POP JUMP JUMPDEST PUSH1 0x0 DUP3 PUSH1 0x1F DUP4 ADD SLT PUSH2 0x5152 JUMPI DUP1 DUP2 REVERT JUMPDEST PUSH1 0x40 MLOAD PUSH2 0x1C0 DUP1 DUP3 ADD DUP3 DUP2 LT PUSH1 0x1 PUSH1 0x1 PUSH1 0x40 SHL SUB DUP3 GT OR ISZERO PUSH2 0x5176 JUMPI PUSH2 0x5176 PUSH2 0x5E01 JUMP JUMPDEST PUSH1 0x40 MSTORE DUP2 DUP5 DUP3 DUP2 ADD DUP8 LT ISZERO PUSH2 0x5189 JUMPI DUP5 DUP6 REVERT JUMPDEST DUP5 SWAP3 POP JUMPDEST PUSH1 0xE DUP4 LT ISZERO PUSH2 0x51B6 JUMPI DUP1 CALLDATALOAD PUSH2 0x51A1 DUP2 PUSH2 0x5E38 JUMP JUMPDEST DUP3 MSTORE PUSH1 0x1 SWAP3 SWAP1 SWAP3 ADD SWAP2 PUSH1 0x20 SWAP2 DUP3 ADD SWAP2 ADD PUSH2 0x518D JUMP JUMPDEST POP SWAP2 SWAP6 SWAP5 POP POP POP POP POP JUMP JUMPDEST PUSH1 0x0 DUP3 PUSH1 0x1F DUP4 ADD SLT PUSH2 0x51D1 JUMPI DUP1 DUP2 REVERT JUMPDEST PUSH1 0x40 MLOAD PUSH1 0xE0 DUP2 ADD DUP2 DUP2 LT PUSH1 0x1 PUSH1 0x1 PUSH1 0x40 SHL SUB DUP3 GT OR ISZERO PUSH2 0x51F3 JUMPI PUSH2 0x51F3 PUSH2 0x5E01 JUMP JUMPDEST PUSH1 0x40 MSTORE DUP1 DUP4 PUSH1 0xE0 DUP2 ADD DUP7 LT ISZERO PUSH2 0x5207 JUMPI DUP4 DUP5 REVERT JUMPDEST DUP4 JUMPDEST PUSH1 0x7 DUP2 LT ISZERO PUSH2 0x51B6 JUMPI DUP2 CALLDATALOAD PUSH2 0x521D DUP2 PUSH2 0x5E38 JUMP JUMPDEST DUP4 MSTORE PUSH1 0x20 SWAP3 DUP4 ADD SWAP3 SWAP2 SWAP1 SWAP2 ADD SWAP1 PUSH1 0x1 ADD PUSH2 0x5209 JUMP JUMPDEST PUSH1 0x0 DUP3 PUSH1 0x1F DUP4 ADD SLT PUSH2 0x5242 JUMPI DUP1 DUP2 REVERT JUMPDEST PUSH1 0x40 MLOAD PUSH1 0xA0 DUP2 ADD DUP2 DUP2 LT PUSH1 0x1 PUSH1 0x1 PUSH1 0x40 SHL SUB DUP3 GT OR ISZERO PUSH2 0x5264 JUMPI PUSH2 0x5264 PUSH2 0x5E01 JUMP JUMPDEST PUSH1 0x40 MSTORE DUP1 DUP4 PUSH1 0xA0 DUP2 ADD DUP7 LT ISZERO PUSH2 0x5278 JUMPI DUP4 DUP5 REVERT JUMPDEST DUP4 JUMPDEST PUSH1 0x5 DUP2 LT ISZERO PUSH2 0x51B6 JUMPI DUP2 CALLDATALOAD DUP4 MSTORE PUSH1 0x20 SWAP3 DUP4 ADD SWAP3 SWAP1 SWAP2 ADD SWAP1 PUSH1 0x1 ADD PUSH2 0x527A JUMP JUMPDEST PUSH1 0x0 DUP3 PUSH1 0x1F DUP4 ADD SLT PUSH2 0x52A9 JUMPI DUP1 DUP2 REVERT JUMPDEST PUSH1 0x40 MLOAD PUSH2 0x240 DUP1 DUP3 ADD DUP3 DUP2 LT PUSH1 0x1 PUSH1 0x1 PUSH1 0x40 SHL SUB DUP3 GT OR ISZERO PUSH2 0x52CD JUMPI PUSH2 0x52CD PUSH2 0x5E01 JUMP JUMPDEST PUSH1 0x40 MSTORE DUP2 DUP5 DUP3 DUP2 ADD DUP8 LT ISZERO PUSH2 0x52E0 JUMPI DUP5 DUP6 REVERT JUMPDEST DUP5 SWAP3 POP JUMPDEST PUSH1 0x12 DUP4 LT ISZERO PUSH2 0x51B6 JUMPI DUP1 CALLDATALOAD DUP3 MSTORE PUSH1 0x1 SWAP3 SWAP1 SWAP3 ADD SWAP2 PUSH1 0x20 SWAP2 DUP3 ADD SWAP2 ADD PUSH2 0x52E4 JUMP JUMPDEST PUSH1 0x0 DUP3 PUSH1 0x1F DUP4 ADD SLT PUSH2 0x5314 JUMPI DUP1 DUP2 REVERT JUMPDEST PUSH1 0x40 MLOAD PUSH2 0x120 DUP1 DUP3 ADD DUP3 DUP2 LT PUSH1 0x1 PUSH1 0x1 PUSH1 0x40 SHL SUB DUP3 GT OR ISZERO PUSH2 0x5338 JUMPI PUSH2 0x5338 PUSH2 0x5E01 JUMP JUMPDEST PUSH1 0x40 MSTORE DUP2 DUP5 DUP3 DUP2 ADD DUP8 LT ISZERO PUSH2 0x534B JUMPI DUP5 DUP6 REVERT JUMPDEST DUP5 SWAP3 POP JUMPDEST PUSH1 0x9 DUP4 LT ISZERO PUSH2 0x51B6 JUMPI DUP1 CALLDATALOAD DUP3 MSTORE PUSH1 0x1 SWAP3 SWAP1 SWAP3 ADD SWAP2 PUSH1 0x20 SWAP2 DUP3 ADD SWAP2 ADD PUSH2 0x534F JUMP JUMPDEST PUSH1 0x0 DUP3 PUSH1 0x1F DUP4 ADD SLT PUSH2 0x537F JUMPI DUP1 DUP2 REVERT JUMPDEST PUSH1 0x40 MLOAD PUSH1 0x40 DUP2 ADD DUP2 DUP2 LT PUSH1 0x1 PUSH1 0x1 PUSH1 0x40 SHL SUB DUP3 GT OR ISZERO PUSH2 0x53A1 JUMPI PUSH2 0x53A1 PUSH2 0x5E01 JUMP JUMPDEST DUP1 PUSH1 0x40 MSTORE POP DUP1 DUP4 DUP6 PUSH1 0x40 DUP7 ADD GT ISZERO PUSH2 0x53B7 JUMPI DUP4 DUP5 REVERT JUMPDEST DUP4 JUMPDEST PUSH1 0x2 DUP2 LT ISZERO PUSH2 0x51B6 JUMPI PUSH2 0x53CB DUP3 PUSH2 0x54F7 JUMP JUMPDEST DUP4 MSTORE PUSH1 0x20 SWAP3 DUP4 ADD SWAP3 SWAP2 SWAP1 SWAP2 ADD SWAP1 PUSH1 0x1 ADD PUSH2 0x53B9 JUMP JUMPDEST PUSH1 0x0 DUP3 PUSH1 0x1F DUP4 ADD SLT PUSH2 0x53F0 JUMPI DUP1 DUP2 REVERT JUMPDEST PUSH1 0x40 MLOAD PUSH2 0x100 DUP1 DUP3 ADD DUP3 DUP2 LT PUSH1 0x1 PUSH1 0x1 PUSH1 0x40 SHL SUB DUP3 GT OR ISZERO PUSH2 0x5414 JUMPI PUSH2 0x5414 PUSH2 0x5E01 JUMP JUMPDEST PUSH1 0x40 MSTORE DUP2 DUP5 DUP3 DUP2 ADD DUP8 LT ISZERO PUSH2 0x5427 JUMPI DUP5 DUP6 REVERT JUMPDEST DUP5 SWAP3 POP JUMPDEST PUSH1 0x8 DUP4 LT ISZERO PUSH2 0x51B6 JUMPI PUSH2 0x543D DUP2 PUSH2 0x54F7 JUMP JUMPDEST DUP3 MSTORE PUSH1 0x1 SWAP3 SWAP1 SWAP3 ADD SWAP2 PUSH1 0x20 SWAP2 DUP3 ADD SWAP2 ADD PUSH2 0x542B JUMP JUMPDEST DUP1 CALLDATALOAD PUSH2 0x545D DUP2 PUSH2 0x5E4D JUMP JUMPDEST SWAP2 SWAP1 POP JUMP JUMPDEST PUSH1 0x0 DUP3 PUSH1 0x1F DUP4 ADD SLT PUSH2 0x5472 JUMPI DUP1 DUP2 REVERT JUMPDEST DUP2 CALLDATALOAD PUSH1 0x1 PUSH1 0x1 PUSH1 0x40 SHL SUB DUP1 DUP3 GT ISZERO PUSH2 0x548C JUMPI PUSH2 0x548C PUSH2 0x5E01 JUMP JUMPDEST PUSH1 0x40 MLOAD PUSH1 0x1F DUP4 ADD PUSH1 0x1F NOT SWAP1 DUP2 AND PUSH1 0x3F ADD AND DUP2 ADD SWAP1 DUP3 DUP3 GT DUP2 DUP4 LT OR ISZERO PUSH2 0x54B4 JUMPI PUSH2 0x54B4 PUSH2 0x5E01 JUMP JUMPDEST DUP2 PUSH1 0x40 MSTORE DUP4 DUP2 MSTORE DUP7 PUSH1 0x20 DUP6 DUP9 ADD ADD GT ISZERO PUSH2 0x54CC JUMPI DUP5 DUP6 REVERT JUMPDEST DUP4 PUSH1 0x20 DUP8 ADD PUSH1 0x20 DUP4 ADD CALLDATACOPY SWAP3 DUP4 ADD PUSH1 0x20 ADD SWAP4 SWAP1 SWAP4 MSTORE POP SWAP4 SWAP3 POP POP POP JUMP JUMPDEST DUP1 CALLDATALOAD PUSH1 0x2 DUP2 LT PUSH2 0x545D JUMPI PUSH1 0x0 DUP1 REVERT JUMPDEST DUP1 CALLDATALOAD PUSH1 0xFF DUP2 AND DUP2 EQ PUSH2 0x545D JUMPI PUSH1 0x0 DUP1 REVERT JUMPDEST PUSH1 0x0 PUSH1 0x20 DUP3 DUP5 SUB SLT ISZERO PUSH2 0x5519 JUMPI DUP1 DUP2 REVERT JUMPDEST DUP2 CALLDATALOAD PUSH2 0x60B DUP2 PUSH2 0x5E38 JUMP JUMPDEST PUSH1 0x0 PUSH1 0x20 DUP3 DUP5 SUB SLT ISZERO PUSH2 0x5535 JUMPI DUP1 DUP2 REVERT JUMPDEST DUP2 MLOAD PUSH2 0x60B DUP2 PUSH2 0x5E38 JUMP JUMPDEST PUSH1 0x0 DUP1 PUSH1 0x0 PUSH1 0x60 DUP5 DUP7 SUB SLT ISZERO PUSH2 0x5554 JUMPI DUP2 DUP3 REVERT JUMPDEST DUP4 CALLDATALOAD PUSH2 0x555F DUP2 PUSH2 0x5E38 JUMP JUMPDEST SWAP3 POP PUSH1 0x20 DUP5 ADD CALLDATALOAD PUSH1 0x1 PUSH1 0x1 PUSH1 0x40 SHL SUB DUP1 DUP3 GT ISZERO PUSH2 0x557A JUMPI DUP4 DUP5 REVERT JUMPDEST PUSH2 0x5586 DUP8 DUP4 DUP9 ADD PUSH2 0x5462 JUMP JUMPDEST SWAP4 POP PUSH1 0x40 DUP7 ADD CALLDATALOAD SWAP2 POP DUP1 DUP3 GT ISZERO PUSH2 0x559B JUMPI DUP3 DUP4 REVERT JUMPDEST POP PUSH2 0x55A8 DUP7 DUP3 DUP8 ADD PUSH2 0x5462 JUMP JUMPDEST SWAP2 POP POP SWAP3 POP SWAP3 POP SWAP3 JUMP JUMPDEST PUSH1 0x0 DUP1 PUSH1 0x0 DUP1 PUSH1 0x0 DUP1 PUSH1 0x0 DUP1 PUSH1 0x0 PUSH2 0x5C0 DUP11 DUP13 SUB SLT ISZERO PUSH2 0x55D0 JUMPI DUP7 DUP8 REVERT JUMPDEST PUSH2 0x55DA DUP12 DUP12 PUSH2 0x5142 JUMP JUMPDEST SWAP9 POP PUSH2 0x55EA DUP12 PUSH2 0x1C0 DUP13 ADD PUSH2 0x5299 JUMP JUMPDEST SWAP8 POP PUSH2 0x55FA DUP12 PUSH2 0x400 DUP13 ADD PUSH2 0x53E0 JUMP JUMPDEST SWAP7 POP PUSH2 0x500 DUP11 ADD CALLDATALOAD PUSH1 0x1 PUSH1 0x1 PUSH1 0x40 SHL SUB DUP1 DUP3 GT ISZERO PUSH2 0x5616 JUMPI DUP7 DUP8 REVERT JUMPDEST PUSH2 0x5622 DUP14 DUP4 DUP15 ADD PUSH2 0x5462 JUMP JUMPDEST SWAP8 POP PUSH2 0x520 DUP13 ADD CALLDATALOAD SWAP2 POP DUP1 DUP3 GT ISZERO PUSH2 0x5638 JUMPI DUP7 DUP8 REVERT JUMPDEST PUSH2 0x5644 DUP14 DUP4 DUP15 ADD PUSH2 0x5462 JUMP JUMPDEST SWAP7 POP PUSH2 0x540 DUP13 ADD CALLDATALOAD SWAP2 POP DUP1 DUP3 GT ISZERO PUSH2 0x565A JUMPI DUP6 DUP7 REVERT JUMPDEST PUSH2 0x5666 DUP14 DUP4 DUP15 ADD PUSH2 0x5462 JUMP JUMPDEST SWAP6 POP PUSH2 0x560 DUP13 ADD CALLDATALOAD SWAP2 POP DUP1 DUP3 GT ISZERO PUSH2 0x567C JUMPI DUP5 DUP6 REVERT JUMPDEST PUSH2 0x5688 DUP14 DUP4 DUP15 ADD PUSH2 0x5462 JUMP JUMPDEST SWAP5 POP PUSH2 0x580 DUP13 ADD CALLDATALOAD SWAP2 POP DUP1 DUP3 GT ISZERO PUSH2 0x569E JUMPI DUP4 DUP5 REVERT JUMPDEST PUSH2 0x56AA DUP14 DUP4 DUP15 ADD PUSH2 0x5462 JUMP JUMPDEST SWAP4 POP PUSH2 0x5A0 DUP13 ADD CALLDATALOAD SWAP2 POP DUP1 DUP3 GT ISZERO PUSH2 0x56C0 JUMPI DUP3 DUP4 REVERT JUMPDEST POP PUSH2 0x56CD DUP13 DUP3 DUP14 ADD PUSH2 0x5462 JUMP JUMPDEST SWAP2 POP POP SWAP3 SWAP6 SWAP9 POP SWAP3 SWAP6 SWAP9 POP SWAP3 SWAP6 SWAP9 JUMP JUMPDEST PUSH1 0x0 DUP1 PUSH1 0x0 DUP1 PUSH1 0x0 DUP1 PUSH1 0x0 DUP1 PUSH1 0x0 DUP1 PUSH1 0x0 PUSH2 0x6A0 DUP13 DUP15 SUB SLT ISZERO PUSH2 0x56FE JUMPI DUP5 DUP6 REVERT JUMPDEST PUSH2 0x5708 DUP14 DUP14 PUSH2 0x5142 JUMP JUMPDEST SWAP11 POP PUSH2 0x5718 DUP14 PUSH2 0x1C0 DUP15 ADD PUSH2 0x5299 JUMP JUMPDEST SWAP10 POP PUSH2 0x5728 DUP14 PUSH2 0x400 DUP15 ADD PUSH2 0x53E0 JUMP JUMPDEST SWAP9 POP PUSH1 0x1 PUSH1 0x1 PUSH1 0x40 SHL SUB DUP1 PUSH2 0x500 DUP15 ADD CALLDATALOAD GT ISZERO PUSH2 0x5743 JUMPI DUP6 DUP7 REVERT JUMPDEST PUSH2 0x5754 DUP15 PUSH2 0x500 DUP16 ADD CALLDATALOAD DUP16 ADD PUSH2 0x5462 JUMP JUMPDEST SWAP9 POP DUP1 PUSH2 0x520 DUP15 ADD CALLDATALOAD GT ISZERO PUSH2 0x5767 JUMPI DUP6 DUP7 REVERT JUMPDEST PUSH2 0x5778 DUP15 PUSH2 0x520 DUP16 ADD CALLDATALOAD DUP16 ADD PUSH2 0x5462 JUMP JUMPDEST SWAP8 POP DUP1 PUSH2 0x540 DUP15 ADD CALLDATALOAD GT ISZERO PUSH2 0x578B JUMPI DUP6 DUP7 REVERT JUMPDEST PUSH2 0x579C DUP15 PUSH2 0x540 DUP16 ADD CALLDATALOAD DUP16 ADD PUSH2 0x5462 JUMP JUMPDEST SWAP7 POP DUP1 PUSH2 0x560 DUP15 ADD CALLDATALOAD GT ISZERO PUSH2 0x57AF JUMPI DUP6 DUP7 REVERT JUMPDEST PUSH2 0x57C0 DUP15 PUSH2 0x560 DUP16 ADD CALLDATALOAD DUP16 ADD PUSH2 0x5462 JUMP JUMPDEST SWAP6 POP DUP1 PUSH2 0x580 DUP15 ADD CALLDATALOAD GT ISZERO PUSH2 0x57D3 JUMPI DUP3 DUP4 REVERT JUMPDEST PUSH2 0x57E4 DUP15 PUSH2 0x580 DUP16 ADD CALLDATALOAD DUP16 ADD PUSH2 0x5462 JUMP JUMPDEST SWAP5 POP DUP1 PUSH2 0x5A0 DUP15 ADD CALLDATALOAD GT ISZERO PUSH2 0x57F7 JUMPI DUP3 DUP4 REVERT JUMPDEST POP PUSH2 0x5809 DUP14 PUSH2 0x5A0 DUP15 ADD CALLDATALOAD DUP15 ADD PUSH2 0x5462 JUMP JUMPDEST SWAP3 POP PUSH2 0x5819 DUP14 PUSH2 0x5C0 DUP15 ADD PUSH2 0x536F JUMP JUMPDEST SWAP2 POP PUSH2 0x5829 DUP14 PUSH2 0x600 DUP15 ADD PUSH2 0x5232 JUMP JUMPDEST SWAP1 POP SWAP3 SWAP6 SWAP9 SWAP12 POP SWAP3 SWAP6 SWAP9 SWAP12 SWAP1 SWAP4 SWAP7 SWAP10 POP JUMP JUMPDEST PUSH1 0x0 DUP1 PUSH1 0x0 DUP1 PUSH1 0x0 DUP1 PUSH1 0x0 DUP1 PUSH1 0x0 PUSH2 0x2E0 DUP11 DUP13 SUB SLT ISZERO PUSH2 0x5859 JUMPI DUP3 DUP4 REVERT JUMPDEST PUSH2 0x5863 DUP12 DUP12 PUSH2 0x51C1 JUMP JUMPDEST SWAP9 POP PUSH2 0x5872 DUP12 PUSH1 0xE0 DUP13 ADD PUSH2 0x5304 JUMP JUMPDEST SWAP8 POP PUSH2 0x5881 PUSH2 0x200 DUP12 ADD PUSH2 0x54E8 JUMP JUMPDEST SWAP7 POP PUSH2 0x5890 PUSH2 0x220 DUP12 ADD PUSH2 0x54E8 JUMP JUMPDEST SWAP6 POP PUSH2 0x589F PUSH2 0x240 DUP12 ADD PUSH2 0x54E8 JUMP JUMPDEST SWAP5 POP PUSH2 0x58AE PUSH2 0x260 DUP12 ADD PUSH2 0x54E8 JUMP JUMPDEST SWAP4 POP PUSH2 0x280 DUP11 ADD CALLDATALOAD PUSH1 0x1 PUSH1 0x1 PUSH1 0x40 SHL SUB DUP1 DUP3 GT ISZERO PUSH2 0x58CA JUMPI DUP5 DUP6 REVERT JUMPDEST PUSH2 0x58D6 DUP14 DUP4 DUP15 ADD PUSH2 0x5462 JUMP JUMPDEST SWAP5 POP PUSH2 0x2A0 DUP13 ADD CALLDATALOAD SWAP2 POP DUP1 DUP3 GT ISZERO PUSH2 0x58EC JUMPI DUP4 DUP5 REVERT JUMPDEST PUSH2 0x58F8 DUP14 DUP4 DUP15 ADD PUSH2 0x5462 JUMP JUMPDEST SWAP4 POP PUSH2 0x2C0 DUP13 ADD CALLDATALOAD SWAP2 POP DUP1 DUP3 GT ISZERO PUSH2 0x56C0 JUMPI DUP3 DUP4 REVERT JUMPDEST PUSH1 0x0 DUP1 PUSH1 0x0 DUP1 PUSH1 0x0 DUP1 PUSH1 0x0 DUP1 PUSH1 0x0 DUP1 PUSH2 0x300 DUP12 DUP14 SUB SLT ISZERO PUSH2 0x592D JUMPI DUP4 DUP5 REVERT JUMPDEST PUSH2 0x5937 DUP13 DUP13 PUSH2 0x51C1 JUMP JUMPDEST SWAP10 POP PUSH2 0x5946 DUP13 PUSH1 0xE0 DUP14 ADD PUSH2 0x5304 JUMP JUMPDEST SWAP9 POP PUSH2 0x5955 PUSH2 0x200 DUP13 ADD PUSH2 0x54E8 JUMP JUMPDEST SWAP8 POP PUSH2 0x5964 PUSH2 0x220 DUP13 ADD PUSH2 0x54E8 JUMP JUMPDEST SWAP7 POP PUSH2 0x5973 PUSH2 0x240 DUP13 ADD PUSH2 0x54E8 JUMP JUMPDEST SWAP6 POP PUSH2 0x5982 PUSH2 0x260 DUP13 ADD PUSH2 0x54E8 JUMP JUMPDEST SWAP5 POP PUSH2 0x280 DUP12 ADD CALLDATALOAD PUSH1 0x1 PUSH1 0x1 PUSH1 0x40 SHL SUB DUP1 DUP3 GT ISZERO PUSH2 0x599E JUMPI DUP6 DUP7 REVERT JUMPDEST PUSH2 0x59AA DUP15 DUP4 DUP16 ADD PUSH2 0x5462 JUMP JUMPDEST SWAP6 POP PUSH2 0x2A0 DUP14 ADD CALLDATALOAD SWAP2 POP DUP1 DUP3 GT ISZERO PUSH2 0x59C0 JUMPI DUP5 DUP6 REVERT JUMPDEST PUSH2 0x59CC DUP15 DUP4 DUP16 ADD PUSH2 0x5462 JUMP JUMPDEST SWAP5 POP PUSH2 0x2C0 DUP14 ADD CALLDATALOAD SWAP2 POP DUP1 DUP3 GT ISZERO PUSH2 0x59E2 JUMPI DUP4 DUP5 REVERT JUMPDEST POP PUSH2 0x59EF DUP14 DUP3 DUP15 ADD PUSH2 0x5462 JUMP JUMPDEST SWAP3 POP POP PUSH2 0x59FF PUSH2 0x2E0 DUP13 ADD PUSH2 0x5452 JUMP JUMPDEST SWAP1 POP SWAP3 SWAP6 SWAP9 SWAP12 SWAP2 SWAP5 SWAP8 SWAP11 POP SWAP3 SWAP6 SWAP9 POP JUMP JUMPDEST PUSH1 0x0 DUP1 PUSH1 0x0 DUP1 PUSH1 0x0 DUP1 PUSH1 0x0 DUP1 PUSH1 0x0 DUP1 PUSH1 0x0 DUP1 PUSH2 0x340 DUP14 DUP16 SUB SLT ISZERO PUSH2 0x5A32 JUMPI DUP6 DUP7 REVERT JUMPDEST PUSH2 0x5A3C DUP15 DUP15 PUSH2 0x51C1 JUMP JUMPDEST SWAP12 POP PUSH2 0x5A4B DUP15 PUSH1 0xE0 DUP16 ADD PUSH2 0x5304 JUMP JUMPDEST SWAP11 POP PUSH2 0x5A5A PUSH2 0x200 DUP15 ADD PUSH2 0x54E8 JUMP JUMPDEST SWAP10 POP PUSH2 0x5A69 PUSH2 0x220 DUP15 ADD PUSH2 0x54E8 JUMP JUMPDEST SWAP9 POP PUSH2 0x5A78 PUSH2 0x240 DUP15 ADD PUSH2 0x54E8 JUMP JUMPDEST SWAP8 POP PUSH2 0x5A87 PUSH2 0x260 DUP15 ADD PUSH2 0x54E8 JUMP JUMPDEST SWAP7 POP PUSH1 0x1 PUSH1 0x1 PUSH1 0x40 SHL SUB PUSH2 0x280 DUP15 ADD CALLDATALOAD GT ISZERO PUSH2 0x5AA1 JUMPI DUP6 DUP7 REVERT JUMPDEST PUSH2 0x5AB2 DUP15 PUSH2 0x280 DUP16 ADD CALLDATALOAD DUP16 ADD PUSH2 0x5462 JUMP JUMPDEST SWAP6 POP PUSH1 0x1 PUSH1 0x1 PUSH1 0x40 SHL SUB PUSH2 0x2A0 DUP15 ADD CALLDATALOAD GT ISZERO PUSH2 0x5ACC JUMPI DUP1 DUP2 REVERT JUMPDEST PUSH2 0x5ADD DUP15 PUSH2 0x2A0 DUP16 ADD CALLDATALOAD DUP16 ADD PUSH2 0x5462 JUMP JUMPDEST SWAP5 POP PUSH1 0x1 PUSH1 0x1 PUSH1 0x40 SHL SUB PUSH2 0x2C0 DUP15 ADD CALLDATALOAD GT ISZERO PUSH2 0x5AF7 JUMPI DUP1 DUP2 REVERT JUMPDEST PUSH2 0x5B08 DUP15 PUSH2 0x2C0 DUP16 ADD CALLDATALOAD DUP16 ADD PUSH2 0x5462 JUMP JUMPDEST SWAP4 POP PUSH2 0x5B17 PUSH2 0x2E0 DUP15 ADD PUSH2 0x54F7 JUMP JUMPDEST SWAP3 POP PUSH2 0x300 DUP14 ADD CALLDATALOAD SWAP2 POP PUSH2 0x320 DUP14 ADD CALLDATALOAD SWAP1 POP SWAP3 SWAP6 SWAP9 SWAP12 POP SWAP3 SWAP6 SWAP9 SWAP12 POP SWAP3 SWAP6 SWAP9 SWAP12 JUMP JUMPDEST PUSH1 0x0 PUSH1 0x20 DUP3 DUP5 SUB SLT ISZERO PUSH2 0x5B4A JUMPI DUP1 DUP2 REVERT JUMPDEST DUP2 MLOAD PUSH2 0x60B DUP2 PUSH2 0x5E4D JUMP JUMPDEST PUSH1 0x0 PUSH1 0x20 DUP3 DUP5 SUB SLT ISZERO PUSH2 0x5B66 JUMPI DUP1 DUP2 REVERT JUMPDEST POP CALLDATALOAD SWAP2 SWAP1 POP JUMP JUMPDEST PUSH1 0x0 DUP2 MLOAD DUP1 DUP5 MSTORE DUP2 JUMPDEST DUP2 DUP2 LT ISZERO PUSH2 0x5B92 JUMPI PUSH1 0x20 DUP2 DUP6 ADD DUP2 ADD MLOAD DUP7 DUP4 ADD DUP3 ADD MSTORE ADD PUSH2 0x5B76 JUMP JUMPDEST DUP2 DUP2 GT ISZERO PUSH2 0x5BA3 JUMPI DUP3 PUSH1 0x20 DUP4 DUP8 ADD ADD MSTORE JUMPDEST POP PUSH1 0x1F ADD PUSH1 0x1F NOT AND SWAP3 SWAP1 SWAP3 ADD PUSH1 0x20 ADD SWAP3 SWAP2 POP POP JUMP JUMPDEST PUSH1 0x1 PUSH1 0x1 PUSH1 0xA0 SHL SUB DUP12 DUP2 AND DUP3 MSTORE DUP11 DUP2 AND PUSH1 0x20 DUP4 ADD MSTORE PUSH1 0x40 DUP3 ADD DUP11 SWAP1 MSTORE PUSH1 0x60 DUP3 ADD DUP10 SWAP1 MSTORE PUSH1 0x80 DUP3 ADD DUP9 SWAP1 MSTORE PUSH1 0xA0 DUP3 ADD DUP8 SWAP1 MSTORE PUSH2 0x140 DUP3 ADD SWAP1 PUSH2 0x5BF8 DUP8 PUSH2 0x5E17 JUMP JUMPDEST DUP7 PUSH1 0xC0 DUP5 ADD MSTORE PUSH2 0x5C07 DUP7 PUSH2 0x5E17 JUMP JUMPDEST DUP6 PUSH1 0xE0 DUP5 ADD MSTORE PUSH2 0x5C16 DUP6 PUSH2 0x5E17 JUMP JUMPDEST DUP5 PUSH2 0x100 DUP5 ADD MSTORE DUP1 DUP5 AND PUSH2 0x120 DUP5 ADD MSTORE POP SWAP12 SWAP11 POP POP POP POP POP POP POP POP POP POP POP JUMP JUMPDEST PUSH1 0x1 PUSH1 0x1 PUSH1 0xA0 SHL SUB DUP5 AND DUP2 MSTORE PUSH2 0x5C4B DUP4 PUSH2 0x5E17 JUMP JUMPDEST DUP3 PUSH1 0x20 DUP3 ADD MSTORE PUSH1 0x60 PUSH1 0x40 DUP3 ADD MSTORE PUSH1 0x0 PUSH2 0x42B5 PUSH1 0x60 DUP4 ADD DUP5 PUSH2 0x5B6D JUMP JUMPDEST PUSH1 0x0 PUSH2 0x180 PUSH2 0x5C75 DUP16 PUSH2 0x5E17 JUMP JUMPDEST DUP15 DUP4 MSTORE DUP1 PUSH1 0x20 DUP5 ADD MSTORE PUSH2 0x5C8A DUP2 DUP5 ADD DUP16 PUSH2 0x5B6D JUMP JUMPDEST SWAP1 POP DUP3 DUP2 SUB PUSH1 0x40 DUP5 ADD MSTORE PUSH2 0x5C9E DUP2 DUP15 PUSH2 0x5B6D JUMP JUMPDEST PUSH1 0x1 PUSH1 0x1 PUSH1 0xA0 SHL SUB DUP14 DUP2 AND PUSH1 0x60 DUP7 ADD MSTORE DUP5 DUP3 SUB PUSH1 0x80 DUP7 ADD MSTORE SWAP1 SWAP2 POP PUSH2 0x5CC3 DUP3 DUP14 PUSH2 0x5B6D JUMP JUMPDEST SWAP11 AND PUSH1 0xA0 DUP5 ADD MSTORE POP POP PUSH1 0xC0 DUP2 ADD SWAP7 SWAP1 SWAP7 MSTORE PUSH1 0xE0 DUP7 ADD SWAP5 SWAP1 SWAP5 MSTORE PUSH2 0x100 DUP6 ADD SWAP3 SWAP1 SWAP3 MSTORE PUSH2 0x120 DUP5 ADD MSTORE PUSH2 0x140 DUP4 ADD MSTORE ISZERO ISZERO PUSH2 0x160 SWAP1 SWAP2 ADD MSTORE SWAP6 SWAP5 POP POP POP POP POP JUMP JUMPDEST PUSH1 0x20 DUP1 DUP3 MSTORE PUSH1 0x10 SWAP1 DUP3 ADD MSTORE PUSH16 0x14185D5CD8589B194E881C185D5CD959 PUSH1 0x82 SHL PUSH1 0x40 DUP3 ADD MSTORE PUSH1 0x60 ADD SWAP1 JUMP JUMPDEST PUSH1 0x20 DUP1 DUP3 MSTORE DUP2 DUP2 ADD MSTORE PUSH32 0x4F776E61626C653A2063616C6C6572206973206E6F7420746865206F776E6572 PUSH1 0x40 DUP3 ADD MSTORE PUSH1 0x60 ADD SWAP1 JUMP JUMPDEST PUSH1 0x0 DUP3 NOT DUP3 GT ISZERO PUSH2 0x5D75 JUMPI PUSH2 0x5D75 PUSH2 0x5DEB JUMP JUMPDEST POP ADD SWAP1 JUMP JUMPDEST PUSH1 0x0 DUP3 PUSH2 0x5D95 JUMPI PUSH4 0x4E487B71 PUSH1 0xE0 SHL DUP2 MSTORE PUSH1 0x12 PUSH1 0x4 MSTORE PUSH1 0x24 DUP2 REVERT JUMPDEST POP DIV SWAP1 JUMP JUMPDEST PUSH1 0x0 DUP2 PUSH1 0x0 NOT DIV DUP4 GT DUP3 ISZERO ISZERO AND ISZERO PUSH2 0x5DB4 JUMPI PUSH2 0x5DB4 PUSH2 0x5DEB JUMP JUMPDEST POP MUL SWAP1 JUMP JUMPDEST PUSH1 0x0 DUP3 DUP3 LT ISZERO PUSH2 0x5DCB JUMPI PUSH2 0x5DCB PUSH2 0x5DEB JUMP JUMPDEST POP SUB SWAP1 JUMP JUMPDEST PUSH1 0x0 PUSH1 0x0 NOT DUP3 EQ ISZERO PUSH2 0x5DE4 JUMPI PUSH2 0x5DE4 PUSH2 0x5DEB JUMP JUMPDEST POP PUSH1 0x1 ADD SWAP1 JUMP JUMPDEST PUSH4 0x4E487B71 PUSH1 0xE0 SHL PUSH1 0x0 MSTORE PUSH1 0x11 PUSH1 0x4 MSTORE PUSH1 0x24 PUSH1 0x0 REVERT JUMPDEST PUSH4 0x4E487B71 PUSH1 0xE0 SHL PUSH1 0x0 MSTORE PUSH1 0x41 PUSH1 0x4 MSTORE PUSH1 0x24 PUSH1 0x0 REVERT JUMPDEST PUSH1 0x2 DUP2 LT PUSH2 0x5E35 JUMPI PUSH4 0x4E487B71 PUSH1 0xE0 SHL PUSH1 0x0 MSTORE PUSH1 0x21 PUSH1 0x4 MSTORE PUSH1 0x24 PUSH1 0x0 REVERT JUMPDEST POP JUMP JUMPDEST PUSH1 0x1 PUSH1 0x1 PUSH1 0xA0 SHL SUB DUP2 AND DUP2 EQ PUSH2 0x5E35 JUMPI PUSH1 0x0 DUP1 REVERT JUMPDEST DUP1 ISZERO ISZERO DUP2 EQ PUSH2 0x5E35 JUMPI PUSH1 0x0 DUP1 REVERT INVALID LOG2 PUSH5 0x6970667358 0x22 SLT KECCAK256 SWAP7 SWAP11 0xB7 CODESIZE CALLCODE MULMOD 0xD8 0xF OR RETURN CALLDATACOPY GAS PUSH15 0xF6287D4ECC17BE303E6F7BF3D95DFB SWAP11 0x4F 0xB2 0x21 PUSH5 0x736F6C6343 STOP ADDMOD DIV STOP CALLER "
		},
		"gasEstimates": {
			"creation": {
				"codeDepositCost": "4841800",
				"executionCost": "79753",
				"totalCost": "4921553"
			},
			"external": {
				"INVERSE_BASIS_POINT()": "306",
				"approveOrder_(address[7],uint256[9],uint8,uint8,uint8,uint8,bytes,bytes,bytes,bool)": "infinite",
				"approvedOrders(bytes32)": "1216",
				"atomicMatch_(address[14],uint256[18],uint8[8],bytes,bytes,bytes,bytes,bytes,bytes,uint8[2],bytes32[5])": "infinite",
				"calculateCurrentPrice_(address[7],uint256[9],uint8,uint8,uint8,uint8,bytes,bytes,bytes)": "infinite",
				"calculateMatchPrice_(address[14],uint256[18],uint8[8],bytes,bytes,bytes,bytes,bytes,bytes)": "infinite",
				"cancelOrder_(address[7],uint256[9],uint8,uint8,uint8,uint8,bytes,bytes,bytes,uint8,bytes32,bytes32)": "infinite",
				"cancelledOrFinalized(bytes32)": "1195",
				"changeMinimumMakerProtocolFee(uint256)": "22012",
				"changeMinimumTakerProtocolFee(uint256)": "21967",
				"changeProtocolFeeRecipient(address)": "22974",
				"changeProtocolFeeTokenAddress(address)": "24280",
				"exchangeToken()": "1137",
				"hashOrder_(address[7],uint256[9],uint8,uint8,uint8,uint8,bytes,bytes,bytes)": "infinite",
				"hashToSign_(address[7],uint256[9],uint8,uint8,uint8,uint8,bytes,bytes,bytes)": "infinite",
				"minimumMakerProtocolFee()": "1063",
				"minimumTakerProtocolFee()": "1063",
				"owner()": "1120",
				"pause()": "23860",
				"paused()": "1067",
				"protocolFeeRecipient()": "1071",
				"registry()": "1072",
				"renounceOwnership()": "24254",
				"staticCall(address,bytes,bytes)": "infinite",
				"tokenTransferProxy()": "1073",
				"transferOwnership(address)": "24518",
				"unPause()": "23885",
				"validateOrderParameters_(address[7],uint256[9],uint8,uint8,uint8,uint8,bytes,bytes,bytes)": "infinite",
				"validateOrder_(address[7],uint256[9],uint8,uint8,uint8,uint8,bytes,bytes,bytes,uint8,bytes32,bytes32)": "infinite"
			}
		},
		"methodIdentifiers": {
			"INVERSE_BASIS_POINT()": "cae6047f",
			"approveOrder_(address[7],uint256[9],uint8,uint8,uint8,uint8,bytes,bytes,bytes,bool)": "79666868",
			"approvedOrders(bytes32)": "e57d4adb",
			"atomicMatch_(address[14],uint256[18],uint8[8],bytes,bytes,bytes,bytes,bytes,bytes,uint8[2],bytes32[5])": "ab834bab",
			"calculateCurrentPrice_(address[7],uint256[9],uint8,uint8,uint8,uint8,bytes,bytes,bytes)": "3f67ee0d",
			"calculateMatchPrice_(address[14],uint256[18],uint8[8],bytes,bytes,bytes,bytes,bytes,bytes)": "d537e131",
			"cancelOrder_(address[7],uint256[9],uint8,uint8,uint8,uint8,bytes,bytes,bytes,uint8,bytes32,bytes32)": "a8a41c70",
			"cancelledOrFinalized(bytes32)": "8076f005",
			"changeMinimumMakerProtocolFee(uint256)": "14350c24",
			"changeMinimumTakerProtocolFee(uint256)": "1a6b13e2",
			"changeProtocolFeeRecipient(address)": "514f0330",
			"changeProtocolFeeTokenAddress(address)": "5ef527e4",
			"exchangeToken()": "a25eb5d9",
			"hashOrder_(address[7],uint256[9],uint8,uint8,uint8,uint8,bytes,bytes,bytes)": "71d02b38",
			"hashToSign_(address[7],uint256[9],uint8,uint8,uint8,uint8,bytes,bytes,bytes)": "7d766981",
			"minimumMakerProtocolFee()": "7ccefc52",
			"minimumTakerProtocolFee()": "28a8ee68",
			"owner()": "8da5cb5b",
			"pause()": "8456cb59",
			"paused()": "5c975abb",
			"protocolFeeRecipient()": "64df049e",
			"registry()": "7b103999",
			"renounceOwnership()": "715018a6",
			"staticCall(address,bytes,bytes)": "10796a47",
			"tokenTransferProxy()": "0eefdbad",
			"transferOwnership(address)": "f2fde38b",
			"unPause()": "f7b188a5",
			"validateOrderParameters_(address[7],uint256[9],uint8,uint8,uint8,uint8,bytes,bytes,bytes)": "ca595b9a",
			"validateOrder_(address[7],uint256[9],uint8,uint8,uint8,uint8,bytes,bytes,bytes,uint8,bytes32,bytes32)": "60bef33a"
		}
	},
	"abi": [
		{
			"anonymous": false,
			"inputs": [
				{
					"indexed": true,
					"internalType": "bytes32",
					"name": "hash",
					"type": "bytes32"
				},
				{
					"indexed": false,
					"internalType": "address",
					"name": "exchange",
					"type": "address"
				},
				{
					"indexed": true,
					"internalType": "address",
					"name": "maker",
					"type": "address"
				},
				{
					"indexed": false,
					"internalType": "address",
					"name": "taker",
					"type": "address"
				},
				{
					"indexed": false,
					"internalType": "uint256",
					"name": "makerRelayerFee",
					"type": "uint256"
				},
				{
					"indexed": false,
					"internalType": "uint256",
					"name": "takerRelayerFee",
					"type": "uint256"
				},
				{
					"indexed": false,
					"internalType": "uint256",
					"name": "makerProtocolFee",
					"type": "uint256"
				},
				{
					"indexed": false,
					"internalType": "uint256",
					"name": "takerProtocolFee",
					"type": "uint256"
				},
				{
					"indexed": true,
					"internalType": "address",
					"name": "feeRecipient",
					"type": "address"
				},
				{
					"indexed": false,
					"internalType": "enum ExchangeCore.FeeMethod",
					"name": "feeMethod",
					"type": "uint8"
				},
				{
					"indexed": false,
					"internalType": "enum SaleKindInterface.Side",
					"name": "side",
					"type": "uint8"
				},
				{
					"indexed": false,
					"internalType": "enum SaleKindInterface.SaleKind",
					"name": "saleKind",
					"type": "uint8"
				},
				{
					"indexed": false,
					"internalType": "address",
					"name": "target",
					"type": "address"
				}
			],
			"name": "OrderApprovedPartOne",
			"type": "event"
		},
		{
			"anonymous": false,
			"inputs": [
				{
					"indexed": true,
					"internalType": "bytes32",
					"name": "hash",
					"type": "bytes32"
				},
				{
					"indexed": false,
					"internalType": "enum AuthenticatedProxy.HowToCall",
					"name": "howToCall",
					"type": "uint8"
				},
				{
					"indexed": false,
					"internalType": "bytes",
					"name": "callData",
					"type": "bytes"
				},
				{
					"indexed": false,
					"internalType": "bytes",
					"name": "replacementPattern",
					"type": "bytes"
				},
				{
					"indexed": false,
					"internalType": "address",
					"name": "staticTarget",
					"type": "address"
				},
				{
					"indexed": false,
					"internalType": "bytes",
					"name": "staticExtradata",
					"type": "bytes"
				},
				{
					"indexed": false,
					"internalType": "address",
					"name": "paymentToken",
					"type": "address"
				},
				{
					"indexed": false,
					"internalType": "uint256",
					"name": "basePrice",
					"type": "uint256"
				},
				{
					"indexed": false,
					"internalType": "uint256",
					"name": "extra",
					"type": "uint256"
				},
				{
					"indexed": false,
					"internalType": "uint256",
					"name": "listingTime",
					"type": "uint256"
				},
				{
					"indexed": false,
					"internalType": "uint256",
					"name": "expirationTime",
					"type": "uint256"
				},
				{
					"indexed": false,
					"internalType": "uint256",
					"name": "salt",
					"type": "uint256"
				},
				{
					"indexed": false,
					"internalType": "bool",
					"name": "orderbookInclusionDesired",
					"type": "bool"
				}
			],
			"name": "OrderApprovedPartTwo",
			"type": "event"
		},
		{
			"anonymous": false,
			"inputs": [
				{
					"indexed": true,
					"internalType": "bytes32",
					"name": "hash",
					"type": "bytes32"
				}
			],
			"name": "OrderCancelled",
			"type": "event"
		},
		{
			"anonymous": false,
			"inputs": [
				{
					"indexed": false,
					"internalType": "bytes32",
					"name": "buyHash",
					"type": "bytes32"
				},
				{
					"indexed": false,
					"internalType": "bytes32",
					"name": "sellHash",
					"type": "bytes32"
				},
				{
					"indexed": true,
					"internalType": "address",
					"name": "maker",
					"type": "address"
				},
				{
					"indexed": true,
					"internalType": "address",
					"name": "taker",
					"type": "address"
				},
				{
					"indexed": false,
					"internalType": "uint256",
					"name": "price",
					"type": "uint256"
				},
				{
					"indexed": true,
					"internalType": "bytes32",
					"name": "metadata",
					"type": "bytes32"
				}
			],
			"name": "OrdersMatched",
			"type": "event"
		},
		{
			"anonymous": false,
			"inputs": [
				{
					"indexed": true,
					"internalType": "address",
					"name": "previousOwner",
					"type": "address"
				},
				{
					"indexed": true,
					"internalType": "address",
					"name": "newOwner",
					"type": "address"
				}
			],
			"name": "OwnershipTransferred",
			"type": "event"
		},
		{
			"anonymous": false,
			"inputs": [
				{
					"indexed": false,
					"internalType": "address",
					"name": "account",
					"type": "address"
				}
			],
			"name": "Paused",
			"type": "event"
		},
		{
			"anonymous": false,
			"inputs": [
				{
					"indexed": false,
					"internalType": "address",
					"name": "oldTokenAddress",
					"type": "address"
				},
				{
					"indexed": false,
					"internalType": "address",
					"name": "newTokenAddress",
					"type": "address"
				}
			],
			"name": "ProtocolTokenFeeChange",
			"type": "event"
		},
		{
			"anonymous": false,
			"inputs": [
				{
					"indexed": false,
					"internalType": "address",
					"name": "account",
					"type": "address"
				}
			],
			"name": "Unpaused",
			"type": "event"
		},
		{
			"inputs": [],
			"name": "INVERSE_BASIS_POINT",
			"outputs": [
				{
					"internalType": "uint256",
					"name": "",
					"type": "uint256"
				}
			],
			"stateMutability": "view",
			"type": "function"
		},
		{
			"inputs": [
				{
					"internalType": "address[7]",
					"name": "addrs",
					"type": "address[7]"
				},
				{
					"internalType": "uint256[9]",
					"name": "uints",
					"type": "uint256[9]"
				},
				{
					"internalType": "enum ExchangeCore.FeeMethod",
					"name": "feeMethod",
					"type": "uint8"
				},
				{
					"internalType": "enum SaleKindInterface.Side",
					"name": "side",
					"type": "uint8"
				},
				{
					"internalType": "enum SaleKindInterface.SaleKind",
					"name": "saleKind",
					"type": "uint8"
				},
				{
					"internalType": "enum AuthenticatedProxy.HowToCall",
					"name": "howToCall",
					"type": "uint8"
				},
				{
					"internalType": "bytes",
					"name": "callData",
					"type": "bytes"
				},
				{
					"internalType": "bytes",
					"name": "replacementPattern",
					"type": "bytes"
				},
				{
					"internalType": "bytes",
					"name": "staticExtradata",
					"type": "bytes"
				},
				{
					"internalType": "bool",
					"name": "orderbookInclusionDesired",
					"type": "bool"
				}
			],
			"name": "approveOrder_",
			"outputs": [],
			"stateMutability": "nonpayable",
			"type": "function"
		},
		{
			"inputs": [
				{
					"internalType": "bytes32",
					"name": "",
					"type": "bytes32"
				}
			],
			"name": "approvedOrders",
			"outputs": [
				{
					"internalType": "bool",
					"name": "",
					"type": "bool"
				}
			],
			"stateMutability": "view",
			"type": "function"
		},
		{
			"inputs": [
				{
					"internalType": "address[14]",
					"name": "addrs",
					"type": "address[14]"
				},
				{
					"internalType": "uint256[18]",
					"name": "uints",
					"type": "uint256[18]"
				},
				{
					"internalType": "uint8[8]",
					"name": "feeMethodsSidesKindsHowToCalls",
					"type": "uint8[8]"
				},
				{
					"internalType": "bytes",
					"name": "callDataBuy",
					"type": "bytes"
				},
				{
					"internalType": "bytes",
					"name": "callDataSell",
					"type": "bytes"
				},
				{
					"internalType": "bytes",
					"name": "replacementPatternBuy",
					"type": "bytes"
				},
				{
					"internalType": "bytes",
					"name": "replacementPatternSell",
					"type": "bytes"
				},
				{
					"internalType": "bytes",
					"name": "staticExtradataBuy",
					"type": "bytes"
				},
				{
					"internalType": "bytes",
					"name": "staticExtradataSell",
					"type": "bytes"
				},
				{
					"internalType": "uint8[2]",
					"name": "vs",
					"type": "uint8[2]"
				},
				{
					"internalType": "bytes32[5]",
					"name": "rssMetadata",
					"type": "bytes32[5]"
				}
			],
			"name": "atomicMatch_",
			"outputs": [],
			"stateMutability": "payable",
			"type": "function"
		},
		{
			"inputs": [
				{
					"internalType": "address[7]",
					"name": "addrs",
					"type": "address[7]"
				},
				{
					"internalType": "uint256[9]",
					"name": "uints",
					"type": "uint256[9]"
				},
				{
					"internalType": "enum ExchangeCore.FeeMethod",
					"name": "feeMethod",
					"type": "uint8"
				},
				{
					"internalType": "enum SaleKindInterface.Side",
					"name": "side",
					"type": "uint8"
				},
				{
					"internalType": "enum SaleKindInterface.SaleKind",
					"name": "saleKind",
					"type": "uint8"
				},
				{
					"internalType": "enum AuthenticatedProxy.HowToCall",
					"name": "howToCall",
					"type": "uint8"
				},
				{
					"internalType": "bytes",
					"name": "callData",
					"type": "bytes"
				},
				{
					"internalType": "bytes",
					"name": "replacementPattern",
					"type": "bytes"
				},
				{
					"internalType": "bytes",
					"name": "staticExtradata",
					"type": "bytes"
				}
			],
			"name": "calculateCurrentPrice_",
			"outputs": [
				{
					"internalType": "uint256",
					"name": "",
					"type": "uint256"
				}
			],
			"stateMutability": "view",
			"type": "function"
		},
		{
			"inputs": [
				{
					"internalType": "address[14]",
					"name": "addrs",
					"type": "address[14]"
				},
				{
					"internalType": "uint256[18]",
					"name": "uints",
					"type": "uint256[18]"
				},
				{
					"internalType": "uint8[8]",
					"name": "feeMethodsSidesKindsHowToCalls",
					"type": "uint8[8]"
				},
				{
					"internalType": "bytes",
					"name": "callDataBuy",
					"type": "bytes"
				},
				{
					"internalType": "bytes",
					"name": "callDataSell",
					"type": "bytes"
				},
				{
					"internalType": "bytes",
					"name": "replacementPatternBuy",
					"type": "bytes"
				},
				{
					"internalType": "bytes",
					"name": "replacementPatternSell",
					"type": "bytes"
				},
				{
					"internalType": "bytes",
					"name": "staticExtradataBuy",
					"type": "bytes"
				},
				{
					"internalType": "bytes",
					"name": "staticExtradataSell",
					"type": "bytes"
				}
			],
			"name": "calculateMatchPrice_",
			"outputs": [
				{
					"internalType": "uint256",
					"name": "",
					"type": "uint256"
				}
			],
			"stateMutability": "view",
			"type": "function"
		},
		{
			"inputs": [
				{
					"internalType": "address[7]",
					"name": "addrs",
					"type": "address[7]"
				},
				{
					"internalType": "uint256[9]",
					"name": "uints",
					"type": "uint256[9]"
				},
				{
					"internalType": "enum ExchangeCore.FeeMethod",
					"name": "feeMethod",
					"type": "uint8"
				},
				{
					"internalType": "enum SaleKindInterface.Side",
					"name": "side",
					"type": "uint8"
				},
				{
					"internalType": "enum SaleKindInterface.SaleKind",
					"name": "saleKind",
					"type": "uint8"
				},
				{
					"internalType": "enum AuthenticatedProxy.HowToCall",
					"name": "howToCall",
					"type": "uint8"
				},
				{
					"internalType": "bytes",
					"name": "callData",
					"type": "bytes"
				},
				{
					"internalType": "bytes",
					"name": "replacementPattern",
					"type": "bytes"
				},
				{
					"internalType": "bytes",
					"name": "staticExtradata",
					"type": "bytes"
				},
				{
					"internalType": "uint8",
					"name": "v",
					"type": "uint8"
				},
				{
					"internalType": "bytes32",
					"name": "r",
					"type": "bytes32"
				},
				{
					"internalType": "bytes32",
					"name": "s",
					"type": "bytes32"
				}
			],
			"name": "cancelOrder_",
			"outputs": [],
			"stateMutability": "nonpayable",
			"type": "function"
		},
		{
			"inputs": [
				{
					"internalType": "bytes32",
					"name": "",
					"type": "bytes32"
				}
			],
			"name": "cancelledOrFinalized",
			"outputs": [
				{
					"internalType": "bool",
					"name": "",
					"type": "bool"
				}
			],
			"stateMutability": "view",
			"type": "function"
		},
		{
			"inputs": [
				{
					"internalType": "uint256",
					"name": "newMinimumMakerProtocolFee",
					"type": "uint256"
				}
			],
			"name": "changeMinimumMakerProtocolFee",
			"outputs": [],
			"stateMutability": "nonpayable",
			"type": "function"
		},
		{
			"inputs": [
				{
					"internalType": "uint256",
					"name": "newMinimumTakerProtocolFee",
					"type": "uint256"
				}
			],
			"name": "changeMinimumTakerProtocolFee",
			"outputs": [],
			"stateMutability": "nonpayable",
			"type": "function"
		},
		{
			"inputs": [
				{
					"internalType": "address",
					"name": "newProtocolFeeRecipient",
					"type": "address"
				}
			],
			"name": "changeProtocolFeeRecipient",
			"outputs": [],
			"stateMutability": "nonpayable",
			"type": "function"
		},
		{
			"inputs": [
				{
					"internalType": "address",
					"name": "newTokenAddress",
					"type": "address"
				}
			],
			"name": "changeProtocolFeeTokenAddress",
			"outputs": [],
			"stateMutability": "nonpayable",
			"type": "function"
		},
		{
			"inputs": [],
			"name": "exchangeToken",
			"outputs": [
				{
					"internalType": "contract ERC20",
					"name": "",
					"type": "address"
				}
			],
			"stateMutability": "view",
			"type": "function"
		},
		{
			"inputs": [
				{
					"internalType": "address[7]",
					"name": "addrs",
					"type": "address[7]"
				},
				{
					"internalType": "uint256[9]",
					"name": "uints",
					"type": "uint256[9]"
				},
				{
					"internalType": "enum ExchangeCore.FeeMethod",
					"name": "feeMethod",
					"type": "uint8"
				},
				{
					"internalType": "enum SaleKindInterface.Side",
					"name": "side",
					"type": "uint8"
				},
				{
					"internalType": "enum SaleKindInterface.SaleKind",
					"name": "saleKind",
					"type": "uint8"
				},
				{
					"internalType": "enum AuthenticatedProxy.HowToCall",
					"name": "howToCall",
					"type": "uint8"
				},
				{
					"internalType": "bytes",
					"name": "callData",
					"type": "bytes"
				},
				{
					"internalType": "bytes",
					"name": "replacementPattern",
					"type": "bytes"
				},
				{
					"internalType": "bytes",
					"name": "staticExtradata",
					"type": "bytes"
				}
			],
			"name": "hashOrder_",
			"outputs": [
				{
					"internalType": "bytes32",
					"name": "",
					"type": "bytes32"
				}
			],
			"stateMutability": "pure",
			"type": "function"
		},
		{
			"inputs": [
				{
					"internalType": "address[7]",
					"name": "addrs",
					"type": "address[7]"
				},
				{
					"internalType": "uint256[9]",
					"name": "uints",
					"type": "uint256[9]"
				},
				{
					"internalType": "enum ExchangeCore.FeeMethod",
					"name": "feeMethod",
					"type": "uint8"
				},
				{
					"internalType": "enum SaleKindInterface.Side",
					"name": "side",
					"type": "uint8"
				},
				{
					"internalType": "enum SaleKindInterface.SaleKind",
					"name": "saleKind",
					"type": "uint8"
				},
				{
					"internalType": "enum AuthenticatedProxy.HowToCall",
					"name": "howToCall",
					"type": "uint8"
				},
				{
					"internalType": "bytes",
					"name": "callData",
					"type": "bytes"
				},
				{
					"internalType": "bytes",
					"name": "replacementPattern",
					"type": "bytes"
				},
				{
					"internalType": "bytes",
					"name": "staticExtradata",
					"type": "bytes"
				}
			],
			"name": "hashToSign_",
			"outputs": [
				{
					"internalType": "bytes32",
					"name": "",
					"type": "bytes32"
				}
			],
			"stateMutability": "pure",
			"type": "function"
		},
		{
			"inputs": [],
			"name": "minimumMakerProtocolFee",
			"outputs": [
				{
					"internalType": "uint256",
					"name": "",
					"type": "uint256"
				}
			],
			"stateMutability": "view",
			"type": "function"
		},
		{
			"inputs": [],
			"name": "minimumTakerProtocolFee",
			"outputs": [
				{
					"internalType": "uint256",
					"name": "",
					"type": "uint256"
				}
			],
			"stateMutability": "view",
			"type": "function"
		},
		{
			"inputs": [],
			"name": "owner",
			"outputs": [
				{
					"internalType": "address",
					"name": "",
					"type": "address"
				}
			],
			"stateMutability": "view",
			"type": "function"
		},
		{
			"inputs": [],
			"name": "pause",
			"outputs": [],
			"stateMutability": "nonpayable",
			"type": "function"
		},
		{
			"inputs": [],
			"name": "paused",
			"outputs": [
				{
					"internalType": "bool",
					"name": "",
					"type": "bool"
				}
			],
			"stateMutability": "view",
			"type": "function"
		},
		{
			"inputs": [],
			"name": "protocolFeeRecipient",
			"outputs": [
				{
					"internalType": "address",
					"name": "",
					"type": "address"
				}
			],
			"stateMutability": "view",
			"type": "function"
		},
		{
			"inputs": [],
			"name": "registry",
			"outputs": [
				{
					"internalType": "contract ProxyRegistry",
					"name": "",
					"type": "address"
				}
			],
			"stateMutability": "view",
			"type": "function"
		},
		{
			"inputs": [],
			"name": "renounceOwnership",
			"outputs": [],
			"stateMutability": "nonpayable",
			"type": "function"
		},
		{
			"inputs": [
				{
					"internalType": "address",
					"name": "target",
					"type": "address"
				},
				{
					"internalType": "bytes",
					"name": "callData",
					"type": "bytes"
				},
				{
					"internalType": "bytes",
					"name": "extradata",
					"type": "bytes"
				}
			],
			"name": "staticCall",
			"outputs": [
				{
					"internalType": "bool",
					"name": "result",
					"type": "bool"
				}
			],
			"stateMutability": "view",
			"type": "function"
		},
		{
			"inputs": [],
			"name": "tokenTransferProxy",
			"outputs": [
				{
					"internalType": "contract TokenTransferProxy",
					"name": "",
					"type": "address"
				}
			],
			"stateMutability": "view",
			"type": "function"
		},
		{
			"inputs": [
				{
					"internalType": "address",
					"name": "newOwner",
					"type": "address"
				}
			],
			"name": "transferOwnership",
			"outputs": [],
			"stateMutability": "nonpayable",
			"type": "function"
		},
		{
			"inputs": [],
			"name": "unPause",
			"outputs": [],
			"stateMutability": "nonpayable",
			"type": "function"
		},
		{
			"inputs": [
				{
					"internalType": "address[7]",
					"name": "addrs",
					"type": "address[7]"
				},
				{
					"internalType": "uint256[9]",
					"name": "uints",
					"type": "uint256[9]"
				},
				{
					"internalType": "enum ExchangeCore.FeeMethod",
					"name": "feeMethod",
					"type": "uint8"
				},
				{
					"internalType": "enum SaleKindInterface.Side",
					"name": "side",
					"type": "uint8"
				},
				{
					"internalType": "enum SaleKindInterface.SaleKind",
					"name": "saleKind",
					"type": "uint8"
				},
				{
					"internalType": "enum AuthenticatedProxy.HowToCall",
					"name": "howToCall",
					"type": "uint8"
				},
				{
					"internalType": "bytes",
					"name": "callData",
					"type": "bytes"
				},
				{
					"internalType": "bytes",
					"name": "replacementPattern",
					"type": "bytes"
				},
				{
					"internalType": "bytes",
					"name": "staticExtradata",
					"type": "bytes"
				}
			],
			"name": "validateOrderParameters_",
			"outputs": [
				{
					"internalType": "bool",
					"name": "",
					"type": "bool"
				}
			],
			"stateMutability": "view",
			"type": "function"
		},
		{
			"inputs": [
				{
					"internalType": "address[7]",
					"name": "addrs",
					"type": "address[7]"
				},
				{
					"internalType": "uint256[9]",
					"name": "uints",
					"type": "uint256[9]"
				},
				{
					"internalType": "enum ExchangeCore.FeeMethod",
					"name": "feeMethod",
					"type": "uint8"
				},
				{
					"internalType": "enum SaleKindInterface.Side",
					"name": "side",
					"type": "uint8"
				},
				{
					"internalType": "enum SaleKindInterface.SaleKind",
					"name": "saleKind",
					"type": "uint8"
				},
				{
					"internalType": "enum AuthenticatedProxy.HowToCall",
					"name": "howToCall",
					"type": "uint8"
				},
				{
					"internalType": "bytes",
					"name": "callData",
					"type": "bytes"
				},
				{
					"internalType": "bytes",
					"name": "replacementPattern",
					"type": "bytes"
				},
				{
					"internalType": "bytes",
					"name": "staticExtradata",
					"type": "bytes"
				},
				{
					"internalType": "uint8",
					"name": "v",
					"type": "uint8"
				},
				{
					"internalType": "bytes32",
					"name": "r",
					"type": "bytes32"
				},
				{
					"internalType": "bytes32",
					"name": "s",
					"type": "bytes32"
				}
			],
			"name": "validateOrder_",
			"outputs": [
				{
					"internalType": "bool",
					"name": "",
					"type": "bool"
				}
			],
			"stateMutability": "view",
			"type": "function"
		}
	]
}