{
	"data": {
		"bytecode": {
			"linkReferences": {},
			"object": "60806040526000805460ff1916815560068190556007553480156200002357600080fd5b50604051620060f4380380620060f48339810160408190526200004691620000ef565b60008054610100600160a81b031916336101008102919091178255604051909182917f8be0079c531659141344cd1fd0a4f28419497f9722a3daafe3b4186f6b6457e0908290a3506000805460ff60a81b19169055600280546001600160a01b039586166001600160a01b03199182161790915560038054948616948216949094179093556001805492851692841692909217909155600880549190931691161790556200016f565b6000806000806080858703121562000105578384fd5b8451620001128162000156565b6020860151909450620001258162000156565b6040860151909350620001388162000156565b60608601519092506200014b8162000156565b939692955090935050565b6001600160a01b03811681146200016c57600080fd5b50565b615f75806200017f6000396000f3fe6080604052600436106101e35760003560e01c80637966686811610102578063a8a41c7011610095578063d537e13111610064578063d537e131146105c6578063e57d4adb146105e6578063f2fde38b14610616578063f7b188a51461063657600080fd5b8063a8a41c701461055d578063ab834bab1461057d578063ca595b9a14610590578063cae6047f146105b057600080fd5b80638076f005116100d15780638076f005146104d55780638456cb59146105055780638da5cb5b1461051a578063a25eb5d91461053d57600080fd5b8063796668681461045f5780637b1039991461047f5780637ccefc521461049f5780637d766981146104b557600080fd5b8063514f03301161017a57806360bef33a1161014957806360bef33a146103ea57806364df049e1461040a578063715018a61461042a57806371d02b381461043f57600080fd5b8063514f03301461035c57806354fd4d501461037c5780635c975abb146103ab5780635ef527e4146103ca57600080fd5b80631a6b13e2116101b65780631a6b13e2146102c357806328a8ee68146102e357806331e63199146103075780633f67ee0d1461033c57600080fd5b806306fdde03146101e85780630eefdbad1461023957806310796a471461027157806314350c24146102a1575b600080fd5b3480156101f457600080fd5b506102236040518060400160405280600f81526020016e57797665726e2045786368616e676560881b81525081565b6040516102309190615dd4565b60405180910390f35b34801561024557600080fd5b50600354610259906001600160a01b031681565b6040516001600160a01b039091168152602001610230565b34801561027d57600080fd5b5061029161028c366004615611565b61064b565b6040519015158152602001610230565b3480156102ad57600080fd5b506102c16102bc366004615c26565b6106e3565b005b3480156102cf57600080fd5b506102c16102de366004615c26565b61074b565b3480156102ef57600080fd5b506102f960075481565b604051908152602001610230565b34801561031357600080fd5b506102236040518060400160405280600981526020016820b731b0b630b3b7b760b91b81525081565b34801561034857600080fd5b506102f961035736600461590c565b6107aa565b34801561036857600080fd5b506102c16103773660046155d9565b610b02565b34801561038857600080fd5b5061022360405180604001604052806003815260200162332e3160e81b81525081565b3480156103b757600080fd5b50600054600160a81b900460ff16610291565b3480156103d657600080fd5b506102c16103e53660046155d9565b610b7e565b3480156103f657600080fd5b50610291610405366004615ae1565b610c39565b34801561041657600080fd5b50600854610259906001600160a01b031681565b34801561043657600080fd5b506102c1610fe4565b34801561044b57600080fd5b506102f961045a36600461590c565b611063565b34801561046b57600080fd5b506102c161047a3660046159df565b6113ad565b34801561048b57600080fd5b50600254610259906001600160a01b031681565b3480156104ab57600080fd5b506102f960065481565b3480156104c157600080fd5b506102f96104d036600461590c565b611732565b3480156104e157600080fd5b506102916104f0366004615c26565b60046020526000908152604090205460ff1681565b34801561051157600080fd5b506102c1611a7c565b34801561052657600080fd5b5060005461010090046001600160a01b0316610259565b34801561054957600080fd5b50600154610259906001600160a01b031681565b34801561056957600080fd5b506102c1610578366004615ae1565b611ab6565b6102c161058b3660046157ae565b611e76565b34801561059c57600080fd5b506102916105ab36600461590c565b612771565b3480156105bc57600080fd5b506102f961271081565b3480156105d257600080fd5b506102f96105e1366004615683565b612ace565b3480156105f257600080fd5b50610291610601366004615c26565b60056020526000908152604090205460ff1681565b34801561062257600080fd5b506102c16106313660046155d9565b6132d3565b34801561064257600080fd5b506102c16133ce565b6000808251845161065c9190615e46565b6001600160401b0381111561068157634e487b7160e01b600052604160045260246000fd5b6040519080825280601f01601f1916602001820160405280156106ab576020820181803683370190505b509050602081016106bc8185613406565b90506106c88186613406565b506000604051835160208501895afa925050505b9392505050565b6000546001600160a01b0361010090910416331461071c5760405162461bcd60e51b815260040161071390615e11565b60405180910390fd5b600054600160a81b900460ff16156107465760405162461bcd60e51b815260040161071390615de7565b600655565b6000546001600160a01b0361010090910416331461077b5760405162461bcd60e51b815260040161071390615e11565b600054600160a81b900460ff16156107a55760405162461bcd60e51b815260040161071390615de7565b600755565b6000610af4604051806102e001604052808c6000600781106107dc57634e487b7160e01b600052603260045260246000fd5b60200201516001600160a01b031681526020018c60016007811061081057634e487b7160e01b600052603260045260246000fd5b60200201516001600160a01b031681526020018c60026007811061084457634e487b7160e01b600052603260045260246000fd5b60200201516001600160a01b031681526020018b60006009811061087857634e487b7160e01b600052603260045260246000fd5b602002015181526020018b6001600981106108a357634e487b7160e01b600052603260045260246000fd5b602002015181526020018b6002600981106108ce57634e487b7160e01b600052603260045260246000fd5b602002015181526020018b6003600981106108f957634e487b7160e01b600052603260045260246000fd5b602002015181526020018c60036007811061092457634e487b7160e01b600052603260045260246000fd5b60200201516001600160a01b031681526020018a600181111561095757634e487b7160e01b600052602160045260246000fd5b815260200189600181111561097c57634e487b7160e01b600052602160045260246000fd5b81526020018860018111156109a157634e487b7160e01b600052602160045260246000fd5b815260808d01516001600160a01b031660208201526040018760018111156109d957634e487b7160e01b600052602160045260246000fd5b8152602081018790526040810186905260a0808e01516001600160a01b0316606083015260808201869052018c600660200201516001600160a01b031681526020018b600460098110610a3c57634e487b7160e01b600052603260045260246000fd5b602002015181526020018b600560098110610a6757634e487b7160e01b600052603260045260246000fd5b602002015181526020018b600660098110610a9257634e487b7160e01b600052603260045260246000fd5b602002015181526020018b600760098110610abd57634e487b7160e01b600052603260045260246000fd5b602002015181526020018b600860098110610ae857634e487b7160e01b600052603260045260246000fd5b60200201519052613449565b9a9950505050505050505050565b6000546001600160a01b03610100909104163314610b325760405162461bcd60e51b815260040161071390615e11565b600054600160a81b900460ff1615610b5c5760405162461bcd60e51b815260040161071390615de7565b600880546001600160a01b0319166001600160a01b0392909216919091179055565b6000546001600160a01b03610100909104163314610bae5760405162461bcd60e51b815260040161071390615e11565b600054600160a81b900460ff1615610bd85760405162461bcd60e51b815260040161071390615de7565b600180546001600160a01b038381166001600160a01b031983168117909355604080519190921680825260208201939093527f114cfa1c61a2b039de4a4dd89821f0664d2a5dc26f70a270c615a9d14fd40632910160405180910390a15050565b600080604051806102e001604052808f600060078110610c6957634e487b7160e01b600052603260045260246000fd5b60200201516001600160a01b031681526020018f600160078110610c9d57634e487b7160e01b600052603260045260246000fd5b60200201516001600160a01b031681526020018f600260078110610cd157634e487b7160e01b600052603260045260246000fd5b60200201516001600160a01b031681526020018e600060098110610d0557634e487b7160e01b600052603260045260246000fd5b602002015181526020018e600160098110610d3057634e487b7160e01b600052603260045260246000fd5b602002015181526020018e600260098110610d5b57634e487b7160e01b600052603260045260246000fd5b602002015181526020018e600360098110610d8657634e487b7160e01b600052603260045260246000fd5b602002015181526020018f600360078110610db157634e487b7160e01b600052603260045260246000fd5b60200201516001600160a01b031681526020018d6001811115610de457634e487b7160e01b600052602160045260246000fd5b81526020018c6001811115610e0957634e487b7160e01b600052602160045260246000fd5b81526020018b6001811115610e2e57634e487b7160e01b600052602160045260246000fd5b81526020018f600460200201516001600160a01b031681526020018a6001811115610e6957634e487b7160e01b600052602160045260246000fd5b8152602081018a9052604081018990526060018f600560200201516001600160a01b031681526020018781526020018f600660078110610eb957634e487b7160e01b600052603260045260246000fd5b60200201516001600160a01b031681526020018e600460098110610eed57634e487b7160e01b600052603260045260246000fd5b602002015181526020018e600560098110610f1857634e487b7160e01b600052603260045260246000fd5b602002015181526020018e600660098110610f4357634e487b7160e01b600052603260045260246000fd5b602002015181526020018e600760098110610f6e57634e487b7160e01b600052603260045260246000fd5b602002015181526020018e600860098110610f9957634e487b7160e01b600052603260045260246000fd5b602002015190529050610fd2610fae8261347d565b8260405180606001604052808960ff168152602001888152602001878152506134d9565b9e9d5050505050505050505050505050565b6000546001600160a01b036101009091041633146110145760405162461bcd60e51b815260040161071390615e11565b600080546040516101009091046001600160a01b0316907f8be0079c531659141344cd1fd0a4f28419497f9722a3daafe3b4186f6b6457e0908390a360008054610100600160a81b0319169055565b6000610af4604051806102e001604052808c60006007811061109557634e487b7160e01b600052603260045260246000fd5b60200201516001600160a01b031681526020018c6001600781106110c957634e487b7160e01b600052603260045260246000fd5b60200201516001600160a01b031681526020018c6002600781106110fd57634e487b7160e01b600052603260045260246000fd5b60200201516001600160a01b031681526020018b60006009811061113157634e487b7160e01b600052603260045260246000fd5b602002015181526020018b60016009811061115c57634e487b7160e01b600052603260045260246000fd5b602002015181526020018b60026009811061118757634e487b7160e01b600052603260045260246000fd5b602002015181526020018b6003600981106111b257634e487b7160e01b600052603260045260246000fd5b602002015181526020018c6003600781106111dd57634e487b7160e01b600052603260045260246000fd5b60200201516001600160a01b031681526020018a600181111561121057634e487b7160e01b600052602160045260246000fd5b815260200189600181111561123557634e487b7160e01b600052602160045260246000fd5b815260200188600181111561125a57634e487b7160e01b600052602160045260246000fd5b815260808d01516001600160a01b0316602082015260400187600181111561129257634e487b7160e01b600052602160045260246000fd5b8152602081018790526040810186905260a0808e01516001600160a01b0316606083015260808201869052018c600660200201516001600160a01b031681526020018b6004600981106112f557634e487b7160e01b600052603260045260246000fd5b602002015181526020018b60056009811061132057634e487b7160e01b600052603260045260246000fd5b602002015181526020018b60066009811061134b57634e487b7160e01b600052603260045260246000fd5b602002015181526020018b60076009811061137657634e487b7160e01b600052603260045260246000fd5b602002015181526020018b6008600981106113a157634e487b7160e01b600052603260045260246000fd5b602002015190526135bf565b600054600160a81b900460ff16156113d75760405162461bcd60e51b815260040161071390615de7565b6000604051806102e001604052808c60006007811061140657634e487b7160e01b600052603260045260246000fd5b60200201516001600160a01b031681526020018c60016007811061143a57634e487b7160e01b600052603260045260246000fd5b60200201516001600160a01b031681526020018c60026007811061146e57634e487b7160e01b600052603260045260246000fd5b60200201516001600160a01b031681526020018b6000600981106114a257634e487b7160e01b600052603260045260246000fd5b602002015181526020018b6001600981106114cd57634e487b7160e01b600052603260045260246000fd5b602002015181526020018b6002600981106114f857634e487b7160e01b600052603260045260246000fd5b602002015181526020018b60036009811061152357634e487b7160e01b600052603260045260246000fd5b602002015181526020018c60036007811061154e57634e487b7160e01b600052603260045260246000fd5b60200201516001600160a01b031681526020018a600181111561158157634e487b7160e01b600052602160045260246000fd5b81526020018960018111156115a657634e487b7160e01b600052602160045260246000fd5b81526020018860018111156115cb57634e487b7160e01b600052602160045260246000fd5b815260808d01516001600160a01b0316602082015260400187600181111561160357634e487b7160e01b600052602160045260246000fd5b8152602081018790526040810186905260a0808e01516001600160a01b0316606083015260808201869052018c600660200201516001600160a01b031681526020018b60046009811061166657634e487b7160e01b600052603260045260246000fd5b602002015181526020018b60056009811061169157634e487b7160e01b600052603260045260246000fd5b602002015181526020018b6006600981106116bc57634e487b7160e01b600052603260045260246000fd5b602002015181526020018b6007600981106116e757634e487b7160e01b600052603260045260246000fd5b602002015181526020018b60086009811061171257634e487b7160e01b600052603260045260246000fd5b60200201519052905061172581836137f0565b5050505050505050505050565b6000610af4604051806102e001604052808c60006007811061176457634e487b7160e01b600052603260045260246000fd5b60200201516001600160a01b031681526020018c60016007811061179857634e487b7160e01b600052603260045260246000fd5b60200201516001600160a01b031681526020018c6002600781106117cc57634e487b7160e01b600052603260045260246000fd5b60200201516001600160a01b031681526020018b60006009811061180057634e487b7160e01b600052603260045260246000fd5b602002015181526020018b60016009811061182b57634e487b7160e01b600052603260045260246000fd5b602002015181526020018b60026009811061185657634e487b7160e01b600052603260045260246000fd5b602002015181526020018b60036009811061188157634e487b7160e01b600052603260045260246000fd5b602002015181526020018c6003600781106118ac57634e487b7160e01b600052603260045260246000fd5b60200201516001600160a01b031681526020018a60018111156118df57634e487b7160e01b600052602160045260246000fd5b815260200189600181111561190457634e487b7160e01b600052602160045260246000fd5b815260200188600181111561192957634e487b7160e01b600052602160045260246000fd5b815260808d01516001600160a01b0316602082015260400187600181111561196157634e487b7160e01b600052602160045260246000fd5b8152602081018790526040810186905260a0808e01516001600160a01b0316606083015260808201869052018c600660200201516001600160a01b031681526020018b6004600981106119c457634e487b7160e01b600052603260045260246000fd5b602002015181526020018b6005600981106119ef57634e487b7160e01b600052603260045260246000fd5b602002015181526020018b600660098110611a1a57634e487b7160e01b600052603260045260246000fd5b602002015181526020018b600760098110611a4557634e487b7160e01b600052603260045260246000fd5b602002015181526020018b600860098110611a7057634e487b7160e01b600052603260045260246000fd5b6020020151905261347d565b6000546001600160a01b03610100909104163314611aac5760405162461bcd60e51b815260040161071390615e11565b611ab4613984565b565b600054600160a81b900460ff1615611ae05760405162461bcd60e51b815260040161071390615de7565b611e68604051806102e001604052808e600060078110611b1057634e487b7160e01b600052603260045260246000fd5b60200201516001600160a01b031681526020018e600160078110611b4457634e487b7160e01b600052603260045260246000fd5b60200201516001600160a01b031681526020018e600260078110611b7857634e487b7160e01b600052603260045260246000fd5b60200201516001600160a01b031681526020018d600060098110611bac57634e487b7160e01b600052603260045260246000fd5b602002015181526020018d600160098110611bd757634e487b7160e01b600052603260045260246000fd5b602002015181526020018d600260098110611c0257634e487b7160e01b600052603260045260246000fd5b602002015181526020018d600360098110611c2d57634e487b7160e01b600052603260045260246000fd5b602002015181526020018e600360078110611c5857634e487b7160e01b600052603260045260246000fd5b60200201516001600160a01b031681526020018c6001811115611c8b57634e487b7160e01b600052602160045260246000fd5b81526020018b6001811115611cb057634e487b7160e01b600052602160045260246000fd5b81526020018a6001811115611cd557634e487b7160e01b600052602160045260246000fd5b815260808f01516001600160a01b03166020820152604001896001811115611d0d57634e487b7160e01b600052602160045260246000fd5b815260208101899052604081018890526060018e600560200201516001600160a01b031681526020018681526020018e600660078110611d5d57634e487b7160e01b600052603260045260246000fd5b60200201516001600160a01b031681526020018d600460098110611d9157634e487b7160e01b600052603260045260246000fd5b602002015181526020018d600560098110611dbc57634e487b7160e01b600052603260045260246000fd5b602002015181526020018d600660098110611de757634e487b7160e01b600052603260045260246000fd5b602002015181526020018d600760098110611e1257634e487b7160e01b600052603260045260246000fd5b602002015181526020018d600860098110611e3d57634e487b7160e01b600052603260045260246000fd5b602002015181525060405180606001604052808660ff16815260200185815260200184815250613a06565b505050505050505050505050565b600054600160a81b900460ff1615611ea05760405162461bcd60e51b815260040161071390615de7565b611725604051806102e001604052808d6000600e8110611ed057634e487b7160e01b600052603260045260246000fd5b60200201516001600160a01b031681526020018d6001600e8110611f0457634e487b7160e01b600052603260045260246000fd5b60200201516001600160a01b031681526020018d6002600e8110611f3857634e487b7160e01b600052603260045260246000fd5b60200201516001600160a01b031681526020018c600060128110611f6c57634e487b7160e01b600052603260045260246000fd5b602002015181526020018c600160128110611f9757634e487b7160e01b600052603260045260246000fd5b602002015181526020018c600260128110611fc257634e487b7160e01b600052603260045260246000fd5b602002015181526020018c600360128110611fed57634e487b7160e01b600052603260045260246000fd5b602002015181526020018d6003600e811061201857634e487b7160e01b600052603260045260246000fd5b60200201516001600160a01b031681526020018b60006008811061204c57634e487b7160e01b600052603260045260246000fd5b602002015160ff16600181111561207357634e487b7160e01b600052602160045260246000fd5b600181111561209257634e487b7160e01b600052602160045260246000fd5b81526020018b6001602002015160ff1660018111156120c157634e487b7160e01b600052602160045260246000fd5b60018111156120e057634e487b7160e01b600052602160045260246000fd5b81526020018b6002602002015160ff16600181111561210f57634e487b7160e01b600052602160045260246000fd5b600181111561212e57634e487b7160e01b600052602160045260246000fd5b815260808e01516001600160a01b031660208201526040018b6003602002015160ff16600181111561217057634e487b7160e01b600052602160045260246000fd5b600181111561218f57634e487b7160e01b600052602160045260246000fd5b8152602081018b90526040810189905260a0808f01516001600160a01b0316606083015260808201889052018d600660200201516001600160a01b031681526020018c6004601281106121f257634e487b7160e01b600052603260045260246000fd5b602002015181526020018c60056012811061221d57634e487b7160e01b600052603260045260246000fd5b602002015181526020018c60066012811061224857634e487b7160e01b600052603260045260246000fd5b602002015181526020018c60076012811061227357634e487b7160e01b600052603260045260246000fd5b602002015181526020018c60086012811061229e57634e487b7160e01b600052603260045260246000fd5b6020908102919091015190915260408051606081018252865160ff168152855192810192909252810184600160200201519052604080516102e08101909152808f600760200201516001600160a01b031681526020018f6008600e811061231557634e487b7160e01b600052603260045260246000fd5b60200201516001600160a01b031681526020018f6009600e811061234957634e487b7160e01b600052603260045260246000fd5b60200201516001600160a01b031681526020018e60096012811061237d57634e487b7160e01b600052603260045260246000fd5b602002015181526020018e600a601281106123a857634e487b7160e01b600052603260045260246000fd5b602002015181526020018e600b601281106123d357634e487b7160e01b600052603260045260246000fd5b602002015181526020018e600c601281106123fe57634e487b7160e01b600052603260045260246000fd5b602002015181526020018f600a600e811061242957634e487b7160e01b600052603260045260246000fd5b60200201516001600160a01b031681526020018d60046008811061245d57634e487b7160e01b600052603260045260246000fd5b602002015160ff16600181111561248457634e487b7160e01b600052602160045260246000fd5b60018111156124a357634e487b7160e01b600052602160045260246000fd5b81526020018d6005602002015160ff1660018111156124d257634e487b7160e01b600052602160045260246000fd5b60018111156124f157634e487b7160e01b600052602160045260246000fd5b81526020018d6006602002015160ff16600181111561252057634e487b7160e01b600052602160045260246000fd5b600181111561253f57634e487b7160e01b600052602160045260246000fd5b81526020018f600b60200201516001600160a01b031681526020018d60076008811061257b57634e487b7160e01b600052603260045260246000fd5b602002015160ff1660018111156125a257634e487b7160e01b600052602160045260246000fd5b60018111156125c157634e487b7160e01b600052602160045260246000fd5b8152602081018c9052604081018a90526060018f600c60200201516001600160a01b031681526020018781526020018f600d600e811061261157634e487b7160e01b600052603260045260246000fd5b60200201516001600160a01b031681526020018e600d6012811061264557634e487b7160e01b600052603260045260246000fd5b602002015181526020018e600e6012811061267057634e487b7160e01b600052603260045260246000fd5b602002015181526020018e600f6012811061269b57634e487b7160e01b600052603260045260246000fd5b602002015181526020018e6010601281106126c657634e487b7160e01b600052603260045260246000fd5b602002015181526020018e6011601281106126f157634e487b7160e01b600052603260045260246000fd5b60200201519052604080516060810190915280876001602002015160ff1681526020018660026005811061273557634e487b7160e01b600052603260045260246000fd5b602002015181526020018660036005811061276057634e487b7160e01b600052603260045260246000fd5b602002015190526080860151613aaf565b600080604051806102e001604052808c6000600781106127a157634e487b7160e01b600052603260045260246000fd5b60200201516001600160a01b031681526020018c6001600781106127d557634e487b7160e01b600052603260045260246000fd5b60200201516001600160a01b031681526020018c60026007811061280957634e487b7160e01b600052603260045260246000fd5b60200201516001600160a01b031681526020018b60006009811061283d57634e487b7160e01b600052603260045260246000fd5b602002015181526020018b60016009811061286857634e487b7160e01b600052603260045260246000fd5b602002015181526020018b60026009811061289357634e487b7160e01b600052603260045260246000fd5b602002015181526020018b6003600981106128be57634e487b7160e01b600052603260045260246000fd5b602002015181526020018c6003600781106128e957634e487b7160e01b600052603260045260246000fd5b60200201516001600160a01b031681526020018a600181111561291c57634e487b7160e01b600052602160045260246000fd5b815260200189600181111561294157634e487b7160e01b600052602160045260246000fd5b815260200188600181111561296657634e487b7160e01b600052602160045260246000fd5b815260808d01516001600160a01b0316602082015260400187600181111561299e57634e487b7160e01b600052602160045260246000fd5b8152602081018790526040810186905260a0808e01516001600160a01b0316606083015260808201869052018c600660200201516001600160a01b031681526020018b600460098110612a0157634e487b7160e01b600052603260045260246000fd5b602002015181526020018b600560098110612a2c57634e487b7160e01b600052603260045260246000fd5b602002015181526020018b600660098110612a5757634e487b7160e01b600052603260045260246000fd5b602002015181526020018b600760098110612a8257634e487b7160e01b600052603260045260246000fd5b602002015181526020018b600860098110612aad57634e487b7160e01b600052603260045260246000fd5b602002015190529050612abf81614265565b9b9a5050505050505050505050565b600080604051806102e001604052808c6000600e8110612afe57634e487b7160e01b600052603260045260246000fd5b60200201516001600160a01b031681526020018c6001600e8110612b3257634e487b7160e01b600052603260045260246000fd5b60200201516001600160a01b031681526020018c6002600e8110612b6657634e487b7160e01b600052603260045260246000fd5b60200201516001600160a01b031681526020018b600060128110612b9a57634e487b7160e01b600052603260045260246000fd5b602002015181526020018b600160128110612bc557634e487b7160e01b600052603260045260246000fd5b602002015181526020018b600260128110612bf057634e487b7160e01b600052603260045260246000fd5b602002015181526020018b600360128110612c1b57634e487b7160e01b600052603260045260246000fd5b602002015181526020018c6003600e8110612c4657634e487b7160e01b600052603260045260246000fd5b60200201516001600160a01b031681526020018a600060088110612c7a57634e487b7160e01b600052603260045260246000fd5b602002015160ff166001811115612ca157634e487b7160e01b600052602160045260246000fd5b6001811115612cc057634e487b7160e01b600052602160045260246000fd5b81526020018a6001602002015160ff166001811115612cef57634e487b7160e01b600052602160045260246000fd5b6001811115612d0e57634e487b7160e01b600052602160045260246000fd5b81526020018a6002602002015160ff166001811115612d3d57634e487b7160e01b600052602160045260246000fd5b6001811115612d5c57634e487b7160e01b600052602160045260246000fd5b815260808d01516001600160a01b031660208201526040018a6003602002015160ff166001811115612d9e57634e487b7160e01b600052602160045260246000fd5b6001811115612dbd57634e487b7160e01b600052602160045260246000fd5b8152602081018a90526040810188905260a0808e01516001600160a01b0316606083015260808201879052018c600660200201516001600160a01b031681526020018b600460128110612e2057634e487b7160e01b600052603260045260246000fd5b602002015181526020018b600560128110612e4b57634e487b7160e01b600052603260045260246000fd5b602002015181526020018b600660128110612e7657634e487b7160e01b600052603260045260246000fd5b602002015181526020018b600760128110612ea157634e487b7160e01b600052603260045260246000fd5b602002015181526020018b600860128110612ecc57634e487b7160e01b600052603260045260246000fd5b602002015181525090506000604051806102e001604052808d6007600e8110612f0557634e487b7160e01b600052603260045260246000fd5b60200201516001600160a01b031681526020018d6008600e8110612f3957634e487b7160e01b600052603260045260246000fd5b60200201516001600160a01b031681526020018d6009600e8110612f6d57634e487b7160e01b600052603260045260246000fd5b60200201516001600160a01b031681526020018c600960128110612fa157634e487b7160e01b600052603260045260246000fd5b602002015181526020018c600a60128110612fcc57634e487b7160e01b600052603260045260246000fd5b602002015181526020018c600b60128110612ff757634e487b7160e01b600052603260045260246000fd5b602002015181526020018c600c6012811061302257634e487b7160e01b600052603260045260246000fd5b602002015181526020018d600a600e811061304d57634e487b7160e01b600052603260045260246000fd5b60200201516001600160a01b031681526020018b60046008811061308157634e487b7160e01b600052603260045260246000fd5b602002015160ff1660018111156130a857634e487b7160e01b600052602160045260246000fd5b60018111156130c757634e487b7160e01b600052602160045260246000fd5b81526020018b6005602002015160ff1660018111156130f657634e487b7160e01b600052602160045260246000fd5b600181111561311557634e487b7160e01b600052602160045260246000fd5b81526020018b6006602002015160ff16600181111561314457634e487b7160e01b600052602160045260246000fd5b600181111561316357634e487b7160e01b600052602160045260246000fd5b81526101608e01516001600160a01b031660208201526040018b6007602002015160ff1660018111156131a657634e487b7160e01b600052602160045260246000fd5b60018111156131c557634e487b7160e01b600052602160045260246000fd5b8152602081018a9052604081018890526101808e01516001600160a01b039081166060830152608082018790526101a08f01511660a082015260c0018c600d602002015181526020018c600e6012811061322f57634e487b7160e01b600052603260045260246000fd5b602002015181526020018c600f6012811061325a57634e487b7160e01b600052603260045260246000fd5b602002015181526020018c60106012811061328557634e487b7160e01b600052603260045260246000fd5b602002015181526020018c6011601281106132b057634e487b7160e01b600052603260045260246000fd5b6020020151905290506132c382826142fe565b9c9b505050505050505050505050565b6000546001600160a01b036101009091041633146133035760405162461bcd60e51b815260040161071390615e11565b6001600160a01b0381166133685760405162461bcd60e51b815260206004820152602660248201527f4f776e61626c653a206e6577206f776e657220697320746865207a65726f206160448201526564647265737360d01b6064820152608401610713565b600080546040516001600160a01b038085169361010090930416917f8be0079c531659141344cd1fd0a4f28419497f9722a3daafe3b4186f6b6457e091a3600080546001600160a01b0390921661010002610100600160a81b0319909216919091179055565b6000546001600160a01b036101009091041633146133fe5760405162461bcd60e51b815260040161071390615e11565b611ab461438f565b80516000901561344257815180602001830160208401855b6001838310141561343957815181526020918201910161341e565b50505092909201915b5090919050565b6000613477826101200151836101400151846102400151856102600151866102800151876102a00151614413565b92915050565b6000613488826135bf565b6040517f19457468657265756d205369676e6564204d6573736167653a0a3332000000006020820152603c810191909152605c01604051602081830303815290604052805190602001209050919050565b60006134e483614265565b6134f0575060006106dc565b60008481526004602052604090205460ff161561350f575060006106dc565b60008481526005602052604090205460ff161561352e575060016106dc565b6020808401518351848301516040808701518151600081529586018083528a905260ff90931690850152606084015260808301526001600160a01b03169060019060a0016020604051602081039080840390855afa158015613594573d6000803e3d6000fd5b505050602060405103516001600160a01b031614156135b5575060016106dc565b5060009392505050565b6000806135cb836144e5565b90506000816001600160401b038111156135f557634e487b7160e01b600052604160045260246000fd5b6040519080825280601f01601f19166020018201604052801561361f576020820181803683370190505b508451909150602082019061363590829061451d565b905061364581866020015161451d565b905061365581866040015161451d565b6060868101518252608080880151602084015260a0880151604084015260c08801519183019190915260e08701519101915061369290829061451d565b90506136c28186610100015160018111156136bd57634e487b7160e01b600052602160045260246000fd5b614537565b90506136ed8186610120015160018111156136bd57634e487b7160e01b600052602160045260246000fd5b90506137188186610140015160018111156136bd57634e487b7160e01b600052602160045260246000fd5b90506137298186610160015161451d565b90506137548186610180015160018111156136bd57634e487b7160e01b600052602160045260246000fd5b905061376581866101a00151613406565b905061377681866101c00151613406565b905061378781866101e0015161451d565b905061379881866102000151613406565b90506137a98186610220015161451d565b610240860151815261026086015160208083019190915261028087015160408301526102a087015160608301526102c0909601516080909101525090920191909120919050565b81602001516001600160a01b0316336001600160a01b03161461381257600080fd5b600061381d8361347d565b60008181526005602052604090205490915060ff161561383c57600080fd5b60016005600083815260200190815260200160002060006101000a81548160ff0219169083151502179055508260e001516001600160a01b031683602001516001600160a01b0316827f90c7f9f5b58c15f0f635bfb99f55d3d78fdbef3559e7d8abf5c81052a527662286600001518760400151886060015189608001518a60a001518b60c001518c61010001518d61012001518e61014001518f61016001516040516138f29a99989796959493929190615c89565b60405180910390a4807fe55393c778364e440d958b39ac1debd99dcfae3775a8a04d1e79124adf6a2d08846101800151856101a00151866101c00151876101e001518861020001518961022001518a61024001518b61026001518c61028001518d6102a001518e6102c001518e6040516139779c9b9a99989796959493929190615d38565b60405180910390a2505050565b600054600160a81b900460ff16156139ae5760405162461bcd60e51b815260040161071390615de7565b6000805460ff60a81b1916600160a81b1790557f62e78cea01bee320cd4e420270b5ea74000d11b0c9f74754ebdbfc544b05a2586139e93390565b6040516001600160a01b03909116815260200160405180910390a1565b6000613a128383614544565b905082602001516001600160a01b0316336001600160a01b031614613a6a5760405162461bcd60e51b815260206004820152600e60248201526d135052d157d393d517d59053125160921b6044820152606401610713565b600081815260046020526040808220805460ff191660011790555182917f5152abf959f6564662358c2e52b702259b78bac5ee7842a0f01937e670efcc7d91a2505050565b60005460ff1615613af85760405162461bcd60e51b81526020600482015260136024820152721499595b9d1c985b98de4819195d1958dd1959606a1b6044820152606401610713565b6000805460ff1916600117815560208601516001600160a01b0316331415613b6c57613b2386614265565b613b675760405162461bcd60e51b8152602060048201526015602482015274213abc9037b93232b91034b99034b73b30b634b21760591b6044820152606401610713565b613b79565b613b768686614544565b90505b60208401516000906001600160a01b0316331415613be457613b9a85614265565b613bdf5760405162461bcd60e51b815260206004820152601660248201527529b2b6361037b93232b91034b99034b73b30b634b21760511b6044820152606401610713565b613bf1565b613bee8585614544565b90505b613bfb878661459a565b613c475760405162461bcd60e51b815260206004820152601860248201527f4f7264657273206973206e6f74206d6174636861626c652e00000000000000006044820152606401610713565b610160850151803b9081613c905760405162461bcd60e51b815260206004820152601060248201526f15185c99d95d081b9bdd08195e1a5cdd60821b6044820152606401610713565b6101c08901515115613cb657613cb6896101a00151886101a001518b6101c001516147ec565b6101c08701515115613cdc57613cdc876101a001518a6101a00151896101c001516147ec565b613cf0896101a00151886101a00151614a60565b613d315760405162461bcd60e51b8152602060048201526012602482015271086c2d8d85ac8c2e8c240dad2e6dac2e8c6d60731b6044820152606401610713565b600254602088015160405163c455279160e01b81526001600160a01b039182166004820152600092919091169063c45527919060240160206040518083038186803b158015613d7f57600080fd5b505afa158015613d93573d6000803e3d6000fd5b505050506040513d601f19601f82011682018060405250810190613db791906155f5565b90506001600160a01b038116613e015760405162461bcd60e51b815260206004820152600f60248201526e141c9bde1e481b9bdd08195e1a5cdd608a1b6044820152606401610713565b600260009054906101000a90046001600160a01b03166001600160a01b03166397204d8e6040518163ffffffff1660e01b815260040160206040518083038186803b158015613e4f57600080fd5b505afa158015613e63573d6000803e3d6000fd5b505050506040513d601f19601f82011682018060405250810190613e8791906155f5565b6001600160a01b0316816001600160a01b0316635c60da1b6040518163ffffffff1660e01b815260040160206040518083038186803b158015613ec957600080fd5b505afa158015613edd573d6000803e3d6000fd5b505050506040513d601f19601f82011682018060405250810190613f0191906155f5565b6001600160a01b031614613f575760405162461bcd60e51b815260206004820152601860248201527f50726f7879206973206e6f7420696d706c656d656e74656400000000000000006044820152606401610713565b60208a015181906001600160a01b03163314613f87576000868152600460205260409020805460ff191660011790555b88602001516001600160a01b0316336001600160a01b031614613fbe576000858152600460205260409020805460ff191660011790555b6000613fca8c8b614ac4565b9050816001600160a01b0316631b0f7ba98b61016001518c61018001518d6101a001516040518463ffffffff1660e01b815260040161400b93929190615d07565b602060405180830381600087803b15801561402557600080fd5b505af1158015614039573d6000803e3d6000fd5b505050506040513d601f19601f8201168201806040525081019061405d9190615c0a565b6140a95760405162461bcd60e51b815260206004820152601960248201527f43616e6e6f742063616c6c207468726f7567682070726f7879000000000000006044820152606401610713565b6101e08c01516001600160a01b03161561412f576140d78c6101e001518b6101a001518e610200015161064b565b61412f5760405162461bcd60e51b815260206004820152602360248201527f43616e6e6f742065786563757465206275792d73696465207374617469632063604482015262185b1b60ea1b6064820152608401610713565b6101e08a01516001600160a01b0316156141b55761415d8a6101e001518b6101a001518c610200015161064b565b6141b55760405162461bcd60e51b8152602060048201526024808201527f43616e6e6f7420657865637574652073656c6c2d73696465207374617469632060448201526318d85b1b60e21b6064820152608401610713565b60e08a015188906001600160a01b03166141d3578a602001516141d9565b8c602001515b60e08c01516001600160a01b0391821691166141f9578d602001516141ff565b8b602001515b604080518b8152602081018b90529081018590526001600160a01b0391909116907fc4109843e0b7d514e4c093114b863f8e7d8d9a458c372cd51bfe526b588006c99060600160405180910390a450506000805460ff1916905550505050505050505050565b80516000906001600160a01b0316301461428157506000919050565b614295826101400151836102a001516150fd565b6142a157506000919050565b600182610100015160018111156142c857634e487b7160e01b600052602160045260246000fd5b1480156142e957506006548260a0015110806142e957506007548260c00151105b156142f657506000919050565b506001919050565b60008061432d836101200151846101400151856102400151866102600151876102800151886102a00151614413565b9050600061435d8561012001518661014001518761024001518861026001518961028001518a6102a00151614413565b90508181101561436c57600080fd5b60e08401516001600160a01b03166143845780614386565b815b95945050505050565b600054600160a81b900460ff166143df5760405162461bcd60e51b815260206004820152601460248201527314185d5cd8589b194e881b9bdd081c185d5cd95960621b6044820152606401610713565b6000805460ff60a81b191690557f5db9ee0a495bf2e6ff9c91a7834c1ba4fdd244a5e8aa4e537bd38aeae4b073aa336139e9565b60008086600181111561443657634e487b7160e01b600052602160045260246000fd5b14156144435750836144db565b600186600181111561446557634e487b7160e01b600052602160045260246000fd5b14156144db5760006144778484615e9d565b6144818542615e9d565b61448b9087615e7e565b6144959190615e5e565b905060018860018111156144b957634e487b7160e01b600052602160045260246000fd5b14156144d1576144c98187615e9d565b9150506144db565b6144c98187615e46565b9695505050505050565b600081610200015151826101c0015151836101a00151516101b06145099190615e46565b6145139190615e46565b6134779190615e46565b60601b6bffffffffffffffffffffffff1916815260140190565b6000818353505060010190565b6000806145508461347d565b905061455d8185856134d9565b6106dc5760405162461bcd60e51b815260206004820152600e60248201526d121054d217d393d517d59053125160921b6044820152606401610713565b60008083610120015160018111156145c257634e487b7160e01b600052602160045260246000fd5b1480156145f35750600182610120015160018111156145f157634e487b7160e01b600052602160045260246000fd5b145b80156146465750816101000151600181111561461f57634e487b7160e01b600052602160045260246000fd5b836101000151600181111561464457634e487b7160e01b600052602160045260246000fd5b145b801561466d57508161022001516001600160a01b03168361022001516001600160a01b0316145b80156146a7575060408201516001600160a01b031615806146a7575082602001516001600160a01b031682604001516001600160a01b0316145b80156146e1575060408301516001600160a01b031615806146e1575081602001516001600160a01b031683604001516001600160a01b0316145b801561473c575060e08201516001600160a01b031615801561470f575060e08301516001600160a01b031615155b8061473c575060e08201516001600160a01b03161580159061473c575060e08301516001600160a01b0316155b801561476357508161016001516001600160a01b03168361016001516001600160a01b0316145b80156147b65750816101800151600181111561478f57634e487b7160e01b600052602160045260246000fd5b83610180015160018111156147b457634e487b7160e01b600052602160045260246000fd5b145b80156147d157506147d1836102800151846102a0015161512f565b80156106dc57506106dc826102800151836102a0015161512f565b815183511461483d5760405162461bcd60e51b815260206004820152601d60248201527f417272617973206861766520646966666572656e74206c656e677468730000006044820152606401610713565b805183511461489c5760405162461bcd60e51b815260206004820152602560248201527f417272617920616e64206d61736b206861766520646966666572656e74206c656044820152646e6774687360d81b6064820152608401610713565b6000602084516148ac9190615e5e565b905060006148bb826020615e7e565b9050816148c9602083615e5e565b146148e457634e487b7160e01b600052600160045260246000fd5b60005b828110156149215780600101602002808501518187015181168289015182191617828901525050808061491990615eb4565b9150506148e7565b821561494e5782905080600101602002808501518187015181168289015182191617828901525050614a58565b50805b8551811015614a585784818151811061497a57634e487b7160e01b600052603260045260246000fd5b602001015160f81c60f81b8482815181106149a557634e487b7160e01b600052603260045260246000fd5b602001015160f81c60f81b168682815181106149d157634e487b7160e01b600052603260045260246000fd5b602001015160f81c60f81b8583815181106149fc57634e487b7160e01b600052603260045260246000fd5b602001015160f81c60f81b60ff60f81b181617868281518110614a2f57634e487b7160e01b600052603260045260246000fd5b60200101906001600160f81b031916908160001a90535080614a5081615eb4565b915050614951565b505050505050565b815181516000916001918114808314614a7c5760009250614aba565b600160208701838101602088015b600284838510011415614ab5578051835114614aa95760009650600093505b60209283019201614a8a565b505050505b5090949350505050565b6102208101516000906001600160a01b031615614ae6573415614ae657600080fd5b6000614af284846142fe565b9050600081118015614b1157506102208301516001600160a01b031615155b15614b2f57614b2f836102200151856020015185602001518461514b565b60e0830151819081906001600160a01b031615614e7c57856080015185608001511115614b5b57600080fd5b60018561010001516001811115614b8257634e487b7160e01b600052602160045260246000fd5b1415614e4e578560c001518560c001511115614b9d57600080fd5b606085015115614c44576000612710848760600151614bbc9190615e7e565b614bc69190615e5e565b6102208701519091506001600160a01b0316614c2957614be68184615e9d565b60e08701516040519194506001600160a01b03169082156108fc029083906000818181858888f19350505050158015614c23573d6000803e3d6000fd5b50614c42565b614c4286610220015187602001518860e001518461514b565b505b608085015115614ceb576000612710848760800151614c639190615e7e565b614c6d9190615e5e565b6102208701519091506001600160a01b0316614cd057614c8d8183615e46565b60e08701516040519193506001600160a01b03169082156108fc029083906000818181858888f19350505050158015614cca573d6000803e3d6000fd5b50614ce9565b614ce986610220015188602001518860e001518461514b565b505b60a085015115614d9a576000612710848760a00151614d0a9190615e7e565b614d149190615e5e565b6102208701519091506001600160a01b0316614d7557614d348184615e9d565b6008546040519194506001600160a01b03169082156108fc029083906000818181858888f19350505050158015614d6f573d6000803e3d6000fd5b50614d98565b6102208601516020870151600854614d989291906001600160a01b03168461514b565b505b60c085015115614e49576000612710848760c00151614db99190615e7e565b614dc39190615e5e565b6102208701519091506001600160a01b0316614e2457614de38183615e46565b6008546040519193506001600160a01b03169082156108fc029083906000818181858888f19350505050158015614e1e573d6000803e3d6000fd5b50614e47565b6102208601516020880151600854614e479291906001600160a01b03168461514b565b505b615041565b614e6585602001518660e0015187606001516151f6565b614e4986602001518660e0015187608001516151f6565b846080015186608001511115614e9157600080fd5b60018561010001516001811115614eb857634e487b7160e01b600052602160045260246000fd5b1415615013576102208501516001600160a01b0316614ed657600080fd5b8460c001518660c001511115614eeb57600080fd5b606086015115614f31576000612710848860600151614f0a9190615e7e565b614f149190615e5e565b9050614f2f86610220015188602001518960e001518461514b565b505b608086015115614f77576000612710848860800151614f509190615e7e565b614f5a9190615e5e565b9050614f7586610220015187602001518960e001518461514b565b505b60a086015115614fc6576000612710848860a00151614f969190615e7e565b614fa09190615e5e565b6102208701516020890151600854929350614fc4926001600160a01b03168461514b565b505b60c086015115614e49576000612710848860c00151614fe59190615e7e565b614fef9190615e5e565b6102208701516020880151600854929350614e47926001600160a01b03168461514b565b61502a86602001518760e0015188606001516151f6565b61504185602001518760e0015188608001516151f6565b6102208501516001600160a01b0316614aba578034101561506157600080fd5b84602001516001600160a01b03166108fc839081150290604051600060405180830381858888f1935050505015801561509e573d6000803e3d6000fd5b5060006150ab8234615e9d565b905080156150f25786602001516001600160a01b03166108fc829081150290604051600060405180830381858888f193505050501580156150f0573d6000803e3d6000fd5b505b505090949350505050565b60008083600181111561512057634e487b7160e01b600052602160045260246000fd5b14806106dc5750501515919050565b600042831080156106dc57508115806106dc5750504210919050565b80156151f057600354604051630aed65f560e11b81526001600160a01b0386811660048301528581166024830152848116604483015260648201849052909116906315dacbea90608401602060405180830381600087803b1580156151af57600080fd5b505af11580156151c3573d6000803e3d6000fd5b505050506040513d601f19601f820116820180604052508101906151e79190615c0a565b6151f057600080fd5b50505050565b60015461520e906001600160a01b031684848461514b565b505050565b600082601f830112615223578081fd5b6040516101c08082018281106001600160401b038211171561524757615247615ee5565b604052818482810187101561525a578485fd5b8492505b600e83101561528757803561527281615f1c565b8252600192909201916020918201910161525e565b509195945050505050565b600082601f8301126152a2578081fd5b60405160e081018181106001600160401b03821117156152c4576152c4615ee5565b604052808360e081018610156152d8578384fd5b835b60078110156152875781356152ee81615f1c565b835260209283019291909101906001016152da565b600082601f830112615313578081fd5b60405160a081018181106001600160401b038211171561533557615335615ee5565b604052808360a08101861015615349578384fd5b835b600581101561528757813583526020928301929091019060010161534b565b600082601f83011261537a578081fd5b6040516102408082018281106001600160401b038211171561539e5761539e615ee5565b60405281848281018710156153b1578485fd5b8492505b6012831015615287578035825260019290920191602091820191016153b5565b600082601f8301126153e5578081fd5b6040516101208082018281106001600160401b038211171561540957615409615ee5565b604052818482810187101561541c578485fd5b8492505b600983101561528757803582526001929092019160209182019101615420565b600082601f830112615450578081fd5b604051604081018181106001600160401b038211171561547257615472615ee5565b8060405250808385604086011115615488578384fd5b835b60028110156152875761549c826155c8565b8352602092830192919091019060010161548a565b600082601f8301126154c1578081fd5b6040516101008082018281106001600160401b03821117156154e5576154e5615ee5565b60405281848281018710156154f8578485fd5b8492505b60088310156152875761550e816155c8565b825260019290920191602091820191016154fc565b803561552e81615f31565b919050565b600082601f830112615543578081fd5b81356001600160401b038082111561555d5761555d615ee5565b604051601f8301601f19908116603f0116810190828211818310171561558557615585615ee5565b8160405283815286602085880101111561559d578485fd5b8360208701602083013792830160200193909352509392505050565b80356002811061552e57600080fd5b803560ff8116811461552e57600080fd5b6000602082840312156155ea578081fd5b81356106dc81615f1c565b600060208284031215615606578081fd5b81516106dc81615f1c565b600080600060608486031215615625578182fd5b833561563081615f1c565b925060208401356001600160401b038082111561564b578384fd5b61565787838801615533565b9350604086013591508082111561566c578283fd5b5061567986828701615533565b9150509250925092565b60008060008060008060008060006105c08a8c0312156156a1578687fd5b6156ab8b8b615213565b98506156bb8b6101c08c0161536a565b97506156cb8b6104008c016154b1565b96506105008a01356001600160401b03808211156156e7578687fd5b6156f38d838e01615533565b97506105208c0135915080821115615709578687fd5b6157158d838e01615533565b96506105408c013591508082111561572b578586fd5b6157378d838e01615533565b95506105608c013591508082111561574d578485fd5b6157598d838e01615533565b94506105808c013591508082111561576f578384fd5b61577b8d838e01615533565b93506105a08c0135915080821115615791578283fd5b5061579e8c828d01615533565b9150509295985092959850929598565b60008060008060008060008060008060006106a08c8e0312156157cf578485fd5b6157d98d8d615213565b9a506157e98d6101c08e0161536a565b99506157f98d6104008e016154b1565b98506001600160401b03806105008e01351115615814578586fd5b6158258e6105008f01358f01615533565b9850806105208e01351115615838578586fd5b6158498e6105208f01358f01615533565b9750806105408e0135111561585c578586fd5b61586d8e6105408f01358f01615533565b9650806105608e01351115615880578586fd5b6158918e6105608f01358f01615533565b9550806105808e013511156158a4578283fd5b6158b58e6105808f01358f01615533565b9450806105a08e013511156158c8578283fd5b506158da8d6105a08e01358e01615533565b92506158ea8d6105c08e01615440565b91506158fa8d6106008e01615303565b90509295989b509295989b9093969950565b60008060008060008060008060006102e08a8c03121561592a578283fd5b6159348b8b615292565b98506159438b60e08c016153d5565b97506159526102008b016155b9565b96506159616102208b016155b9565b95506159706102408b016155b9565b945061597f6102608b016155b9565b93506102808a01356001600160401b038082111561599b578485fd5b6159a78d838e01615533565b94506102a08c01359150808211156159bd578384fd5b6159c98d838e01615533565b93506102c08c0135915080821115615791578283fd5b6000806000806000806000806000806103008b8d0312156159fe578384fd5b615a088c8c615292565b9950615a178c60e08d016153d5565b9850615a266102008c016155b9565b9750615a356102208c016155b9565b9650615a446102408c016155b9565b9550615a536102608c016155b9565b94506102808b01356001600160401b0380821115615a6f578586fd5b615a7b8e838f01615533565b95506102a08d0135915080821115615a91578485fd5b615a9d8e838f01615533565b94506102c08d0135915080821115615ab3578384fd5b50615ac08d828e01615533565b925050615ad06102e08c01615523565b90509295989b9194979a5092959850565b6000806000806000806000806000806000806103408d8f031215615b03578586fd5b615b0d8e8e615292565b9b50615b1c8e60e08f016153d5565b9a50615b2b6102008e016155b9565b9950615b3a6102208e016155b9565b9850615b496102408e016155b9565b9750615b586102608e016155b9565b96506001600160401b036102808e01351115615b72578586fd5b615b838e6102808f01358f01615533565b95506001600160401b036102a08e01351115615b9d578081fd5b615bae8e6102a08f01358f01615533565b94506001600160401b036102c08e01351115615bc8578081fd5b615bd98e6102c08f01358f01615533565b9350615be86102e08e016155c8565b92506103008d013591506103208d013590509295989b509295989b509295989b565b600060208284031215615c1b578081fd5b81516106dc81615f31565b600060208284031215615c37578081fd5b5035919050565b60008151808452815b81811015615c6357602081850181015186830182015201615c47565b81811115615c745782602083870101525b50601f01601f19169290920160200192915050565b6001600160a01b038b811682528a81166020830152604082018a9052606082018990526080820188905260a08201879052610140820190615cc987615efb565b8660c0840152615cd886615efb565b8560e0840152615ce785615efb565b84610100840152808416610120840152509b9a5050505050505050505050565b6001600160a01b0384168152615d1c83615efb565b8260208201526060604082015260006143866060830184615c3e565b6000610180615d468f615efb565b8e8352806020840152615d5b8184018f615c3e565b90508281036040840152615d6f818e615c3e565b6001600160a01b038d811660608601528482036080860152909150615d94828d615c3e565b9a1660a0840152505060c081019690965260e086019490945261010085019290925261012084015261014083015215156101609091015295945050505050565b6020815260006106dc6020830184615c3e565b60208082526010908201526f14185d5cd8589b194e881c185d5cd95960821b604082015260600190565b6020808252818101527f4f776e61626c653a2063616c6c6572206973206e6f7420746865206f776e6572604082015260600190565b60008219821115615e5957615e59615ecf565b500190565b600082615e7957634e487b7160e01b81526012600452602481fd5b500490565b6000816000190483118215151615615e9857615e98615ecf565b500290565b600082821015615eaf57615eaf615ecf565b500390565b6000600019821415615ec857615ec8615ecf565b5060010190565b634e487b7160e01b600052601160045260246000fd5b634e487b7160e01b600052604160045260246000fd5b60028110615f1957634e487b7160e01b600052602160045260246000fd5b50565b6001600160a01b0381168114615f1957600080fd5b8015158114615f1957600080fdfea2646970667358221220c430b10c882a701fe9e5a9a1b4f4159253c07ca0980d17de1fe8fd95b870c75564736f6c63430008040033",
			"opcodes": "PUSH1 0x80 PUSH1 0x40 MSTORE PUSH1 0x0 DUP1 SLOAD PUSH1 0xFF NOT AND DUP2 SSTORE PUSH1 0x6 DUP2 SWAP1 SSTORE PUSH1 0x7 SSTORE CALLVALUE DUP1 ISZERO PUSH3 0x23 JUMPI PUSH1 0x0 DUP1 REVERT JUMPDEST POP PUSH1 0x40 MLOAD PUSH3 0x60F4 CODESIZE SUB DUP1 PUSH3 0x60F4 DUP4 CODECOPY DUP2 ADD PUSH1 0x40 DUP2 SWAP1 MSTORE PUSH3 0x46 SWAP2 PUSH3 0xEF JUMP JUMPDEST PUSH1 0x0 DUP1 SLOAD PUSH2 0x100 PUSH1 0x1 PUSH1 0xA8 SHL SUB NOT AND CALLER PUSH2 0x100 DUP2 MUL SWAP2 SWAP1 SWAP2 OR DUP3 SSTORE PUSH1 0x40 MLOAD SWAP1 SWAP2 DUP3 SWAP2 PUSH32 0x8BE0079C531659141344CD1FD0A4F28419497F9722A3DAAFE3B4186F6B6457E0 SWAP1 DUP3 SWAP1 LOG3 POP PUSH1 0x0 DUP1 SLOAD PUSH1 0xFF PUSH1 0xA8 SHL NOT AND SWAP1 SSTORE PUSH1 0x2 DUP1 SLOAD PUSH1 0x1 PUSH1 0x1 PUSH1 0xA0 SHL SUB SWAP6 DUP7 AND PUSH1 0x1 PUSH1 0x1 PUSH1 0xA0 SHL SUB NOT SWAP2 DUP3 AND OR SWAP1 SWAP2 SSTORE PUSH1 0x3 DUP1 SLOAD SWAP5 DUP7 AND SWAP5 DUP3 AND SWAP5 SWAP1 SWAP5 OR SWAP1 SWAP4 SSTORE PUSH1 0x1 DUP1 SLOAD SWAP3 DUP6 AND SWAP3 DUP5 AND SWAP3 SWAP1 SWAP3 OR SWAP1 SWAP2 SSTORE PUSH1 0x8 DUP1 SLOAD SWAP2 SWAP1 SWAP4 AND SWAP2 AND OR SWAP1 SSTORE PUSH3 0x16F JUMP JUMPDEST PUSH1 0x0 DUP1 PUSH1 0x0 DUP1 PUSH1 0x80 DUP6 DUP8 SUB SLT ISZERO PUSH3 0x105 JUMPI DUP4 DUP5 REVERT JUMPDEST DUP5 MLOAD PUSH3 0x112 DUP2 PUSH3 0x156 JUMP JUMPDEST PUSH1 0x20 DUP7 ADD MLOAD SWAP1 SWAP5 POP PUSH3 0x125 DUP2 PUSH3 0x156 JUMP JUMPDEST PUSH1 0x40 DUP7 ADD MLOAD SWAP1 SWAP4 POP PUSH3 0x138 DUP2 PUSH3 0x156 JUMP JUMPDEST PUSH1 0x60 DUP7 ADD MLOAD SWAP1 SWAP3 POP PUSH3 0x14B DUP2 PUSH3 0x156 JUMP JUMPDEST SWAP4 SWAP7 SWAP3 SWAP6 POP SWAP1 SWAP4 POP POP JUMP JUMPDEST PUSH1 0x1 PUSH1 0x1 PUSH1 0xA0 SHL SUB DUP2 AND DUP2 EQ PUSH3 0x16C JUMPI PUSH1 0x0 DUP1 REVERT JUMPDEST POP JUMP JUMPDEST PUSH2 0x5F75 DUP1 PUSH3 0x17F PUSH1 0x0 CODECOPY PUSH1 0x0 RETURN INVALID PUSH1 0x80 PUSH1 0x40 MSTORE PUSH1 0x4 CALLDATASIZE LT PUSH2 0x1E3 JUMPI PUSH1 0x0 CALLDATALOAD PUSH1 0xE0 SHR DUP1 PUSH4 0x79666868 GT PUSH2 0x102 JUMPI DUP1 PUSH4 0xA8A41C70 GT PUSH2 0x95 JUMPI DUP1 PUSH4 0xD537E131 GT PUSH2 0x64 JUMPI DUP1 PUSH4 0xD537E131 EQ PUSH2 0x5C6 JUMPI DUP1 PUSH4 0xE57D4ADB EQ PUSH2 0x5E6 JUMPI DUP1 PUSH4 0xF2FDE38B EQ PUSH2 0x616 JUMPI DUP1 PUSH4 0xF7B188A5 EQ PUSH2 0x636 JUMPI PUSH1 0x0 DUP1 REVERT JUMPDEST DUP1 PUSH4 0xA8A41C70 EQ PUSH2 0x55D JUMPI DUP1 PUSH4 0xAB834BAB EQ PUSH2 0x57D JUMPI DUP1 PUSH4 0xCA595B9A EQ PUSH2 0x590 JUMPI DUP1 PUSH4 0xCAE6047F EQ PUSH2 0x5B0 JUMPI PUSH1 0x0 DUP1 REVERT JUMPDEST DUP1 PUSH4 0x8076F005 GT PUSH2 0xD1 JUMPI DUP1 PUSH4 0x8076F005 EQ PUSH2 0x4D5 JUMPI DUP1 PUSH4 0x8456CB59 EQ PUSH2 0x505 JUMPI DUP1 PUSH4 0x8DA5CB5B EQ PUSH2 0x51A JUMPI DUP1 PUSH4 0xA25EB5D9 EQ PUSH2 0x53D JUMPI PUSH1 0x0 DUP1 REVERT JUMPDEST DUP1 PUSH4 0x79666868 EQ PUSH2 0x45F JUMPI DUP1 PUSH4 0x7B103999 EQ PUSH2 0x47F JUMPI DUP1 PUSH4 0x7CCEFC52 EQ PUSH2 0x49F JUMPI DUP1 PUSH4 0x7D766981 EQ PUSH2 0x4B5 JUMPI PUSH1 0x0 DUP1 REVERT JUMPDEST DUP1 PUSH4 0x514F0330 GT PUSH2 0x17A JUMPI DUP1 PUSH4 0x60BEF33A GT PUSH2 0x149 JUMPI DUP1 PUSH4 0x60BEF33A EQ PUSH2 0x3EA JUMPI DUP1 PUSH4 0x64DF049E EQ PUSH2 0x40A JUMPI DUP1 PUSH4 0x715018A6 EQ PUSH2 0x42A JUMPI DUP1 PUSH4 0x71D02B38 EQ PUSH2 0x43F JUMPI PUSH1 0x0 DUP1 REVERT JUMPDEST DUP1 PUSH4 0x514F0330 EQ PUSH2 0x35C JUMPI DUP1 PUSH4 0x54FD4D50 EQ PUSH2 0x37C JUMPI DUP1 PUSH4 0x5C975ABB EQ PUSH2 0x3AB JUMPI DUP1 PUSH4 0x5EF527E4 EQ PUSH2 0x3CA JUMPI PUSH1 0x0 DUP1 REVERT JUMPDEST DUP1 PUSH4 0x1A6B13E2 GT PUSH2 0x1B6 JUMPI DUP1 PUSH4 0x1A6B13E2 EQ PUSH2 0x2C3 JUMPI DUP1 PUSH4 0x28A8EE68 EQ PUSH2 0x2E3 JUMPI DUP1 PUSH4 0x31E63199 EQ PUSH2 0x307 JUMPI DUP1 PUSH4 0x3F67EE0D EQ PUSH2 0x33C JUMPI PUSH1 0x0 DUP1 REVERT JUMPDEST DUP1 PUSH4 0x6FDDE03 EQ PUSH2 0x1E8 JUMPI DUP1 PUSH4 0xEEFDBAD EQ PUSH2 0x239 JUMPI DUP1 PUSH4 0x10796A47 EQ PUSH2 0x271 JUMPI DUP1 PUSH4 0x14350C24 EQ PUSH2 0x2A1 JUMPI JUMPDEST PUSH1 0x0 DUP1 REVERT JUMPDEST CALLVALUE DUP1 ISZERO PUSH2 0x1F4 JUMPI PUSH1 0x0 DUP1 REVERT JUMPDEST POP PUSH2 0x223 PUSH1 0x40 MLOAD DUP1 PUSH1 0x40 ADD PUSH1 0x40 MSTORE DUP1 PUSH1 0xF DUP2 MSTORE PUSH1 0x20 ADD PUSH15 0x57797665726E2045786368616E6765 PUSH1 0x88 SHL DUP2 MSTORE POP DUP2 JUMP JUMPDEST PUSH1 0x40 MLOAD PUSH2 0x230 SWAP2 SWAP1 PUSH2 0x5DD4 JUMP JUMPDEST PUSH1 0x40 MLOAD DUP1 SWAP2 SUB SWAP1 RETURN JUMPDEST CALLVALUE DUP1 ISZERO PUSH2 0x245 JUMPI PUSH1 0x0 DUP1 REVERT JUMPDEST POP PUSH1 0x3 SLOAD PUSH2 0x259 SWAP1 PUSH1 0x1 PUSH1 0x1 PUSH1 0xA0 SHL SUB AND DUP2 JUMP JUMPDEST PUSH1 0x40 MLOAD PUSH1 0x1 PUSH1 0x1 PUSH1 0xA0 SHL SUB SWAP1 SWAP2 AND DUP2 MSTORE PUSH1 0x20 ADD PUSH2 0x230 JUMP JUMPDEST CALLVALUE DUP1 ISZERO PUSH2 0x27D JUMPI PUSH1 0x0 DUP1 REVERT JUMPDEST POP PUSH2 0x291 PUSH2 0x28C CALLDATASIZE PUSH1 0x4 PUSH2 0x5611 JUMP JUMPDEST PUSH2 0x64B JUMP JUMPDEST PUSH1 0x40 MLOAD SWAP1 ISZERO ISZERO DUP2 MSTORE PUSH1 0x20 ADD PUSH2 0x230 JUMP JUMPDEST CALLVALUE DUP1 ISZERO PUSH2 0x2AD JUMPI PUSH1 0x0 DUP1 REVERT JUMPDEST POP PUSH2 0x2C1 PUSH2 0x2BC CALLDATASIZE PUSH1 0x4 PUSH2 0x5C26 JUMP JUMPDEST PUSH2 0x6E3 JUMP JUMPDEST STOP JUMPDEST CALLVALUE DUP1 ISZERO PUSH2 0x2CF JUMPI PUSH1 0x0 DUP1 REVERT JUMPDEST POP PUSH2 0x2C1 PUSH2 0x2DE CALLDATASIZE PUSH1 0x4 PUSH2 0x5C26 JUMP JUMPDEST PUSH2 0x74B JUMP JUMPDEST CALLVALUE DUP1 ISZERO PUSH2 0x2EF JUMPI PUSH1 0x0 DUP1 REVERT JUMPDEST POP PUSH2 0x2F9 PUSH1 0x7 SLOAD DUP2 JUMP JUMPDEST PUSH1 0x40 MLOAD SWAP1 DUP2 MSTORE PUSH1 0x20 ADD PUSH2 0x230 JUMP JUMPDEST CALLVALUE DUP1 ISZERO PUSH2 0x313 JUMPI PUSH1 0x0 DUP1 REVERT JUMPDEST POP PUSH2 0x223 PUSH1 0x40 MLOAD DUP1 PUSH1 0x40 ADD PUSH1 0x40 MSTORE DUP1 PUSH1 0x9 DUP2 MSTORE PUSH1 0x20 ADD PUSH9 0x20B731B0B630B3B7B7 PUSH1 0xB9 SHL DUP2 MSTORE POP DUP2 JUMP JUMPDEST CALLVALUE DUP1 ISZERO PUSH2 0x348 JUMPI PUSH1 0x0 DUP1 REVERT JUMPDEST POP PUSH2 0x2F9 PUSH2 0x357 CALLDATASIZE PUSH1 0x4 PUSH2 0x590C JUMP JUMPDEST PUSH2 0x7AA JUMP JUMPDEST CALLVALUE DUP1 ISZERO PUSH2 0x368 JUMPI PUSH1 0x0 DUP1 REVERT JUMPDEST POP PUSH2 0x2C1 PUSH2 0x377 CALLDATASIZE PUSH1 0x4 PUSH2 0x55D9 JUMP JUMPDEST PUSH2 0xB02 JUMP JUMPDEST CALLVALUE DUP1 ISZERO PUSH2 0x388 JUMPI PUSH1 0x0 DUP1 REVERT JUMPDEST POP PUSH2 0x223 PUSH1 0x40 MLOAD DUP1 PUSH1 0x40 ADD PUSH1 0x40 MSTORE DUP1 PUSH1 0x3 DUP2 MSTORE PUSH1 0x20 ADD PUSH3 0x332E31 PUSH1 0xE8 SHL DUP2 MSTORE POP DUP2 JUMP JUMPDEST CALLVALUE DUP1 ISZERO PUSH2 0x3B7 JUMPI PUSH1 0x0 DUP1 REVERT JUMPDEST POP PUSH1 0x0 SLOAD PUSH1 0x1 PUSH1 0xA8 SHL SWAP1 DIV PUSH1 0xFF AND PUSH2 0x291 JUMP JUMPDEST CALLVALUE DUP1 ISZERO PUSH2 0x3D6 JUMPI PUSH1 0x0 DUP1 REVERT JUMPDEST POP PUSH2 0x2C1 PUSH2 0x3E5 CALLDATASIZE PUSH1 0x4 PUSH2 0x55D9 JUMP JUMPDEST PUSH2 0xB7E JUMP JUMPDEST CALLVALUE DUP1 ISZERO PUSH2 0x3F6 JUMPI PUSH1 0x0 DUP1 REVERT JUMPDEST POP PUSH2 0x291 PUSH2 0x405 CALLDATASIZE PUSH1 0x4 PUSH2 0x5AE1 JUMP JUMPDEST PUSH2 0xC39 JUMP JUMPDEST CALLVALUE DUP1 ISZERO PUSH2 0x416 JUMPI PUSH1 0x0 DUP1 REVERT JUMPDEST POP PUSH1 0x8 SLOAD PUSH2 0x259 SWAP1 PUSH1 0x1 PUSH1 0x1 PUSH1 0xA0 SHL SUB AND DUP2 JUMP JUMPDEST CALLVALUE DUP1 ISZERO PUSH2 0x436 JUMPI PUSH1 0x0 DUP1 REVERT JUMPDEST POP PUSH2 0x2C1 PUSH2 0xFE4 JUMP JUMPDEST CALLVALUE DUP1 ISZERO PUSH2 0x44B JUMPI PUSH1 0x0 DUP1 REVERT JUMPDEST POP PUSH2 0x2F9 PUSH2 0x45A CALLDATASIZE PUSH1 0x4 PUSH2 0x590C JUMP JUMPDEST PUSH2 0x1063 JUMP JUMPDEST CALLVALUE DUP1 ISZERO PUSH2 0x46B JUMPI PUSH1 0x0 DUP1 REVERT JUMPDEST POP PUSH2 0x2C1 PUSH2 0x47A CALLDATASIZE PUSH1 0x4 PUSH2 0x59DF JUMP JUMPDEST PUSH2 0x13AD JUMP JUMPDEST CALLVALUE DUP1 ISZERO PUSH2 0x48B JUMPI PUSH1 0x0 DUP1 REVERT JUMPDEST POP PUSH1 0x2 SLOAD PUSH2 0x259 SWAP1 PUSH1 0x1 PUSH1 0x1 PUSH1 0xA0 SHL SUB AND DUP2 JUMP JUMPDEST CALLVALUE DUP1 ISZERO PUSH2 0x4AB JUMPI PUSH1 0x0 DUP1 REVERT JUMPDEST POP PUSH2 0x2F9 PUSH1 0x6 SLOAD DUP2 JUMP JUMPDEST CALLVALUE DUP1 ISZERO PUSH2 0x4C1 JUMPI PUSH1 0x0 DUP1 REVERT JUMPDEST POP PUSH2 0x2F9 PUSH2 0x4D0 CALLDATASIZE PUSH1 0x4 PUSH2 0x590C JUMP JUMPDEST PUSH2 0x1732 JUMP JUMPDEST CALLVALUE DUP1 ISZERO PUSH2 0x4E1 JUMPI PUSH1 0x0 DUP1 REVERT JUMPDEST POP PUSH2 0x291 PUSH2 0x4F0 CALLDATASIZE PUSH1 0x4 PUSH2 0x5C26 JUMP JUMPDEST PUSH1 0x4 PUSH1 0x20 MSTORE PUSH1 0x0 SWAP1 DUP2 MSTORE PUSH1 0x40 SWAP1 KECCAK256 SLOAD PUSH1 0xFF AND DUP2 JUMP JUMPDEST CALLVALUE DUP1 ISZERO PUSH2 0x511 JUMPI PUSH1 0x0 DUP1 REVERT JUMPDEST POP PUSH2 0x2C1 PUSH2 0x1A7C JUMP JUMPDEST CALLVALUE DUP1 ISZERO PUSH2 0x526 JUMPI PUSH1 0x0 DUP1 REVERT JUMPDEST POP PUSH1 0x0 SLOAD PUSH2 0x100 SWAP1 DIV PUSH1 0x1 PUSH1 0x1 PUSH1 0xA0 SHL SUB AND PUSH2 0x259 JUMP JUMPDEST CALLVALUE DUP1 ISZERO PUSH2 0x549 JUMPI PUSH1 0x0 DUP1 REVERT JUMPDEST POP PUSH1 0x1 SLOAD PUSH2 0x259 SWAP1 PUSH1 0x1 PUSH1 0x1 PUSH1 0xA0 SHL SUB AND DUP2 JUMP JUMPDEST CALLVALUE DUP1 ISZERO PUSH2 0x569 JUMPI PUSH1 0x0 DUP1 REVERT JUMPDEST POP PUSH2 0x2C1 PUSH2 0x578 CALLDATASIZE PUSH1 0x4 PUSH2 0x5AE1 JUMP JUMPDEST PUSH2 0x1AB6 JUMP JUMPDEST PUSH2 0x2C1 PUSH2 0x58B CALLDATASIZE PUSH1 0x4 PUSH2 0x57AE JUMP JUMPDEST PUSH2 0x1E76 JUMP JUMPDEST CALLVALUE DUP1 ISZERO PUSH2 0x59C JUMPI PUSH1 0x0 DUP1 REVERT JUMPDEST POP PUSH2 0x291 PUSH2 0x5AB CALLDATASIZE PUSH1 0x4 PUSH2 0x590C JUMP JUMPDEST PUSH2 0x2771 JUMP JUMPDEST CALLVALUE DUP1 ISZERO PUSH2 0x5BC JUMPI PUSH1 0x0 DUP1 REVERT JUMPDEST POP PUSH2 0x2F9 PUSH2 0x2710 DUP2 JUMP JUMPDEST CALLVALUE DUP1 ISZERO PUSH2 0x5D2 JUMPI PUSH1 0x0 DUP1 REVERT JUMPDEST POP PUSH2 0x2F9 PUSH2 0x5E1 CALLDATASIZE PUSH1 0x4 PUSH2 0x5683 JUMP JUMPDEST PUSH2 0x2ACE JUMP JUMPDEST CALLVALUE DUP1 ISZERO PUSH2 0x5F2 JUMPI PUSH1 0x0 DUP1 REVERT JUMPDEST POP PUSH2 0x291 PUSH2 0x601 CALLDATASIZE PUSH1 0x4 PUSH2 0x5C26 JUMP JUMPDEST PUSH1 0x5 PUSH1 0x20 MSTORE PUSH1 0x0 SWAP1 DUP2 MSTORE PUSH1 0x40 SWAP1 KECCAK256 SLOAD PUSH1 0xFF AND DUP2 JUMP JUMPDEST CALLVALUE DUP1 ISZERO PUSH2 0x622 JUMPI PUSH1 0x0 DUP1 REVERT JUMPDEST POP PUSH2 0x2C1 PUSH2 0x631 CALLDATASIZE PUSH1 0x4 PUSH2 0x55D9 JUMP JUMPDEST PUSH2 0x32D3 JUMP JUMPDEST CALLVALUE DUP1 ISZERO PUSH2 0x642 JUMPI PUSH1 0x0 DUP1 REVERT JUMPDEST POP PUSH2 0x2C1 PUSH2 0x33CE JUMP JUMPDEST PUSH1 0x0 DUP1 DUP3 MLOAD DUP5 MLOAD PUSH2 0x65C SWAP2 SWAP1 PUSH2 0x5E46 JUMP JUMPDEST PUSH1 0x1 PUSH1 0x1 PUSH1 0x40 SHL SUB DUP2 GT ISZERO PUSH2 0x681 JUMPI PUSH4 0x4E487B71 PUSH1 0xE0 SHL PUSH1 0x0 MSTORE PUSH1 0x41 PUSH1 0x4 MSTORE PUSH1 0x24 PUSH1 0x0 REVERT JUMPDEST PUSH1 0x40 MLOAD SWAP1 DUP1 DUP3 MSTORE DUP1 PUSH1 0x1F ADD PUSH1 0x1F NOT AND PUSH1 0x20 ADD DUP3 ADD PUSH1 0x40 MSTORE DUP1 ISZERO PUSH2 0x6AB JUMPI PUSH1 0x20 DUP3 ADD DUP2 DUP1 CALLDATASIZE DUP4 CALLDATACOPY ADD SWAP1 POP JUMPDEST POP SWAP1 POP PUSH1 0x20 DUP2 ADD PUSH2 0x6BC DUP2 DUP6 PUSH2 0x3406 JUMP JUMPDEST SWAP1 POP PUSH2 0x6C8 DUP2 DUP7 PUSH2 0x3406 JUMP JUMPDEST POP PUSH1 0x0 PUSH1 0x40 MLOAD DUP4 MLOAD PUSH1 0x20 DUP6 ADD DUP10 GAS STATICCALL SWAP3 POP POP POP JUMPDEST SWAP4 SWAP3 POP POP POP JUMP JUMPDEST PUSH1 0x0 SLOAD PUSH1 0x1 PUSH1 0x1 PUSH1 0xA0 SHL SUB PUSH2 0x100 SWAP1 SWAP2 DIV AND CALLER EQ PUSH2 0x71C JUMPI PUSH1 0x40 MLOAD PUSH3 0x461BCD PUSH1 0xE5 SHL DUP2 MSTORE PUSH1 0x4 ADD PUSH2 0x713 SWAP1 PUSH2 0x5E11 JUMP JUMPDEST PUSH1 0x40 MLOAD DUP1 SWAP2 SUB SWAP1 REVERT JUMPDEST PUSH1 0x0 SLOAD PUSH1 0x1 PUSH1 0xA8 SHL SWAP1 DIV PUSH1 0xFF AND ISZERO PUSH2 0x746 JUMPI PUSH1 0x40 MLOAD PUSH3 0x461BCD PUSH1 0xE5 SHL DUP2 MSTORE PUSH1 0x4 ADD PUSH2 0x713 SWAP1 PUSH2 0x5DE7 JUMP JUMPDEST PUSH1 0x6 SSTORE JUMP JUMPDEST PUSH1 0x0 SLOAD PUSH1 0x1 PUSH1 0x1 PUSH1 0xA0 SHL SUB PUSH2 0x100 SWAP1 SWAP2 DIV AND CALLER EQ PUSH2 0x77B JUMPI PUSH1 0x40 MLOAD PUSH3 0x461BCD PUSH1 0xE5 SHL DUP2 MSTORE PUSH1 0x4 ADD PUSH2 0x713 SWAP1 PUSH2 0x5E11 JUMP JUMPDEST PUSH1 0x0 SLOAD PUSH1 0x1 PUSH1 0xA8 SHL SWAP1 DIV PUSH1 0xFF AND ISZERO PUSH2 0x7A5 JUMPI PUSH1 0x40 MLOAD PUSH3 0x461BCD PUSH1 0xE5 SHL DUP2 MSTORE PUSH1 0x4 ADD PUSH2 0x713 SWAP1 PUSH2 0x5DE7 JUMP JUMPDEST PUSH1 0x7 SSTORE JUMP JUMPDEST PUSH1 0x0 PUSH2 0xAF4 PUSH1 0x40 MLOAD DUP1 PUSH2 0x2E0 ADD PUSH1 0x40 MSTORE DUP1 DUP13 PUSH1 0x0 PUSH1 0x7 DUP2 LT PUSH2 0x7DC JUMPI PUSH4 0x4E487B71 PUSH1 0xE0 SHL PUSH1 0x0 MSTORE PUSH1 0x32 PUSH1 0x4 MSTORE PUSH1 0x24 PUSH1 0x0 REVERT JUMPDEST PUSH1 0x20 MUL ADD MLOAD PUSH1 0x1 PUSH1 0x1 PUSH1 0xA0 SHL SUB AND DUP2 MSTORE PUSH1 0x20 ADD DUP13 PUSH1 0x1 PUSH1 0x7 DUP2 LT PUSH2 0x810 JUMPI PUSH4 0x4E487B71 PUSH1 0xE0 SHL PUSH1 0x0 MSTORE PUSH1 0x32 PUSH1 0x4 MSTORE PUSH1 0x24 PUSH1 0x0 REVERT JUMPDEST PUSH1 0x20 MUL ADD MLOAD PUSH1 0x1 PUSH1 0x1 PUSH1 0xA0 SHL SUB AND DUP2 MSTORE PUSH1 0x20 ADD DUP13 PUSH1 0x2 PUSH1 0x7 DUP2 LT PUSH2 0x844 JUMPI PUSH4 0x4E487B71 PUSH1 0xE0 SHL PUSH1 0x0 MSTORE PUSH1 0x32 PUSH1 0x4 MSTORE PUSH1 0x24 PUSH1 0x0 REVERT JUMPDEST PUSH1 0x20 MUL ADD MLOAD PUSH1 0x1 PUSH1 0x1 PUSH1 0xA0 SHL SUB AND DUP2 MSTORE PUSH1 0x20 ADD DUP12 PUSH1 0x0 PUSH1 0x9 DUP2 LT PUSH2 0x878 JUMPI PUSH4 0x4E487B71 PUSH1 0xE0 SHL PUSH1 0x0 MSTORE PUSH1 0x32 PUSH1 0x4 MSTORE PUSH1 0x24 PUSH1 0x0 REVERT JUMPDEST PUSH1 0x20 MUL ADD MLOAD DUP2 MSTORE PUSH1 0x20 ADD DUP12 PUSH1 0x1 PUSH1 0x9 DUP2 LT PUSH2 0x8A3 JUMPI PUSH4 0x4E487B71 PUSH1 0xE0 SHL PUSH1 0x0 MSTORE PUSH1 0x32 PUSH1 0x4 MSTORE PUSH1 0x24 PUSH1 0x0 REVERT JUMPDEST PUSH1 0x20 MUL ADD MLOAD DUP2 MSTORE PUSH1 0x20 ADD DUP12 PUSH1 0x2 PUSH1 0x9 DUP2 LT PUSH2 0x8CE JUMPI PUSH4 0x4E487B71 PUSH1 0xE0 SHL PUSH1 0x0 MSTORE PUSH1 0x32 PUSH1 0x4 MSTORE PUSH1 0x24 PUSH1 0x0 REVERT JUMPDEST PUSH1 0x20 MUL ADD MLOAD DUP2 MSTORE PUSH1 0x20 ADD DUP12 PUSH1 0x3 PUSH1 0x9 DUP2 LT PUSH2 0x8F9 JUMPI PUSH4 0x4E487B71 PUSH1 0xE0 SHL PUSH1 0x0 MSTORE PUSH1 0x32 PUSH1 0x4 MSTORE PUSH1 0x24 PUSH1 0x0 REVERT JUMPDEST PUSH1 0x20 MUL ADD MLOAD DUP2 MSTORE PUSH1 0x20 ADD DUP13 PUSH1 0x3 PUSH1 0x7 DUP2 LT PUSH2 0x924 JUMPI PUSH4 0x4E487B71 PUSH1 0xE0 SHL PUSH1 0x0 MSTORE PUSH1 0x32 PUSH1 0x4 MSTORE PUSH1 0x24 PUSH1 0x0 REVERT JUMPDEST PUSH1 0x20 MUL ADD MLOAD PUSH1 0x1 PUSH1 0x1 PUSH1 0xA0 SHL SUB AND DUP2 MSTORE PUSH1 0x20 ADD DUP11 PUSH1 0x1 DUP2 GT ISZERO PUSH2 0x957 JUMPI PUSH4 0x4E487B71 PUSH1 0xE0 SHL PUSH1 0x0 MSTORE PUSH1 0x21 PUSH1 0x4 MSTORE PUSH1 0x24 PUSH1 0x0 REVERT JUMPDEST DUP2 MSTORE PUSH1 0x20 ADD DUP10 PUSH1 0x1 DUP2 GT ISZERO PUSH2 0x97C JUMPI PUSH4 0x4E487B71 PUSH1 0xE0 SHL PUSH1 0x0 MSTORE PUSH1 0x21 PUSH1 0x4 MSTORE PUSH1 0x24 PUSH1 0x0 REVERT JUMPDEST DUP2 MSTORE PUSH1 0x20 ADD DUP9 PUSH1 0x1 DUP2 GT ISZERO PUSH2 0x9A1 JUMPI PUSH4 0x4E487B71 PUSH1 0xE0 SHL PUSH1 0x0 MSTORE PUSH1 0x21 PUSH1 0x4 MSTORE PUSH1 0x24 PUSH1 0x0 REVERT JUMPDEST DUP2 MSTORE PUSH1 0x80 DUP14 ADD MLOAD PUSH1 0x1 PUSH1 0x1 PUSH1 0xA0 SHL SUB AND PUSH1 0x20 DUP3 ADD MSTORE PUSH1 0x40 ADD DUP8 PUSH1 0x1 DUP2 GT ISZERO PUSH2 0x9D9 JUMPI PUSH4 0x4E487B71 PUSH1 0xE0 SHL PUSH1 0x0 MSTORE PUSH1 0x21 PUSH1 0x4 MSTORE PUSH1 0x24 PUSH1 0x0 REVERT JUMPDEST DUP2 MSTORE PUSH1 0x20 DUP2 ADD DUP8 SWAP1 MSTORE PUSH1 0x40 DUP2 ADD DUP7 SWAP1 MSTORE PUSH1 0xA0 DUP1 DUP15 ADD MLOAD PUSH1 0x1 PUSH1 0x1 PUSH1 0xA0 SHL SUB AND PUSH1 0x60 DUP4 ADD MSTORE PUSH1 0x80 DUP3 ADD DUP7 SWAP1 MSTORE ADD DUP13 PUSH1 0x6 PUSH1 0x20 MUL ADD MLOAD PUSH1 0x1 PUSH1 0x1 PUSH1 0xA0 SHL SUB AND DUP2 MSTORE PUSH1 0x20 ADD DUP12 PUSH1 0x4 PUSH1 0x9 DUP2 LT PUSH2 0xA3C JUMPI PUSH4 0x4E487B71 PUSH1 0xE0 SHL PUSH1 0x0 MSTORE PUSH1 0x32 PUSH1 0x4 MSTORE PUSH1 0x24 PUSH1 0x0 REVERT JUMPDEST PUSH1 0x20 MUL ADD MLOAD DUP2 MSTORE PUSH1 0x20 ADD DUP12 PUSH1 0x5 PUSH1 0x9 DUP2 LT PUSH2 0xA67 JUMPI PUSH4 0x4E487B71 PUSH1 0xE0 SHL PUSH1 0x0 MSTORE PUSH1 0x32 PUSH1 0x4 MSTORE PUSH1 0x24 PUSH1 0x0 REVERT JUMPDEST PUSH1 0x20 MUL ADD MLOAD DUP2 MSTORE PUSH1 0x20 ADD DUP12 PUSH1 0x6 PUSH1 0x9 DUP2 LT PUSH2 0xA92 JUMPI PUSH4 0x4E487B71 PUSH1 0xE0 SHL PUSH1 0x0 MSTORE PUSH1 0x32 PUSH1 0x4 MSTORE PUSH1 0x24 PUSH1 0x0 REVERT JUMPDEST PUSH1 0x20 MUL ADD MLOAD DUP2 MSTORE PUSH1 0x20 ADD DUP12 PUSH1 0x7 PUSH1 0x9 DUP2 LT PUSH2 0xABD JUMPI PUSH4 0x4E487B71 PUSH1 0xE0 SHL PUSH1 0x0 MSTORE PUSH1 0x32 PUSH1 0x4 MSTORE PUSH1 0x24 PUSH1 0x0 REVERT JUMPDEST PUSH1 0x20 MUL ADD MLOAD DUP2 MSTORE PUSH1 0x20 ADD DUP12 PUSH1 0x8 PUSH1 0x9 DUP2 LT PUSH2 0xAE8 JUMPI PUSH4 0x4E487B71 PUSH1 0xE0 SHL PUSH1 0x0 MSTORE PUSH1 0x32 PUSH1 0x4 MSTORE PUSH1 0x24 PUSH1 0x0 REVERT JUMPDEST PUSH1 0x20 MUL ADD MLOAD SWAP1 MSTORE PUSH2 0x3449 JUMP JUMPDEST SWAP11 SWAP10 POP POP POP POP POP POP POP POP POP POP JUMP JUMPDEST PUSH1 0x0 SLOAD PUSH1 0x1 PUSH1 0x1 PUSH1 0xA0 SHL SUB PUSH2 0x100 SWAP1 SWAP2 DIV AND CALLER EQ PUSH2 0xB32 JUMPI PUSH1 0x40 MLOAD PUSH3 0x461BCD PUSH1 0xE5 SHL DUP2 MSTORE PUSH1 0x4 ADD PUSH2 0x713 SWAP1 PUSH2 0x5E11 JUMP JUMPDEST PUSH1 0x0 SLOAD PUSH1 0x1 PUSH1 0xA8 SHL SWAP1 DIV PUSH1 0xFF AND ISZERO PUSH2 0xB5C JUMPI PUSH1 0x40 MLOAD PUSH3 0x461BCD PUSH1 0xE5 SHL DUP2 MSTORE PUSH1 0x4 ADD PUSH2 0x713 SWAP1 PUSH2 0x5DE7 JUMP JUMPDEST PUSH1 0x8 DUP1 SLOAD PUSH1 0x1 PUSH1 0x1 PUSH1 0xA0 SHL SUB NOT AND PUSH1 0x1 PUSH1 0x1 PUSH1 0xA0 SHL SUB SWAP3 SWAP1 SWAP3 AND SWAP2 SWAP1 SWAP2 OR SWAP1 SSTORE JUMP JUMPDEST PUSH1 0x0 SLOAD PUSH1 0x1 PUSH1 0x1 PUSH1 0xA0 SHL SUB PUSH2 0x100 SWAP1 SWAP2 DIV AND CALLER EQ PUSH2 0xBAE JUMPI PUSH1 0x40 MLOAD PUSH3 0x461BCD PUSH1 0xE5 SHL DUP2 MSTORE PUSH1 0x4 ADD PUSH2 0x713 SWAP1 PUSH2 0x5E11 JUMP JUMPDEST PUSH1 0x0 SLOAD PUSH1 0x1 PUSH1 0xA8 SHL SWAP1 DIV PUSH1 0xFF AND ISZERO PUSH2 0xBD8 JUMPI PUSH1 0x40 MLOAD PUSH3 0x461BCD PUSH1 0xE5 SHL DUP2 MSTORE PUSH1 0x4 ADD PUSH2 0x713 SWAP1 PUSH2 0x5DE7 JUMP JUMPDEST PUSH1 0x1 DUP1 SLOAD PUSH1 0x1 PUSH1 0x1 PUSH1 0xA0 SHL SUB DUP4 DUP2 AND PUSH1 0x1 PUSH1 0x1 PUSH1 0xA0 SHL SUB NOT DUP4 AND DUP2 OR SWAP1 SWAP4 SSTORE PUSH1 0x40 DUP1 MLOAD SWAP2 SWAP1 SWAP3 AND DUP1 DUP3 MSTORE PUSH1 0x20 DUP3 ADD SWAP4 SWAP1 SWAP4 MSTORE PUSH32 0x114CFA1C61A2B039DE4A4DD89821F0664D2A5DC26F70A270C615A9D14FD40632 SWAP2 ADD PUSH1 0x40 MLOAD DUP1 SWAP2 SUB SWAP1 LOG1 POP POP JUMP JUMPDEST PUSH1 0x0 DUP1 PUSH1 0x40 MLOAD DUP1 PUSH2 0x2E0 ADD PUSH1 0x40 MSTORE DUP1 DUP16 PUSH1 0x0 PUSH1 0x7 DUP2 LT PUSH2 0xC69 JUMPI PUSH4 0x4E487B71 PUSH1 0xE0 SHL PUSH1 0x0 MSTORE PUSH1 0x32 PUSH1 0x4 MSTORE PUSH1 0x24 PUSH1 0x0 REVERT JUMPDEST PUSH1 0x20 MUL ADD MLOAD PUSH1 0x1 PUSH1 0x1 PUSH1 0xA0 SHL SUB AND DUP2 MSTORE PUSH1 0x20 ADD DUP16 PUSH1 0x1 PUSH1 0x7 DUP2 LT PUSH2 0xC9D JUMPI PUSH4 0x4E487B71 PUSH1 0xE0 SHL PUSH1 0x0 MSTORE PUSH1 0x32 PUSH1 0x4 MSTORE PUSH1 0x24 PUSH1 0x0 REVERT JUMPDEST PUSH1 0x20 MUL ADD MLOAD PUSH1 0x1 PUSH1 0x1 PUSH1 0xA0 SHL SUB AND DUP2 MSTORE PUSH1 0x20 ADD DUP16 PUSH1 0x2 PUSH1 0x7 DUP2 LT PUSH2 0xCD1 JUMPI PUSH4 0x4E487B71 PUSH1 0xE0 SHL PUSH1 0x0 MSTORE PUSH1 0x32 PUSH1 0x4 MSTORE PUSH1 0x24 PUSH1 0x0 REVERT JUMPDEST PUSH1 0x20 MUL ADD MLOAD PUSH1 0x1 PUSH1 0x1 PUSH1 0xA0 SHL SUB AND DUP2 MSTORE PUSH1 0x20 ADD DUP15 PUSH1 0x0 PUSH1 0x9 DUP2 LT PUSH2 0xD05 JUMPI PUSH4 0x4E487B71 PUSH1 0xE0 SHL PUSH1 0x0 MSTORE PUSH1 0x32 PUSH1 0x4 MSTORE PUSH1 0x24 PUSH1 0x0 REVERT JUMPDEST PUSH1 0x20 MUL ADD MLOAD DUP2 MSTORE PUSH1 0x20 ADD DUP15 PUSH1 0x1 PUSH1 0x9 DUP2 LT PUSH2 0xD30 JUMPI PUSH4 0x4E487B71 PUSH1 0xE0 SHL PUSH1 0x0 MSTORE PUSH1 0x32 PUSH1 0x4 MSTORE PUSH1 0x24 PUSH1 0x0 REVERT JUMPDEST PUSH1 0x20 MUL ADD MLOAD DUP2 MSTORE PUSH1 0x20 ADD DUP15 PUSH1 0x2 PUSH1 0x9 DUP2 LT PUSH2 0xD5B JUMPI PUSH4 0x4E487B71 PUSH1 0xE0 SHL PUSH1 0x0 MSTORE PUSH1 0x32 PUSH1 0x4 MSTORE PUSH1 0x24 PUSH1 0x0 REVERT JUMPDEST PUSH1 0x20 MUL ADD MLOAD DUP2 MSTORE PUSH1 0x20 ADD DUP15 PUSH1 0x3 PUSH1 0x9 DUP2 LT PUSH2 0xD86 JUMPI PUSH4 0x4E487B71 PUSH1 0xE0 SHL PUSH1 0x0 MSTORE PUSH1 0x32 PUSH1 0x4 MSTORE PUSH1 0x24 PUSH1 0x0 REVERT JUMPDEST PUSH1 0x20 MUL ADD MLOAD DUP2 MSTORE PUSH1 0x20 ADD DUP16 PUSH1 0x3 PUSH1 0x7 DUP2 LT PUSH2 0xDB1 JUMPI PUSH4 0x4E487B71 PUSH1 0xE0 SHL PUSH1 0x0 MSTORE PUSH1 0x32 PUSH1 0x4 MSTORE PUSH1 0x24 PUSH1 0x0 REVERT JUMPDEST PUSH1 0x20 MUL ADD MLOAD PUSH1 0x1 PUSH1 0x1 PUSH1 0xA0 SHL SUB AND DUP2 MSTORE PUSH1 0x20 ADD DUP14 PUSH1 0x1 DUP2 GT ISZERO PUSH2 0xDE4 JUMPI PUSH4 0x4E487B71 PUSH1 0xE0 SHL PUSH1 0x0 MSTORE PUSH1 0x21 PUSH1 0x4 MSTORE PUSH1 0x24 PUSH1 0x0 REVERT JUMPDEST DUP2 MSTORE PUSH1 0x20 ADD DUP13 PUSH1 0x1 DUP2 GT ISZERO PUSH2 0xE09 JUMPI PUSH4 0x4E487B71 PUSH1 0xE0 SHL PUSH1 0x0 MSTORE PUSH1 0x21 PUSH1 0x4 MSTORE PUSH1 0x24 PUSH1 0x0 REVERT JUMPDEST DUP2 MSTORE PUSH1 0x20 ADD DUP12 PUSH1 0x1 DUP2 GT ISZERO PUSH2 0xE2E JUMPI PUSH4 0x4E487B71 PUSH1 0xE0 SHL PUSH1 0x0 MSTORE PUSH1 0x21 PUSH1 0x4 MSTORE PUSH1 0x24 PUSH1 0x0 REVERT JUMPDEST DUP2 MSTORE PUSH1 0x20 ADD DUP16 PUSH1 0x4 PUSH1 0x20 MUL ADD MLOAD PUSH1 0x1 PUSH1 0x1 PUSH1 0xA0 SHL SUB AND DUP2 MSTORE PUSH1 0x20 ADD DUP11 PUSH1 0x1 DUP2 GT ISZERO PUSH2 0xE69 JUMPI PUSH4 0x4E487B71 PUSH1 0xE0 SHL PUSH1 0x0 MSTORE PUSH1 0x21 PUSH1 0x4 MSTORE PUSH1 0x24 PUSH1 0x0 REVERT JUMPDEST DUP2 MSTORE PUSH1 0x20 DUP2 ADD DUP11 SWAP1 MSTORE PUSH1 0x40 DUP2 ADD DUP10 SWAP1 MSTORE PUSH1 0x60 ADD DUP16 PUSH1 0x5 PUSH1 0x20 MUL ADD MLOAD PUSH1 0x1 PUSH1 0x1 PUSH1 0xA0 SHL SUB AND DUP2 MSTORE PUSH1 0x20 ADD DUP8 DUP2 MSTORE PUSH1 0x20 ADD DUP16 PUSH1 0x6 PUSH1 0x7 DUP2 LT PUSH2 0xEB9 JUMPI PUSH4 0x4E487B71 PUSH1 0xE0 SHL PUSH1 0x0 MSTORE PUSH1 0x32 PUSH1 0x4 MSTORE PUSH1 0x24 PUSH1 0x0 REVERT JUMPDEST PUSH1 0x20 MUL ADD MLOAD PUSH1 0x1 PUSH1 0x1 PUSH1 0xA0 SHL SUB AND DUP2 MSTORE PUSH1 0x20 ADD DUP15 PUSH1 0x4 PUSH1 0x9 DUP2 LT PUSH2 0xEED JUMPI PUSH4 0x4E487B71 PUSH1 0xE0 SHL PUSH1 0x0 MSTORE PUSH1 0x32 PUSH1 0x4 MSTORE PUSH1 0x24 PUSH1 0x0 REVERT JUMPDEST PUSH1 0x20 MUL ADD MLOAD DUP2 MSTORE PUSH1 0x20 ADD DUP15 PUSH1 0x5 PUSH1 0x9 DUP2 LT PUSH2 0xF18 JUMPI PUSH4 0x4E487B71 PUSH1 0xE0 SHL PUSH1 0x0 MSTORE PUSH1 0x32 PUSH1 0x4 MSTORE PUSH1 0x24 PUSH1 0x0 REVERT JUMPDEST PUSH1 0x20 MUL ADD MLOAD DUP2 MSTORE PUSH1 0x20 ADD DUP15 PUSH1 0x6 PUSH1 0x9 DUP2 LT PUSH2 0xF43 JUMPI PUSH4 0x4E487B71 PUSH1 0xE0 SHL PUSH1 0x0 MSTORE PUSH1 0x32 PUSH1 0x4 MSTORE PUSH1 0x24 PUSH1 0x0 REVERT JUMPDEST PUSH1 0x20 MUL ADD MLOAD DUP2 MSTORE PUSH1 0x20 ADD DUP15 PUSH1 0x7 PUSH1 0x9 DUP2 LT PUSH2 0xF6E JUMPI PUSH4 0x4E487B71 PUSH1 0xE0 SHL PUSH1 0x0 MSTORE PUSH1 0x32 PUSH1 0x4 MSTORE PUSH1 0x24 PUSH1 0x0 REVERT JUMPDEST PUSH1 0x20 MUL ADD MLOAD DUP2 MSTORE PUSH1 0x20 ADD DUP15 PUSH1 0x8 PUSH1 0x9 DUP2 LT PUSH2 0xF99 JUMPI PUSH4 0x4E487B71 PUSH1 0xE0 SHL PUSH1 0x0 MSTORE PUSH1 0x32 PUSH1 0x4 MSTORE PUSH1 0x24 PUSH1 0x0 REVERT JUMPDEST PUSH1 0x20 MUL ADD MLOAD SWAP1 MSTORE SWAP1 POP PUSH2 0xFD2 PUSH2 0xFAE DUP3 PUSH2 0x347D JUMP JUMPDEST DUP3 PUSH1 0x40 MLOAD DUP1 PUSH1 0x60 ADD PUSH1 0x40 MSTORE DUP1 DUP10 PUSH1 0xFF AND DUP2 MSTORE PUSH1 0x20 ADD DUP9 DUP2 MSTORE PUSH1 0x20 ADD DUP8 DUP2 MSTORE POP PUSH2 0x34D9 JUMP JUMPDEST SWAP15 SWAP14 POP POP POP POP POP POP POP POP POP POP POP POP POP POP JUMP JUMPDEST PUSH1 0x0 SLOAD PUSH1 0x1 PUSH1 0x1 PUSH1 0xA0 SHL SUB PUSH2 0x100 SWAP1 SWAP2 DIV AND CALLER EQ PUSH2 0x1014 JUMPI PUSH1 0x40 MLOAD PUSH3 0x461BCD PUSH1 0xE5 SHL DUP2 MSTORE PUSH1 0x4 ADD PUSH2 0x713 SWAP1 PUSH2 0x5E11 JUMP JUMPDEST PUSH1 0x0 DUP1 SLOAD PUSH1 0x40 MLOAD PUSH2 0x100 SWAP1 SWAP2 DIV PUSH1 0x1 PUSH1 0x1 PUSH1 0xA0 SHL SUB AND SWAP1 PUSH32 0x8BE0079C531659141344CD1FD0A4F28419497F9722A3DAAFE3B4186F6B6457E0 SWAP1 DUP4 SWAP1 LOG3 PUSH1 0x0 DUP1 SLOAD PUSH2 0x100 PUSH1 0x1 PUSH1 0xA8 SHL SUB NOT AND SWAP1 SSTORE JUMP JUMPDEST PUSH1 0x0 PUSH2 0xAF4 PUSH1 0x40 MLOAD DUP1 PUSH2 0x2E0 ADD PUSH1 0x40 MSTORE DUP1 DUP13 PUSH1 0x0 PUSH1 0x7 DUP2 LT PUSH2 0x1095 JUMPI PUSH4 0x4E487B71 PUSH1 0xE0 SHL PUSH1 0x0 MSTORE PUSH1 0x32 PUSH1 0x4 MSTORE PUSH1 0x24 PUSH1 0x0 REVERT JUMPDEST PUSH1 0x20 MUL ADD MLOAD PUSH1 0x1 PUSH1 0x1 PUSH1 0xA0 SHL SUB AND DUP2 MSTORE PUSH1 0x20 ADD DUP13 PUSH1 0x1 PUSH1 0x7 DUP2 LT PUSH2 0x10C9 JUMPI PUSH4 0x4E487B71 PUSH1 0xE0 SHL PUSH1 0x0 MSTORE PUSH1 0x32 PUSH1 0x4 MSTORE PUSH1 0x24 PUSH1 0x0 REVERT JUMPDEST PUSH1 0x20 MUL ADD MLOAD PUSH1 0x1 PUSH1 0x1 PUSH1 0xA0 SHL SUB AND DUP2 MSTORE PUSH1 0x20 ADD DUP13 PUSH1 0x2 PUSH1 0x7 DUP2 LT PUSH2 0x10FD JUMPI PUSH4 0x4E487B71 PUSH1 0xE0 SHL PUSH1 0x0 MSTORE PUSH1 0x32 PUSH1 0x4 MSTORE PUSH1 0x24 PUSH1 0x0 REVERT JUMPDEST PUSH1 0x20 MUL ADD MLOAD PUSH1 0x1 PUSH1 0x1 PUSH1 0xA0 SHL SUB AND DUP2 MSTORE PUSH1 0x20 ADD DUP12 PUSH1 0x0 PUSH1 0x9 DUP2 LT PUSH2 0x1131 JUMPI PUSH4 0x4E487B71 PUSH1 0xE0 SHL PUSH1 0x0 MSTORE PUSH1 0x32 PUSH1 0x4 MSTORE PUSH1 0x24 PUSH1 0x0 REVERT JUMPDEST PUSH1 0x20 MUL ADD MLOAD DUP2 MSTORE PUSH1 0x20 ADD DUP12 PUSH1 0x1 PUSH1 0x9 DUP2 LT PUSH2 0x115C JUMPI PUSH4 0x4E487B71 PUSH1 0xE0 SHL PUSH1 0x0 MSTORE PUSH1 0x32 PUSH1 0x4 MSTORE PUSH1 0x24 PUSH1 0x0 REVERT JUMPDEST PUSH1 0x20 MUL ADD MLOAD DUP2 MSTORE PUSH1 0x20 ADD DUP12 PUSH1 0x2 PUSH1 0x9 DUP2 LT PUSH2 0x1187 JUMPI PUSH4 0x4E487B71 PUSH1 0xE0 SHL PUSH1 0x0 MSTORE PUSH1 0x32 PUSH1 0x4 MSTORE PUSH1 0x24 PUSH1 0x0 REVERT JUMPDEST PUSH1 0x20 MUL ADD MLOAD DUP2 MSTORE PUSH1 0x20 ADD DUP12 PUSH1 0x3 PUSH1 0x9 DUP2 LT PUSH2 0x11B2 JUMPI PUSH4 0x4E487B71 PUSH1 0xE0 SHL PUSH1 0x0 MSTORE PUSH1 0x32 PUSH1 0x4 MSTORE PUSH1 0x24 PUSH1 0x0 REVERT JUMPDEST PUSH1 0x20 MUL ADD MLOAD DUP2 MSTORE PUSH1 0x20 ADD DUP13 PUSH1 0x3 PUSH1 0x7 DUP2 LT PUSH2 0x11DD JUMPI PUSH4 0x4E487B71 PUSH1 0xE0 SHL PUSH1 0x0 MSTORE PUSH1 0x32 PUSH1 0x4 MSTORE PUSH1 0x24 PUSH1 0x0 REVERT JUMPDEST PUSH1 0x20 MUL ADD MLOAD PUSH1 0x1 PUSH1 0x1 PUSH1 0xA0 SHL SUB AND DUP2 MSTORE PUSH1 0x20 ADD DUP11 PUSH1 0x1 DUP2 GT ISZERO PUSH2 0x1210 JUMPI PUSH4 0x4E487B71 PUSH1 0xE0 SHL PUSH1 0x0 MSTORE PUSH1 0x21 PUSH1 0x4 MSTORE PUSH1 0x24 PUSH1 0x0 REVERT JUMPDEST DUP2 MSTORE PUSH1 0x20 ADD DUP10 PUSH1 0x1 DUP2 GT ISZERO PUSH2 0x1235 JUMPI PUSH4 0x4E487B71 PUSH1 0xE0 SHL PUSH1 0x0 MSTORE PUSH1 0x21 PUSH1 0x4 MSTORE PUSH1 0x24 PUSH1 0x0 REVERT JUMPDEST DUP2 MSTORE PUSH1 0x20 ADD DUP9 PUSH1 0x1 DUP2 GT ISZERO PUSH2 0x125A JUMPI PUSH4 0x4E487B71 PUSH1 0xE0 SHL PUSH1 0x0 MSTORE PUSH1 0x21 PUSH1 0x4 MSTORE PUSH1 0x24 PUSH1 0x0 REVERT JUMPDEST DUP2 MSTORE PUSH1 0x80 DUP14 ADD MLOAD PUSH1 0x1 PUSH1 0x1 PUSH1 0xA0 SHL SUB AND PUSH1 0x20 DUP3 ADD MSTORE PUSH1 0x40 ADD DUP8 PUSH1 0x1 DUP2 GT ISZERO PUSH2 0x1292 JUMPI PUSH4 0x4E487B71 PUSH1 0xE0 SHL PUSH1 0x0 MSTORE PUSH1 0x21 PUSH1 0x4 MSTORE PUSH1 0x24 PUSH1 0x0 REVERT JUMPDEST DUP2 MSTORE PUSH1 0x20 DUP2 ADD DUP8 SWAP1 MSTORE PUSH1 0x40 DUP2 ADD DUP7 SWAP1 MSTORE PUSH1 0xA0 DUP1 DUP15 ADD MLOAD PUSH1 0x1 PUSH1 0x1 PUSH1 0xA0 SHL SUB AND PUSH1 0x60 DUP4 ADD MSTORE PUSH1 0x80 DUP3 ADD DUP7 SWAP1 MSTORE ADD DUP13 PUSH1 0x6 PUSH1 0x20 MUL ADD MLOAD PUSH1 0x1 PUSH1 0x1 PUSH1 0xA0 SHL SUB AND DUP2 MSTORE PUSH1 0x20 ADD DUP12 PUSH1 0x4 PUSH1 0x9 DUP2 LT PUSH2 0x12F5 JUMPI PUSH4 0x4E487B71 PUSH1 0xE0 SHL PUSH1 0x0 MSTORE PUSH1 0x32 PUSH1 0x4 MSTORE PUSH1 0x24 PUSH1 0x0 REVERT JUMPDEST PUSH1 0x20 MUL ADD MLOAD DUP2 MSTORE PUSH1 0x20 ADD DUP12 PUSH1 0x5 PUSH1 0x9 DUP2 LT PUSH2 0x1320 JUMPI PUSH4 0x4E487B71 PUSH1 0xE0 SHL PUSH1 0x0 MSTORE PUSH1 0x32 PUSH1 0x4 MSTORE PUSH1 0x24 PUSH1 0x0 REVERT JUMPDEST PUSH1 0x20 MUL ADD MLOAD DUP2 MSTORE PUSH1 0x20 ADD DUP12 PUSH1 0x6 PUSH1 0x9 DUP2 LT PUSH2 0x134B JUMPI PUSH4 0x4E487B71 PUSH1 0xE0 SHL PUSH1 0x0 MSTORE PUSH1 0x32 PUSH1 0x4 MSTORE PUSH1 0x24 PUSH1 0x0 REVERT JUMPDEST PUSH1 0x20 MUL ADD MLOAD DUP2 MSTORE PUSH1 0x20 ADD DUP12 PUSH1 0x7 PUSH1 0x9 DUP2 LT PUSH2 0x1376 JUMPI PUSH4 0x4E487B71 PUSH1 0xE0 SHL PUSH1 0x0 MSTORE PUSH1 0x32 PUSH1 0x4 MSTORE PUSH1 0x24 PUSH1 0x0 REVERT JUMPDEST PUSH1 0x20 MUL ADD MLOAD DUP2 MSTORE PUSH1 0x20 ADD DUP12 PUSH1 0x8 PUSH1 0x9 DUP2 LT PUSH2 0x13A1 JUMPI PUSH4 0x4E487B71 PUSH1 0xE0 SHL PUSH1 0x0 MSTORE PUSH1 0x32 PUSH1 0x4 MSTORE PUSH1 0x24 PUSH1 0x0 REVERT JUMPDEST PUSH1 0x20 MUL ADD MLOAD SWAP1 MSTORE PUSH2 0x35BF JUMP JUMPDEST PUSH1 0x0 SLOAD PUSH1 0x1 PUSH1 0xA8 SHL SWAP1 DIV PUSH1 0xFF AND ISZERO PUSH2 0x13D7 JUMPI PUSH1 0x40 MLOAD PUSH3 0x461BCD PUSH1 0xE5 SHL DUP2 MSTORE PUSH1 0x4 ADD PUSH2 0x713 SWAP1 PUSH2 0x5DE7 JUMP JUMPDEST PUSH1 0x0 PUSH1 0x40 MLOAD DUP1 PUSH2 0x2E0 ADD PUSH1 0x40 MSTORE DUP1 DUP13 PUSH1 0x0 PUSH1 0x7 DUP2 LT PUSH2 0x1406 JUMPI PUSH4 0x4E487B71 PUSH1 0xE0 SHL PUSH1 0x0 MSTORE PUSH1 0x32 PUSH1 0x4 MSTORE PUSH1 0x24 PUSH1 0x0 REVERT JUMPDEST PUSH1 0x20 MUL ADD MLOAD PUSH1 0x1 PUSH1 0x1 PUSH1 0xA0 SHL SUB AND DUP2 MSTORE PUSH1 0x20 ADD DUP13 PUSH1 0x1 PUSH1 0x7 DUP2 LT PUSH2 0x143A JUMPI PUSH4 0x4E487B71 PUSH1 0xE0 SHL PUSH1 0x0 MSTORE PUSH1 0x32 PUSH1 0x4 MSTORE PUSH1 0x24 PUSH1 0x0 REVERT JUMPDEST PUSH1 0x20 MUL ADD MLOAD PUSH1 0x1 PUSH1 0x1 PUSH1 0xA0 SHL SUB AND DUP2 MSTORE PUSH1 0x20 ADD DUP13 PUSH1 0x2 PUSH1 0x7 DUP2 LT PUSH2 0x146E JUMPI PUSH4 0x4E487B71 PUSH1 0xE0 SHL PUSH1 0x0 MSTORE PUSH1 0x32 PUSH1 0x4 MSTORE PUSH1 0x24 PUSH1 0x0 REVERT JUMPDEST PUSH1 0x20 MUL ADD MLOAD PUSH1 0x1 PUSH1 0x1 PUSH1 0xA0 SHL SUB AND DUP2 MSTORE PUSH1 0x20 ADD DUP12 PUSH1 0x0 PUSH1 0x9 DUP2 LT PUSH2 0x14A2 JUMPI PUSH4 0x4E487B71 PUSH1 0xE0 SHL PUSH1 0x0 MSTORE PUSH1 0x32 PUSH1 0x4 MSTORE PUSH1 0x24 PUSH1 0x0 REVERT JUMPDEST PUSH1 0x20 MUL ADD MLOAD DUP2 MSTORE PUSH1 0x20 ADD DUP12 PUSH1 0x1 PUSH1 0x9 DUP2 LT PUSH2 0x14CD JUMPI PUSH4 0x4E487B71 PUSH1 0xE0 SHL PUSH1 0x0 MSTORE PUSH1 0x32 PUSH1 0x4 MSTORE PUSH1 0x24 PUSH1 0x0 REVERT JUMPDEST PUSH1 0x20 MUL ADD MLOAD DUP2 MSTORE PUSH1 0x20 ADD DUP12 PUSH1 0x2 PUSH1 0x9 DUP2 LT PUSH2 0x14F8 JUMPI PUSH4 0x4E487B71 PUSH1 0xE0 SHL PUSH1 0x0 MSTORE PUSH1 0x32 PUSH1 0x4 MSTORE PUSH1 0x24 PUSH1 0x0 REVERT JUMPDEST PUSH1 0x20 MUL ADD MLOAD DUP2 MSTORE PUSH1 0x20 ADD DUP12 PUSH1 0x3 PUSH1 0x9 DUP2 LT PUSH2 0x1523 JUMPI PUSH4 0x4E487B71 PUSH1 0xE0 SHL PUSH1 0x0 MSTORE PUSH1 0x32 PUSH1 0x4 MSTORE PUSH1 0x24 PUSH1 0x0 REVERT JUMPDEST PUSH1 0x20 MUL ADD MLOAD DUP2 MSTORE PUSH1 0x20 ADD DUP13 PUSH1 0x3 PUSH1 0x7 DUP2 LT PUSH2 0x154E JUMPI PUSH4 0x4E487B71 PUSH1 0xE0 SHL PUSH1 0x0 MSTORE PUSH1 0x32 PUSH1 0x4 MSTORE PUSH1 0x24 PUSH1 0x0 REVERT JUMPDEST PUSH1 0x20 MUL ADD MLOAD PUSH1 0x1 PUSH1 0x1 PUSH1 0xA0 SHL SUB AND DUP2 MSTORE PUSH1 0x20 ADD DUP11 PUSH1 0x1 DUP2 GT ISZERO PUSH2 0x1581 JUMPI PUSH4 0x4E487B71 PUSH1 0xE0 SHL PUSH1 0x0 MSTORE PUSH1 0x21 PUSH1 0x4 MSTORE PUSH1 0x24 PUSH1 0x0 REVERT JUMPDEST DUP2 MSTORE PUSH1 0x20 ADD DUP10 PUSH1 0x1 DUP2 GT ISZERO PUSH2 0x15A6 JUMPI PUSH4 0x4E487B71 PUSH1 0xE0 SHL PUSH1 0x0 MSTORE PUSH1 0x21 PUSH1 0x4 MSTORE PUSH1 0x24 PUSH1 0x0 REVERT JUMPDEST DUP2 MSTORE PUSH1 0x20 ADD DUP9 PUSH1 0x1 DUP2 GT ISZERO PUSH2 0x15CB JUMPI PUSH4 0x4E487B71 PUSH1 0xE0 SHL PUSH1 0x0 MSTORE PUSH1 0x21 PUSH1 0x4 MSTORE PUSH1 0x24 PUSH1 0x0 REVERT JUMPDEST DUP2 MSTORE PUSH1 0x80 DUP14 ADD MLOAD PUSH1 0x1 PUSH1 0x1 PUSH1 0xA0 SHL SUB AND PUSH1 0x20 DUP3 ADD MSTORE PUSH1 0x40 ADD DUP8 PUSH1 0x1 DUP2 GT ISZERO PUSH2 0x1603 JUMPI PUSH4 0x4E487B71 PUSH1 0xE0 SHL PUSH1 0x0 MSTORE PUSH1 0x21 PUSH1 0x4 MSTORE PUSH1 0x24 PUSH1 0x0 REVERT JUMPDEST DUP2 MSTORE PUSH1 0x20 DUP2 ADD DUP8 SWAP1 MSTORE PUSH1 0x40 DUP2 ADD DUP7 SWAP1 MSTORE PUSH1 0xA0 DUP1 DUP15 ADD MLOAD PUSH1 0x1 PUSH1 0x1 PUSH1 0xA0 SHL SUB AND PUSH1 0x60 DUP4 ADD MSTORE PUSH1 0x80 DUP3 ADD DUP7 SWAP1 MSTORE ADD DUP13 PUSH1 0x6 PUSH1 0x20 MUL ADD MLOAD PUSH1 0x1 PUSH1 0x1 PUSH1 0xA0 SHL SUB AND DUP2 MSTORE PUSH1 0x20 ADD DUP12 PUSH1 0x4 PUSH1 0x9 DUP2 LT PUSH2 0x1666 JUMPI PUSH4 0x4E487B71 PUSH1 0xE0 SHL PUSH1 0x0 MSTORE PUSH1 0x32 PUSH1 0x4 MSTORE PUSH1 0x24 PUSH1 0x0 REVERT JUMPDEST PUSH1 0x20 MUL ADD MLOAD DUP2 MSTORE PUSH1 0x20 ADD DUP12 PUSH1 0x5 PUSH1 0x9 DUP2 LT PUSH2 0x1691 JUMPI PUSH4 0x4E487B71 PUSH1 0xE0 SHL PUSH1 0x0 MSTORE PUSH1 0x32 PUSH1 0x4 MSTORE PUSH1 0x24 PUSH1 0x0 REVERT JUMPDEST PUSH1 0x20 MUL ADD MLOAD DUP2 MSTORE PUSH1 0x20 ADD DUP12 PUSH1 0x6 PUSH1 0x9 DUP2 LT PUSH2 0x16BC JUMPI PUSH4 0x4E487B71 PUSH1 0xE0 SHL PUSH1 0x0 MSTORE PUSH1 0x32 PUSH1 0x4 MSTORE PUSH1 0x24 PUSH1 0x0 REVERT JUMPDEST PUSH1 0x20 MUL ADD MLOAD DUP2 MSTORE PUSH1 0x20 ADD DUP12 PUSH1 0x7 PUSH1 0x9 DUP2 LT PUSH2 0x16E7 JUMPI PUSH4 0x4E487B71 PUSH1 0xE0 SHL PUSH1 0x0 MSTORE PUSH1 0x32 PUSH1 0x4 MSTORE PUSH1 0x24 PUSH1 0x0 REVERT JUMPDEST PUSH1 0x20 MUL ADD MLOAD DUP2 MSTORE PUSH1 0x20 ADD DUP12 PUSH1 0x8 PUSH1 0x9 DUP2 LT PUSH2 0x1712 JUMPI PUSH4 0x4E487B71 PUSH1 0xE0 SHL PUSH1 0x0 MSTORE PUSH1 0x32 PUSH1 0x4 MSTORE PUSH1 0x24 PUSH1 0x0 REVERT JUMPDEST PUSH1 0x20 MUL ADD MLOAD SWAP1 MSTORE SWAP1 POP PUSH2 0x1725 DUP2 DUP4 PUSH2 0x37F0 JUMP JUMPDEST POP POP POP POP POP POP POP POP POP POP POP JUMP JUMPDEST PUSH1 0x0 PUSH2 0xAF4 PUSH1 0x40 MLOAD DUP1 PUSH2 0x2E0 ADD PUSH1 0x40 MSTORE DUP1 DUP13 PUSH1 0x0 PUSH1 0x7 DUP2 LT PUSH2 0x1764 JUMPI PUSH4 0x4E487B71 PUSH1 0xE0 SHL PUSH1 0x0 MSTORE PUSH1 0x32 PUSH1 0x4 MSTORE PUSH1 0x24 PUSH1 0x0 REVERT JUMPDEST PUSH1 0x20 MUL ADD MLOAD PUSH1 0x1 PUSH1 0x1 PUSH1 0xA0 SHL SUB AND DUP2 MSTORE PUSH1 0x20 ADD DUP13 PUSH1 0x1 PUSH1 0x7 DUP2 LT PUSH2 0x1798 JUMPI PUSH4 0x4E487B71 PUSH1 0xE0 SHL PUSH1 0x0 MSTORE PUSH1 0x32 PUSH1 0x4 MSTORE PUSH1 0x24 PUSH1 0x0 REVERT JUMPDEST PUSH1 0x20 MUL ADD MLOAD PUSH1 0x1 PUSH1 0x1 PUSH1 0xA0 SHL SUB AND DUP2 MSTORE PUSH1 0x20 ADD DUP13 PUSH1 0x2 PUSH1 0x7 DUP2 LT PUSH2 0x17CC JUMPI PUSH4 0x4E487B71 PUSH1 0xE0 SHL PUSH1 0x0 MSTORE PUSH1 0x32 PUSH1 0x4 MSTORE PUSH1 0x24 PUSH1 0x0 REVERT JUMPDEST PUSH1 0x20 MUL ADD MLOAD PUSH1 0x1 PUSH1 0x1 PUSH1 0xA0 SHL SUB AND DUP2 MSTORE PUSH1 0x20 ADD DUP12 PUSH1 0x0 PUSH1 0x9 DUP2 LT PUSH2 0x1800 JUMPI PUSH4 0x4E487B71 PUSH1 0xE0 SHL PUSH1 0x0 MSTORE PUSH1 0x32 PUSH1 0x4 MSTORE PUSH1 0x24 PUSH1 0x0 REVERT JUMPDEST PUSH1 0x20 MUL ADD MLOAD DUP2 MSTORE PUSH1 0x20 ADD DUP12 PUSH1 0x1 PUSH1 0x9 DUP2 LT PUSH2 0x182B JUMPI PUSH4 0x4E487B71 PUSH1 0xE0 SHL PUSH1 0x0 MSTORE PUSH1 0x32 PUSH1 0x4 MSTORE PUSH1 0x24 PUSH1 0x0 REVERT JUMPDEST PUSH1 0x20 MUL ADD MLOAD DUP2 MSTORE PUSH1 0x20 ADD DUP12 PUSH1 0x2 PUSH1 0x9 DUP2 LT PUSH2 0x1856 JUMPI PUSH4 0x4E487B71 PUSH1 0xE0 SHL PUSH1 0x0 MSTORE PUSH1 0x32 PUSH1 0x4 MSTORE PUSH1 0x24 PUSH1 0x0 REVERT JUMPDEST PUSH1 0x20 MUL ADD MLOAD DUP2 MSTORE PUSH1 0x20 ADD DUP12 PUSH1 0x3 PUSH1 0x9 DUP2 LT PUSH2 0x1881 JUMPI PUSH4 0x4E487B71 PUSH1 0xE0 SHL PUSH1 0x0 MSTORE PUSH1 0x32 PUSH1 0x4 MSTORE PUSH1 0x24 PUSH1 0x0 REVERT JUMPDEST PUSH1 0x20 MUL ADD MLOAD DUP2 MSTORE PUSH1 0x20 ADD DUP13 PUSH1 0x3 PUSH1 0x7 DUP2 LT PUSH2 0x18AC JUMPI PUSH4 0x4E487B71 PUSH1 0xE0 SHL PUSH1 0x0 MSTORE PUSH1 0x32 PUSH1 0x4 MSTORE PUSH1 0x24 PUSH1 0x0 REVERT JUMPDEST PUSH1 0x20 MUL ADD MLOAD PUSH1 0x1 PUSH1 0x1 PUSH1 0xA0 SHL SUB AND DUP2 MSTORE PUSH1 0x20 ADD DUP11 PUSH1 0x1 DUP2 GT ISZERO PUSH2 0x18DF JUMPI PUSH4 0x4E487B71 PUSH1 0xE0 SHL PUSH1 0x0 MSTORE PUSH1 0x21 PUSH1 0x4 MSTORE PUSH1 0x24 PUSH1 0x0 REVERT JUMPDEST DUP2 MSTORE PUSH1 0x20 ADD DUP10 PUSH1 0x1 DUP2 GT ISZERO PUSH2 0x1904 JUMPI PUSH4 0x4E487B71 PUSH1 0xE0 SHL PUSH1 0x0 MSTORE PUSH1 0x21 PUSH1 0x4 MSTORE PUSH1 0x24 PUSH1 0x0 REVERT JUMPDEST DUP2 MSTORE PUSH1 0x20 ADD DUP9 PUSH1 0x1 DUP2 GT ISZERO PUSH2 0x1929 JUMPI PUSH4 0x4E487B71 PUSH1 0xE0 SHL PUSH1 0x0 MSTORE PUSH1 0x21 PUSH1 0x4 MSTORE PUSH1 0x24 PUSH1 0x0 REVERT JUMPDEST DUP2 MSTORE PUSH1 0x80 DUP14 ADD MLOAD PUSH1 0x1 PUSH1 0x1 PUSH1 0xA0 SHL SUB AND PUSH1 0x20 DUP3 ADD MSTORE PUSH1 0x40 ADD DUP8 PUSH1 0x1 DUP2 GT ISZERO PUSH2 0x1961 JUMPI PUSH4 0x4E487B71 PUSH1 0xE0 SHL PUSH1 0x0 MSTORE PUSH1 0x21 PUSH1 0x4 MSTORE PUSH1 0x24 PUSH1 0x0 REVERT JUMPDEST DUP2 MSTORE PUSH1 0x20 DUP2 ADD DUP8 SWAP1 MSTORE PUSH1 0x40 DUP2 ADD DUP7 SWAP1 MSTORE PUSH1 0xA0 DUP1 DUP15 ADD MLOAD PUSH1 0x1 PUSH1 0x1 PUSH1 0xA0 SHL SUB AND PUSH1 0x60 DUP4 ADD MSTORE PUSH1 0x80 DUP3 ADD DUP7 SWAP1 MSTORE ADD DUP13 PUSH1 0x6 PUSH1 0x20 MUL ADD MLOAD PUSH1 0x1 PUSH1 0x1 PUSH1 0xA0 SHL SUB AND DUP2 MSTORE PUSH1 0x20 ADD DUP12 PUSH1 0x4 PUSH1 0x9 DUP2 LT PUSH2 0x19C4 JUMPI PUSH4 0x4E487B71 PUSH1 0xE0 SHL PUSH1 0x0 MSTORE PUSH1 0x32 PUSH1 0x4 MSTORE PUSH1 0x24 PUSH1 0x0 REVERT JUMPDEST PUSH1 0x20 MUL ADD MLOAD DUP2 MSTORE PUSH1 0x20 ADD DUP12 PUSH1 0x5 PUSH1 0x9 DUP2 LT PUSH2 0x19EF JUMPI PUSH4 0x4E487B71 PUSH1 0xE0 SHL PUSH1 0x0 MSTORE PUSH1 0x32 PUSH1 0x4 MSTORE PUSH1 0x24 PUSH1 0x0 REVERT JUMPDEST PUSH1 0x20 MUL ADD MLOAD DUP2 MSTORE PUSH1 0x20 ADD DUP12 PUSH1 0x6 PUSH1 0x9 DUP2 LT PUSH2 0x1A1A JUMPI PUSH4 0x4E487B71 PUSH1 0xE0 SHL PUSH1 0x0 MSTORE PUSH1 0x32 PUSH1 0x4 MSTORE PUSH1 0x24 PUSH1 0x0 REVERT JUMPDEST PUSH1 0x20 MUL ADD MLOAD DUP2 MSTORE PUSH1 0x20 ADD DUP12 PUSH1 0x7 PUSH1 0x9 DUP2 LT PUSH2 0x1A45 JUMPI PUSH4 0x4E487B71 PUSH1 0xE0 SHL PUSH1 0x0 MSTORE PUSH1 0x32 PUSH1 0x4 MSTORE PUSH1 0x24 PUSH1 0x0 REVERT JUMPDEST PUSH1 0x20 MUL ADD MLOAD DUP2 MSTORE PUSH1 0x20 ADD DUP12 PUSH1 0x8 PUSH1 0x9 DUP2 LT PUSH2 0x1A70 JUMPI PUSH4 0x4E487B71 PUSH1 0xE0 SHL PUSH1 0x0 MSTORE PUSH1 0x32 PUSH1 0x4 MSTORE PUSH1 0x24 PUSH1 0x0 REVERT JUMPDEST PUSH1 0x20 MUL ADD MLOAD SWAP1 MSTORE PUSH2 0x347D JUMP JUMPDEST PUSH1 0x0 SLOAD PUSH1 0x1 PUSH1 0x1 PUSH1 0xA0 SHL SUB PUSH2 0x100 SWAP1 SWAP2 DIV AND CALLER EQ PUSH2 0x1AAC JUMPI PUSH1 0x40 MLOAD PUSH3 0x461BCD PUSH1 0xE5 SHL DUP2 MSTORE PUSH1 0x4 ADD PUSH2 0x713 SWAP1 PUSH2 0x5E11 JUMP JUMPDEST PUSH2 0x1AB4 PUSH2 0x3984 JUMP JUMPDEST JUMP JUMPDEST PUSH1 0x0 SLOAD PUSH1 0x1 PUSH1 0xA8 SHL SWAP1 DIV PUSH1 0xFF AND ISZERO PUSH2 0x1AE0 JUMPI PUSH1 0x40 MLOAD PUSH3 0x461BCD PUSH1 0xE5 SHL DUP2 MSTORE PUSH1 0x4 ADD PUSH2 0x713 SWAP1 PUSH2 0x5DE7 JUMP JUMPDEST PUSH2 0x1E68 PUSH1 0x40 MLOAD DUP1 PUSH2 0x2E0 ADD PUSH1 0x40 MSTORE DUP1 DUP15 PUSH1 0x0 PUSH1 0x7 DUP2 LT PUSH2 0x1B10 JUMPI PUSH4 0x4E487B71 PUSH1 0xE0 SHL PUSH1 0x0 MSTORE PUSH1 0x32 PUSH1 0x4 MSTORE PUSH1 0x24 PUSH1 0x0 REVERT JUMPDEST PUSH1 0x20 MUL ADD MLOAD PUSH1 0x1 PUSH1 0x1 PUSH1 0xA0 SHL SUB AND DUP2 MSTORE PUSH1 0x20 ADD DUP15 PUSH1 0x1 PUSH1 0x7 DUP2 LT PUSH2 0x1B44 JUMPI PUSH4 0x4E487B71 PUSH1 0xE0 SHL PUSH1 0x0 MSTORE PUSH1 0x32 PUSH1 0x4 MSTORE PUSH1 0x24 PUSH1 0x0 REVERT JUMPDEST PUSH1 0x20 MUL ADD MLOAD PUSH1 0x1 PUSH1 0x1 PUSH1 0xA0 SHL SUB AND DUP2 MSTORE PUSH1 0x20 ADD DUP15 PUSH1 0x2 PUSH1 0x7 DUP2 LT PUSH2 0x1B78 JUMPI PUSH4 0x4E487B71 PUSH1 0xE0 SHL PUSH1 0x0 MSTORE PUSH1 0x32 PUSH1 0x4 MSTORE PUSH1 0x24 PUSH1 0x0 REVERT JUMPDEST PUSH1 0x20 MUL ADD MLOAD PUSH1 0x1 PUSH1 0x1 PUSH1 0xA0 SHL SUB AND DUP2 MSTORE PUSH1 0x20 ADD DUP14 PUSH1 0x0 PUSH1 0x9 DUP2 LT PUSH2 0x1BAC JUMPI PUSH4 0x4E487B71 PUSH1 0xE0 SHL PUSH1 0x0 MSTORE PUSH1 0x32 PUSH1 0x4 MSTORE PUSH1 0x24 PUSH1 0x0 REVERT JUMPDEST PUSH1 0x20 MUL ADD MLOAD DUP2 MSTORE PUSH1 0x20 ADD DUP14 PUSH1 0x1 PUSH1 0x9 DUP2 LT PUSH2 0x1BD7 JUMPI PUSH4 0x4E487B71 PUSH1 0xE0 SHL PUSH1 0x0 MSTORE PUSH1 0x32 PUSH1 0x4 MSTORE PUSH1 0x24 PUSH1 0x0 REVERT JUMPDEST PUSH1 0x20 MUL ADD MLOAD DUP2 MSTORE PUSH1 0x20 ADD DUP14 PUSH1 0x2 PUSH1 0x9 DUP2 LT PUSH2 0x1C02 JUMPI PUSH4 0x4E487B71 PUSH1 0xE0 SHL PUSH1 0x0 MSTORE PUSH1 0x32 PUSH1 0x4 MSTORE PUSH1 0x24 PUSH1 0x0 REVERT JUMPDEST PUSH1 0x20 MUL ADD MLOAD DUP2 MSTORE PUSH1 0x20 ADD DUP14 PUSH1 0x3 PUSH1 0x9 DUP2 LT PUSH2 0x1C2D JUMPI PUSH4 0x4E487B71 PUSH1 0xE0 SHL PUSH1 0x0 MSTORE PUSH1 0x32 PUSH1 0x4 MSTORE PUSH1 0x24 PUSH1 0x0 REVERT JUMPDEST PUSH1 0x20 MUL ADD MLOAD DUP2 MSTORE PUSH1 0x20 ADD DUP15 PUSH1 0x3 PUSH1 0x7 DUP2 LT PUSH2 0x1C58 JUMPI PUSH4 0x4E487B71 PUSH1 0xE0 SHL PUSH1 0x0 MSTORE PUSH1 0x32 PUSH1 0x4 MSTORE PUSH1 0x24 PUSH1 0x0 REVERT JUMPDEST PUSH1 0x20 MUL ADD MLOAD PUSH1 0x1 PUSH1 0x1 PUSH1 0xA0 SHL SUB AND DUP2 MSTORE PUSH1 0x20 ADD DUP13 PUSH1 0x1 DUP2 GT ISZERO PUSH2 0x1C8B JUMPI PUSH4 0x4E487B71 PUSH1 0xE0 SHL PUSH1 0x0 MSTORE PUSH1 0x21 PUSH1 0x4 MSTORE PUSH1 0x24 PUSH1 0x0 REVERT JUMPDEST DUP2 MSTORE PUSH1 0x20 ADD DUP12 PUSH1 0x1 DUP2 GT ISZERO PUSH2 0x1CB0 JUMPI PUSH4 0x4E487B71 PUSH1 0xE0 SHL PUSH1 0x0 MSTORE PUSH1 0x21 PUSH1 0x4 MSTORE PUSH1 0x24 PUSH1 0x0 REVERT JUMPDEST DUP2 MSTORE PUSH1 0x20 ADD DUP11 PUSH1 0x1 DUP2 GT ISZERO PUSH2 0x1CD5 JUMPI PUSH4 0x4E487B71 PUSH1 0xE0 SHL PUSH1 0x0 MSTORE PUSH1 0x21 PUSH1 0x4 MSTORE PUSH1 0x24 PUSH1 0x0 REVERT JUMPDEST DUP2 MSTORE PUSH1 0x80 DUP16 ADD MLOAD PUSH1 0x1 PUSH1 0x1 PUSH1 0xA0 SHL SUB AND PUSH1 0x20 DUP3 ADD MSTORE PUSH1 0x40 ADD DUP10 PUSH1 0x1 DUP2 GT ISZERO PUSH2 0x1D0D JUMPI PUSH4 0x4E487B71 PUSH1 0xE0 SHL PUSH1 0x0 MSTORE PUSH1 0x21 PUSH1 0x4 MSTORE PUSH1 0x24 PUSH1 0x0 REVERT JUMPDEST DUP2 MSTORE PUSH1 0x20 DUP2 ADD DUP10 SWAP1 MSTORE PUSH1 0x40 DUP2 ADD DUP9 SWAP1 MSTORE PUSH1 0x60 ADD DUP15 PUSH1 0x5 PUSH1 0x20 MUL ADD MLOAD PUSH1 0x1 PUSH1 0x1 PUSH1 0xA0 SHL SUB AND DUP2 MSTORE PUSH1 0x20 ADD DUP7 DUP2 MSTORE PUSH1 0x20 ADD DUP15 PUSH1 0x6 PUSH1 0x7 DUP2 LT PUSH2 0x1D5D JUMPI PUSH4 0x4E487B71 PUSH1 0xE0 SHL PUSH1 0x0 MSTORE PUSH1 0x32 PUSH1 0x4 MSTORE PUSH1 0x24 PUSH1 0x0 REVERT JUMPDEST PUSH1 0x20 MUL ADD MLOAD PUSH1 0x1 PUSH1 0x1 PUSH1 0xA0 SHL SUB AND DUP2 MSTORE PUSH1 0x20 ADD DUP14 PUSH1 0x4 PUSH1 0x9 DUP2 LT PUSH2 0x1D91 JUMPI PUSH4 0x4E487B71 PUSH1 0xE0 SHL PUSH1 0x0 MSTORE PUSH1 0x32 PUSH1 0x4 MSTORE PUSH1 0x24 PUSH1 0x0 REVERT JUMPDEST PUSH1 0x20 MUL ADD MLOAD DUP2 MSTORE PUSH1 0x20 ADD DUP14 PUSH1 0x5 PUSH1 0x9 DUP2 LT PUSH2 0x1DBC JUMPI PUSH4 0x4E487B71 PUSH1 0xE0 SHL PUSH1 0x0 MSTORE PUSH1 0x32 PUSH1 0x4 MSTORE PUSH1 0x24 PUSH1 0x0 REVERT JUMPDEST PUSH1 0x20 MUL ADD MLOAD DUP2 MSTORE PUSH1 0x20 ADD DUP14 PUSH1 0x6 PUSH1 0x9 DUP2 LT PUSH2 0x1DE7 JUMPI PUSH4 0x4E487B71 PUSH1 0xE0 SHL PUSH1 0x0 MSTORE PUSH1 0x32 PUSH1 0x4 MSTORE PUSH1 0x24 PUSH1 0x0 REVERT JUMPDEST PUSH1 0x20 MUL ADD MLOAD DUP2 MSTORE PUSH1 0x20 ADD DUP14 PUSH1 0x7 PUSH1 0x9 DUP2 LT PUSH2 0x1E12 JUMPI PUSH4 0x4E487B71 PUSH1 0xE0 SHL PUSH1 0x0 MSTORE PUSH1 0x32 PUSH1 0x4 MSTORE PUSH1 0x24 PUSH1 0x0 REVERT JUMPDEST PUSH1 0x20 MUL ADD MLOAD DUP2 MSTORE PUSH1 0x20 ADD DUP14 PUSH1 0x8 PUSH1 0x9 DUP2 LT PUSH2 0x1E3D JUMPI PUSH4 0x4E487B71 PUSH1 0xE0 SHL PUSH1 0x0 MSTORE PUSH1 0x32 PUSH1 0x4 MSTORE PUSH1 0x24 PUSH1 0x0 REVERT JUMPDEST PUSH1 0x20 MUL ADD MLOAD DUP2 MSTORE POP PUSH1 0x40 MLOAD DUP1 PUSH1 0x60 ADD PUSH1 0x40 MSTORE DUP1 DUP7 PUSH1 0xFF AND DUP2 MSTORE PUSH1 0x20 ADD DUP6 DUP2 MSTORE PUSH1 0x20 ADD DUP5 DUP2 MSTORE POP PUSH2 0x3A06 JUMP JUMPDEST POP POP POP POP POP POP POP POP POP POP POP POP JUMP JUMPDEST PUSH1 0x0 SLOAD PUSH1 0x1 PUSH1 0xA8 SHL SWAP1 DIV PUSH1 0xFF AND ISZERO PUSH2 0x1EA0 JUMPI PUSH1 0x40 MLOAD PUSH3 0x461BCD PUSH1 0xE5 SHL DUP2 MSTORE PUSH1 0x4 ADD PUSH2 0x713 SWAP1 PUSH2 0x5DE7 JUMP JUMPDEST PUSH2 0x1725 PUSH1 0x40 MLOAD DUP1 PUSH2 0x2E0 ADD PUSH1 0x40 MSTORE DUP1 DUP14 PUSH1 0x0 PUSH1 0xE DUP2 LT PUSH2 0x1ED0 JUMPI PUSH4 0x4E487B71 PUSH1 0xE0 SHL PUSH1 0x0 MSTORE PUSH1 0x32 PUSH1 0x4 MSTORE PUSH1 0x24 PUSH1 0x0 REVERT JUMPDEST PUSH1 0x20 MUL ADD MLOAD PUSH1 0x1 PUSH1 0x1 PUSH1 0xA0 SHL SUB AND DUP2 MSTORE PUSH1 0x20 ADD DUP14 PUSH1 0x1 PUSH1 0xE DUP2 LT PUSH2 0x1F04 JUMPI PUSH4 0x4E487B71 PUSH1 0xE0 SHL PUSH1 0x0 MSTORE PUSH1 0x32 PUSH1 0x4 MSTORE PUSH1 0x24 PUSH1 0x0 REVERT JUMPDEST PUSH1 0x20 MUL ADD MLOAD PUSH1 0x1 PUSH1 0x1 PUSH1 0xA0 SHL SUB AND DUP2 MSTORE PUSH1 0x20 ADD DUP14 PUSH1 0x2 PUSH1 0xE DUP2 LT PUSH2 0x1F38 JUMPI PUSH4 0x4E487B71 PUSH1 0xE0 SHL PUSH1 0x0 MSTORE PUSH1 0x32 PUSH1 0x4 MSTORE PUSH1 0x24 PUSH1 0x0 REVERT JUMPDEST PUSH1 0x20 MUL ADD MLOAD PUSH1 0x1 PUSH1 0x1 PUSH1 0xA0 SHL SUB AND DUP2 MSTORE PUSH1 0x20 ADD DUP13 PUSH1 0x0 PUSH1 0x12 DUP2 LT PUSH2 0x1F6C JUMPI PUSH4 0x4E487B71 PUSH1 0xE0 SHL PUSH1 0x0 MSTORE PUSH1 0x32 PUSH1 0x4 MSTORE PUSH1 0x24 PUSH1 0x0 REVERT JUMPDEST PUSH1 0x20 MUL ADD MLOAD DUP2 MSTORE PUSH1 0x20 ADD DUP13 PUSH1 0x1 PUSH1 0x12 DUP2 LT PUSH2 0x1F97 JUMPI PUSH4 0x4E487B71 PUSH1 0xE0 SHL PUSH1 0x0 MSTORE PUSH1 0x32 PUSH1 0x4 MSTORE PUSH1 0x24 PUSH1 0x0 REVERT JUMPDEST PUSH1 0x20 MUL ADD MLOAD DUP2 MSTORE PUSH1 0x20 ADD DUP13 PUSH1 0x2 PUSH1 0x12 DUP2 LT PUSH2 0x1FC2 JUMPI PUSH4 0x4E487B71 PUSH1 0xE0 SHL PUSH1 0x0 MSTORE PUSH1 0x32 PUSH1 0x4 MSTORE PUSH1 0x24 PUSH1 0x0 REVERT JUMPDEST PUSH1 0x20 MUL ADD MLOAD DUP2 MSTORE PUSH1 0x20 ADD DUP13 PUSH1 0x3 PUSH1 0x12 DUP2 LT PUSH2 0x1FED JUMPI PUSH4 0x4E487B71 PUSH1 0xE0 SHL PUSH1 0x0 MSTORE PUSH1 0x32 PUSH1 0x4 MSTORE PUSH1 0x24 PUSH1 0x0 REVERT JUMPDEST PUSH1 0x20 MUL ADD MLOAD DUP2 MSTORE PUSH1 0x20 ADD DUP14 PUSH1 0x3 PUSH1 0xE DUP2 LT PUSH2 0x2018 JUMPI PUSH4 0x4E487B71 PUSH1 0xE0 SHL PUSH1 0x0 MSTORE PUSH1 0x32 PUSH1 0x4 MSTORE PUSH1 0x24 PUSH1 0x0 REVERT JUMPDEST PUSH1 0x20 MUL ADD MLOAD PUSH1 0x1 PUSH1 0x1 PUSH1 0xA0 SHL SUB AND DUP2 MSTORE PUSH1 0x20 ADD DUP12 PUSH1 0x0 PUSH1 0x8 DUP2 LT PUSH2 0x204C JUMPI PUSH4 0x4E487B71 PUSH1 0xE0 SHL PUSH1 0x0 MSTORE PUSH1 0x32 PUSH1 0x4 MSTORE PUSH1 0x24 PUSH1 0x0 REVERT JUMPDEST PUSH1 0x20 MUL ADD MLOAD PUSH1 0xFF AND PUSH1 0x1 DUP2 GT ISZERO PUSH2 0x2073 JUMPI PUSH4 0x4E487B71 PUSH1 0xE0 SHL PUSH1 0x0 MSTORE PUSH1 0x21 PUSH1 0x4 MSTORE PUSH1 0x24 PUSH1 0x0 REVERT JUMPDEST PUSH1 0x1 DUP2 GT ISZERO PUSH2 0x2092 JUMPI PUSH4 0x4E487B71 PUSH1 0xE0 SHL PUSH1 0x0 MSTORE PUSH1 0x21 PUSH1 0x4 MSTORE PUSH1 0x24 PUSH1 0x0 REVERT JUMPDEST DUP2 MSTORE PUSH1 0x20 ADD DUP12 PUSH1 0x1 PUSH1 0x20 MUL ADD MLOAD PUSH1 0xFF AND PUSH1 0x1 DUP2 GT ISZERO PUSH2 0x20C1 JUMPI PUSH4 0x4E487B71 PUSH1 0xE0 SHL PUSH1 0x0 MSTORE PUSH1 0x21 PUSH1 0x4 MSTORE PUSH1 0x24 PUSH1 0x0 REVERT JUMPDEST PUSH1 0x1 DUP2 GT ISZERO PUSH2 0x20E0 JUMPI PUSH4 0x4E487B71 PUSH1 0xE0 SHL PUSH1 0x0 MSTORE PUSH1 0x21 PUSH1 0x4 MSTORE PUSH1 0x24 PUSH1 0x0 REVERT JUMPDEST DUP2 MSTORE PUSH1 0x20 ADD DUP12 PUSH1 0x2 PUSH1 0x20 MUL ADD MLOAD PUSH1 0xFF AND PUSH1 0x1 DUP2 GT ISZERO PUSH2 0x210F JUMPI PUSH4 0x4E487B71 PUSH1 0xE0 SHL PUSH1 0x0 MSTORE PUSH1 0x21 PUSH1 0x4 MSTORE PUSH1 0x24 PUSH1 0x0 REVERT JUMPDEST PUSH1 0x1 DUP2 GT ISZERO PUSH2 0x212E JUMPI PUSH4 0x4E487B71 PUSH1 0xE0 SHL PUSH1 0x0 MSTORE PUSH1 0x21 PUSH1 0x4 MSTORE PUSH1 0x24 PUSH1 0x0 REVERT JUMPDEST DUP2 MSTORE PUSH1 0x80 DUP15 ADD MLOAD PUSH1 0x1 PUSH1 0x1 PUSH1 0xA0 SHL SUB AND PUSH1 0x20 DUP3 ADD MSTORE PUSH1 0x40 ADD DUP12 PUSH1 0x3 PUSH1 0x20 MUL ADD MLOAD PUSH1 0xFF AND PUSH1 0x1 DUP2 GT ISZERO PUSH2 0x2170 JUMPI PUSH4 0x4E487B71 PUSH1 0xE0 SHL PUSH1 0x0 MSTORE PUSH1 0x21 PUSH1 0x4 MSTORE PUSH1 0x24 PUSH1 0x0 REVERT JUMPDEST PUSH1 0x1 DUP2 GT ISZERO PUSH2 0x218F JUMPI PUSH4 0x4E487B71 PUSH1 0xE0 SHL PUSH1 0x0 MSTORE PUSH1 0x21 PUSH1 0x4 MSTORE PUSH1 0x24 PUSH1 0x0 REVERT JUMPDEST DUP2 MSTORE PUSH1 0x20 DUP2 ADD DUP12 SWAP1 MSTORE PUSH1 0x40 DUP2 ADD DUP10 SWAP1 MSTORE PUSH1 0xA0 DUP1 DUP16 ADD MLOAD PUSH1 0x1 PUSH1 0x1 PUSH1 0xA0 SHL SUB AND PUSH1 0x60 DUP4 ADD MSTORE PUSH1 0x80 DUP3 ADD DUP9 SWAP1 MSTORE ADD DUP14 PUSH1 0x6 PUSH1 0x20 MUL ADD MLOAD PUSH1 0x1 PUSH1 0x1 PUSH1 0xA0 SHL SUB AND DUP2 MSTORE PUSH1 0x20 ADD DUP13 PUSH1 0x4 PUSH1 0x12 DUP2 LT PUSH2 0x21F2 JUMPI PUSH4 0x4E487B71 PUSH1 0xE0 SHL PUSH1 0x0 MSTORE PUSH1 0x32 PUSH1 0x4 MSTORE PUSH1 0x24 PUSH1 0x0 REVERT JUMPDEST PUSH1 0x20 MUL ADD MLOAD DUP2 MSTORE PUSH1 0x20 ADD DUP13 PUSH1 0x5 PUSH1 0x12 DUP2 LT PUSH2 0x221D JUMPI PUSH4 0x4E487B71 PUSH1 0xE0 SHL PUSH1 0x0 MSTORE PUSH1 0x32 PUSH1 0x4 MSTORE PUSH1 0x24 PUSH1 0x0 REVERT JUMPDEST PUSH1 0x20 MUL ADD MLOAD DUP2 MSTORE PUSH1 0x20 ADD DUP13 PUSH1 0x6 PUSH1 0x12 DUP2 LT PUSH2 0x2248 JUMPI PUSH4 0x4E487B71 PUSH1 0xE0 SHL PUSH1 0x0 MSTORE PUSH1 0x32 PUSH1 0x4 MSTORE PUSH1 0x24 PUSH1 0x0 REVERT JUMPDEST PUSH1 0x20 MUL ADD MLOAD DUP2 MSTORE PUSH1 0x20 ADD DUP13 PUSH1 0x7 PUSH1 0x12 DUP2 LT PUSH2 0x2273 JUMPI PUSH4 0x4E487B71 PUSH1 0xE0 SHL PUSH1 0x0 MSTORE PUSH1 0x32 PUSH1 0x4 MSTORE PUSH1 0x24 PUSH1 0x0 REVERT JUMPDEST PUSH1 0x20 MUL ADD MLOAD DUP2 MSTORE PUSH1 0x20 ADD DUP13 PUSH1 0x8 PUSH1 0x12 DUP2 LT PUSH2 0x229E JUMPI PUSH4 0x4E487B71 PUSH1 0xE0 SHL PUSH1 0x0 MSTORE PUSH1 0x32 PUSH1 0x4 MSTORE PUSH1 0x24 PUSH1 0x0 REVERT JUMPDEST PUSH1 0x20 SWAP1 DUP2 MUL SWAP2 SWAP1 SWAP2 ADD MLOAD SWAP1 SWAP2 MSTORE PUSH1 0x40 DUP1 MLOAD PUSH1 0x60 DUP2 ADD DUP3 MSTORE DUP7 MLOAD PUSH1 0xFF AND DUP2 MSTORE DUP6 MLOAD SWAP3 DUP2 ADD SWAP3 SWAP1 SWAP3 MSTORE DUP2 ADD DUP5 PUSH1 0x1 PUSH1 0x20 MUL ADD MLOAD SWAP1 MSTORE PUSH1 0x40 DUP1 MLOAD PUSH2 0x2E0 DUP2 ADD SWAP1 SWAP2 MSTORE DUP1 DUP16 PUSH1 0x7 PUSH1 0x20 MUL ADD MLOAD PUSH1 0x1 PUSH1 0x1 PUSH1 0xA0 SHL SUB AND DUP2 MSTORE PUSH1 0x20 ADD DUP16 PUSH1 0x8 PUSH1 0xE DUP2 LT PUSH2 0x2315 JUMPI PUSH4 0x4E487B71 PUSH1 0xE0 SHL PUSH1 0x0 MSTORE PUSH1 0x32 PUSH1 0x4 MSTORE PUSH1 0x24 PUSH1 0x0 REVERT JUMPDEST PUSH1 0x20 MUL ADD MLOAD PUSH1 0x1 PUSH1 0x1 PUSH1 0xA0 SHL SUB AND DUP2 MSTORE PUSH1 0x20 ADD DUP16 PUSH1 0x9 PUSH1 0xE DUP2 LT PUSH2 0x2349 JUMPI PUSH4 0x4E487B71 PUSH1 0xE0 SHL PUSH1 0x0 MSTORE PUSH1 0x32 PUSH1 0x4 MSTORE PUSH1 0x24 PUSH1 0x0 REVERT JUMPDEST PUSH1 0x20 MUL ADD MLOAD PUSH1 0x1 PUSH1 0x1 PUSH1 0xA0 SHL SUB AND DUP2 MSTORE PUSH1 0x20 ADD DUP15 PUSH1 0x9 PUSH1 0x12 DUP2 LT PUSH2 0x237D JUMPI PUSH4 0x4E487B71 PUSH1 0xE0 SHL PUSH1 0x0 MSTORE PUSH1 0x32 PUSH1 0x4 MSTORE PUSH1 0x24 PUSH1 0x0 REVERT JUMPDEST PUSH1 0x20 MUL ADD MLOAD DUP2 MSTORE PUSH1 0x20 ADD DUP15 PUSH1 0xA PUSH1 0x12 DUP2 LT PUSH2 0x23A8 JUMPI PUSH4 0x4E487B71 PUSH1 0xE0 SHL PUSH1 0x0 MSTORE PUSH1 0x32 PUSH1 0x4 MSTORE PUSH1 0x24 PUSH1 0x0 REVERT JUMPDEST PUSH1 0x20 MUL ADD MLOAD DUP2 MSTORE PUSH1 0x20 ADD DUP15 PUSH1 0xB PUSH1 0x12 DUP2 LT PUSH2 0x23D3 JUMPI PUSH4 0x4E487B71 PUSH1 0xE0 SHL PUSH1 0x0 MSTORE PUSH1 0x32 PUSH1 0x4 MSTORE PUSH1 0x24 PUSH1 0x0 REVERT JUMPDEST PUSH1 0x20 MUL ADD MLOAD DUP2 MSTORE PUSH1 0x20 ADD DUP15 PUSH1 0xC PUSH1 0x12 DUP2 LT PUSH2 0x23FE JUMPI PUSH4 0x4E487B71 PUSH1 0xE0 SHL PUSH1 0x0 MSTORE PUSH1 0x32 PUSH1 0x4 MSTORE PUSH1 0x24 PUSH1 0x0 REVERT JUMPDEST PUSH1 0x20 MUL ADD MLOAD DUP2 MSTORE PUSH1 0x20 ADD DUP16 PUSH1 0xA PUSH1 0xE DUP2 LT PUSH2 0x2429 JUMPI PUSH4 0x4E487B71 PUSH1 0xE0 SHL PUSH1 0x0 MSTORE PUSH1 0x32 PUSH1 0x4 MSTORE PUSH1 0x24 PUSH1 0x0 REVERT JUMPDEST PUSH1 0x20 MUL ADD MLOAD PUSH1 0x1 PUSH1 0x1 PUSH1 0xA0 SHL SUB AND DUP2 MSTORE PUSH1 0x20 ADD DUP14 PUSH1 0x4 PUSH1 0x8 DUP2 LT PUSH2 0x245D JUMPI PUSH4 0x4E487B71 PUSH1 0xE0 SHL PUSH1 0x0 MSTORE PUSH1 0x32 PUSH1 0x4 MSTORE PUSH1 0x24 PUSH1 0x0 REVERT JUMPDEST PUSH1 0x20 MUL ADD MLOAD PUSH1 0xFF AND PUSH1 0x1 DUP2 GT ISZERO PUSH2 0x2484 JUMPI PUSH4 0x4E487B71 PUSH1 0xE0 SHL PUSH1 0x0 MSTORE PUSH1 0x21 PUSH1 0x4 MSTORE PUSH1 0x24 PUSH1 0x0 REVERT JUMPDEST PUSH1 0x1 DUP2 GT ISZERO PUSH2 0x24A3 JUMPI PUSH4 0x4E487B71 PUSH1 0xE0 SHL PUSH1 0x0 MSTORE PUSH1 0x21 PUSH1 0x4 MSTORE PUSH1 0x24 PUSH1 0x0 REVERT JUMPDEST DUP2 MSTORE PUSH1 0x20 ADD DUP14 PUSH1 0x5 PUSH1 0x20 MUL ADD MLOAD PUSH1 0xFF AND PUSH1 0x1 DUP2 GT ISZERO PUSH2 0x24D2 JUMPI PUSH4 0x4E487B71 PUSH1 0xE0 SHL PUSH1 0x0 MSTORE PUSH1 0x21 PUSH1 0x4 MSTORE PUSH1 0x24 PUSH1 0x0 REVERT JUMPDEST PUSH1 0x1 DUP2 GT ISZERO PUSH2 0x24F1 JUMPI PUSH4 0x4E487B71 PUSH1 0xE0 SHL PUSH1 0x0 MSTORE PUSH1 0x21 PUSH1 0x4 MSTORE PUSH1 0x24 PUSH1 0x0 REVERT JUMPDEST DUP2 MSTORE PUSH1 0x20 ADD DUP14 PUSH1 0x6 PUSH1 0x20 MUL ADD MLOAD PUSH1 0xFF AND PUSH1 0x1 DUP2 GT ISZERO PUSH2 0x2520 JUMPI PUSH4 0x4E487B71 PUSH1 0xE0 SHL PUSH1 0x0 MSTORE PUSH1 0x21 PUSH1 0x4 MSTORE PUSH1 0x24 PUSH1 0x0 REVERT JUMPDEST PUSH1 0x1 DUP2 GT ISZERO PUSH2 0x253F JUMPI PUSH4 0x4E487B71 PUSH1 0xE0 SHL PUSH1 0x0 MSTORE PUSH1 0x21 PUSH1 0x4 MSTORE PUSH1 0x24 PUSH1 0x0 REVERT JUMPDEST DUP2 MSTORE PUSH1 0x20 ADD DUP16 PUSH1 0xB PUSH1 0x20 MUL ADD MLOAD PUSH1 0x1 PUSH1 0x1 PUSH1 0xA0 SHL SUB AND DUP2 MSTORE PUSH1 0x20 ADD DUP14 PUSH1 0x7 PUSH1 0x8 DUP2 LT PUSH2 0x257B JUMPI PUSH4 0x4E487B71 PUSH1 0xE0 SHL PUSH1 0x0 MSTORE PUSH1 0x32 PUSH1 0x4 MSTORE PUSH1 0x24 PUSH1 0x0 REVERT JUMPDEST PUSH1 0x20 MUL ADD MLOAD PUSH1 0xFF AND PUSH1 0x1 DUP2 GT ISZERO PUSH2 0x25A2 JUMPI PUSH4 0x4E487B71 PUSH1 0xE0 SHL PUSH1 0x0 MSTORE PUSH1 0x21 PUSH1 0x4 MSTORE PUSH1 0x24 PUSH1 0x0 REVERT JUMPDEST PUSH1 0x1 DUP2 GT ISZERO PUSH2 0x25C1 JUMPI PUSH4 0x4E487B71 PUSH1 0xE0 SHL PUSH1 0x0 MSTORE PUSH1 0x21 PUSH1 0x4 MSTORE PUSH1 0x24 PUSH1 0x0 REVERT JUMPDEST DUP2 MSTORE PUSH1 0x20 DUP2 ADD DUP13 SWAP1 MSTORE PUSH1 0x40 DUP2 ADD DUP11 SWAP1 MSTORE PUSH1 0x60 ADD DUP16 PUSH1 0xC PUSH1 0x20 MUL ADD MLOAD PUSH1 0x1 PUSH1 0x1 PUSH1 0xA0 SHL SUB AND DUP2 MSTORE PUSH1 0x20 ADD DUP8 DUP2 MSTORE PUSH1 0x20 ADD DUP16 PUSH1 0xD PUSH1 0xE DUP2 LT PUSH2 0x2611 JUMPI PUSH4 0x4E487B71 PUSH1 0xE0 SHL PUSH1 0x0 MSTORE PUSH1 0x32 PUSH1 0x4 MSTORE PUSH1 0x24 PUSH1 0x0 REVERT JUMPDEST PUSH1 0x20 MUL ADD MLOAD PUSH1 0x1 PUSH1 0x1 PUSH1 0xA0 SHL SUB AND DUP2 MSTORE PUSH1 0x20 ADD DUP15 PUSH1 0xD PUSH1 0x12 DUP2 LT PUSH2 0x2645 JUMPI PUSH4 0x4E487B71 PUSH1 0xE0 SHL PUSH1 0x0 MSTORE PUSH1 0x32 PUSH1 0x4 MSTORE PUSH1 0x24 PUSH1 0x0 REVERT JUMPDEST PUSH1 0x20 MUL ADD MLOAD DUP2 MSTORE PUSH1 0x20 ADD DUP15 PUSH1 0xE PUSH1 0x12 DUP2 LT PUSH2 0x2670 JUMPI PUSH4 0x4E487B71 PUSH1 0xE0 SHL PUSH1 0x0 MSTORE PUSH1 0x32 PUSH1 0x4 MSTORE PUSH1 0x24 PUSH1 0x0 REVERT JUMPDEST PUSH1 0x20 MUL ADD MLOAD DUP2 MSTORE PUSH1 0x20 ADD DUP15 PUSH1 0xF PUSH1 0x12 DUP2 LT PUSH2 0x269B JUMPI PUSH4 0x4E487B71 PUSH1 0xE0 SHL PUSH1 0x0 MSTORE PUSH1 0x32 PUSH1 0x4 MSTORE PUSH1 0x24 PUSH1 0x0 REVERT JUMPDEST PUSH1 0x20 MUL ADD MLOAD DUP2 MSTORE PUSH1 0x20 ADD DUP15 PUSH1 0x10 PUSH1 0x12 DUP2 LT PUSH2 0x26C6 JUMPI PUSH4 0x4E487B71 PUSH1 0xE0 SHL PUSH1 0x0 MSTORE PUSH1 0x32 PUSH1 0x4 MSTORE PUSH1 0x24 PUSH1 0x0 REVERT JUMPDEST PUSH1 0x20 MUL ADD MLOAD DUP2 MSTORE PUSH1 0x20 ADD DUP15 PUSH1 0x11 PUSH1 0x12 DUP2 LT PUSH2 0x26F1 JUMPI PUSH4 0x4E487B71 PUSH1 0xE0 SHL PUSH1 0x0 MSTORE PUSH1 0x32 PUSH1 0x4 MSTORE PUSH1 0x24 PUSH1 0x0 REVERT JUMPDEST PUSH1 0x20 MUL ADD MLOAD SWAP1 MSTORE PUSH1 0x40 DUP1 MLOAD PUSH1 0x60 DUP2 ADD SWAP1 SWAP2 MSTORE DUP1 DUP8 PUSH1 0x1 PUSH1 0x20 MUL ADD MLOAD PUSH1 0xFF AND DUP2 MSTORE PUSH1 0x20 ADD DUP7 PUSH1 0x2 PUSH1 0x5 DUP2 LT PUSH2 0x2735 JUMPI PUSH4 0x4E487B71 PUSH1 0xE0 SHL PUSH1 0x0 MSTORE PUSH1 0x32 PUSH1 0x4 MSTORE PUSH1 0x24 PUSH1 0x0 REVERT JUMPDEST PUSH1 0x20 MUL ADD MLOAD DUP2 MSTORE PUSH1 0x20 ADD DUP7 PUSH1 0x3 PUSH1 0x5 DUP2 LT PUSH2 0x2760 JUMPI PUSH4 0x4E487B71 PUSH1 0xE0 SHL PUSH1 0x0 MSTORE PUSH1 0x32 PUSH1 0x4 MSTORE PUSH1 0x24 PUSH1 0x0 REVERT JUMPDEST PUSH1 0x20 MUL ADD MLOAD SWAP1 MSTORE PUSH1 0x80 DUP7 ADD MLOAD PUSH2 0x3AAF JUMP JUMPDEST PUSH1 0x0 DUP1 PUSH1 0x40 MLOAD DUP1 PUSH2 0x2E0 ADD PUSH1 0x40 MSTORE DUP1 DUP13 PUSH1 0x0 PUSH1 0x7 DUP2 LT PUSH2 0x27A1 JUMPI PUSH4 0x4E487B71 PUSH1 0xE0 SHL PUSH1 0x0 MSTORE PUSH1 0x32 PUSH1 0x4 MSTORE PUSH1 0x24 PUSH1 0x0 REVERT JUMPDEST PUSH1 0x20 MUL ADD MLOAD PUSH1 0x1 PUSH1 0x1 PUSH1 0xA0 SHL SUB AND DUP2 MSTORE PUSH1 0x20 ADD DUP13 PUSH1 0x1 PUSH1 0x7 DUP2 LT PUSH2 0x27D5 JUMPI PUSH4 0x4E487B71 PUSH1 0xE0 SHL PUSH1 0x0 MSTORE PUSH1 0x32 PUSH1 0x4 MSTORE PUSH1 0x24 PUSH1 0x0 REVERT JUMPDEST PUSH1 0x20 MUL ADD MLOAD PUSH1 0x1 PUSH1 0x1 PUSH1 0xA0 SHL SUB AND DUP2 MSTORE PUSH1 0x20 ADD DUP13 PUSH1 0x2 PUSH1 0x7 DUP2 LT PUSH2 0x2809 JUMPI PUSH4 0x4E487B71 PUSH1 0xE0 SHL PUSH1 0x0 MSTORE PUSH1 0x32 PUSH1 0x4 MSTORE PUSH1 0x24 PUSH1 0x0 REVERT JUMPDEST PUSH1 0x20 MUL ADD MLOAD PUSH1 0x1 PUSH1 0x1 PUSH1 0xA0 SHL SUB AND DUP2 MSTORE PUSH1 0x20 ADD DUP12 PUSH1 0x0 PUSH1 0x9 DUP2 LT PUSH2 0x283D JUMPI PUSH4 0x4E487B71 PUSH1 0xE0 SHL PUSH1 0x0 MSTORE PUSH1 0x32 PUSH1 0x4 MSTORE PUSH1 0x24 PUSH1 0x0 REVERT JUMPDEST PUSH1 0x20 MUL ADD MLOAD DUP2 MSTORE PUSH1 0x20 ADD DUP12 PUSH1 0x1 PUSH1 0x9 DUP2 LT PUSH2 0x2868 JUMPI PUSH4 0x4E487B71 PUSH1 0xE0 SHL PUSH1 0x0 MSTORE PUSH1 0x32 PUSH1 0x4 MSTORE PUSH1 0x24 PUSH1 0x0 REVERT JUMPDEST PUSH1 0x20 MUL ADD MLOAD DUP2 MSTORE PUSH1 0x20 ADD DUP12 PUSH1 0x2 PUSH1 0x9 DUP2 LT PUSH2 0x2893 JUMPI PUSH4 0x4E487B71 PUSH1 0xE0 SHL PUSH1 0x0 MSTORE PUSH1 0x32 PUSH1 0x4 MSTORE PUSH1 0x24 PUSH1 0x0 REVERT JUMPDEST PUSH1 0x20 MUL ADD MLOAD DUP2 MSTORE PUSH1 0x20 ADD DUP12 PUSH1 0x3 PUSH1 0x9 DUP2 LT PUSH2 0x28BE JUMPI PUSH4 0x4E487B71 PUSH1 0xE0 SHL PUSH1 0x0 MSTORE PUSH1 0x32 PUSH1 0x4 MSTORE PUSH1 0x24 PUSH1 0x0 REVERT JUMPDEST PUSH1 0x20 MUL ADD MLOAD DUP2 MSTORE PUSH1 0x20 ADD DUP13 PUSH1 0x3 PUSH1 0x7 DUP2 LT PUSH2 0x28E9 JUMPI PUSH4 0x4E487B71 PUSH1 0xE0 SHL PUSH1 0x0 MSTORE PUSH1 0x32 PUSH1 0x4 MSTORE PUSH1 0x24 PUSH1 0x0 REVERT JUMPDEST PUSH1 0x20 MUL ADD MLOAD PUSH1 0x1 PUSH1 0x1 PUSH1 0xA0 SHL SUB AND DUP2 MSTORE PUSH1 0x20 ADD DUP11 PUSH1 0x1 DUP2 GT ISZERO PUSH2 0x291C JUMPI PUSH4 0x4E487B71 PUSH1 0xE0 SHL PUSH1 0x0 MSTORE PUSH1 0x21 PUSH1 0x4 MSTORE PUSH1 0x24 PUSH1 0x0 REVERT JUMPDEST DUP2 MSTORE PUSH1 0x20 ADD DUP10 PUSH1 0x1 DUP2 GT ISZERO PUSH2 0x2941 JUMPI PUSH4 0x4E487B71 PUSH1 0xE0 SHL PUSH1 0x0 MSTORE PUSH1 0x21 PUSH1 0x4 MSTORE PUSH1 0x24 PUSH1 0x0 REVERT JUMPDEST DUP2 MSTORE PUSH1 0x20 ADD DUP9 PUSH1 0x1 DUP2 GT ISZERO PUSH2 0x2966 JUMPI PUSH4 0x4E487B71 PUSH1 0xE0 SHL PUSH1 0x0 MSTORE PUSH1 0x21 PUSH1 0x4 MSTORE PUSH1 0x24 PUSH1 0x0 REVERT JUMPDEST DUP2 MSTORE PUSH1 0x80 DUP14 ADD MLOAD PUSH1 0x1 PUSH1 0x1 PUSH1 0xA0 SHL SUB AND PUSH1 0x20 DUP3 ADD MSTORE PUSH1 0x40 ADD DUP8 PUSH1 0x1 DUP2 GT ISZERO PUSH2 0x299E JUMPI PUSH4 0x4E487B71 PUSH1 0xE0 SHL PUSH1 0x0 MSTORE PUSH1 0x21 PUSH1 0x4 MSTORE PUSH1 0x24 PUSH1 0x0 REVERT JUMPDEST DUP2 MSTORE PUSH1 0x20 DUP2 ADD DUP8 SWAP1 MSTORE PUSH1 0x40 DUP2 ADD DUP7 SWAP1 MSTORE PUSH1 0xA0 DUP1 DUP15 ADD MLOAD PUSH1 0x1 PUSH1 0x1 PUSH1 0xA0 SHL SUB AND PUSH1 0x60 DUP4 ADD MSTORE PUSH1 0x80 DUP3 ADD DUP7 SWAP1 MSTORE ADD DUP13 PUSH1 0x6 PUSH1 0x20 MUL ADD MLOAD PUSH1 0x1 PUSH1 0x1 PUSH1 0xA0 SHL SUB AND DUP2 MSTORE PUSH1 0x20 ADD DUP12 PUSH1 0x4 PUSH1 0x9 DUP2 LT PUSH2 0x2A01 JUMPI PUSH4 0x4E487B71 PUSH1 0xE0 SHL PUSH1 0x0 MSTORE PUSH1 0x32 PUSH1 0x4 MSTORE PUSH1 0x24 PUSH1 0x0 REVERT JUMPDEST PUSH1 0x20 MUL ADD MLOAD DUP2 MSTORE PUSH1 0x20 ADD DUP12 PUSH1 0x5 PUSH1 0x9 DUP2 LT PUSH2 0x2A2C JUMPI PUSH4 0x4E487B71 PUSH1 0xE0 SHL PUSH1 0x0 MSTORE PUSH1 0x32 PUSH1 0x4 MSTORE PUSH1 0x24 PUSH1 0x0 REVERT JUMPDEST PUSH1 0x20 MUL ADD MLOAD DUP2 MSTORE PUSH1 0x20 ADD DUP12 PUSH1 0x6 PUSH1 0x9 DUP2 LT PUSH2 0x2A57 JUMPI PUSH4 0x4E487B71 PUSH1 0xE0 SHL PUSH1 0x0 MSTORE PUSH1 0x32 PUSH1 0x4 MSTORE PUSH1 0x24 PUSH1 0x0 REVERT JUMPDEST PUSH1 0x20 MUL ADD MLOAD DUP2 MSTORE PUSH1 0x20 ADD DUP12 PUSH1 0x7 PUSH1 0x9 DUP2 LT PUSH2 0x2A82 JUMPI PUSH4 0x4E487B71 PUSH1 0xE0 SHL PUSH1 0x0 MSTORE PUSH1 0x32 PUSH1 0x4 MSTORE PUSH1 0x24 PUSH1 0x0 REVERT JUMPDEST PUSH1 0x20 MUL ADD MLOAD DUP2 MSTORE PUSH1 0x20 ADD DUP12 PUSH1 0x8 PUSH1 0x9 DUP2 LT PUSH2 0x2AAD JUMPI PUSH4 0x4E487B71 PUSH1 0xE0 SHL PUSH1 0x0 MSTORE PUSH1 0x32 PUSH1 0x4 MSTORE PUSH1 0x24 PUSH1 0x0 REVERT JUMPDEST PUSH1 0x20 MUL ADD MLOAD SWAP1 MSTORE SWAP1 POP PUSH2 0x2ABF DUP2 PUSH2 0x4265 JUMP JUMPDEST SWAP12 SWAP11 POP POP POP POP POP POP POP POP POP POP POP JUMP JUMPDEST PUSH1 0x0 DUP1 PUSH1 0x40 MLOAD DUP1 PUSH2 0x2E0 ADD PUSH1 0x40 MSTORE DUP1 DUP13 PUSH1 0x0 PUSH1 0xE DUP2 LT PUSH2 0x2AFE JUMPI PUSH4 0x4E487B71 PUSH1 0xE0 SHL PUSH1 0x0 MSTORE PUSH1 0x32 PUSH1 0x4 MSTORE PUSH1 0x24 PUSH1 0x0 REVERT JUMPDEST PUSH1 0x20 MUL ADD MLOAD PUSH1 0x1 PUSH1 0x1 PUSH1 0xA0 SHL SUB AND DUP2 MSTORE PUSH1 0x20 ADD DUP13 PUSH1 0x1 PUSH1 0xE DUP2 LT PUSH2 0x2B32 JUMPI PUSH4 0x4E487B71 PUSH1 0xE0 SHL PUSH1 0x0 MSTORE PUSH1 0x32 PUSH1 0x4 MSTORE PUSH1 0x24 PUSH1 0x0 REVERT JUMPDEST PUSH1 0x20 MUL ADD MLOAD PUSH1 0x1 PUSH1 0x1 PUSH1 0xA0 SHL SUB AND DUP2 MSTORE PUSH1 0x20 ADD DUP13 PUSH1 0x2 PUSH1 0xE DUP2 LT PUSH2 0x2B66 JUMPI PUSH4 0x4E487B71 PUSH1 0xE0 SHL PUSH1 0x0 MSTORE PUSH1 0x32 PUSH1 0x4 MSTORE PUSH1 0x24 PUSH1 0x0 REVERT JUMPDEST PUSH1 0x20 MUL ADD MLOAD PUSH1 0x1 PUSH1 0x1 PUSH1 0xA0 SHL SUB AND DUP2 MSTORE PUSH1 0x20 ADD DUP12 PUSH1 0x0 PUSH1 0x12 DUP2 LT PUSH2 0x2B9A JUMPI PUSH4 0x4E487B71 PUSH1 0xE0 SHL PUSH1 0x0 MSTORE PUSH1 0x32 PUSH1 0x4 MSTORE PUSH1 0x24 PUSH1 0x0 REVERT JUMPDEST PUSH1 0x20 MUL ADD MLOAD DUP2 MSTORE PUSH1 0x20 ADD DUP12 PUSH1 0x1 PUSH1 0x12 DUP2 LT PUSH2 0x2BC5 JUMPI PUSH4 0x4E487B71 PUSH1 0xE0 SHL PUSH1 0x0 MSTORE PUSH1 0x32 PUSH1 0x4 MSTORE PUSH1 0x24 PUSH1 0x0 REVERT JUMPDEST PUSH1 0x20 MUL ADD MLOAD DUP2 MSTORE PUSH1 0x20 ADD DUP12 PUSH1 0x2 PUSH1 0x12 DUP2 LT PUSH2 0x2BF0 JUMPI PUSH4 0x4E487B71 PUSH1 0xE0 SHL PUSH1 0x0 MSTORE PUSH1 0x32 PUSH1 0x4 MSTORE PUSH1 0x24 PUSH1 0x0 REVERT JUMPDEST PUSH1 0x20 MUL ADD MLOAD DUP2 MSTORE PUSH1 0x20 ADD DUP12 PUSH1 0x3 PUSH1 0x12 DUP2 LT PUSH2 0x2C1B JUMPI PUSH4 0x4E487B71 PUSH1 0xE0 SHL PUSH1 0x0 MSTORE PUSH1 0x32 PUSH1 0x4 MSTORE PUSH1 0x24 PUSH1 0x0 REVERT JUMPDEST PUSH1 0x20 MUL ADD MLOAD DUP2 MSTORE PUSH1 0x20 ADD DUP13 PUSH1 0x3 PUSH1 0xE DUP2 LT PUSH2 0x2C46 JUMPI PUSH4 0x4E487B71 PUSH1 0xE0 SHL PUSH1 0x0 MSTORE PUSH1 0x32 PUSH1 0x4 MSTORE PUSH1 0x24 PUSH1 0x0 REVERT JUMPDEST PUSH1 0x20 MUL ADD MLOAD PUSH1 0x1 PUSH1 0x1 PUSH1 0xA0 SHL SUB AND DUP2 MSTORE PUSH1 0x20 ADD DUP11 PUSH1 0x0 PUSH1 0x8 DUP2 LT PUSH2 0x2C7A JUMPI PUSH4 0x4E487B71 PUSH1 0xE0 SHL PUSH1 0x0 MSTORE PUSH1 0x32 PUSH1 0x4 MSTORE PUSH1 0x24 PUSH1 0x0 REVERT JUMPDEST PUSH1 0x20 MUL ADD MLOAD PUSH1 0xFF AND PUSH1 0x1 DUP2 GT ISZERO PUSH2 0x2CA1 JUMPI PUSH4 0x4E487B71 PUSH1 0xE0 SHL PUSH1 0x0 MSTORE PUSH1 0x21 PUSH1 0x4 MSTORE PUSH1 0x24 PUSH1 0x0 REVERT JUMPDEST PUSH1 0x1 DUP2 GT ISZERO PUSH2 0x2CC0 JUMPI PUSH4 0x4E487B71 PUSH1 0xE0 SHL PUSH1 0x0 MSTORE PUSH1 0x21 PUSH1 0x4 MSTORE PUSH1 0x24 PUSH1 0x0 REVERT JUMPDEST DUP2 MSTORE PUSH1 0x20 ADD DUP11 PUSH1 0x1 PUSH1 0x20 MUL ADD MLOAD PUSH1 0xFF AND PUSH1 0x1 DUP2 GT ISZERO PUSH2 0x2CEF JUMPI PUSH4 0x4E487B71 PUSH1 0xE0 SHL PUSH1 0x0 MSTORE PUSH1 0x21 PUSH1 0x4 MSTORE PUSH1 0x24 PUSH1 0x0 REVERT JUMPDEST PUSH1 0x1 DUP2 GT ISZERO PUSH2 0x2D0E JUMPI PUSH4 0x4E487B71 PUSH1 0xE0 SHL PUSH1 0x0 MSTORE PUSH1 0x21 PUSH1 0x4 MSTORE PUSH1 0x24 PUSH1 0x0 REVERT JUMPDEST DUP2 MSTORE PUSH1 0x20 ADD DUP11 PUSH1 0x2 PUSH1 0x20 MUL ADD MLOAD PUSH1 0xFF AND PUSH1 0x1 DUP2 GT ISZERO PUSH2 0x2D3D JUMPI PUSH4 0x4E487B71 PUSH1 0xE0 SHL PUSH1 0x0 MSTORE PUSH1 0x21 PUSH1 0x4 MSTORE PUSH1 0x24 PUSH1 0x0 REVERT JUMPDEST PUSH1 0x1 DUP2 GT ISZERO PUSH2 0x2D5C JUMPI PUSH4 0x4E487B71 PUSH1 0xE0 SHL PUSH1 0x0 MSTORE PUSH1 0x21 PUSH1 0x4 MSTORE PUSH1 0x24 PUSH1 0x0 REVERT JUMPDEST DUP2 MSTORE PUSH1 0x80 DUP14 ADD MLOAD PUSH1 0x1 PUSH1 0x1 PUSH1 0xA0 SHL SUB AND PUSH1 0x20 DUP3 ADD MSTORE PUSH1 0x40 ADD DUP11 PUSH1 0x3 PUSH1 0x20 MUL ADD MLOAD PUSH1 0xFF AND PUSH1 0x1 DUP2 GT ISZERO PUSH2 0x2D9E JUMPI PUSH4 0x4E487B71 PUSH1 0xE0 SHL PUSH1 0x0 MSTORE PUSH1 0x21 PUSH1 0x4 MSTORE PUSH1 0x24 PUSH1 0x0 REVERT JUMPDEST PUSH1 0x1 DUP2 GT ISZERO PUSH2 0x2DBD JUMPI PUSH4 0x4E487B71 PUSH1 0xE0 SHL PUSH1 0x0 MSTORE PUSH1 0x21 PUSH1 0x4 MSTORE PUSH1 0x24 PUSH1 0x0 REVERT JUMPDEST DUP2 MSTORE PUSH1 0x20 DUP2 ADD DUP11 SWAP1 MSTORE PUSH1 0x40 DUP2 ADD DUP9 SWAP1 MSTORE PUSH1 0xA0 DUP1 DUP15 ADD MLOAD PUSH1 0x1 PUSH1 0x1 PUSH1 0xA0 SHL SUB AND PUSH1 0x60 DUP4 ADD MSTORE PUSH1 0x80 DUP3 ADD DUP8 SWAP1 MSTORE ADD DUP13 PUSH1 0x6 PUSH1 0x20 MUL ADD MLOAD PUSH1 0x1 PUSH1 0x1 PUSH1 0xA0 SHL SUB AND DUP2 MSTORE PUSH1 0x20 ADD DUP12 PUSH1 0x4 PUSH1 0x12 DUP2 LT PUSH2 0x2E20 JUMPI PUSH4 0x4E487B71 PUSH1 0xE0 SHL PUSH1 0x0 MSTORE PUSH1 0x32 PUSH1 0x4 MSTORE PUSH1 0x24 PUSH1 0x0 REVERT JUMPDEST PUSH1 0x20 MUL ADD MLOAD DUP2 MSTORE PUSH1 0x20 ADD DUP12 PUSH1 0x5 PUSH1 0x12 DUP2 LT PUSH2 0x2E4B JUMPI PUSH4 0x4E487B71 PUSH1 0xE0 SHL PUSH1 0x0 MSTORE PUSH1 0x32 PUSH1 0x4 MSTORE PUSH1 0x24 PUSH1 0x0 REVERT JUMPDEST PUSH1 0x20 MUL ADD MLOAD DUP2 MSTORE PUSH1 0x20 ADD DUP12 PUSH1 0x6 PUSH1 0x12 DUP2 LT PUSH2 0x2E76 JUMPI PUSH4 0x4E487B71 PUSH1 0xE0 SHL PUSH1 0x0 MSTORE PUSH1 0x32 PUSH1 0x4 MSTORE PUSH1 0x24 PUSH1 0x0 REVERT JUMPDEST PUSH1 0x20 MUL ADD MLOAD DUP2 MSTORE PUSH1 0x20 ADD DUP12 PUSH1 0x7 PUSH1 0x12 DUP2 LT PUSH2 0x2EA1 JUMPI PUSH4 0x4E487B71 PUSH1 0xE0 SHL PUSH1 0x0 MSTORE PUSH1 0x32 PUSH1 0x4 MSTORE PUSH1 0x24 PUSH1 0x0 REVERT JUMPDEST PUSH1 0x20 MUL ADD MLOAD DUP2 MSTORE PUSH1 0x20 ADD DUP12 PUSH1 0x8 PUSH1 0x12 DUP2 LT PUSH2 0x2ECC JUMPI PUSH4 0x4E487B71 PUSH1 0xE0 SHL PUSH1 0x0 MSTORE PUSH1 0x32 PUSH1 0x4 MSTORE PUSH1 0x24 PUSH1 0x0 REVERT JUMPDEST PUSH1 0x20 MUL ADD MLOAD DUP2 MSTORE POP SWAP1 POP PUSH1 0x0 PUSH1 0x40 MLOAD DUP1 PUSH2 0x2E0 ADD PUSH1 0x40 MSTORE DUP1 DUP14 PUSH1 0x7 PUSH1 0xE DUP2 LT PUSH2 0x2F05 JUMPI PUSH4 0x4E487B71 PUSH1 0xE0 SHL PUSH1 0x0 MSTORE PUSH1 0x32 PUSH1 0x4 MSTORE PUSH1 0x24 PUSH1 0x0 REVERT JUMPDEST PUSH1 0x20 MUL ADD MLOAD PUSH1 0x1 PUSH1 0x1 PUSH1 0xA0 SHL SUB AND DUP2 MSTORE PUSH1 0x20 ADD DUP14 PUSH1 0x8 PUSH1 0xE DUP2 LT PUSH2 0x2F39 JUMPI PUSH4 0x4E487B71 PUSH1 0xE0 SHL PUSH1 0x0 MSTORE PUSH1 0x32 PUSH1 0x4 MSTORE PUSH1 0x24 PUSH1 0x0 REVERT JUMPDEST PUSH1 0x20 MUL ADD MLOAD PUSH1 0x1 PUSH1 0x1 PUSH1 0xA0 SHL SUB AND DUP2 MSTORE PUSH1 0x20 ADD DUP14 PUSH1 0x9 PUSH1 0xE DUP2 LT PUSH2 0x2F6D JUMPI PUSH4 0x4E487B71 PUSH1 0xE0 SHL PUSH1 0x0 MSTORE PUSH1 0x32 PUSH1 0x4 MSTORE PUSH1 0x24 PUSH1 0x0 REVERT JUMPDEST PUSH1 0x20 MUL ADD MLOAD PUSH1 0x1 PUSH1 0x1 PUSH1 0xA0 SHL SUB AND DUP2 MSTORE PUSH1 0x20 ADD DUP13 PUSH1 0x9 PUSH1 0x12 DUP2 LT PUSH2 0x2FA1 JUMPI PUSH4 0x4E487B71 PUSH1 0xE0 SHL PUSH1 0x0 MSTORE PUSH1 0x32 PUSH1 0x4 MSTORE PUSH1 0x24 PUSH1 0x0 REVERT JUMPDEST PUSH1 0x20 MUL ADD MLOAD DUP2 MSTORE PUSH1 0x20 ADD DUP13 PUSH1 0xA PUSH1 0x12 DUP2 LT PUSH2 0x2FCC JUMPI PUSH4 0x4E487B71 PUSH1 0xE0 SHL PUSH1 0x0 MSTORE PUSH1 0x32 PUSH1 0x4 MSTORE PUSH1 0x24 PUSH1 0x0 REVERT JUMPDEST PUSH1 0x20 MUL ADD MLOAD DUP2 MSTORE PUSH1 0x20 ADD DUP13 PUSH1 0xB PUSH1 0x12 DUP2 LT PUSH2 0x2FF7 JUMPI PUSH4 0x4E487B71 PUSH1 0xE0 SHL PUSH1 0x0 MSTORE PUSH1 0x32 PUSH1 0x4 MSTORE PUSH1 0x24 PUSH1 0x0 REVERT JUMPDEST PUSH1 0x20 MUL ADD MLOAD DUP2 MSTORE PUSH1 0x20 ADD DUP13 PUSH1 0xC PUSH1 0x12 DUP2 LT PUSH2 0x3022 JUMPI PUSH4 0x4E487B71 PUSH1 0xE0 SHL PUSH1 0x0 MSTORE PUSH1 0x32 PUSH1 0x4 MSTORE PUSH1 0x24 PUSH1 0x0 REVERT JUMPDEST PUSH1 0x20 MUL ADD MLOAD DUP2 MSTORE PUSH1 0x20 ADD DUP14 PUSH1 0xA PUSH1 0xE DUP2 LT PUSH2 0x304D JUMPI PUSH4 0x4E487B71 PUSH1 0xE0 SHL PUSH1 0x0 MSTORE PUSH1 0x32 PUSH1 0x4 MSTORE PUSH1 0x24 PUSH1 0x0 REVERT JUMPDEST PUSH1 0x20 MUL ADD MLOAD PUSH1 0x1 PUSH1 0x1 PUSH1 0xA0 SHL SUB AND DUP2 MSTORE PUSH1 0x20 ADD DUP12 PUSH1 0x4 PUSH1 0x8 DUP2 LT PUSH2 0x3081 JUMPI PUSH4 0x4E487B71 PUSH1 0xE0 SHL PUSH1 0x0 MSTORE PUSH1 0x32 PUSH1 0x4 MSTORE PUSH1 0x24 PUSH1 0x0 REVERT JUMPDEST PUSH1 0x20 MUL ADD MLOAD PUSH1 0xFF AND PUSH1 0x1 DUP2 GT ISZERO PUSH2 0x30A8 JUMPI PUSH4 0x4E487B71 PUSH1 0xE0 SHL PUSH1 0x0 MSTORE PUSH1 0x21 PUSH1 0x4 MSTORE PUSH1 0x24 PUSH1 0x0 REVERT JUMPDEST PUSH1 0x1 DUP2 GT ISZERO PUSH2 0x30C7 JUMPI PUSH4 0x4E487B71 PUSH1 0xE0 SHL PUSH1 0x0 MSTORE PUSH1 0x21 PUSH1 0x4 MSTORE PUSH1 0x24 PUSH1 0x0 REVERT JUMPDEST DUP2 MSTORE PUSH1 0x20 ADD DUP12 PUSH1 0x5 PUSH1 0x20 MUL ADD MLOAD PUSH1 0xFF AND PUSH1 0x1 DUP2 GT ISZERO PUSH2 0x30F6 JUMPI PUSH4 0x4E487B71 PUSH1 0xE0 SHL PUSH1 0x0 MSTORE PUSH1 0x21 PUSH1 0x4 MSTORE PUSH1 0x24 PUSH1 0x0 REVERT JUMPDEST PUSH1 0x1 DUP2 GT ISZERO PUSH2 0x3115 JUMPI PUSH4 0x4E487B71 PUSH1 0xE0 SHL PUSH1 0x0 MSTORE PUSH1 0x21 PUSH1 0x4 MSTORE PUSH1 0x24 PUSH1 0x0 REVERT JUMPDEST DUP2 MSTORE PUSH1 0x20 ADD DUP12 PUSH1 0x6 PUSH1 0x20 MUL ADD MLOAD PUSH1 0xFF AND PUSH1 0x1 DUP2 GT ISZERO PUSH2 0x3144 JUMPI PUSH4 0x4E487B71 PUSH1 0xE0 SHL PUSH1 0x0 MSTORE PUSH1 0x21 PUSH1 0x4 MSTORE PUSH1 0x24 PUSH1 0x0 REVERT JUMPDEST PUSH1 0x1 DUP2 GT ISZERO PUSH2 0x3163 JUMPI PUSH4 0x4E487B71 PUSH1 0xE0 SHL PUSH1 0x0 MSTORE PUSH1 0x21 PUSH1 0x4 MSTORE PUSH1 0x24 PUSH1 0x0 REVERT JUMPDEST DUP2 MSTORE PUSH2 0x160 DUP15 ADD MLOAD PUSH1 0x1 PUSH1 0x1 PUSH1 0xA0 SHL SUB AND PUSH1 0x20 DUP3 ADD MSTORE PUSH1 0x40 ADD DUP12 PUSH1 0x7 PUSH1 0x20 MUL ADD MLOAD PUSH1 0xFF AND PUSH1 0x1 DUP2 GT ISZERO PUSH2 0x31A6 JUMPI PUSH4 0x4E487B71 PUSH1 0xE0 SHL PUSH1 0x0 MSTORE PUSH1 0x21 PUSH1 0x4 MSTORE PUSH1 0x24 PUSH1 0x0 REVERT JUMPDEST PUSH1 0x1 DUP2 GT ISZERO PUSH2 0x31C5 JUMPI PUSH4 0x4E487B71 PUSH1 0xE0 SHL PUSH1 0x0 MSTORE PUSH1 0x21 PUSH1 0x4 MSTORE PUSH1 0x24 PUSH1 0x0 REVERT JUMPDEST DUP2 MSTORE PUSH1 0x20 DUP2 ADD DUP11 SWAP1 MSTORE PUSH1 0x40 DUP2 ADD DUP9 SWAP1 MSTORE PUSH2 0x180 DUP15 ADD MLOAD PUSH1 0x1 PUSH1 0x1 PUSH1 0xA0 SHL SUB SWAP1 DUP2 AND PUSH1 0x60 DUP4 ADD MSTORE PUSH1 0x80 DUP3 ADD DUP8 SWAP1 MSTORE PUSH2 0x1A0 DUP16 ADD MLOAD AND PUSH1 0xA0 DUP3 ADD MSTORE PUSH1 0xC0 ADD DUP13 PUSH1 0xD PUSH1 0x20 MUL ADD MLOAD DUP2 MSTORE PUSH1 0x20 ADD DUP13 PUSH1 0xE PUSH1 0x12 DUP2 LT PUSH2 0x322F JUMPI PUSH4 0x4E487B71 PUSH1 0xE0 SHL PUSH1 0x0 MSTORE PUSH1 0x32 PUSH1 0x4 MSTORE PUSH1 0x24 PUSH1 0x0 REVERT JUMPDEST PUSH1 0x20 MUL ADD MLOAD DUP2 MSTORE PUSH1 0x20 ADD DUP13 PUSH1 0xF PUSH1 0x12 DUP2 LT PUSH2 0x325A JUMPI PUSH4 0x4E487B71 PUSH1 0xE0 SHL PUSH1 0x0 MSTORE PUSH1 0x32 PUSH1 0x4 MSTORE PUSH1 0x24 PUSH1 0x0 REVERT JUMPDEST PUSH1 0x20 MUL ADD MLOAD DUP2 MSTORE PUSH1 0x20 ADD DUP13 PUSH1 0x10 PUSH1 0x12 DUP2 LT PUSH2 0x3285 JUMPI PUSH4 0x4E487B71 PUSH1 0xE0 SHL PUSH1 0x0 MSTORE PUSH1 0x32 PUSH1 0x4 MSTORE PUSH1 0x24 PUSH1 0x0 REVERT JUMPDEST PUSH1 0x20 MUL ADD MLOAD DUP2 MSTORE PUSH1 0x20 ADD DUP13 PUSH1 0x11 PUSH1 0x12 DUP2 LT PUSH2 0x32B0 JUMPI PUSH4 0x4E487B71 PUSH1 0xE0 SHL PUSH1 0x0 MSTORE PUSH1 0x32 PUSH1 0x4 MSTORE PUSH1 0x24 PUSH1 0x0 REVERT JUMPDEST PUSH1 0x20 MUL ADD MLOAD SWAP1 MSTORE SWAP1 POP PUSH2 0x32C3 DUP3 DUP3 PUSH2 0x42FE JUMP JUMPDEST SWAP13 SWAP12 POP POP POP POP POP POP POP POP POP POP POP POP JUMP JUMPDEST PUSH1 0x0 SLOAD PUSH1 0x1 PUSH1 0x1 PUSH1 0xA0 SHL SUB PUSH2 0x100 SWAP1 SWAP2 DIV AND CALLER EQ PUSH2 0x3303 JUMPI PUSH1 0x40 MLOAD PUSH3 0x461BCD PUSH1 0xE5 SHL DUP2 MSTORE PUSH1 0x4 ADD PUSH2 0x713 SWAP1 PUSH2 0x5E11 JUMP JUMPDEST PUSH1 0x1 PUSH1 0x1 PUSH1 0xA0 SHL SUB DUP2 AND PUSH2 0x3368 JUMPI PUSH1 0x40 MLOAD PUSH3 0x461BCD PUSH1 0xE5 SHL DUP2 MSTORE PUSH1 0x20 PUSH1 0x4 DUP3 ADD MSTORE PUSH1 0x26 PUSH1 0x24 DUP3 ADD MSTORE PUSH32 0x4F776E61626C653A206E6577206F776E657220697320746865207A65726F2061 PUSH1 0x44 DUP3 ADD MSTORE PUSH6 0x646472657373 PUSH1 0xD0 SHL PUSH1 0x64 DUP3 ADD MSTORE PUSH1 0x84 ADD PUSH2 0x713 JUMP JUMPDEST PUSH1 0x0 DUP1 SLOAD PUSH1 0x40 MLOAD PUSH1 0x1 PUSH1 0x1 PUSH1 0xA0 SHL SUB DUP1 DUP6 AND SWAP4 PUSH2 0x100 SWAP1 SWAP4 DIV AND SWAP2 PUSH32 0x8BE0079C531659141344CD1FD0A4F28419497F9722A3DAAFE3B4186F6B6457E0 SWAP2 LOG3 PUSH1 0x0 DUP1 SLOAD PUSH1 0x1 PUSH1 0x1 PUSH1 0xA0 SHL SUB SWAP1 SWAP3 AND PUSH2 0x100 MUL PUSH2 0x100 PUSH1 0x1 PUSH1 0xA8 SHL SUB NOT SWAP1 SWAP3 AND SWAP2 SWAP1 SWAP2 OR SWAP1 SSTORE JUMP JUMPDEST PUSH1 0x0 SLOAD PUSH1 0x1 PUSH1 0x1 PUSH1 0xA0 SHL SUB PUSH2 0x100 SWAP1 SWAP2 DIV AND CALLER EQ PUSH2 0x33FE JUMPI PUSH1 0x40 MLOAD PUSH3 0x461BCD PUSH1 0xE5 SHL DUP2 MSTORE PUSH1 0x4 ADD PUSH2 0x713 SWAP1 PUSH2 0x5E11 JUMP JUMPDEST PUSH2 0x1AB4 PUSH2 0x438F JUMP JUMPDEST DUP1 MLOAD PUSH1 0x0 SWAP1 ISZERO PUSH2 0x3442 JUMPI DUP2 MLOAD DUP1 PUSH1 0x20 ADD DUP4 ADD PUSH1 0x20 DUP5 ADD DUP6 JUMPDEST PUSH1 0x1 DUP4 DUP4 LT EQ ISZERO PUSH2 0x3439 JUMPI DUP2 MLOAD DUP2 MSTORE PUSH1 0x20 SWAP2 DUP3 ADD SWAP2 ADD PUSH2 0x341E JUMP JUMPDEST POP POP POP SWAP3 SWAP1 SWAP3 ADD SWAP2 JUMPDEST POP SWAP1 SWAP2 SWAP1 POP JUMP JUMPDEST PUSH1 0x0 PUSH2 0x3477 DUP3 PUSH2 0x120 ADD MLOAD DUP4 PUSH2 0x140 ADD MLOAD DUP5 PUSH2 0x240 ADD MLOAD DUP6 PUSH2 0x260 ADD MLOAD DUP7 PUSH2 0x280 ADD MLOAD DUP8 PUSH2 0x2A0 ADD MLOAD PUSH2 0x4413 JUMP JUMPDEST SWAP3 SWAP2 POP POP JUMP JUMPDEST PUSH1 0x0 PUSH2 0x3488 DUP3 PUSH2 0x35BF JUMP JUMPDEST PUSH1 0x40 MLOAD PUSH32 0x19457468657265756D205369676E6564204D6573736167653A0A333200000000 PUSH1 0x20 DUP3 ADD MSTORE PUSH1 0x3C DUP2 ADD SWAP2 SWAP1 SWAP2 MSTORE PUSH1 0x5C ADD PUSH1 0x40 MLOAD PUSH1 0x20 DUP2 DUP4 SUB SUB DUP2 MSTORE SWAP1 PUSH1 0x40 MSTORE DUP1 MLOAD SWAP1 PUSH1 0x20 ADD KECCAK256 SWAP1 POP SWAP2 SWAP1 POP JUMP JUMPDEST PUSH1 0x0 PUSH2 0x34E4 DUP4 PUSH2 0x4265 JUMP JUMPDEST PUSH2 0x34F0 JUMPI POP PUSH1 0x0 PUSH2 0x6DC JUMP JUMPDEST PUSH1 0x0 DUP5 DUP2 MSTORE PUSH1 0x4 PUSH1 0x20 MSTORE PUSH1 0x40 SWAP1 KECCAK256 SLOAD PUSH1 0xFF AND ISZERO PUSH2 0x350F JUMPI POP PUSH1 0x0 PUSH2 0x6DC JUMP JUMPDEST PUSH1 0x0 DUP5 DUP2 MSTORE PUSH1 0x5 PUSH1 0x20 MSTORE PUSH1 0x40 SWAP1 KECCAK256 SLOAD PUSH1 0xFF AND ISZERO PUSH2 0x352E JUMPI POP PUSH1 0x1 PUSH2 0x6DC JUMP JUMPDEST PUSH1 0x20 DUP1 DUP5 ADD MLOAD DUP4 MLOAD DUP5 DUP4 ADD MLOAD PUSH1 0x40 DUP1 DUP8 ADD MLOAD DUP2 MLOAD PUSH1 0x0 DUP2 MSTORE SWAP6 DUP7 ADD DUP1 DUP4 MSTORE DUP11 SWAP1 MSTORE PUSH1 0xFF SWAP1 SWAP4 AND SWAP1 DUP6 ADD MSTORE PUSH1 0x60 DUP5 ADD MSTORE PUSH1 0x80 DUP4 ADD MSTORE PUSH1 0x1 PUSH1 0x1 PUSH1 0xA0 SHL SUB AND SWAP1 PUSH1 0x1 SWAP1 PUSH1 0xA0 ADD PUSH1 0x20 PUSH1 0x40 MLOAD PUSH1 0x20 DUP2 SUB SWAP1 DUP1 DUP5 SUB SWAP1 DUP6 GAS STATICCALL ISZERO DUP1 ISZERO PUSH2 0x3594 JUMPI RETURNDATASIZE PUSH1 0x0 DUP1 RETURNDATACOPY RETURNDATASIZE PUSH1 0x0 REVERT JUMPDEST POP POP POP PUSH1 0x20 PUSH1 0x40 MLOAD SUB MLOAD PUSH1 0x1 PUSH1 0x1 PUSH1 0xA0 SHL SUB AND EQ ISZERO PUSH2 0x35B5 JUMPI POP PUSH1 0x1 PUSH2 0x6DC JUMP JUMPDEST POP PUSH1 0x0 SWAP4 SWAP3 POP POP POP JUMP JUMPDEST PUSH1 0x0 DUP1 PUSH2 0x35CB DUP4 PUSH2 0x44E5 JUMP JUMPDEST SWAP1 POP PUSH1 0x0 DUP2 PUSH1 0x1 PUSH1 0x1 PUSH1 0x40 SHL SUB DUP2 GT ISZERO PUSH2 0x35F5 JUMPI PUSH4 0x4E487B71 PUSH1 0xE0 SHL PUSH1 0x0 MSTORE PUSH1 0x41 PUSH1 0x4 MSTORE PUSH1 0x24 PUSH1 0x0 REVERT JUMPDEST PUSH1 0x40 MLOAD SWAP1 DUP1 DUP3 MSTORE DUP1 PUSH1 0x1F ADD PUSH1 0x1F NOT AND PUSH1 0x20 ADD DUP3 ADD PUSH1 0x40 MSTORE DUP1 ISZERO PUSH2 0x361F JUMPI PUSH1 0x20 DUP3 ADD DUP2 DUP1 CALLDATASIZE DUP4 CALLDATACOPY ADD SWAP1 POP JUMPDEST POP DUP5 MLOAD SWAP1 SWAP2 POP PUSH1 0x20 DUP3 ADD SWAP1 PUSH2 0x3635 SWAP1 DUP3 SWAP1 PUSH2 0x451D JUMP JUMPDEST SWAP1 POP PUSH2 0x3645 DUP2 DUP7 PUSH1 0x20 ADD MLOAD PUSH2 0x451D JUMP JUMPDEST SWAP1 POP PUSH2 0x3655 DUP2 DUP7 PUSH1 0x40 ADD MLOAD PUSH2 0x451D JUMP JUMPDEST PUSH1 0x60 DUP7 DUP2 ADD MLOAD DUP3 MSTORE PUSH1 0x80 DUP1 DUP9 ADD MLOAD PUSH1 0x20 DUP5 ADD MSTORE PUSH1 0xA0 DUP9 ADD MLOAD PUSH1 0x40 DUP5 ADD MSTORE PUSH1 0xC0 DUP9 ADD MLOAD SWAP2 DUP4 ADD SWAP2 SWAP1 SWAP2 MSTORE PUSH1 0xE0 DUP8 ADD MLOAD SWAP2 ADD SWAP2 POP PUSH2 0x3692 SWAP1 DUP3 SWAP1 PUSH2 0x451D JUMP JUMPDEST SWAP1 POP PUSH2 0x36C2 DUP2 DUP7 PUSH2 0x100 ADD MLOAD PUSH1 0x1 DUP2 GT ISZERO PUSH2 0x36BD JUMPI PUSH4 0x4E487B71 PUSH1 0xE0 SHL PUSH1 0x0 MSTORE PUSH1 0x21 PUSH1 0x4 MSTORE PUSH1 0x24 PUSH1 0x0 REVERT JUMPDEST PUSH2 0x4537 JUMP JUMPDEST SWAP1 POP PUSH2 0x36ED DUP2 DUP7 PUSH2 0x120 ADD MLOAD PUSH1 0x1 DUP2 GT ISZERO PUSH2 0x36BD JUMPI PUSH4 0x4E487B71 PUSH1 0xE0 SHL PUSH1 0x0 MSTORE PUSH1 0x21 PUSH1 0x4 MSTORE PUSH1 0x24 PUSH1 0x0 REVERT JUMPDEST SWAP1 POP PUSH2 0x3718 DUP2 DUP7 PUSH2 0x140 ADD MLOAD PUSH1 0x1 DUP2 GT ISZERO PUSH2 0x36BD JUMPI PUSH4 0x4E487B71 PUSH1 0xE0 SHL PUSH1 0x0 MSTORE PUSH1 0x21 PUSH1 0x4 MSTORE PUSH1 0x24 PUSH1 0x0 REVERT JUMPDEST SWAP1 POP PUSH2 0x3729 DUP2 DUP7 PUSH2 0x160 ADD MLOAD PUSH2 0x451D JUMP JUMPDEST SWAP1 POP PUSH2 0x3754 DUP2 DUP7 PUSH2 0x180 ADD MLOAD PUSH1 0x1 DUP2 GT ISZERO PUSH2 0x36BD JUMPI PUSH4 0x4E487B71 PUSH1 0xE0 SHL PUSH1 0x0 MSTORE PUSH1 0x21 PUSH1 0x4 MSTORE PUSH1 0x24 PUSH1 0x0 REVERT JUMPDEST SWAP1 POP PUSH2 0x3765 DUP2 DUP7 PUSH2 0x1A0 ADD MLOAD PUSH2 0x3406 JUMP JUMPDEST SWAP1 POP PUSH2 0x3776 DUP2 DUP7 PUSH2 0x1C0 ADD MLOAD PUSH2 0x3406 JUMP JUMPDEST SWAP1 POP PUSH2 0x3787 DUP2 DUP7 PUSH2 0x1E0 ADD MLOAD PUSH2 0x451D JUMP JUMPDEST SWAP1 POP PUSH2 0x3798 DUP2 DUP7 PUSH2 0x200 ADD MLOAD PUSH2 0x3406 JUMP JUMPDEST SWAP1 POP PUSH2 0x37A9 DUP2 DUP7 PUSH2 0x220 ADD MLOAD PUSH2 0x451D JUMP JUMPDEST PUSH2 0x240 DUP7 ADD MLOAD DUP2 MSTORE PUSH2 0x260 DUP7 ADD MLOAD PUSH1 0x20 DUP1 DUP4 ADD SWAP2 SWAP1 SWAP2 MSTORE PUSH2 0x280 DUP8 ADD MLOAD PUSH1 0x40 DUP4 ADD MSTORE PUSH2 0x2A0 DUP8 ADD MLOAD PUSH1 0x60 DUP4 ADD MSTORE PUSH2 0x2C0 SWAP1 SWAP7 ADD MLOAD PUSH1 0x80 SWAP1 SWAP2 ADD MSTORE POP SWAP1 SWAP3 ADD SWAP2 SWAP1 SWAP2 KECCAK256 SWAP2 SWAP1 POP JUMP JUMPDEST DUP2 PUSH1 0x20 ADD MLOAD PUSH1 0x1 PUSH1 0x1 PUSH1 0xA0 SHL SUB AND CALLER PUSH1 0x1 PUSH1 0x1 PUSH1 0xA0 SHL SUB AND EQ PUSH2 0x3812 JUMPI PUSH1 0x0 DUP1 REVERT JUMPDEST PUSH1 0x0 PUSH2 0x381D DUP4 PUSH2 0x347D JUMP JUMPDEST PUSH1 0x0 DUP2 DUP2 MSTORE PUSH1 0x5 PUSH1 0x20 MSTORE PUSH1 0x40 SWAP1 KECCAK256 SLOAD SWAP1 SWAP2 POP PUSH1 0xFF AND ISZERO PUSH2 0x383C JUMPI PUSH1 0x0 DUP1 REVERT JUMPDEST PUSH1 0x1 PUSH1 0x5 PUSH1 0x0 DUP4 DUP2 MSTORE PUSH1 0x20 ADD SWAP1 DUP2 MSTORE PUSH1 0x20 ADD PUSH1 0x0 KECCAK256 PUSH1 0x0 PUSH2 0x100 EXP DUP2 SLOAD DUP2 PUSH1 0xFF MUL NOT AND SWAP1 DUP4 ISZERO ISZERO MUL OR SWAP1 SSTORE POP DUP3 PUSH1 0xE0 ADD MLOAD PUSH1 0x1 PUSH1 0x1 PUSH1 0xA0 SHL SUB AND DUP4 PUSH1 0x20 ADD MLOAD PUSH1 0x1 PUSH1 0x1 PUSH1 0xA0 SHL SUB AND DUP3 PUSH32 0x90C7F9F5B58C15F0F635BFB99F55D3D78FDBEF3559E7D8ABF5C81052A5276622 DUP7 PUSH1 0x0 ADD MLOAD DUP8 PUSH1 0x40 ADD MLOAD DUP9 PUSH1 0x60 ADD MLOAD DUP10 PUSH1 0x80 ADD MLOAD DUP11 PUSH1 0xA0 ADD MLOAD DUP12 PUSH1 0xC0 ADD MLOAD DUP13 PUSH2 0x100 ADD MLOAD DUP14 PUSH2 0x120 ADD MLOAD DUP15 PUSH2 0x140 ADD MLOAD DUP16 PUSH2 0x160 ADD MLOAD PUSH1 0x40 MLOAD PUSH2 0x38F2 SWAP11 SWAP10 SWAP9 SWAP8 SWAP7 SWAP6 SWAP5 SWAP4 SWAP3 SWAP2 SWAP1 PUSH2 0x5C89 JUMP JUMPDEST PUSH1 0x40 MLOAD DUP1 SWAP2 SUB SWAP1 LOG4 DUP1 PUSH32 0xE55393C778364E440D958B39AC1DEBD99DCFAE3775A8A04D1E79124ADF6A2D08 DUP5 PUSH2 0x180 ADD MLOAD DUP6 PUSH2 0x1A0 ADD MLOAD DUP7 PUSH2 0x1C0 ADD MLOAD DUP8 PUSH2 0x1E0 ADD MLOAD DUP9 PUSH2 0x200 ADD MLOAD DUP10 PUSH2 0x220 ADD MLOAD DUP11 PUSH2 0x240 ADD MLOAD DUP12 PUSH2 0x260 ADD MLOAD DUP13 PUSH2 0x280 ADD MLOAD DUP14 PUSH2 0x2A0 ADD MLOAD DUP15 PUSH2 0x2C0 ADD MLOAD DUP15 PUSH1 0x40 MLOAD PUSH2 0x3977 SWAP13 SWAP12 SWAP11 SWAP10 SWAP9 SWAP8 SWAP7 SWAP6 SWAP5 SWAP4 SWAP3 SWAP2 SWAP1 PUSH2 0x5D38 JUMP JUMPDEST PUSH1 0x40 MLOAD DUP1 SWAP2 SUB SWAP1 LOG2 POP POP POP JUMP JUMPDEST PUSH1 0x0 SLOAD PUSH1 0x1 PUSH1 0xA8 SHL SWAP1 DIV PUSH1 0xFF AND ISZERO PUSH2 0x39AE JUMPI PUSH1 0x40 MLOAD PUSH3 0x461BCD PUSH1 0xE5 SHL DUP2 MSTORE PUSH1 0x4 ADD PUSH2 0x713 SWAP1 PUSH2 0x5DE7 JUMP JUMPDEST PUSH1 0x0 DUP1 SLOAD PUSH1 0xFF PUSH1 0xA8 SHL NOT AND PUSH1 0x1 PUSH1 0xA8 SHL OR SWAP1 SSTORE PUSH32 0x62E78CEA01BEE320CD4E420270B5EA74000D11B0C9F74754EBDBFC544B05A258 PUSH2 0x39E9 CALLER SWAP1 JUMP JUMPDEST PUSH1 0x40 MLOAD PUSH1 0x1 PUSH1 0x1 PUSH1 0xA0 SHL SUB SWAP1 SWAP2 AND DUP2 MSTORE PUSH1 0x20 ADD PUSH1 0x40 MLOAD DUP1 SWAP2 SUB SWAP1 LOG1 JUMP JUMPDEST PUSH1 0x0 PUSH2 0x3A12 DUP4 DUP4 PUSH2 0x4544 JUMP JUMPDEST SWAP1 POP DUP3 PUSH1 0x20 ADD MLOAD PUSH1 0x1 PUSH1 0x1 PUSH1 0xA0 SHL SUB AND CALLER PUSH1 0x1 PUSH1 0x1 PUSH1 0xA0 SHL SUB AND EQ PUSH2 0x3A6A JUMPI PUSH1 0x40 MLOAD PUSH3 0x461BCD PUSH1 0xE5 SHL DUP2 MSTORE PUSH1 0x20 PUSH1 0x4 DUP3 ADD MSTORE PUSH1 0xE PUSH1 0x24 DUP3 ADD MSTORE PUSH14 0x135052D157D393D517D590531251 PUSH1 0x92 SHL PUSH1 0x44 DUP3 ADD MSTORE PUSH1 0x64 ADD PUSH2 0x713 JUMP JUMPDEST PUSH1 0x0 DUP2 DUP2 MSTORE PUSH1 0x4 PUSH1 0x20 MSTORE PUSH1 0x40 DUP1 DUP3 KECCAK256 DUP1 SLOAD PUSH1 0xFF NOT AND PUSH1 0x1 OR SWAP1 SSTORE MLOAD DUP3 SWAP2 PUSH32 0x5152ABF959F6564662358C2E52B702259B78BAC5EE7842A0F01937E670EFCC7D SWAP2 LOG2 POP POP POP JUMP JUMPDEST PUSH1 0x0 SLOAD PUSH1 0xFF AND ISZERO PUSH2 0x3AF8 JUMPI PUSH1 0x40 MLOAD PUSH3 0x461BCD PUSH1 0xE5 SHL DUP2 MSTORE PUSH1 0x20 PUSH1 0x4 DUP3 ADD MSTORE PUSH1 0x13 PUSH1 0x24 DUP3 ADD MSTORE PUSH19 0x1499595B9D1C985B98DE4819195D1958DD1959 PUSH1 0x6A SHL PUSH1 0x44 DUP3 ADD MSTORE PUSH1 0x64 ADD PUSH2 0x713 JUMP JUMPDEST PUSH1 0x0 DUP1 SLOAD PUSH1 0xFF NOT AND PUSH1 0x1 OR DUP2 SSTORE PUSH1 0x20 DUP7 ADD MLOAD PUSH1 0x1 PUSH1 0x1 PUSH1 0xA0 SHL SUB AND CALLER EQ ISZERO PUSH2 0x3B6C JUMPI PUSH2 0x3B23 DUP7 PUSH2 0x4265 JUMP JUMPDEST PUSH2 0x3B67 JUMPI PUSH1 0x40 MLOAD PUSH3 0x461BCD PUSH1 0xE5 SHL DUP2 MSTORE PUSH1 0x20 PUSH1 0x4 DUP3 ADD MSTORE PUSH1 0x15 PUSH1 0x24 DUP3 ADD MSTORE PUSH21 0x213ABC9037B93232B91034B99034B73B30B634B217 PUSH1 0x59 SHL PUSH1 0x44 DUP3 ADD MSTORE PUSH1 0x64 ADD PUSH2 0x713 JUMP JUMPDEST PUSH2 0x3B79 JUMP JUMPDEST PUSH2 0x3B76 DUP7 DUP7 PUSH2 0x4544 JUMP JUMPDEST SWAP1 POP JUMPDEST PUSH1 0x20 DUP5 ADD MLOAD PUSH1 0x0 SWAP1 PUSH1 0x1 PUSH1 0x1 PUSH1 0xA0 SHL SUB AND CALLER EQ ISZERO PUSH2 0x3BE4 JUMPI PUSH2 0x3B9A DUP6 PUSH2 0x4265 JUMP JUMPDEST PUSH2 0x3BDF JUMPI PUSH1 0x40 MLOAD PUSH3 0x461BCD PUSH1 0xE5 SHL DUP2 MSTORE PUSH1 0x20 PUSH1 0x4 DUP3 ADD MSTORE PUSH1 0x16 PUSH1 0x24 DUP3 ADD MSTORE PUSH22 0x29B2B6361037B93232B91034B99034B73B30B634B217 PUSH1 0x51 SHL PUSH1 0x44 DUP3 ADD MSTORE PUSH1 0x64 ADD PUSH2 0x713 JUMP JUMPDEST PUSH2 0x3BF1 JUMP JUMPDEST PUSH2 0x3BEE DUP6 DUP6 PUSH2 0x4544 JUMP JUMPDEST SWAP1 POP JUMPDEST PUSH2 0x3BFB DUP8 DUP7 PUSH2 0x459A JUMP JUMPDEST PUSH2 0x3C47 JUMPI PUSH1 0x40 MLOAD PUSH3 0x461BCD PUSH1 0xE5 SHL DUP2 MSTORE PUSH1 0x20 PUSH1 0x4 DUP3 ADD MSTORE PUSH1 0x18 PUSH1 0x24 DUP3 ADD MSTORE PUSH32 0x4F7264657273206973206E6F74206D6174636861626C652E0000000000000000 PUSH1 0x44 DUP3 ADD MSTORE PUSH1 0x64 ADD PUSH2 0x713 JUMP JUMPDEST PUSH2 0x160 DUP6 ADD MLOAD DUP1 EXTCODESIZE SWAP1 DUP2 PUSH2 0x3C90 JUMPI PUSH1 0x40 MLOAD PUSH3 0x461BCD PUSH1 0xE5 SHL DUP2 MSTORE PUSH1 0x20 PUSH1 0x4 DUP3 ADD MSTORE PUSH1 0x10 PUSH1 0x24 DUP3 ADD MSTORE PUSH16 0x15185C99D95D081B9BDD08195E1A5CDD PUSH1 0x82 SHL PUSH1 0x44 DUP3 ADD MSTORE PUSH1 0x64 ADD PUSH2 0x713 JUMP JUMPDEST PUSH2 0x1C0 DUP10 ADD MLOAD MLOAD ISZERO PUSH2 0x3CB6 JUMPI PUSH2 0x3CB6 DUP10 PUSH2 0x1A0 ADD MLOAD DUP9 PUSH2 0x1A0 ADD MLOAD DUP12 PUSH2 0x1C0 ADD MLOAD PUSH2 0x47EC JUMP JUMPDEST PUSH2 0x1C0 DUP8 ADD MLOAD MLOAD ISZERO PUSH2 0x3CDC JUMPI PUSH2 0x3CDC DUP8 PUSH2 0x1A0 ADD MLOAD DUP11 PUSH2 0x1A0 ADD MLOAD DUP10 PUSH2 0x1C0 ADD MLOAD PUSH2 0x47EC JUMP JUMPDEST PUSH2 0x3CF0 DUP10 PUSH2 0x1A0 ADD MLOAD DUP9 PUSH2 0x1A0 ADD MLOAD PUSH2 0x4A60 JUMP JUMPDEST PUSH2 0x3D31 JUMPI PUSH1 0x40 MLOAD PUSH3 0x461BCD PUSH1 0xE5 SHL DUP2 MSTORE PUSH1 0x20 PUSH1 0x4 DUP3 ADD MSTORE PUSH1 0x12 PUSH1 0x24 DUP3 ADD MSTORE PUSH18 0x86C2D8D85AC8C2E8C240DAD2E6DAC2E8C6D PUSH1 0x73 SHL PUSH1 0x44 DUP3 ADD MSTORE PUSH1 0x64 ADD PUSH2 0x713 JUMP JUMPDEST PUSH1 0x2 SLOAD PUSH1 0x20 DUP9 ADD MLOAD PUSH1 0x40 MLOAD PUSH4 0xC4552791 PUSH1 0xE0 SHL DUP2 MSTORE PUSH1 0x1 PUSH1 0x1 PUSH1 0xA0 SHL SUB SWAP2 DUP3 AND PUSH1 0x4 DUP3 ADD MSTORE PUSH1 0x0 SWAP3 SWAP2 SWAP1 SWAP2 AND SWAP1 PUSH4 0xC4552791 SWAP1 PUSH1 0x24 ADD PUSH1 0x20 PUSH1 0x40 MLOAD DUP1 DUP4 SUB DUP2 DUP7 DUP1 EXTCODESIZE ISZERO DUP1 ISZERO PUSH2 0x3D7F JUMPI PUSH1 0x0 DUP1 REVERT JUMPDEST POP GAS STATICCALL ISZERO DUP1 ISZERO PUSH2 0x3D93 JUMPI RETURNDATASIZE PUSH1 0x0 DUP1 RETURNDATACOPY RETURNDATASIZE PUSH1 0x0 REVERT JUMPDEST POP POP POP POP PUSH1 0x40 MLOAD RETURNDATASIZE PUSH1 0x1F NOT PUSH1 0x1F DUP3 ADD AND DUP3 ADD DUP1 PUSH1 0x40 MSTORE POP DUP2 ADD SWAP1 PUSH2 0x3DB7 SWAP2 SWAP1 PUSH2 0x55F5 JUMP JUMPDEST SWAP1 POP PUSH1 0x1 PUSH1 0x1 PUSH1 0xA0 SHL SUB DUP2 AND PUSH2 0x3E01 JUMPI PUSH1 0x40 MLOAD PUSH3 0x461BCD PUSH1 0xE5 SHL DUP2 MSTORE PUSH1 0x20 PUSH1 0x4 DUP3 ADD MSTORE PUSH1 0xF PUSH1 0x24 DUP3 ADD MSTORE PUSH15 0x141C9BDE1E481B9BDD08195E1A5CDD PUSH1 0x8A SHL PUSH1 0x44 DUP3 ADD MSTORE PUSH1 0x64 ADD PUSH2 0x713 JUMP JUMPDEST PUSH1 0x2 PUSH1 0x0 SWAP1 SLOAD SWAP1 PUSH2 0x100 EXP SWAP1 DIV PUSH1 0x1 PUSH1 0x1 PUSH1 0xA0 SHL SUB AND PUSH1 0x1 PUSH1 0x1 PUSH1 0xA0 SHL SUB AND PUSH4 0x97204D8E PUSH1 0x40 MLOAD DUP2 PUSH4 0xFFFFFFFF AND PUSH1 0xE0 SHL DUP2 MSTORE PUSH1 0x4 ADD PUSH1 0x20 PUSH1 0x40 MLOAD DUP1 DUP4 SUB DUP2 DUP7 DUP1 EXTCODESIZE ISZERO DUP1 ISZERO PUSH2 0x3E4F JUMPI PUSH1 0x0 DUP1 REVERT JUMPDEST POP GAS STATICCALL ISZERO DUP1 ISZERO PUSH2 0x3E63 JUMPI RETURNDATASIZE PUSH1 0x0 DUP1 RETURNDATACOPY RETURNDATASIZE PUSH1 0x0 REVERT JUMPDEST POP POP POP POP PUSH1 0x40 MLOAD RETURNDATASIZE PUSH1 0x1F NOT PUSH1 0x1F DUP3 ADD AND DUP3 ADD DUP1 PUSH1 0x40 MSTORE POP DUP2 ADD SWAP1 PUSH2 0x3E87 SWAP2 SWAP1 PUSH2 0x55F5 JUMP JUMPDEST PUSH1 0x1 PUSH1 0x1 PUSH1 0xA0 SHL SUB AND DUP2 PUSH1 0x1 PUSH1 0x1 PUSH1 0xA0 SHL SUB AND PUSH4 0x5C60DA1B PUSH1 0x40 MLOAD DUP2 PUSH4 0xFFFFFFFF AND PUSH1 0xE0 SHL DUP2 MSTORE PUSH1 0x4 ADD PUSH1 0x20 PUSH1 0x40 MLOAD DUP1 DUP4 SUB DUP2 DUP7 DUP1 EXTCODESIZE ISZERO DUP1 ISZERO PUSH2 0x3EC9 JUMPI PUSH1 0x0 DUP1 REVERT JUMPDEST POP GAS STATICCALL ISZERO DUP1 ISZERO PUSH2 0x3EDD JUMPI RETURNDATASIZE PUSH1 0x0 DUP1 RETURNDATACOPY RETURNDATASIZE PUSH1 0x0 REVERT JUMPDEST POP POP POP POP PUSH1 0x40 MLOAD RETURNDATASIZE PUSH1 0x1F NOT PUSH1 0x1F DUP3 ADD AND DUP3 ADD DUP1 PUSH1 0x40 MSTORE POP DUP2 ADD SWAP1 PUSH2 0x3F01 SWAP2 SWAP1 PUSH2 0x55F5 JUMP JUMPDEST PUSH1 0x1 PUSH1 0x1 PUSH1 0xA0 SHL SUB AND EQ PUSH2 0x3F57 JUMPI PUSH1 0x40 MLOAD PUSH3 0x461BCD PUSH1 0xE5 SHL DUP2 MSTORE PUSH1 0x20 PUSH1 0x4 DUP3 ADD MSTORE PUSH1 0x18 PUSH1 0x24 DUP3 ADD MSTORE PUSH32 0x50726F7879206973206E6F7420696D706C656D656E7465640000000000000000 PUSH1 0x44 DUP3 ADD MSTORE PUSH1 0x64 ADD PUSH2 0x713 JUMP JUMPDEST PUSH1 0x20 DUP11 ADD MLOAD DUP2 SWAP1 PUSH1 0x1 PUSH1 0x1 PUSH1 0xA0 SHL SUB AND CALLER EQ PUSH2 0x3F87 JUMPI PUSH1 0x0 DUP7 DUP2 MSTORE PUSH1 0x4 PUSH1 0x20 MSTORE PUSH1 0x40 SWAP1 KECCAK256 DUP1 SLOAD PUSH1 0xFF NOT AND PUSH1 0x1 OR SWAP1 SSTORE JUMPDEST DUP9 PUSH1 0x20 ADD MLOAD PUSH1 0x1 PUSH1 0x1 PUSH1 0xA0 SHL SUB AND CALLER PUSH1 0x1 PUSH1 0x1 PUSH1 0xA0 SHL SUB AND EQ PUSH2 0x3FBE JUMPI PUSH1 0x0 DUP6 DUP2 MSTORE PUSH1 0x4 PUSH1 0x20 MSTORE PUSH1 0x40 SWAP1 KECCAK256 DUP1 SLOAD PUSH1 0xFF NOT AND PUSH1 0x1 OR SWAP1 SSTORE JUMPDEST PUSH1 0x0 PUSH2 0x3FCA DUP13 DUP12 PUSH2 0x4AC4 JUMP JUMPDEST SWAP1 POP DUP2 PUSH1 0x1 PUSH1 0x1 PUSH1 0xA0 SHL SUB AND PUSH4 0x1B0F7BA9 DUP12 PUSH2 0x160 ADD MLOAD DUP13 PUSH2 0x180 ADD MLOAD DUP14 PUSH2 0x1A0 ADD MLOAD PUSH1 0x40 MLOAD DUP5 PUSH4 0xFFFFFFFF AND PUSH1 0xE0 SHL DUP2 MSTORE PUSH1 0x4 ADD PUSH2 0x400B SWAP4 SWAP3 SWAP2 SWAP1 PUSH2 0x5D07 JUMP JUMPDEST PUSH1 0x20 PUSH1 0x40 MLOAD DUP1 DUP4 SUB DUP2 PUSH1 0x0 DUP8 DUP1 EXTCODESIZE ISZERO DUP1 ISZERO PUSH2 0x4025 JUMPI PUSH1 0x0 DUP1 REVERT JUMPDEST POP GAS CALL ISZERO DUP1 ISZERO PUSH2 0x4039 JUMPI RETURNDATASIZE PUSH1 0x0 DUP1 RETURNDATACOPY RETURNDATASIZE PUSH1 0x0 REVERT JUMPDEST POP POP POP POP PUSH1 0x40 MLOAD RETURNDATASIZE PUSH1 0x1F NOT PUSH1 0x1F DUP3 ADD AND DUP3 ADD DUP1 PUSH1 0x40 MSTORE POP DUP2 ADD SWAP1 PUSH2 0x405D SWAP2 SWAP1 PUSH2 0x5C0A JUMP JUMPDEST PUSH2 0x40A9 JUMPI PUSH1 0x40 MLOAD PUSH3 0x461BCD PUSH1 0xE5 SHL DUP2 MSTORE PUSH1 0x20 PUSH1 0x4 DUP3 ADD MSTORE PUSH1 0x19 PUSH1 0x24 DUP3 ADD MSTORE PUSH32 0x43616E6E6F742063616C6C207468726F7567682070726F787900000000000000 PUSH1 0x44 DUP3 ADD MSTORE PUSH1 0x64 ADD PUSH2 0x713 JUMP JUMPDEST PUSH2 0x1E0 DUP13 ADD MLOAD PUSH1 0x1 PUSH1 0x1 PUSH1 0xA0 SHL SUB AND ISZERO PUSH2 0x412F JUMPI PUSH2 0x40D7 DUP13 PUSH2 0x1E0 ADD MLOAD DUP12 PUSH2 0x1A0 ADD MLOAD DUP15 PUSH2 0x200 ADD MLOAD PUSH2 0x64B JUMP JUMPDEST PUSH2 0x412F JUMPI PUSH1 0x40 MLOAD PUSH3 0x461BCD PUSH1 0xE5 SHL DUP2 MSTORE PUSH1 0x20 PUSH1 0x4 DUP3 ADD MSTORE PUSH1 0x23 PUSH1 0x24 DUP3 ADD MSTORE PUSH32 0x43616E6E6F742065786563757465206275792D73696465207374617469632063 PUSH1 0x44 DUP3 ADD MSTORE PUSH3 0x185B1B PUSH1 0xEA SHL PUSH1 0x64 DUP3 ADD MSTORE PUSH1 0x84 ADD PUSH2 0x713 JUMP JUMPDEST PUSH2 0x1E0 DUP11 ADD MLOAD PUSH1 0x1 PUSH1 0x1 PUSH1 0xA0 SHL SUB AND ISZERO PUSH2 0x41B5 JUMPI PUSH2 0x415D DUP11 PUSH2 0x1E0 ADD MLOAD DUP12 PUSH2 0x1A0 ADD MLOAD DUP13 PUSH2 0x200 ADD MLOAD PUSH2 0x64B JUMP JUMPDEST PUSH2 0x41B5 JUMPI PUSH1 0x40 MLOAD PUSH3 0x461BCD PUSH1 0xE5 SHL DUP2 MSTORE PUSH1 0x20 PUSH1 0x4 DUP3 ADD MSTORE PUSH1 0x24 DUP1 DUP3 ADD MSTORE PUSH32 0x43616E6E6F7420657865637574652073656C6C2D736964652073746174696320 PUSH1 0x44 DUP3 ADD MSTORE PUSH4 0x18D85B1B PUSH1 0xE2 SHL PUSH1 0x64 DUP3 ADD MSTORE PUSH1 0x84 ADD PUSH2 0x713 JUMP JUMPDEST PUSH1 0xE0 DUP11 ADD MLOAD DUP9 SWAP1 PUSH1 0x1 PUSH1 0x1 PUSH1 0xA0 SHL SUB AND PUSH2 0x41D3 JUMPI DUP11 PUSH1 0x20 ADD MLOAD PUSH2 0x41D9 JUMP JUMPDEST DUP13 PUSH1 0x20 ADD MLOAD JUMPDEST PUSH1 0xE0 DUP13 ADD MLOAD PUSH1 0x1 PUSH1 0x1 PUSH1 0xA0 SHL SUB SWAP2 DUP3 AND SWAP2 AND PUSH2 0x41F9 JUMPI DUP14 PUSH1 0x20 ADD MLOAD PUSH2 0x41FF JUMP JUMPDEST DUP12 PUSH1 0x20 ADD MLOAD JUMPDEST PUSH1 0x40 DUP1 MLOAD DUP12 DUP2 MSTORE PUSH1 0x20 DUP2 ADD DUP12 SWAP1 MSTORE SWAP1 DUP2 ADD DUP6 SWAP1 MSTORE PUSH1 0x1 PUSH1 0x1 PUSH1 0xA0 SHL SUB SWAP2 SWAP1 SWAP2 AND SWAP1 PUSH32 0xC4109843E0B7D514E4C093114B863F8E7D8D9A458C372CD51BFE526B588006C9 SWAP1 PUSH1 0x60 ADD PUSH1 0x40 MLOAD DUP1 SWAP2 SUB SWAP1 LOG4 POP POP PUSH1 0x0 DUP1 SLOAD PUSH1 0xFF NOT AND SWAP1 SSTORE POP POP POP POP POP POP POP POP POP POP JUMP JUMPDEST DUP1 MLOAD PUSH1 0x0 SWAP1 PUSH1 0x1 PUSH1 0x1 PUSH1 0xA0 SHL SUB AND ADDRESS EQ PUSH2 0x4281 JUMPI POP PUSH1 0x0 SWAP2 SWAP1 POP JUMP JUMPDEST PUSH2 0x4295 DUP3 PUSH2 0x140 ADD MLOAD DUP4 PUSH2 0x2A0 ADD MLOAD PUSH2 0x50FD JUMP JUMPDEST PUSH2 0x42A1 JUMPI POP PUSH1 0x0 SWAP2 SWAP1 POP JUMP JUMPDEST PUSH1 0x1 DUP3 PUSH2 0x100 ADD MLOAD PUSH1 0x1 DUP2 GT ISZERO PUSH2 0x42C8 JUMPI PUSH4 0x4E487B71 PUSH1 0xE0 SHL PUSH1 0x0 MSTORE PUSH1 0x21 PUSH1 0x4 MSTORE PUSH1 0x24 PUSH1 0x0 REVERT JUMPDEST EQ DUP1 ISZERO PUSH2 0x42E9 JUMPI POP PUSH1 0x6 SLOAD DUP3 PUSH1 0xA0 ADD MLOAD LT DUP1 PUSH2 0x42E9 JUMPI POP PUSH1 0x7 SLOAD DUP3 PUSH1 0xC0 ADD MLOAD LT JUMPDEST ISZERO PUSH2 0x42F6 JUMPI POP PUSH1 0x0 SWAP2 SWAP1 POP JUMP JUMPDEST POP PUSH1 0x1 SWAP2 SWAP1 POP JUMP JUMPDEST PUSH1 0x0 DUP1 PUSH2 0x432D DUP4 PUSH2 0x120 ADD MLOAD DUP5 PUSH2 0x140 ADD MLOAD DUP6 PUSH2 0x240 ADD MLOAD DUP7 PUSH2 0x260 ADD MLOAD DUP8 PUSH2 0x280 ADD MLOAD DUP9 PUSH2 0x2A0 ADD MLOAD PUSH2 0x4413 JUMP JUMPDEST SWAP1 POP PUSH1 0x0 PUSH2 0x435D DUP6 PUSH2 0x120 ADD MLOAD DUP7 PUSH2 0x140 ADD MLOAD DUP8 PUSH2 0x240 ADD MLOAD DUP9 PUSH2 0x260 ADD MLOAD DUP10 PUSH2 0x280 ADD MLOAD DUP11 PUSH2 0x2A0 ADD MLOAD PUSH2 0x4413 JUMP JUMPDEST SWAP1 POP DUP2 DUP2 LT ISZERO PUSH2 0x436C JUMPI PUSH1 0x0 DUP1 REVERT JUMPDEST PUSH1 0xE0 DUP5 ADD MLOAD PUSH1 0x1 PUSH1 0x1 PUSH1 0xA0 SHL SUB AND PUSH2 0x4384 JUMPI DUP1 PUSH2 0x4386 JUMP JUMPDEST DUP2 JUMPDEST SWAP6 SWAP5 POP POP POP POP POP JUMP JUMPDEST PUSH1 0x0 SLOAD PUSH1 0x1 PUSH1 0xA8 SHL SWAP1 DIV PUSH1 0xFF AND PUSH2 0x43DF JUMPI PUSH1 0x40 MLOAD PUSH3 0x461BCD PUSH1 0xE5 SHL DUP2 MSTORE PUSH1 0x20 PUSH1 0x4 DUP3 ADD MSTORE PUSH1 0x14 PUSH1 0x24 DUP3 ADD MSTORE PUSH20 0x14185D5CD8589B194E881B9BDD081C185D5CD959 PUSH1 0x62 SHL PUSH1 0x44 DUP3 ADD MSTORE PUSH1 0x64 ADD PUSH2 0x713 JUMP JUMPDEST PUSH1 0x0 DUP1 SLOAD PUSH1 0xFF PUSH1 0xA8 SHL NOT AND SWAP1 SSTORE PUSH32 0x5DB9EE0A495BF2E6FF9C91A7834C1BA4FDD244A5E8AA4E537BD38AEAE4B073AA CALLER PUSH2 0x39E9 JUMP JUMPDEST PUSH1 0x0 DUP1 DUP7 PUSH1 0x1 DUP2 GT ISZERO PUSH2 0x4436 JUMPI PUSH4 0x4E487B71 PUSH1 0xE0 SHL PUSH1 0x0 MSTORE PUSH1 0x21 PUSH1 0x4 MSTORE PUSH1 0x24 PUSH1 0x0 REVERT JUMPDEST EQ ISZERO PUSH2 0x4443 JUMPI POP DUP4 PUSH2 0x44DB JUMP JUMPDEST PUSH1 0x1 DUP7 PUSH1 0x1 DUP2 GT ISZERO PUSH2 0x4465 JUMPI PUSH4 0x4E487B71 PUSH1 0xE0 SHL PUSH1 0x0 MSTORE PUSH1 0x21 PUSH1 0x4 MSTORE PUSH1 0x24 PUSH1 0x0 REVERT JUMPDEST EQ ISZERO PUSH2 0x44DB JUMPI PUSH1 0x0 PUSH2 0x4477 DUP5 DUP5 PUSH2 0x5E9D JUMP JUMPDEST PUSH2 0x4481 DUP6 TIMESTAMP PUSH2 0x5E9D JUMP JUMPDEST PUSH2 0x448B SWAP1 DUP8 PUSH2 0x5E7E JUMP JUMPDEST PUSH2 0x4495 SWAP2 SWAP1 PUSH2 0x5E5E JUMP JUMPDEST SWAP1 POP PUSH1 0x1 DUP9 PUSH1 0x1 DUP2 GT ISZERO PUSH2 0x44B9 JUMPI PUSH4 0x4E487B71 PUSH1 0xE0 SHL PUSH1 0x0 MSTORE PUSH1 0x21 PUSH1 0x4 MSTORE PUSH1 0x24 PUSH1 0x0 REVERT JUMPDEST EQ ISZERO PUSH2 0x44D1 JUMPI PUSH2 0x44C9 DUP2 DUP8 PUSH2 0x5E9D JUMP JUMPDEST SWAP2 POP POP PUSH2 0x44DB JUMP JUMPDEST PUSH2 0x44C9 DUP2 DUP8 PUSH2 0x5E46 JUMP JUMPDEST SWAP7 SWAP6 POP POP POP POP POP POP JUMP JUMPDEST PUSH1 0x0 DUP2 PUSH2 0x200 ADD MLOAD MLOAD DUP3 PUSH2 0x1C0 ADD MLOAD MLOAD DUP4 PUSH2 0x1A0 ADD MLOAD MLOAD PUSH2 0x1B0 PUSH2 0x4509 SWAP2 SWAP1 PUSH2 0x5E46 JUMP JUMPDEST PUSH2 0x4513 SWAP2 SWAP1 PUSH2 0x5E46 JUMP JUMPDEST PUSH2 0x3477 SWAP2 SWAP1 PUSH2 0x5E46 JUMP JUMPDEST PUSH1 0x60 SHL PUSH12 0xFFFFFFFFFFFFFFFFFFFFFFFF NOT AND DUP2 MSTORE PUSH1 0x14 ADD SWAP1 JUMP JUMPDEST PUSH1 0x0 DUP2 DUP4 MSTORE8 POP POP PUSH1 0x1 ADD SWAP1 JUMP JUMPDEST PUSH1 0x0 DUP1 PUSH2 0x4550 DUP5 PUSH2 0x347D JUMP JUMPDEST SWAP1 POP PUSH2 0x455D DUP2 DUP6 DUP6 PUSH2 0x34D9 JUMP JUMPDEST PUSH2 0x6DC JUMPI PUSH1 0x40 MLOAD PUSH3 0x461BCD PUSH1 0xE5 SHL DUP2 MSTORE PUSH1 0x20 PUSH1 0x4 DUP3 ADD MSTORE PUSH1 0xE PUSH1 0x24 DUP3 ADD MSTORE PUSH14 0x121054D217D393D517D590531251 PUSH1 0x92 SHL PUSH1 0x44 DUP3 ADD MSTORE PUSH1 0x64 ADD PUSH2 0x713 JUMP JUMPDEST PUSH1 0x0 DUP1 DUP4 PUSH2 0x120 ADD MLOAD PUSH1 0x1 DUP2 GT ISZERO PUSH2 0x45C2 JUMPI PUSH4 0x4E487B71 PUSH1 0xE0 SHL PUSH1 0x0 MSTORE PUSH1 0x21 PUSH1 0x4 MSTORE PUSH1 0x24 PUSH1 0x0 REVERT JUMPDEST EQ DUP1 ISZERO PUSH2 0x45F3 JUMPI POP PUSH1 0x1 DUP3 PUSH2 0x120 ADD MLOAD PUSH1 0x1 DUP2 GT ISZERO PUSH2 0x45F1 JUMPI PUSH4 0x4E487B71 PUSH1 0xE0 SHL PUSH1 0x0 MSTORE PUSH1 0x21 PUSH1 0x4 MSTORE PUSH1 0x24 PUSH1 0x0 REVERT JUMPDEST EQ JUMPDEST DUP1 ISZERO PUSH2 0x4646 JUMPI POP DUP2 PUSH2 0x100 ADD MLOAD PUSH1 0x1 DUP2 GT ISZERO PUSH2 0x461F JUMPI PUSH4 0x4E487B71 PUSH1 0xE0 SHL PUSH1 0x0 MSTORE PUSH1 0x21 PUSH1 0x4 MSTORE PUSH1 0x24 PUSH1 0x0 REVERT JUMPDEST DUP4 PUSH2 0x100 ADD MLOAD PUSH1 0x1 DUP2 GT ISZERO PUSH2 0x4644 JUMPI PUSH4 0x4E487B71 PUSH1 0xE0 SHL PUSH1 0x0 MSTORE PUSH1 0x21 PUSH1 0x4 MSTORE PUSH1 0x24 PUSH1 0x0 REVERT JUMPDEST EQ JUMPDEST DUP1 ISZERO PUSH2 0x466D JUMPI POP DUP2 PUSH2 0x220 ADD MLOAD PUSH1 0x1 PUSH1 0x1 PUSH1 0xA0 SHL SUB AND DUP4 PUSH2 0x220 ADD MLOAD PUSH1 0x1 PUSH1 0x1 PUSH1 0xA0 SHL SUB AND EQ JUMPDEST DUP1 ISZERO PUSH2 0x46A7 JUMPI POP PUSH1 0x40 DUP3 ADD MLOAD PUSH1 0x1 PUSH1 0x1 PUSH1 0xA0 SHL SUB AND ISZERO DUP1 PUSH2 0x46A7 JUMPI POP DUP3 PUSH1 0x20 ADD MLOAD PUSH1 0x1 PUSH1 0x1 PUSH1 0xA0 SHL SUB AND DUP3 PUSH1 0x40 ADD MLOAD PUSH1 0x1 PUSH1 0x1 PUSH1 0xA0 SHL SUB AND EQ JUMPDEST DUP1 ISZERO PUSH2 0x46E1 JUMPI POP PUSH1 0x40 DUP4 ADD MLOAD PUSH1 0x1 PUSH1 0x1 PUSH1 0xA0 SHL SUB AND ISZERO DUP1 PUSH2 0x46E1 JUMPI POP DUP2 PUSH1 0x20 ADD MLOAD PUSH1 0x1 PUSH1 0x1 PUSH1 0xA0 SHL SUB AND DUP4 PUSH1 0x40 ADD MLOAD PUSH1 0x1 PUSH1 0x1 PUSH1 0xA0 SHL SUB AND EQ JUMPDEST DUP1 ISZERO PUSH2 0x473C JUMPI POP PUSH1 0xE0 DUP3 ADD MLOAD PUSH1 0x1 PUSH1 0x1 PUSH1 0xA0 SHL SUB AND ISZERO DUP1 ISZERO PUSH2 0x470F JUMPI POP PUSH1 0xE0 DUP4 ADD MLOAD PUSH1 0x1 PUSH1 0x1 PUSH1 0xA0 SHL SUB AND ISZERO ISZERO JUMPDEST DUP1 PUSH2 0x473C JUMPI POP PUSH1 0xE0 DUP3 ADD MLOAD PUSH1 0x1 PUSH1 0x1 PUSH1 0xA0 SHL SUB AND ISZERO DUP1 ISZERO SWAP1 PUSH2 0x473C JUMPI POP PUSH1 0xE0 DUP4 ADD MLOAD PUSH1 0x1 PUSH1 0x1 PUSH1 0xA0 SHL SUB AND ISZERO JUMPDEST DUP1 ISZERO PUSH2 0x4763 JUMPI POP DUP2 PUSH2 0x160 ADD MLOAD PUSH1 0x1 PUSH1 0x1 PUSH1 0xA0 SHL SUB AND DUP4 PUSH2 0x160 ADD MLOAD PUSH1 0x1 PUSH1 0x1 PUSH1 0xA0 SHL SUB AND EQ JUMPDEST DUP1 ISZERO PUSH2 0x47B6 JUMPI POP DUP2 PUSH2 0x180 ADD MLOAD PUSH1 0x1 DUP2 GT ISZERO PUSH2 0x478F JUMPI PUSH4 0x4E487B71 PUSH1 0xE0 SHL PUSH1 0x0 MSTORE PUSH1 0x21 PUSH1 0x4 MSTORE PUSH1 0x24 PUSH1 0x0 REVERT JUMPDEST DUP4 PUSH2 0x180 ADD MLOAD PUSH1 0x1 DUP2 GT ISZERO PUSH2 0x47B4 JUMPI PUSH4 0x4E487B71 PUSH1 0xE0 SHL PUSH1 0x0 MSTORE PUSH1 0x21 PUSH1 0x4 MSTORE PUSH1 0x24 PUSH1 0x0 REVERT JUMPDEST EQ JUMPDEST DUP1 ISZERO PUSH2 0x47D1 JUMPI POP PUSH2 0x47D1 DUP4 PUSH2 0x280 ADD MLOAD DUP5 PUSH2 0x2A0 ADD MLOAD PUSH2 0x512F JUMP JUMPDEST DUP1 ISZERO PUSH2 0x6DC JUMPI POP PUSH2 0x6DC DUP3 PUSH2 0x280 ADD MLOAD DUP4 PUSH2 0x2A0 ADD MLOAD PUSH2 0x512F JUMP JUMPDEST DUP2 MLOAD DUP4 MLOAD EQ PUSH2 0x483D JUMPI PUSH1 0x40 MLOAD PUSH3 0x461BCD PUSH1 0xE5 SHL DUP2 MSTORE PUSH1 0x20 PUSH1 0x4 DUP3 ADD MSTORE PUSH1 0x1D PUSH1 0x24 DUP3 ADD MSTORE PUSH32 0x417272617973206861766520646966666572656E74206C656E67746873000000 PUSH1 0x44 DUP3 ADD MSTORE PUSH1 0x64 ADD PUSH2 0x713 JUMP JUMPDEST DUP1 MLOAD DUP4 MLOAD EQ PUSH2 0x489C JUMPI PUSH1 0x40 MLOAD PUSH3 0x461BCD PUSH1 0xE5 SHL DUP2 MSTORE PUSH1 0x20 PUSH1 0x4 DUP3 ADD MSTORE PUSH1 0x25 PUSH1 0x24 DUP3 ADD MSTORE PUSH32 0x417272617920616E64206D61736B206861766520646966666572656E74206C65 PUSH1 0x44 DUP3 ADD MSTORE PUSH5 0x6E67746873 PUSH1 0xD8 SHL PUSH1 0x64 DUP3 ADD MSTORE PUSH1 0x84 ADD PUSH2 0x713 JUMP JUMPDEST PUSH1 0x0 PUSH1 0x20 DUP5 MLOAD PUSH2 0x48AC SWAP2 SWAP1 PUSH2 0x5E5E JUMP JUMPDEST SWAP1 POP PUSH1 0x0 PUSH2 0x48BB DUP3 PUSH1 0x20 PUSH2 0x5E7E JUMP JUMPDEST SWAP1 POP DUP2 PUSH2 0x48C9 PUSH1 0x20 DUP4 PUSH2 0x5E5E JUMP JUMPDEST EQ PUSH2 0x48E4 JUMPI PUSH4 0x4E487B71 PUSH1 0xE0 SHL PUSH1 0x0 MSTORE PUSH1 0x1 PUSH1 0x4 MSTORE PUSH1 0x24 PUSH1 0x0 REVERT JUMPDEST PUSH1 0x0 JUMPDEST DUP3 DUP2 LT ISZERO PUSH2 0x4921 JUMPI DUP1 PUSH1 0x1 ADD PUSH1 0x20 MUL DUP1 DUP6 ADD MLOAD DUP2 DUP8 ADD MLOAD DUP2 AND DUP3 DUP10 ADD MLOAD DUP3 NOT AND OR DUP3 DUP10 ADD MSTORE POP POP DUP1 DUP1 PUSH2 0x4919 SWAP1 PUSH2 0x5EB4 JUMP JUMPDEST SWAP2 POP POP PUSH2 0x48E7 JUMP JUMPDEST DUP3 ISZERO PUSH2 0x494E JUMPI DUP3 SWAP1 POP DUP1 PUSH1 0x1 ADD PUSH1 0x20 MUL DUP1 DUP6 ADD MLOAD DUP2 DUP8 ADD MLOAD DUP2 AND DUP3 DUP10 ADD MLOAD DUP3 NOT AND OR DUP3 DUP10 ADD MSTORE POP POP PUSH2 0x4A58 JUMP JUMPDEST POP DUP1 JUMPDEST DUP6 MLOAD DUP2 LT ISZERO PUSH2 0x4A58 JUMPI DUP5 DUP2 DUP2 MLOAD DUP2 LT PUSH2 0x497A JUMPI PUSH4 0x4E487B71 PUSH1 0xE0 SHL PUSH1 0x0 MSTORE PUSH1 0x32 PUSH1 0x4 MSTORE PUSH1 0x24 PUSH1 0x0 REVERT JUMPDEST PUSH1 0x20 ADD ADD MLOAD PUSH1 0xF8 SHR PUSH1 0xF8 SHL DUP5 DUP3 DUP2 MLOAD DUP2 LT PUSH2 0x49A5 JUMPI PUSH4 0x4E487B71 PUSH1 0xE0 SHL PUSH1 0x0 MSTORE PUSH1 0x32 PUSH1 0x4 MSTORE PUSH1 0x24 PUSH1 0x0 REVERT JUMPDEST PUSH1 0x20 ADD ADD MLOAD PUSH1 0xF8 SHR PUSH1 0xF8 SHL AND DUP7 DUP3 DUP2 MLOAD DUP2 LT PUSH2 0x49D1 JUMPI PUSH4 0x4E487B71 PUSH1 0xE0 SHL PUSH1 0x0 MSTORE PUSH1 0x32 PUSH1 0x4 MSTORE PUSH1 0x24 PUSH1 0x0 REVERT JUMPDEST PUSH1 0x20 ADD ADD MLOAD PUSH1 0xF8 SHR PUSH1 0xF8 SHL DUP6 DUP4 DUP2 MLOAD DUP2 LT PUSH2 0x49FC JUMPI PUSH4 0x4E487B71 PUSH1 0xE0 SHL PUSH1 0x0 MSTORE PUSH1 0x32 PUSH1 0x4 MSTORE PUSH1 0x24 PUSH1 0x0 REVERT JUMPDEST PUSH1 0x20 ADD ADD MLOAD PUSH1 0xF8 SHR PUSH1 0xF8 SHL PUSH1 0xFF PUSH1 0xF8 SHL XOR AND OR DUP7 DUP3 DUP2 MLOAD DUP2 LT PUSH2 0x4A2F JUMPI PUSH4 0x4E487B71 PUSH1 0xE0 SHL PUSH1 0x0 MSTORE PUSH1 0x32 PUSH1 0x4 MSTORE PUSH1 0x24 PUSH1 0x0 REVERT JUMPDEST PUSH1 0x20 ADD ADD SWAP1 PUSH1 0x1 PUSH1 0x1 PUSH1 0xF8 SHL SUB NOT AND SWAP1 DUP2 PUSH1 0x0 BYTE SWAP1 MSTORE8 POP DUP1 PUSH2 0x4A50 DUP2 PUSH2 0x5EB4 JUMP JUMPDEST SWAP2 POP POP PUSH2 0x4951 JUMP JUMPDEST POP POP POP POP POP POP JUMP JUMPDEST DUP2 MLOAD DUP2 MLOAD PUSH1 0x0 SWAP2 PUSH1 0x1 SWAP2 DUP2 EQ DUP1 DUP4 EQ PUSH2 0x4A7C JUMPI PUSH1 0x0 SWAP3 POP PUSH2 0x4ABA JUMP JUMPDEST PUSH1 0x1 PUSH1 0x20 DUP8 ADD DUP4 DUP2 ADD PUSH1 0x20 DUP9 ADD JUMPDEST PUSH1 0x2 DUP5 DUP4 DUP6 LT ADD EQ ISZERO PUSH2 0x4AB5 JUMPI DUP1 MLOAD DUP4 MLOAD EQ PUSH2 0x4AA9 JUMPI PUSH1 0x0 SWAP7 POP PUSH1 0x0 SWAP4 POP JUMPDEST PUSH1 0x20 SWAP3 DUP4 ADD SWAP3 ADD PUSH2 0x4A8A JUMP JUMPDEST POP POP POP POP JUMPDEST POP SWAP1 SWAP5 SWAP4 POP POP POP POP JUMP JUMPDEST PUSH2 0x220 DUP2 ADD MLOAD PUSH1 0x0 SWAP1 PUSH1 0x1 PUSH1 0x1 PUSH1 0xA0 SHL SUB AND ISZERO PUSH2 0x4AE6 JUMPI CALLVALUE ISZERO PUSH2 0x4AE6 JUMPI PUSH1 0x0 DUP1 REVERT JUMPDEST PUSH1 0x0 PUSH2 0x4AF2 DUP5 DUP5 PUSH2 0x42FE JUMP JUMPDEST SWAP1 POP PUSH1 0x0 DUP2 GT DUP1 ISZERO PUSH2 0x4B11 JUMPI POP PUSH2 0x220 DUP4 ADD MLOAD PUSH1 0x1 PUSH1 0x1 PUSH1 0xA0 SHL SUB AND ISZERO ISZERO JUMPDEST ISZERO PUSH2 0x4B2F JUMPI PUSH2 0x4B2F DUP4 PUSH2 0x220 ADD MLOAD DUP6 PUSH1 0x20 ADD MLOAD DUP6 PUSH1 0x20 ADD MLOAD DUP5 PUSH2 0x514B JUMP JUMPDEST PUSH1 0xE0 DUP4 ADD MLOAD DUP2 SWAP1 DUP2 SWAP1 PUSH1 0x1 PUSH1 0x1 PUSH1 0xA0 SHL SUB AND ISZERO PUSH2 0x4E7C JUMPI DUP6 PUSH1 0x80 ADD MLOAD DUP6 PUSH1 0x80 ADD MLOAD GT ISZERO PUSH2 0x4B5B JUMPI PUSH1 0x0 DUP1 REVERT JUMPDEST PUSH1 0x1 DUP6 PUSH2 0x100 ADD MLOAD PUSH1 0x1 DUP2 GT ISZERO PUSH2 0x4B82 JUMPI PUSH4 0x4E487B71 PUSH1 0xE0 SHL PUSH1 0x0 MSTORE PUSH1 0x21 PUSH1 0x4 MSTORE PUSH1 0x24 PUSH1 0x0 REVERT JUMPDEST EQ ISZERO PUSH2 0x4E4E JUMPI DUP6 PUSH1 0xC0 ADD MLOAD DUP6 PUSH1 0xC0 ADD MLOAD GT ISZERO PUSH2 0x4B9D JUMPI PUSH1 0x0 DUP1 REVERT JUMPDEST PUSH1 0x60 DUP6 ADD MLOAD ISZERO PUSH2 0x4C44 JUMPI PUSH1 0x0 PUSH2 0x2710 DUP5 DUP8 PUSH1 0x60 ADD MLOAD PUSH2 0x4BBC SWAP2 SWAP1 PUSH2 0x5E7E JUMP JUMPDEST PUSH2 0x4BC6 SWAP2 SWAP1 PUSH2 0x5E5E JUMP JUMPDEST PUSH2 0x220 DUP8 ADD MLOAD SWAP1 SWAP2 POP PUSH1 0x1 PUSH1 0x1 PUSH1 0xA0 SHL SUB AND PUSH2 0x4C29 JUMPI PUSH2 0x4BE6 DUP2 DUP5 PUSH2 0x5E9D JUMP JUMPDEST PUSH1 0xE0 DUP8 ADD MLOAD PUSH1 0x40 MLOAD SWAP2 SWAP5 POP PUSH1 0x1 PUSH1 0x1 PUSH1 0xA0 SHL SUB AND SWAP1 DUP3 ISZERO PUSH2 0x8FC MUL SWAP1 DUP4 SWAP1 PUSH1 0x0 DUP2 DUP2 DUP2 DUP6 DUP9 DUP9 CALL SWAP4 POP POP POP POP ISZERO DUP1 ISZERO PUSH2 0x4C23 JUMPI RETURNDATASIZE PUSH1 0x0 DUP1 RETURNDATACOPY RETURNDATASIZE PUSH1 0x0 REVERT JUMPDEST POP PUSH2 0x4C42 JUMP JUMPDEST PUSH2 0x4C42 DUP7 PUSH2 0x220 ADD MLOAD DUP8 PUSH1 0x20 ADD MLOAD DUP9 PUSH1 0xE0 ADD MLOAD DUP5 PUSH2 0x514B JUMP JUMPDEST POP JUMPDEST PUSH1 0x80 DUP6 ADD MLOAD ISZERO PUSH2 0x4CEB JUMPI PUSH1 0x0 PUSH2 0x2710 DUP5 DUP8 PUSH1 0x80 ADD MLOAD PUSH2 0x4C63 SWAP2 SWAP1 PUSH2 0x5E7E JUMP JUMPDEST PUSH2 0x4C6D SWAP2 SWAP1 PUSH2 0x5E5E JUMP JUMPDEST PUSH2 0x220 DUP8 ADD MLOAD SWAP1 SWAP2 POP PUSH1 0x1 PUSH1 0x1 PUSH1 0xA0 SHL SUB AND PUSH2 0x4CD0 JUMPI PUSH2 0x4C8D DUP2 DUP4 PUSH2 0x5E46 JUMP JUMPDEST PUSH1 0xE0 DUP8 ADD MLOAD PUSH1 0x40 MLOAD SWAP2 SWAP4 POP PUSH1 0x1 PUSH1 0x1 PUSH1 0xA0 SHL SUB AND SWAP1 DUP3 ISZERO PUSH2 0x8FC MUL SWAP1 DUP4 SWAP1 PUSH1 0x0 DUP2 DUP2 DUP2 DUP6 DUP9 DUP9 CALL SWAP4 POP POP POP POP ISZERO DUP1 ISZERO PUSH2 0x4CCA JUMPI RETURNDATASIZE PUSH1 0x0 DUP1 RETURNDATACOPY RETURNDATASIZE PUSH1 0x0 REVERT JUMPDEST POP PUSH2 0x4CE9 JUMP JUMPDEST PUSH2 0x4CE9 DUP7 PUSH2 0x220 ADD MLOAD DUP9 PUSH1 0x20 ADD MLOAD DUP9 PUSH1 0xE0 ADD MLOAD DUP5 PUSH2 0x514B JUMP JUMPDEST POP JUMPDEST PUSH1 0xA0 DUP6 ADD MLOAD ISZERO PUSH2 0x4D9A JUMPI PUSH1 0x0 PUSH2 0x2710 DUP5 DUP8 PUSH1 0xA0 ADD MLOAD PUSH2 0x4D0A SWAP2 SWAP1 PUSH2 0x5E7E JUMP JUMPDEST PUSH2 0x4D14 SWAP2 SWAP1 PUSH2 0x5E5E JUMP JUMPDEST PUSH2 0x220 DUP8 ADD MLOAD SWAP1 SWAP2 POP PUSH1 0x1 PUSH1 0x1 PUSH1 0xA0 SHL SUB AND PUSH2 0x4D75 JUMPI PUSH2 0x4D34 DUP2 DUP5 PUSH2 0x5E9D JUMP JUMPDEST PUSH1 0x8 SLOAD PUSH1 0x40 MLOAD SWAP2 SWAP5 POP PUSH1 0x1 PUSH1 0x1 PUSH1 0xA0 SHL SUB AND SWAP1 DUP3 ISZERO PUSH2 0x8FC MUL SWAP1 DUP4 SWAP1 PUSH1 0x0 DUP2 DUP2 DUP2 DUP6 DUP9 DUP9 CALL SWAP4 POP POP POP POP ISZERO DUP1 ISZERO PUSH2 0x4D6F JUMPI RETURNDATASIZE PUSH1 0x0 DUP1 RETURNDATACOPY RETURNDATASIZE PUSH1 0x0 REVERT JUMPDEST POP PUSH2 0x4D98 JUMP JUMPDEST PUSH2 0x220 DUP7 ADD MLOAD PUSH1 0x20 DUP8 ADD MLOAD PUSH1 0x8 SLOAD PUSH2 0x4D98 SWAP3 SWAP2 SWAP1 PUSH1 0x1 PUSH1 0x1 PUSH1 0xA0 SHL SUB AND DUP5 PUSH2 0x514B JUMP JUMPDEST POP JUMPDEST PUSH1 0xC0 DUP6 ADD MLOAD ISZERO PUSH2 0x4E49 JUMPI PUSH1 0x0 PUSH2 0x2710 DUP5 DUP8 PUSH1 0xC0 ADD MLOAD PUSH2 0x4DB9 SWAP2 SWAP1 PUSH2 0x5E7E JUMP JUMPDEST PUSH2 0x4DC3 SWAP2 SWAP1 PUSH2 0x5E5E JUMP JUMPDEST PUSH2 0x220 DUP8 ADD MLOAD SWAP1 SWAP2 POP PUSH1 0x1 PUSH1 0x1 PUSH1 0xA0 SHL SUB AND PUSH2 0x4E24 JUMPI PUSH2 0x4DE3 DUP2 DUP4 PUSH2 0x5E46 JUMP JUMPDEST PUSH1 0x8 SLOAD PUSH1 0x40 MLOAD SWAP2 SWAP4 POP PUSH1 0x1 PUSH1 0x1 PUSH1 0xA0 SHL SUB AND SWAP1 DUP3 ISZERO PUSH2 0x8FC MUL SWAP1 DUP4 SWAP1 PUSH1 0x0 DUP2 DUP2 DUP2 DUP6 DUP9 DUP9 CALL SWAP4 POP POP POP POP ISZERO DUP1 ISZERO PUSH2 0x4E1E JUMPI RETURNDATASIZE PUSH1 0x0 DUP1 RETURNDATACOPY RETURNDATASIZE PUSH1 0x0 REVERT JUMPDEST POP PUSH2 0x4E47 JUMP JUMPDEST PUSH2 0x220 DUP7 ADD MLOAD PUSH1 0x20 DUP9 ADD MLOAD PUSH1 0x8 SLOAD PUSH2 0x4E47 SWAP3 SWAP2 SWAP1 PUSH1 0x1 PUSH1 0x1 PUSH1 0xA0 SHL SUB AND DUP5 PUSH2 0x514B JUMP JUMPDEST POP JUMPDEST PUSH2 0x5041 JUMP JUMPDEST PUSH2 0x4E65 DUP6 PUSH1 0x20 ADD MLOAD DUP7 PUSH1 0xE0 ADD MLOAD DUP8 PUSH1 0x60 ADD MLOAD PUSH2 0x51F6 JUMP JUMPDEST PUSH2 0x4E49 DUP7 PUSH1 0x20 ADD MLOAD DUP7 PUSH1 0xE0 ADD MLOAD DUP8 PUSH1 0x80 ADD MLOAD PUSH2 0x51F6 JUMP JUMPDEST DUP5 PUSH1 0x80 ADD MLOAD DUP7 PUSH1 0x80 ADD MLOAD GT ISZERO PUSH2 0x4E91 JUMPI PUSH1 0x0 DUP1 REVERT JUMPDEST PUSH1 0x1 DUP6 PUSH2 0x100 ADD MLOAD PUSH1 0x1 DUP2 GT ISZERO PUSH2 0x4EB8 JUMPI PUSH4 0x4E487B71 PUSH1 0xE0 SHL PUSH1 0x0 MSTORE PUSH1 0x21 PUSH1 0x4 MSTORE PUSH1 0x24 PUSH1 0x0 REVERT JUMPDEST EQ ISZERO PUSH2 0x5013 JUMPI PUSH2 0x220 DUP6 ADD MLOAD PUSH1 0x1 PUSH1 0x1 PUSH1 0xA0 SHL SUB AND PUSH2 0x4ED6 JUMPI PUSH1 0x0 DUP1 REVERT JUMPDEST DUP5 PUSH1 0xC0 ADD MLOAD DUP7 PUSH1 0xC0 ADD MLOAD GT ISZERO PUSH2 0x4EEB JUMPI PUSH1 0x0 DUP1 REVERT JUMPDEST PUSH1 0x60 DUP7 ADD MLOAD ISZERO PUSH2 0x4F31 JUMPI PUSH1 0x0 PUSH2 0x2710 DUP5 DUP9 PUSH1 0x60 ADD MLOAD PUSH2 0x4F0A SWAP2 SWAP1 PUSH2 0x5E7E JUMP JUMPDEST PUSH2 0x4F14 SWAP2 SWAP1 PUSH2 0x5E5E JUMP JUMPDEST SWAP1 POP PUSH2 0x4F2F DUP7 PUSH2 0x220 ADD MLOAD DUP9 PUSH1 0x20 ADD MLOAD DUP10 PUSH1 0xE0 ADD MLOAD DUP5 PUSH2 0x514B JUMP JUMPDEST POP JUMPDEST PUSH1 0x80 DUP7 ADD MLOAD ISZERO PUSH2 0x4F77 JUMPI PUSH1 0x0 PUSH2 0x2710 DUP5 DUP9 PUSH1 0x80 ADD MLOAD PUSH2 0x4F50 SWAP2 SWAP1 PUSH2 0x5E7E JUMP JUMPDEST PUSH2 0x4F5A SWAP2 SWAP1 PUSH2 0x5E5E JUMP JUMPDEST SWAP1 POP PUSH2 0x4F75 DUP7 PUSH2 0x220 ADD MLOAD DUP8 PUSH1 0x20 ADD MLOAD DUP10 PUSH1 0xE0 ADD MLOAD DUP5 PUSH2 0x514B JUMP JUMPDEST POP JUMPDEST PUSH1 0xA0 DUP7 ADD MLOAD ISZERO PUSH2 0x4FC6 JUMPI PUSH1 0x0 PUSH2 0x2710 DUP5 DUP9 PUSH1 0xA0 ADD MLOAD PUSH2 0x4F96 SWAP2 SWAP1 PUSH2 0x5E7E JUMP JUMPDEST PUSH2 0x4FA0 SWAP2 SWAP1 PUSH2 0x5E5E JUMP JUMPDEST PUSH2 0x220 DUP8 ADD MLOAD PUSH1 0x20 DUP10 ADD MLOAD PUSH1 0x8 SLOAD SWAP3 SWAP4 POP PUSH2 0x4FC4 SWAP3 PUSH1 0x1 PUSH1 0x1 PUSH1 0xA0 SHL SUB AND DUP5 PUSH2 0x514B JUMP JUMPDEST POP JUMPDEST PUSH1 0xC0 DUP7 ADD MLOAD ISZERO PUSH2 0x4E49 JUMPI PUSH1 0x0 PUSH2 0x2710 DUP5 DUP9 PUSH1 0xC0 ADD MLOAD PUSH2 0x4FE5 SWAP2 SWAP1 PUSH2 0x5E7E JUMP JUMPDEST PUSH2 0x4FEF SWAP2 SWAP1 PUSH2 0x5E5E JUMP JUMPDEST PUSH2 0x220 DUP8 ADD MLOAD PUSH1 0x20 DUP9 ADD MLOAD PUSH1 0x8 SLOAD SWAP3 SWAP4 POP PUSH2 0x4E47 SWAP3 PUSH1 0x1 PUSH1 0x1 PUSH1 0xA0 SHL SUB AND DUP5 PUSH2 0x514B JUMP JUMPDEST PUSH2 0x502A DUP7 PUSH1 0x20 ADD MLOAD DUP8 PUSH1 0xE0 ADD MLOAD DUP9 PUSH1 0x60 ADD MLOAD PUSH2 0x51F6 JUMP JUMPDEST PUSH2 0x5041 DUP6 PUSH1 0x20 ADD MLOAD DUP8 PUSH1 0xE0 ADD MLOAD DUP9 PUSH1 0x80 ADD MLOAD PUSH2 0x51F6 JUMP JUMPDEST PUSH2 0x220 DUP6 ADD MLOAD PUSH1 0x1 PUSH1 0x1 PUSH1 0xA0 SHL SUB AND PUSH2 0x4ABA JUMPI DUP1 CALLVALUE LT ISZERO PUSH2 0x5061 JUMPI PUSH1 0x0 DUP1 REVERT JUMPDEST DUP5 PUSH1 0x20 ADD MLOAD PUSH1 0x1 PUSH1 0x1 PUSH1 0xA0 SHL SUB AND PUSH2 0x8FC DUP4 SWAP1 DUP2 ISZERO MUL SWAP1 PUSH1 0x40 MLOAD PUSH1 0x0 PUSH1 0x40 MLOAD DUP1 DUP4 SUB DUP2 DUP6 DUP9 DUP9 CALL SWAP4 POP POP POP POP ISZERO DUP1 ISZERO PUSH2 0x509E JUMPI RETURNDATASIZE PUSH1 0x0 DUP1 RETURNDATACOPY RETURNDATASIZE PUSH1 0x0 REVERT JUMPDEST POP PUSH1 0x0 PUSH2 0x50AB DUP3 CALLVALUE PUSH2 0x5E9D JUMP JUMPDEST SWAP1 POP DUP1 ISZERO PUSH2 0x50F2 JUMPI DUP7 PUSH1 0x20 ADD MLOAD PUSH1 0x1 PUSH1 0x1 PUSH1 0xA0 SHL SUB AND PUSH2 0x8FC DUP3 SWAP1 DUP2 ISZERO MUL SWAP1 PUSH1 0x40 MLOAD PUSH1 0x0 PUSH1 0x40 MLOAD DUP1 DUP4 SUB DUP2 DUP6 DUP9 DUP9 CALL SWAP4 POP POP POP POP ISZERO DUP1 ISZERO PUSH2 0x50F0 JUMPI RETURNDATASIZE PUSH1 0x0 DUP1 RETURNDATACOPY RETURNDATASIZE PUSH1 0x0 REVERT JUMPDEST POP JUMPDEST POP POP SWAP1 SWAP5 SWAP4 POP POP POP POP JUMP JUMPDEST PUSH1 0x0 DUP1 DUP4 PUSH1 0x1 DUP2 GT ISZERO PUSH2 0x5120 JUMPI PUSH4 0x4E487B71 PUSH1 0xE0 SHL PUSH1 0x0 MSTORE PUSH1 0x21 PUSH1 0x4 MSTORE PUSH1 0x24 PUSH1 0x0 REVERT JUMPDEST EQ DUP1 PUSH2 0x6DC JUMPI POP POP ISZERO ISZERO SWAP2 SWAP1 POP JUMP JUMPDEST PUSH1 0x0 TIMESTAMP DUP4 LT DUP1 ISZERO PUSH2 0x6DC JUMPI POP DUP2 ISZERO DUP1 PUSH2 0x6DC JUMPI POP POP TIMESTAMP LT SWAP2 SWAP1 POP JUMP JUMPDEST DUP1 ISZERO PUSH2 0x51F0 JUMPI PUSH1 0x3 SLOAD PUSH1 0x40 MLOAD PUSH4 0xAED65F5 PUSH1 0xE1 SHL DUP2 MSTORE PUSH1 0x1 PUSH1 0x1 PUSH1 0xA0 SHL SUB DUP7 DUP2 AND PUSH1 0x4 DUP4 ADD MSTORE DUP6 DUP2 AND PUSH1 0x24 DUP4 ADD MSTORE DUP5 DUP2 AND PUSH1 0x44 DUP4 ADD MSTORE PUSH1 0x64 DUP3 ADD DUP5 SWAP1 MSTORE SWAP1 SWAP2 AND SWAP1 PUSH4 0x15DACBEA SWAP1 PUSH1 0x84 ADD PUSH1 0x20 PUSH1 0x40 MLOAD DUP1 DUP4 SUB DUP2 PUSH1 0x0 DUP8 DUP1 EXTCODESIZE ISZERO DUP1 ISZERO PUSH2 0x51AF JUMPI PUSH1 0x0 DUP1 REVERT JUMPDEST POP GAS CALL ISZERO DUP1 ISZERO PUSH2 0x51C3 JUMPI RETURNDATASIZE PUSH1 0x0 DUP1 RETURNDATACOPY RETURNDATASIZE PUSH1 0x0 REVERT JUMPDEST POP POP POP POP PUSH1 0x40 MLOAD RETURNDATASIZE PUSH1 0x1F NOT PUSH1 0x1F DUP3 ADD AND DUP3 ADD DUP1 PUSH1 0x40 MSTORE POP DUP2 ADD SWAP1 PUSH2 0x51E7 SWAP2 SWAP1 PUSH2 0x5C0A JUMP JUMPDEST PUSH2 0x51F0 JUMPI PUSH1 0x0 DUP1 REVERT JUMPDEST POP POP POP POP JUMP JUMPDEST PUSH1 0x1 SLOAD PUSH2 0x520E SWAP1 PUSH1 0x1 PUSH1 0x1 PUSH1 0xA0 SHL SUB AND DUP5 DUP5 DUP5 PUSH2 0x514B JUMP JUMPDEST POP POP POP JUMP JUMPDEST PUSH1 0x0 DUP3 PUSH1 0x1F DUP4 ADD SLT PUSH2 0x5223 JUMPI DUP1 DUP2 REVERT JUMPDEST PUSH1 0x40 MLOAD PUSH2 0x1C0 DUP1 DUP3 ADD DUP3 DUP2 LT PUSH1 0x1 PUSH1 0x1 PUSH1 0x40 SHL SUB DUP3 GT OR ISZERO PUSH2 0x5247 JUMPI PUSH2 0x5247 PUSH2 0x5EE5 JUMP JUMPDEST PUSH1 0x40 MSTORE DUP2 DUP5 DUP3 DUP2 ADD DUP8 LT ISZERO PUSH2 0x525A JUMPI DUP5 DUP6 REVERT JUMPDEST DUP5 SWAP3 POP JUMPDEST PUSH1 0xE DUP4 LT ISZERO PUSH2 0x5287 JUMPI DUP1 CALLDATALOAD PUSH2 0x5272 DUP2 PUSH2 0x5F1C JUMP JUMPDEST DUP3 MSTORE PUSH1 0x1 SWAP3 SWAP1 SWAP3 ADD SWAP2 PUSH1 0x20 SWAP2 DUP3 ADD SWAP2 ADD PUSH2 0x525E JUMP JUMPDEST POP SWAP2 SWAP6 SWAP5 POP POP POP POP POP JUMP JUMPDEST PUSH1 0x0 DUP3 PUSH1 0x1F DUP4 ADD SLT PUSH2 0x52A2 JUMPI DUP1 DUP2 REVERT JUMPDEST PUSH1 0x40 MLOAD PUSH1 0xE0 DUP2 ADD DUP2 DUP2 LT PUSH1 0x1 PUSH1 0x1 PUSH1 0x40 SHL SUB DUP3 GT OR ISZERO PUSH2 0x52C4 JUMPI PUSH2 0x52C4 PUSH2 0x5EE5 JUMP JUMPDEST PUSH1 0x40 MSTORE DUP1 DUP4 PUSH1 0xE0 DUP2 ADD DUP7 LT ISZERO PUSH2 0x52D8 JUMPI DUP4 DUP5 REVERT JUMPDEST DUP4 JUMPDEST PUSH1 0x7 DUP2 LT ISZERO PUSH2 0x5287 JUMPI DUP2 CALLDATALOAD PUSH2 0x52EE DUP2 PUSH2 0x5F1C JUMP JUMPDEST DUP4 MSTORE PUSH1 0x20 SWAP3 DUP4 ADD SWAP3 SWAP2 SWAP1 SWAP2 ADD SWAP1 PUSH1 0x1 ADD PUSH2 0x52DA JUMP JUMPDEST PUSH1 0x0 DUP3 PUSH1 0x1F DUP4 ADD SLT PUSH2 0x5313 JUMPI DUP1 DUP2 REVERT JUMPDEST PUSH1 0x40 MLOAD PUSH1 0xA0 DUP2 ADD DUP2 DUP2 LT PUSH1 0x1 PUSH1 0x1 PUSH1 0x40 SHL SUB DUP3 GT OR ISZERO PUSH2 0x5335 JUMPI PUSH2 0x5335 PUSH2 0x5EE5 JUMP JUMPDEST PUSH1 0x40 MSTORE DUP1 DUP4 PUSH1 0xA0 DUP2 ADD DUP7 LT ISZERO PUSH2 0x5349 JUMPI DUP4 DUP5 REVERT JUMPDEST DUP4 JUMPDEST PUSH1 0x5 DUP2 LT ISZERO PUSH2 0x5287 JUMPI DUP2 CALLDATALOAD DUP4 MSTORE PUSH1 0x20 SWAP3 DUP4 ADD SWAP3 SWAP1 SWAP2 ADD SWAP1 PUSH1 0x1 ADD PUSH2 0x534B JUMP JUMPDEST PUSH1 0x0 DUP3 PUSH1 0x1F DUP4 ADD SLT PUSH2 0x537A JUMPI DUP1 DUP2 REVERT JUMPDEST PUSH1 0x40 MLOAD PUSH2 0x240 DUP1 DUP3 ADD DUP3 DUP2 LT PUSH1 0x1 PUSH1 0x1 PUSH1 0x40 SHL SUB DUP3 GT OR ISZERO PUSH2 0x539E JUMPI PUSH2 0x539E PUSH2 0x5EE5 JUMP JUMPDEST PUSH1 0x40 MSTORE DUP2 DUP5 DUP3 DUP2 ADD DUP8 LT ISZERO PUSH2 0x53B1 JUMPI DUP5 DUP6 REVERT JUMPDEST DUP5 SWAP3 POP JUMPDEST PUSH1 0x12 DUP4 LT ISZERO PUSH2 0x5287 JUMPI DUP1 CALLDATALOAD DUP3 MSTORE PUSH1 0x1 SWAP3 SWAP1 SWAP3 ADD SWAP2 PUSH1 0x20 SWAP2 DUP3 ADD SWAP2 ADD PUSH2 0x53B5 JUMP JUMPDEST PUSH1 0x0 DUP3 PUSH1 0x1F DUP4 ADD SLT PUSH2 0x53E5 JUMPI DUP1 DUP2 REVERT JUMPDEST PUSH1 0x40 MLOAD PUSH2 0x120 DUP1 DUP3 ADD DUP3 DUP2 LT PUSH1 0x1 PUSH1 0x1 PUSH1 0x40 SHL SUB DUP3 GT OR ISZERO PUSH2 0x5409 JUMPI PUSH2 0x5409 PUSH2 0x5EE5 JUMP JUMPDEST PUSH1 0x40 MSTORE DUP2 DUP5 DUP3 DUP2 ADD DUP8 LT ISZERO PUSH2 0x541C JUMPI DUP5 DUP6 REVERT JUMPDEST DUP5 SWAP3 POP JUMPDEST PUSH1 0x9 DUP4 LT ISZERO PUSH2 0x5287 JUMPI DUP1 CALLDATALOAD DUP3 MSTORE PUSH1 0x1 SWAP3 SWAP1 SWAP3 ADD SWAP2 PUSH1 0x20 SWAP2 DUP3 ADD SWAP2 ADD PUSH2 0x5420 JUMP JUMPDEST PUSH1 0x0 DUP3 PUSH1 0x1F DUP4 ADD SLT PUSH2 0x5450 JUMPI DUP1 DUP2 REVERT JUMPDEST PUSH1 0x40 MLOAD PUSH1 0x40 DUP2 ADD DUP2 DUP2 LT PUSH1 0x1 PUSH1 0x1 PUSH1 0x40 SHL SUB DUP3 GT OR ISZERO PUSH2 0x5472 JUMPI PUSH2 0x5472 PUSH2 0x5EE5 JUMP JUMPDEST DUP1 PUSH1 0x40 MSTORE POP DUP1 DUP4 DUP6 PUSH1 0x40 DUP7 ADD GT ISZERO PUSH2 0x5488 JUMPI DUP4 DUP5 REVERT JUMPDEST DUP4 JUMPDEST PUSH1 0x2 DUP2 LT ISZERO PUSH2 0x5287 JUMPI PUSH2 0x549C DUP3 PUSH2 0x55C8 JUMP JUMPDEST DUP4 MSTORE PUSH1 0x20 SWAP3 DUP4 ADD SWAP3 SWAP2 SWAP1 SWAP2 ADD SWAP1 PUSH1 0x1 ADD PUSH2 0x548A JUMP JUMPDEST PUSH1 0x0 DUP3 PUSH1 0x1F DUP4 ADD SLT PUSH2 0x54C1 JUMPI DUP1 DUP2 REVERT JUMPDEST PUSH1 0x40 MLOAD PUSH2 0x100 DUP1 DUP3 ADD DUP3 DUP2 LT PUSH1 0x1 PUSH1 0x1 PUSH1 0x40 SHL SUB DUP3 GT OR ISZERO PUSH2 0x54E5 JUMPI PUSH2 0x54E5 PUSH2 0x5EE5 JUMP JUMPDEST PUSH1 0x40 MSTORE DUP2 DUP5 DUP3 DUP2 ADD DUP8 LT ISZERO PUSH2 0x54F8 JUMPI DUP5 DUP6 REVERT JUMPDEST DUP5 SWAP3 POP JUMPDEST PUSH1 0x8 DUP4 LT ISZERO PUSH2 0x5287 JUMPI PUSH2 0x550E DUP2 PUSH2 0x55C8 JUMP JUMPDEST DUP3 MSTORE PUSH1 0x1 SWAP3 SWAP1 SWAP3 ADD SWAP2 PUSH1 0x20 SWAP2 DUP3 ADD SWAP2 ADD PUSH2 0x54FC JUMP JUMPDEST DUP1 CALLDATALOAD PUSH2 0x552E DUP2 PUSH2 0x5F31 JUMP JUMPDEST SWAP2 SWAP1 POP JUMP JUMPDEST PUSH1 0x0 DUP3 PUSH1 0x1F DUP4 ADD SLT PUSH2 0x5543 JUMPI DUP1 DUP2 REVERT JUMPDEST DUP2 CALLDATALOAD PUSH1 0x1 PUSH1 0x1 PUSH1 0x40 SHL SUB DUP1 DUP3 GT ISZERO PUSH2 0x555D JUMPI PUSH2 0x555D PUSH2 0x5EE5 JUMP JUMPDEST PUSH1 0x40 MLOAD PUSH1 0x1F DUP4 ADD PUSH1 0x1F NOT SWAP1 DUP2 AND PUSH1 0x3F ADD AND DUP2 ADD SWAP1 DUP3 DUP3 GT DUP2 DUP4 LT OR ISZERO PUSH2 0x5585 JUMPI PUSH2 0x5585 PUSH2 0x5EE5 JUMP JUMPDEST DUP2 PUSH1 0x40 MSTORE DUP4 DUP2 MSTORE DUP7 PUSH1 0x20 DUP6 DUP9 ADD ADD GT ISZERO PUSH2 0x559D JUMPI DUP5 DUP6 REVERT JUMPDEST DUP4 PUSH1 0x20 DUP8 ADD PUSH1 0x20 DUP4 ADD CALLDATACOPY SWAP3 DUP4 ADD PUSH1 0x20 ADD SWAP4 SWAP1 SWAP4 MSTORE POP SWAP4 SWAP3 POP POP POP JUMP JUMPDEST DUP1 CALLDATALOAD PUSH1 0x2 DUP2 LT PUSH2 0x552E JUMPI PUSH1 0x0 DUP1 REVERT JUMPDEST DUP1 CALLDATALOAD PUSH1 0xFF DUP2 AND DUP2 EQ PUSH2 0x552E JUMPI PUSH1 0x0 DUP1 REVERT JUMPDEST PUSH1 0x0 PUSH1 0x20 DUP3 DUP5 SUB SLT ISZERO PUSH2 0x55EA JUMPI DUP1 DUP2 REVERT JUMPDEST DUP2 CALLDATALOAD PUSH2 0x6DC DUP2 PUSH2 0x5F1C JUMP JUMPDEST PUSH1 0x0 PUSH1 0x20 DUP3 DUP5 SUB SLT ISZERO PUSH2 0x5606 JUMPI DUP1 DUP2 REVERT JUMPDEST DUP2 MLOAD PUSH2 0x6DC DUP2 PUSH2 0x5F1C JUMP JUMPDEST PUSH1 0x0 DUP1 PUSH1 0x0 PUSH1 0x60 DUP5 DUP7 SUB SLT ISZERO PUSH2 0x5625 JUMPI DUP2 DUP3 REVERT JUMPDEST DUP4 CALLDATALOAD PUSH2 0x5630 DUP2 PUSH2 0x5F1C JUMP JUMPDEST SWAP3 POP PUSH1 0x20 DUP5 ADD CALLDATALOAD PUSH1 0x1 PUSH1 0x1 PUSH1 0x40 SHL SUB DUP1 DUP3 GT ISZERO PUSH2 0x564B JUMPI DUP4 DUP5 REVERT JUMPDEST PUSH2 0x5657 DUP8 DUP4 DUP9 ADD PUSH2 0x5533 JUMP JUMPDEST SWAP4 POP PUSH1 0x40 DUP7 ADD CALLDATALOAD SWAP2 POP DUP1 DUP3 GT ISZERO PUSH2 0x566C JUMPI DUP3 DUP4 REVERT JUMPDEST POP PUSH2 0x5679 DUP7 DUP3 DUP8 ADD PUSH2 0x5533 JUMP JUMPDEST SWAP2 POP POP SWAP3 POP SWAP3 POP SWAP3 JUMP JUMPDEST PUSH1 0x0 DUP1 PUSH1 0x0 DUP1 PUSH1 0x0 DUP1 PUSH1 0x0 DUP1 PUSH1 0x0 PUSH2 0x5C0 DUP11 DUP13 SUB SLT ISZERO PUSH2 0x56A1 JUMPI DUP7 DUP8 REVERT JUMPDEST PUSH2 0x56AB DUP12 DUP12 PUSH2 0x5213 JUMP JUMPDEST SWAP9 POP PUSH2 0x56BB DUP12 PUSH2 0x1C0 DUP13 ADD PUSH2 0x536A JUMP JUMPDEST SWAP8 POP PUSH2 0x56CB DUP12 PUSH2 0x400 DUP13 ADD PUSH2 0x54B1 JUMP JUMPDEST SWAP7 POP PUSH2 0x500 DUP11 ADD CALLDATALOAD PUSH1 0x1 PUSH1 0x1 PUSH1 0x40 SHL SUB DUP1 DUP3 GT ISZERO PUSH2 0x56E7 JUMPI DUP7 DUP8 REVERT JUMPDEST PUSH2 0x56F3 DUP14 DUP4 DUP15 ADD PUSH2 0x5533 JUMP JUMPDEST SWAP8 POP PUSH2 0x520 DUP13 ADD CALLDATALOAD SWAP2 POP DUP1 DUP3 GT ISZERO PUSH2 0x5709 JUMPI DUP7 DUP8 REVERT JUMPDEST PUSH2 0x5715 DUP14 DUP4 DUP15 ADD PUSH2 0x5533 JUMP JUMPDEST SWAP7 POP PUSH2 0x540 DUP13 ADD CALLDATALOAD SWAP2 POP DUP1 DUP3 GT ISZERO PUSH2 0x572B JUMPI DUP6 DUP7 REVERT JUMPDEST PUSH2 0x5737 DUP14 DUP4 DUP15 ADD PUSH2 0x5533 JUMP JUMPDEST SWAP6 POP PUSH2 0x560 DUP13 ADD CALLDATALOAD SWAP2 POP DUP1 DUP3 GT ISZERO PUSH2 0x574D JUMPI DUP5 DUP6 REVERT JUMPDEST PUSH2 0x5759 DUP14 DUP4 DUP15 ADD PUSH2 0x5533 JUMP JUMPDEST SWAP5 POP PUSH2 0x580 DUP13 ADD CALLDATALOAD SWAP2 POP DUP1 DUP3 GT ISZERO PUSH2 0x576F JUMPI DUP4 DUP5 REVERT JUMPDEST PUSH2 0x577B DUP14 DUP4 DUP15 ADD PUSH2 0x5533 JUMP JUMPDEST SWAP4 POP PUSH2 0x5A0 DUP13 ADD CALLDATALOAD SWAP2 POP DUP1 DUP3 GT ISZERO PUSH2 0x5791 JUMPI DUP3 DUP4 REVERT JUMPDEST POP PUSH2 0x579E DUP13 DUP3 DUP14 ADD PUSH2 0x5533 JUMP JUMPDEST SWAP2 POP POP SWAP3 SWAP6 SWAP9 POP SWAP3 SWAP6 SWAP9 POP SWAP3 SWAP6 SWAP9 JUMP JUMPDEST PUSH1 0x0 DUP1 PUSH1 0x0 DUP1 PUSH1 0x0 DUP1 PUSH1 0x0 DUP1 PUSH1 0x0 DUP1 PUSH1 0x0 PUSH2 0x6A0 DUP13 DUP15 SUB SLT ISZERO PUSH2 0x57CF JUMPI DUP5 DUP6 REVERT JUMPDEST PUSH2 0x57D9 DUP14 DUP14 PUSH2 0x5213 JUMP JUMPDEST SWAP11 POP PUSH2 0x57E9 DUP14 PUSH2 0x1C0 DUP15 ADD PUSH2 0x536A JUMP JUMPDEST SWAP10 POP PUSH2 0x57F9 DUP14 PUSH2 0x400 DUP15 ADD PUSH2 0x54B1 JUMP JUMPDEST SWAP9 POP PUSH1 0x1 PUSH1 0x1 PUSH1 0x40 SHL SUB DUP1 PUSH2 0x500 DUP15 ADD CALLDATALOAD GT ISZERO PUSH2 0x5814 JUMPI DUP6 DUP7 REVERT JUMPDEST PUSH2 0x5825 DUP15 PUSH2 0x500 DUP16 ADD CALLDATALOAD DUP16 ADD PUSH2 0x5533 JUMP JUMPDEST SWAP9 POP DUP1 PUSH2 0x520 DUP15 ADD CALLDATALOAD GT ISZERO PUSH2 0x5838 JUMPI DUP6 DUP7 REVERT JUMPDEST PUSH2 0x5849 DUP15 PUSH2 0x520 DUP16 ADD CALLDATALOAD DUP16 ADD PUSH2 0x5533 JUMP JUMPDEST SWAP8 POP DUP1 PUSH2 0x540 DUP15 ADD CALLDATALOAD GT ISZERO PUSH2 0x585C JUMPI DUP6 DUP7 REVERT JUMPDEST PUSH2 0x586D DUP15 PUSH2 0x540 DUP16 ADD CALLDATALOAD DUP16 ADD PUSH2 0x5533 JUMP JUMPDEST SWAP7 POP DUP1 PUSH2 0x560 DUP15 ADD CALLDATALOAD GT ISZERO PUSH2 0x5880 JUMPI DUP6 DUP7 REVERT JUMPDEST PUSH2 0x5891 DUP15 PUSH2 0x560 DUP16 ADD CALLDATALOAD DUP16 ADD PUSH2 0x5533 JUMP JUMPDEST SWAP6 POP DUP1 PUSH2 0x580 DUP15 ADD CALLDATALOAD GT ISZERO PUSH2 0x58A4 JUMPI DUP3 DUP4 REVERT JUMPDEST PUSH2 0x58B5 DUP15 PUSH2 0x580 DUP16 ADD CALLDATALOAD DUP16 ADD PUSH2 0x5533 JUMP JUMPDEST SWAP5 POP DUP1 PUSH2 0x5A0 DUP15 ADD CALLDATALOAD GT ISZERO PUSH2 0x58C8 JUMPI DUP3 DUP4 REVERT JUMPDEST POP PUSH2 0x58DA DUP14 PUSH2 0x5A0 DUP15 ADD CALLDATALOAD DUP15 ADD PUSH2 0x5533 JUMP JUMPDEST SWAP3 POP PUSH2 0x58EA DUP14 PUSH2 0x5C0 DUP15 ADD PUSH2 0x5440 JUMP JUMPDEST SWAP2 POP PUSH2 0x58FA DUP14 PUSH2 0x600 DUP15 ADD PUSH2 0x5303 JUMP JUMPDEST SWAP1 POP SWAP3 SWAP6 SWAP9 SWAP12 POP SWAP3 SWAP6 SWAP9 SWAP12 SWAP1 SWAP4 SWAP7 SWAP10 POP JUMP JUMPDEST PUSH1 0x0 DUP1 PUSH1 0x0 DUP1 PUSH1 0x0 DUP1 PUSH1 0x0 DUP1 PUSH1 0x0 PUSH2 0x2E0 DUP11 DUP13 SUB SLT ISZERO PUSH2 0x592A JUMPI DUP3 DUP4 REVERT JUMPDEST PUSH2 0x5934 DUP12 DUP12 PUSH2 0x5292 JUMP JUMPDEST SWAP9 POP PUSH2 0x5943 DUP12 PUSH1 0xE0 DUP13 ADD PUSH2 0x53D5 JUMP JUMPDEST SWAP8 POP PUSH2 0x5952 PUSH2 0x200 DUP12 ADD PUSH2 0x55B9 JUMP JUMPDEST SWAP7 POP PUSH2 0x5961 PUSH2 0x220 DUP12 ADD PUSH2 0x55B9 JUMP JUMPDEST SWAP6 POP PUSH2 0x5970 PUSH2 0x240 DUP12 ADD PUSH2 0x55B9 JUMP JUMPDEST SWAP5 POP PUSH2 0x597F PUSH2 0x260 DUP12 ADD PUSH2 0x55B9 JUMP JUMPDEST SWAP4 POP PUSH2 0x280 DUP11 ADD CALLDATALOAD PUSH1 0x1 PUSH1 0x1 PUSH1 0x40 SHL SUB DUP1 DUP3 GT ISZERO PUSH2 0x599B JUMPI DUP5 DUP6 REVERT JUMPDEST PUSH2 0x59A7 DUP14 DUP4 DUP15 ADD PUSH2 0x5533 JUMP JUMPDEST SWAP5 POP PUSH2 0x2A0 DUP13 ADD CALLDATALOAD SWAP2 POP DUP1 DUP3 GT ISZERO PUSH2 0x59BD JUMPI DUP4 DUP5 REVERT JUMPDEST PUSH2 0x59C9 DUP14 DUP4 DUP15 ADD PUSH2 0x5533 JUMP JUMPDEST SWAP4 POP PUSH2 0x2C0 DUP13 ADD CALLDATALOAD SWAP2 POP DUP1 DUP3 GT ISZERO PUSH2 0x5791 JUMPI DUP3 DUP4 REVERT JUMPDEST PUSH1 0x0 DUP1 PUSH1 0x0 DUP1 PUSH1 0x0 DUP1 PUSH1 0x0 DUP1 PUSH1 0x0 DUP1 PUSH2 0x300 DUP12 DUP14 SUB SLT ISZERO PUSH2 0x59FE JUMPI DUP4 DUP5 REVERT JUMPDEST PUSH2 0x5A08 DUP13 DUP13 PUSH2 0x5292 JUMP JUMPDEST SWAP10 POP PUSH2 0x5A17 DUP13 PUSH1 0xE0 DUP14 ADD PUSH2 0x53D5 JUMP JUMPDEST SWAP9 POP PUSH2 0x5A26 PUSH2 0x200 DUP13 ADD PUSH2 0x55B9 JUMP JUMPDEST SWAP8 POP PUSH2 0x5A35 PUSH2 0x220 DUP13 ADD PUSH2 0x55B9 JUMP JUMPDEST SWAP7 POP PUSH2 0x5A44 PUSH2 0x240 DUP13 ADD PUSH2 0x55B9 JUMP JUMPDEST SWAP6 POP PUSH2 0x5A53 PUSH2 0x260 DUP13 ADD PUSH2 0x55B9 JUMP JUMPDEST SWAP5 POP PUSH2 0x280 DUP12 ADD CALLDATALOAD PUSH1 0x1 PUSH1 0x1 PUSH1 0x40 SHL SUB DUP1 DUP3 GT ISZERO PUSH2 0x5A6F JUMPI DUP6 DUP7 REVERT JUMPDEST PUSH2 0x5A7B DUP15 DUP4 DUP16 ADD PUSH2 0x5533 JUMP JUMPDEST SWAP6 POP PUSH2 0x2A0 DUP14 ADD CALLDATALOAD SWAP2 POP DUP1 DUP3 GT ISZERO PUSH2 0x5A91 JUMPI DUP5 DUP6 REVERT JUMPDEST PUSH2 0x5A9D DUP15 DUP4 DUP16 ADD PUSH2 0x5533 JUMP JUMPDEST SWAP5 POP PUSH2 0x2C0 DUP14 ADD CALLDATALOAD SWAP2 POP DUP1 DUP3 GT ISZERO PUSH2 0x5AB3 JUMPI DUP4 DUP5 REVERT JUMPDEST POP PUSH2 0x5AC0 DUP14 DUP3 DUP15 ADD PUSH2 0x5533 JUMP JUMPDEST SWAP3 POP POP PUSH2 0x5AD0 PUSH2 0x2E0 DUP13 ADD PUSH2 0x5523 JUMP JUMPDEST SWAP1 POP SWAP3 SWAP6 SWAP9 SWAP12 SWAP2 SWAP5 SWAP8 SWAP11 POP SWAP3 SWAP6 SWAP9 POP JUMP JUMPDEST PUSH1 0x0 DUP1 PUSH1 0x0 DUP1 PUSH1 0x0 DUP1 PUSH1 0x0 DUP1 PUSH1 0x0 DUP1 PUSH1 0x0 DUP1 PUSH2 0x340 DUP14 DUP16 SUB SLT ISZERO PUSH2 0x5B03 JUMPI DUP6 DUP7 REVERT JUMPDEST PUSH2 0x5B0D DUP15 DUP15 PUSH2 0x5292 JUMP JUMPDEST SWAP12 POP PUSH2 0x5B1C DUP15 PUSH1 0xE0 DUP16 ADD PUSH2 0x53D5 JUMP JUMPDEST SWAP11 POP PUSH2 0x5B2B PUSH2 0x200 DUP15 ADD PUSH2 0x55B9 JUMP JUMPDEST SWAP10 POP PUSH2 0x5B3A PUSH2 0x220 DUP15 ADD PUSH2 0x55B9 JUMP JUMPDEST SWAP9 POP PUSH2 0x5B49 PUSH2 0x240 DUP15 ADD PUSH2 0x55B9 JUMP JUMPDEST SWAP8 POP PUSH2 0x5B58 PUSH2 0x260 DUP15 ADD PUSH2 0x55B9 JUMP JUMPDEST SWAP7 POP PUSH1 0x1 PUSH1 0x1 PUSH1 0x40 SHL SUB PUSH2 0x280 DUP15 ADD CALLDATALOAD GT ISZERO PUSH2 0x5B72 JUMPI DUP6 DUP7 REVERT JUMPDEST PUSH2 0x5B83 DUP15 PUSH2 0x280 DUP16 ADD CALLDATALOAD DUP16 ADD PUSH2 0x5533 JUMP JUMPDEST SWAP6 POP PUSH1 0x1 PUSH1 0x1 PUSH1 0x40 SHL SUB PUSH2 0x2A0 DUP15 ADD CALLDATALOAD GT ISZERO PUSH2 0x5B9D JUMPI DUP1 DUP2 REVERT JUMPDEST PUSH2 0x5BAE DUP15 PUSH2 0x2A0 DUP16 ADD CALLDATALOAD DUP16 ADD PUSH2 0x5533 JUMP JUMPDEST SWAP5 POP PUSH1 0x1 PUSH1 0x1 PUSH1 0x40 SHL SUB PUSH2 0x2C0 DUP15 ADD CALLDATALOAD GT ISZERO PUSH2 0x5BC8 JUMPI DUP1 DUP2 REVERT JUMPDEST PUSH2 0x5BD9 DUP15 PUSH2 0x2C0 DUP16 ADD CALLDATALOAD DUP16 ADD PUSH2 0x5533 JUMP JUMPDEST SWAP4 POP PUSH2 0x5BE8 PUSH2 0x2E0 DUP15 ADD PUSH2 0x55C8 JUMP JUMPDEST SWAP3 POP PUSH2 0x300 DUP14 ADD CALLDATALOAD SWAP2 POP PUSH2 0x320 DUP14 ADD CALLDATALOAD SWAP1 POP SWAP3 SWAP6 SWAP9 SWAP12 POP SWAP3 SWAP6 SWAP9 SWAP12 POP SWAP3 SWAP6 SWAP9 SWAP12 JUMP JUMPDEST PUSH1 0x0 PUSH1 0x20 DUP3 DUP5 SUB SLT ISZERO PUSH2 0x5C1B JUMPI DUP1 DUP2 REVERT JUMPDEST DUP2 MLOAD PUSH2 0x6DC DUP2 PUSH2 0x5F31 JUMP JUMPDEST PUSH1 0x0 PUSH1 0x20 DUP3 DUP5 SUB SLT ISZERO PUSH2 0x5C37 JUMPI DUP1 DUP2 REVERT JUMPDEST POP CALLDATALOAD SWAP2 SWAP1 POP JUMP JUMPDEST PUSH1 0x0 DUP2 MLOAD DUP1 DUP5 MSTORE DUP2 JUMPDEST DUP2 DUP2 LT ISZERO PUSH2 0x5C63 JUMPI PUSH1 0x20 DUP2 DUP6 ADD DUP2 ADD MLOAD DUP7 DUP4 ADD DUP3 ADD MSTORE ADD PUSH2 0x5C47 JUMP JUMPDEST DUP2 DUP2 GT ISZERO PUSH2 0x5C74 JUMPI DUP3 PUSH1 0x20 DUP4 DUP8 ADD ADD MSTORE JUMPDEST POP PUSH1 0x1F ADD PUSH1 0x1F NOT AND SWAP3 SWAP1 SWAP3 ADD PUSH1 0x20 ADD SWAP3 SWAP2 POP POP JUMP JUMPDEST PUSH1 0x1 PUSH1 0x1 PUSH1 0xA0 SHL SUB DUP12 DUP2 AND DUP3 MSTORE DUP11 DUP2 AND PUSH1 0x20 DUP4 ADD MSTORE PUSH1 0x40 DUP3 ADD DUP11 SWAP1 MSTORE PUSH1 0x60 DUP3 ADD DUP10 SWAP1 MSTORE PUSH1 0x80 DUP3 ADD DUP9 SWAP1 MSTORE PUSH1 0xA0 DUP3 ADD DUP8 SWAP1 MSTORE PUSH2 0x140 DUP3 ADD SWAP1 PUSH2 0x5CC9 DUP8 PUSH2 0x5EFB JUMP JUMPDEST DUP7 PUSH1 0xC0 DUP5 ADD MSTORE PUSH2 0x5CD8 DUP7 PUSH2 0x5EFB JUMP JUMPDEST DUP6 PUSH1 0xE0 DUP5 ADD MSTORE PUSH2 0x5CE7 DUP6 PUSH2 0x5EFB JUMP JUMPDEST DUP5 PUSH2 0x100 DUP5 ADD MSTORE DUP1 DUP5 AND PUSH2 0x120 DUP5 ADD MSTORE POP SWAP12 SWAP11 POP POP POP POP POP POP POP POP POP POP POP JUMP JUMPDEST PUSH1 0x1 PUSH1 0x1 PUSH1 0xA0 SHL SUB DUP5 AND DUP2 MSTORE PUSH2 0x5D1C DUP4 PUSH2 0x5EFB JUMP JUMPDEST DUP3 PUSH1 0x20 DUP3 ADD MSTORE PUSH1 0x60 PUSH1 0x40 DUP3 ADD MSTORE PUSH1 0x0 PUSH2 0x4386 PUSH1 0x60 DUP4 ADD DUP5 PUSH2 0x5C3E JUMP JUMPDEST PUSH1 0x0 PUSH2 0x180 PUSH2 0x5D46 DUP16 PUSH2 0x5EFB JUMP JUMPDEST DUP15 DUP4 MSTORE DUP1 PUSH1 0x20 DUP5 ADD MSTORE PUSH2 0x5D5B DUP2 DUP5 ADD DUP16 PUSH2 0x5C3E JUMP JUMPDEST SWAP1 POP DUP3 DUP2 SUB PUSH1 0x40 DUP5 ADD MSTORE PUSH2 0x5D6F DUP2 DUP15 PUSH2 0x5C3E JUMP JUMPDEST PUSH1 0x1 PUSH1 0x1 PUSH1 0xA0 SHL SUB DUP14 DUP2 AND PUSH1 0x60 DUP7 ADD MSTORE DUP5 DUP3 SUB PUSH1 0x80 DUP7 ADD MSTORE SWAP1 SWAP2 POP PUSH2 0x5D94 DUP3 DUP14 PUSH2 0x5C3E JUMP JUMPDEST SWAP11 AND PUSH1 0xA0 DUP5 ADD MSTORE POP POP PUSH1 0xC0 DUP2 ADD SWAP7 SWAP1 SWAP7 MSTORE PUSH1 0xE0 DUP7 ADD SWAP5 SWAP1 SWAP5 MSTORE PUSH2 0x100 DUP6 ADD SWAP3 SWAP1 SWAP3 MSTORE PUSH2 0x120 DUP5 ADD MSTORE PUSH2 0x140 DUP4 ADD MSTORE ISZERO ISZERO PUSH2 0x160 SWAP1 SWAP2 ADD MSTORE SWAP6 SWAP5 POP POP POP POP POP JUMP JUMPDEST PUSH1 0x20 DUP2 MSTORE PUSH1 0x0 PUSH2 0x6DC PUSH1 0x20 DUP4 ADD DUP5 PUSH2 0x5C3E JUMP JUMPDEST PUSH1 0x20 DUP1 DUP3 MSTORE PUSH1 0x10 SWAP1 DUP3 ADD MSTORE PUSH16 0x14185D5CD8589B194E881C185D5CD959 PUSH1 0x82 SHL PUSH1 0x40 DUP3 ADD MSTORE PUSH1 0x60 ADD SWAP1 JUMP JUMPDEST PUSH1 0x20 DUP1 DUP3 MSTORE DUP2 DUP2 ADD MSTORE PUSH32 0x4F776E61626C653A2063616C6C6572206973206E6F7420746865206F776E6572 PUSH1 0x40 DUP3 ADD MSTORE PUSH1 0x60 ADD SWAP1 JUMP JUMPDEST PUSH1 0x0 DUP3 NOT DUP3 GT ISZERO PUSH2 0x5E59 JUMPI PUSH2 0x5E59 PUSH2 0x5ECF JUMP JUMPDEST POP ADD SWAP1 JUMP JUMPDEST PUSH1 0x0 DUP3 PUSH2 0x5E79 JUMPI PUSH4 0x4E487B71 PUSH1 0xE0 SHL DUP2 MSTORE PUSH1 0x12 PUSH1 0x4 MSTORE PUSH1 0x24 DUP2 REVERT JUMPDEST POP DIV SWAP1 JUMP JUMPDEST PUSH1 0x0 DUP2 PUSH1 0x0 NOT DIV DUP4 GT DUP3 ISZERO ISZERO AND ISZERO PUSH2 0x5E98 JUMPI PUSH2 0x5E98 PUSH2 0x5ECF JUMP JUMPDEST POP MUL SWAP1 JUMP JUMPDEST PUSH1 0x0 DUP3 DUP3 LT ISZERO PUSH2 0x5EAF JUMPI PUSH2 0x5EAF PUSH2 0x5ECF JUMP JUMPDEST POP SUB SWAP1 JUMP JUMPDEST PUSH1 0x0 PUSH1 0x0 NOT DUP3 EQ ISZERO PUSH2 0x5EC8 JUMPI PUSH2 0x5EC8 PUSH2 0x5ECF JUMP JUMPDEST POP PUSH1 0x1 ADD SWAP1 JUMP JUMPDEST PUSH4 0x4E487B71 PUSH1 0xE0 SHL PUSH1 0x0 MSTORE PUSH1 0x11 PUSH1 0x4 MSTORE PUSH1 0x24 PUSH1 0x0 REVERT JUMPDEST PUSH4 0x4E487B71 PUSH1 0xE0 SHL PUSH1 0x0 MSTORE PUSH1 0x41 PUSH1 0x4 MSTORE PUSH1 0x24 PUSH1 0x0 REVERT JUMPDEST PUSH1 0x2 DUP2 LT PUSH2 0x5F19 JUMPI PUSH4 0x4E487B71 PUSH1 0xE0 SHL PUSH1 0x0 MSTORE PUSH1 0x21 PUSH1 0x4 MSTORE PUSH1 0x24 PUSH1 0x0 REVERT JUMPDEST POP JUMP JUMPDEST PUSH1 0x1 PUSH1 0x1 PUSH1 0xA0 SHL SUB DUP2 AND DUP2 EQ PUSH2 0x5F19 JUMPI PUSH1 0x0 DUP1 REVERT JUMPDEST DUP1 ISZERO ISZERO DUP2 EQ PUSH2 0x5F19 JUMPI PUSH1 0x0 DUP1 REVERT INVALID LOG2 PUSH5 0x6970667358 0x22 SLT KECCAK256 0xC4 ADDRESS 0xB1 0xC DUP9 0x2A PUSH17 0x1FE9E5A9A1B4F4159253C07CA0980D17DE 0x1F 0xE8 REVERT SWAP6 0xB8 PUSH17 0xC75564736F6C6343000804003300000000 "
		},
		"gasEstimates": {
			"creation": {
				"codeDepositCost": "4887400",
				"executionCost": "infinite",
				"totalCost": "infinite"
			},
			"external": {
				"INVERSE_BASIS_POINT()": "306",
				"approveOrder_(address[7],uint256[9],uint8,uint8,uint8,uint8,bytes,bytes,bytes,bool)": "infinite",
				"approvedOrders(bytes32)": "1216",
				"atomicMatch_(address[14],uint256[18],uint8[8],bytes,bytes,bytes,bytes,bytes,bytes,uint8[2],bytes32[5])": "infinite",
				"calculateCurrentPrice_(address[7],uint256[9],uint8,uint8,uint8,uint8,bytes,bytes,bytes)": "infinite",
				"calculateMatchPrice_(address[14],uint256[18],uint8[8],bytes,bytes,bytes,bytes,bytes,bytes)": "infinite",
				"cancelOrder_(address[7],uint256[9],uint8,uint8,uint8,uint8,bytes,bytes,bytes,uint8,bytes32,bytes32)": "infinite",
				"cancelledOrFinalized(bytes32)": "1195",
				"changeMinimumMakerProtocolFee(uint256)": "22034",
				"changeMinimumTakerProtocolFee(uint256)": "21967",
				"changeProtocolFeeRecipient(address)": "22908",
				"changeProtocolFeeTokenAddress(address)": "24324",
				"codename()": "infinite",
				"exchangeToken()": "1148",
				"hashOrder_(address[7],uint256[9],uint8,uint8,uint8,uint8,bytes,bytes,bytes)": "infinite",
				"hashToSign_(address[7],uint256[9],uint8,uint8,uint8,uint8,bytes,bytes,bytes)": "infinite",
				"minimumMakerProtocolFee()": "1085",
				"minimumTakerProtocolFee()": "1063",
				"name()": "infinite",
				"owner()": "1131",
				"pause()": "23860",
				"paused()": "1111",
				"protocolFeeRecipient()": "1104",
				"registry()": "1105",
				"renounceOwnership()": "24276",
				"staticCall(address,bytes,bytes)": "infinite",
				"tokenTransferProxy()": "1106",
				"transferOwnership(address)": "24518",
				"unPause()": "23885",
				"validateOrderParameters_(address[7],uint256[9],uint8,uint8,uint8,uint8,bytes,bytes,bytes)": "infinite",
				"validateOrder_(address[7],uint256[9],uint8,uint8,uint8,uint8,bytes,bytes,bytes,uint8,bytes32,bytes32)": "infinite",
				"version()": "infinite"
			}
		},
		"methodIdentifiers": {
			"INVERSE_BASIS_POINT()": "cae6047f",
			"approveOrder_(address[7],uint256[9],uint8,uint8,uint8,uint8,bytes,bytes,bytes,bool)": "79666868",
			"approvedOrders(bytes32)": "e57d4adb",
			"atomicMatch_(address[14],uint256[18],uint8[8],bytes,bytes,bytes,bytes,bytes,bytes,uint8[2],bytes32[5])": "ab834bab",
			"calculateCurrentPrice_(address[7],uint256[9],uint8,uint8,uint8,uint8,bytes,bytes,bytes)": "3f67ee0d",
			"calculateMatchPrice_(address[14],uint256[18],uint8[8],bytes,bytes,bytes,bytes,bytes,bytes)": "d537e131",
			"cancelOrder_(address[7],uint256[9],uint8,uint8,uint8,uint8,bytes,bytes,bytes,uint8,bytes32,bytes32)": "a8a41c70",
			"cancelledOrFinalized(bytes32)": "8076f005",
			"changeMinimumMakerProtocolFee(uint256)": "14350c24",
			"changeMinimumTakerProtocolFee(uint256)": "1a6b13e2",
			"changeProtocolFeeRecipient(address)": "514f0330",
			"changeProtocolFeeTokenAddress(address)": "5ef527e4",
			"codename()": "31e63199",
			"exchangeToken()": "a25eb5d9",
			"hashOrder_(address[7],uint256[9],uint8,uint8,uint8,uint8,bytes,bytes,bytes)": "71d02b38",
			"hashToSign_(address[7],uint256[9],uint8,uint8,uint8,uint8,bytes,bytes,bytes)": "7d766981",
			"minimumMakerProtocolFee()": "7ccefc52",
			"minimumTakerProtocolFee()": "28a8ee68",
			"name()": "06fdde03",
			"owner()": "8da5cb5b",
			"pause()": "8456cb59",
			"paused()": "5c975abb",
			"protocolFeeRecipient()": "64df049e",
			"registry()": "7b103999",
			"renounceOwnership()": "715018a6",
			"staticCall(address,bytes,bytes)": "10796a47",
			"tokenTransferProxy()": "0eefdbad",
			"transferOwnership(address)": "f2fde38b",
			"unPause()": "f7b188a5",
			"validateOrderParameters_(address[7],uint256[9],uint8,uint8,uint8,uint8,bytes,bytes,bytes)": "ca595b9a",
			"validateOrder_(address[7],uint256[9],uint8,uint8,uint8,uint8,bytes,bytes,bytes,uint8,bytes32,bytes32)": "60bef33a",
			"version()": "54fd4d50"
		}
	},
	"abi": [
		{
			"inputs": [
				{
					"internalType": "contract ProxyRegistry",
					"name": "registryAddress",
					"type": "address"
				},
				{
					"internalType": "contract TokenTransferProxy",
					"name": "tokenTransferProxyAddress",
					"type": "address"
				},
				{
					"internalType": "contract ERC20",
					"name": "tokenAddress",
					"type": "address"
				},
				{
					"internalType": "address",
					"name": "protocolFeeAddress",
					"type": "address"
				}
			],
			"stateMutability": "nonpayable",
			"type": "constructor"
		},
		{
			"anonymous": false,
			"inputs": [
				{
					"indexed": true,
					"internalType": "bytes32",
					"name": "hash",
					"type": "bytes32"
				},
				{
					"indexed": false,
					"internalType": "address",
					"name": "exchange",
					"type": "address"
				},
				{
					"indexed": true,
					"internalType": "address",
					"name": "maker",
					"type": "address"
				},
				{
					"indexed": false,
					"internalType": "address",
					"name": "taker",
					"type": "address"
				},
				{
					"indexed": false,
					"internalType": "uint256",
					"name": "makerRelayerFee",
					"type": "uint256"
				},
				{
					"indexed": false,
					"internalType": "uint256",
					"name": "takerRelayerFee",
					"type": "uint256"
				},
				{
					"indexed": false,
					"internalType": "uint256",
					"name": "makerProtocolFee",
					"type": "uint256"
				},
				{
					"indexed": false,
					"internalType": "uint256",
					"name": "takerProtocolFee",
					"type": "uint256"
				},
				{
					"indexed": true,
					"internalType": "address",
					"name": "feeRecipient",
					"type": "address"
				},
				{
					"indexed": false,
					"internalType": "enum ExchangeCore.FeeMethod",
					"name": "feeMethod",
					"type": "uint8"
				},
				{
					"indexed": false,
					"internalType": "enum SaleKindInterface.Side",
					"name": "side",
					"type": "uint8"
				},
				{
					"indexed": false,
					"internalType": "enum SaleKindInterface.SaleKind",
					"name": "saleKind",
					"type": "uint8"
				},
				{
					"indexed": false,
					"internalType": "address",
					"name": "target",
					"type": "address"
				}
			],
			"name": "OrderApprovedPartOne",
			"type": "event"
		},
		{
			"anonymous": false,
			"inputs": [
				{
					"indexed": true,
					"internalType": "bytes32",
					"name": "hash",
					"type": "bytes32"
				},
				{
					"indexed": false,
					"internalType": "enum AuthenticatedProxy.HowToCall",
					"name": "howToCall",
					"type": "uint8"
				},
				{
					"indexed": false,
					"internalType": "bytes",
					"name": "callData",
					"type": "bytes"
				},
				{
					"indexed": false,
					"internalType": "bytes",
					"name": "replacementPattern",
					"type": "bytes"
				},
				{
					"indexed": false,
					"internalType": "address",
					"name": "staticTarget",
					"type": "address"
				},
				{
					"indexed": false,
					"internalType": "bytes",
					"name": "staticExtradata",
					"type": "bytes"
				},
				{
					"indexed": false,
					"internalType": "address",
					"name": "paymentToken",
					"type": "address"
				},
				{
					"indexed": false,
					"internalType": "uint256",
					"name": "basePrice",
					"type": "uint256"
				},
				{
					"indexed": false,
					"internalType": "uint256",
					"name": "extra",
					"type": "uint256"
				},
				{
					"indexed": false,
					"internalType": "uint256",
					"name": "listingTime",
					"type": "uint256"
				},
				{
					"indexed": false,
					"internalType": "uint256",
					"name": "expirationTime",
					"type": "uint256"
				},
				{
					"indexed": false,
					"internalType": "uint256",
					"name": "salt",
					"type": "uint256"
				},
				{
					"indexed": false,
					"internalType": "bool",
					"name": "orderbookInclusionDesired",
					"type": "bool"
				}
			],
			"name": "OrderApprovedPartTwo",
			"type": "event"
		},
		{
			"anonymous": false,
			"inputs": [
				{
					"indexed": true,
					"internalType": "bytes32",
					"name": "hash",
					"type": "bytes32"
				}
			],
			"name": "OrderCancelled",
			"type": "event"
		},
		{
			"anonymous": false,
			"inputs": [
				{
					"indexed": false,
					"internalType": "bytes32",
					"name": "buyHash",
					"type": "bytes32"
				},
				{
					"indexed": false,
					"internalType": "bytes32",
					"name": "sellHash",
					"type": "bytes32"
				},
				{
					"indexed": true,
					"internalType": "address",
					"name": "maker",
					"type": "address"
				},
				{
					"indexed": true,
					"internalType": "address",
					"name": "taker",
					"type": "address"
				},
				{
					"indexed": false,
					"internalType": "uint256",
					"name": "price",
					"type": "uint256"
				},
				{
					"indexed": true,
					"internalType": "bytes32",
					"name": "metadata",
					"type": "bytes32"
				}
			],
			"name": "OrdersMatched",
			"type": "event"
		},
		{
			"anonymous": false,
			"inputs": [
				{
					"indexed": true,
					"internalType": "address",
					"name": "previousOwner",
					"type": "address"
				},
				{
					"indexed": true,
					"internalType": "address",
					"name": "newOwner",
					"type": "address"
				}
			],
			"name": "OwnershipTransferred",
			"type": "event"
		},
		{
			"anonymous": false,
			"inputs": [
				{
					"indexed": false,
					"internalType": "address",
					"name": "account",
					"type": "address"
				}
			],
			"name": "Paused",
			"type": "event"
		},
		{
			"anonymous": false,
			"inputs": [
				{
					"indexed": false,
					"internalType": "address",
					"name": "oldTokenAddress",
					"type": "address"
				},
				{
					"indexed": false,
					"internalType": "address",
					"name": "newTokenAddress",
					"type": "address"
				}
			],
			"name": "ProtocolTokenFeeChange",
			"type": "event"
		},
		{
			"anonymous": false,
			"inputs": [
				{
					"indexed": false,
					"internalType": "address",
					"name": "account",
					"type": "address"
				}
			],
			"name": "Unpaused",
			"type": "event"
		},
		{
			"inputs": [],
			"name": "INVERSE_BASIS_POINT",
			"outputs": [
				{
					"internalType": "uint256",
					"name": "",
					"type": "uint256"
				}
			],
			"stateMutability": "view",
			"type": "function"
		},
		{
			"inputs": [
				{
					"internalType": "address[7]",
					"name": "addrs",
					"type": "address[7]"
				},
				{
					"internalType": "uint256[9]",
					"name": "uints",
					"type": "uint256[9]"
				},
				{
					"internalType": "enum ExchangeCore.FeeMethod",
					"name": "feeMethod",
					"type": "uint8"
				},
				{
					"internalType": "enum SaleKindInterface.Side",
					"name": "side",
					"type": "uint8"
				},
				{
					"internalType": "enum SaleKindInterface.SaleKind",
					"name": "saleKind",
					"type": "uint8"
				},
				{
					"internalType": "enum AuthenticatedProxy.HowToCall",
					"name": "howToCall",
					"type": "uint8"
				},
				{
					"internalType": "bytes",
					"name": "callData",
					"type": "bytes"
				},
				{
					"internalType": "bytes",
					"name": "replacementPattern",
					"type": "bytes"
				},
				{
					"internalType": "bytes",
					"name": "staticExtradata",
					"type": "bytes"
				},
				{
					"internalType": "bool",
					"name": "orderbookInclusionDesired",
					"type": "bool"
				}
			],
			"name": "approveOrder_",
			"outputs": [],
			"stateMutability": "nonpayable",
			"type": "function"
		},
		{
			"inputs": [
				{
					"internalType": "bytes32",
					"name": "",
					"type": "bytes32"
				}
			],
			"name": "approvedOrders",
			"outputs": [
				{
					"internalType": "bool",
					"name": "",
					"type": "bool"
				}
			],
			"stateMutability": "view",
			"type": "function"
		},
		{
			"inputs": [
				{
					"internalType": "address[14]",
					"name": "addrs",
					"type": "address[14]"
				},
				{
					"internalType": "uint256[18]",
					"name": "uints",
					"type": "uint256[18]"
				},
				{
					"internalType": "uint8[8]",
					"name": "feeMethodsSidesKindsHowToCalls",
					"type": "uint8[8]"
				},
				{
					"internalType": "bytes",
					"name": "callDataBuy",
					"type": "bytes"
				},
				{
					"internalType": "bytes",
					"name": "callDataSell",
					"type": "bytes"
				},
				{
					"internalType": "bytes",
					"name": "replacementPatternBuy",
					"type": "bytes"
				},
				{
					"internalType": "bytes",
					"name": "replacementPatternSell",
					"type": "bytes"
				},
				{
					"internalType": "bytes",
					"name": "staticExtradataBuy",
					"type": "bytes"
				},
				{
					"internalType": "bytes",
					"name": "staticExtradataSell",
					"type": "bytes"
				},
				{
					"internalType": "uint8[2]",
					"name": "vs",
					"type": "uint8[2]"
				},
				{
					"internalType": "bytes32[5]",
					"name": "rssMetadata",
					"type": "bytes32[5]"
				}
			],
			"name": "atomicMatch_",
			"outputs": [],
			"stateMutability": "payable",
			"type": "function"
		},
		{
			"inputs": [
				{
					"internalType": "address[7]",
					"name": "addrs",
					"type": "address[7]"
				},
				{
					"internalType": "uint256[9]",
					"name": "uints",
					"type": "uint256[9]"
				},
				{
					"internalType": "enum ExchangeCore.FeeMethod",
					"name": "feeMethod",
					"type": "uint8"
				},
				{
					"internalType": "enum SaleKindInterface.Side",
					"name": "side",
					"type": "uint8"
				},
				{
					"internalType": "enum SaleKindInterface.SaleKind",
					"name": "saleKind",
					"type": "uint8"
				},
				{
					"internalType": "enum AuthenticatedProxy.HowToCall",
					"name": "howToCall",
					"type": "uint8"
				},
				{
					"internalType": "bytes",
					"name": "callData",
					"type": "bytes"
				},
				{
					"internalType": "bytes",
					"name": "replacementPattern",
					"type": "bytes"
				},
				{
					"internalType": "bytes",
					"name": "staticExtradata",
					"type": "bytes"
				}
			],
			"name": "calculateCurrentPrice_",
			"outputs": [
				{
					"internalType": "uint256",
					"name": "",
					"type": "uint256"
				}
			],
			"stateMutability": "view",
			"type": "function"
		},
		{
			"inputs": [
				{
					"internalType": "address[14]",
					"name": "addrs",
					"type": "address[14]"
				},
				{
					"internalType": "uint256[18]",
					"name": "uints",
					"type": "uint256[18]"
				},
				{
					"internalType": "uint8[8]",
					"name": "feeMethodsSidesKindsHowToCalls",
					"type": "uint8[8]"
				},
				{
					"internalType": "bytes",
					"name": "callDataBuy",
					"type": "bytes"
				},
				{
					"internalType": "bytes",
					"name": "callDataSell",
					"type": "bytes"
				},
				{
					"internalType": "bytes",
					"name": "replacementPatternBuy",
					"type": "bytes"
				},
				{
					"internalType": "bytes",
					"name": "replacementPatternSell",
					"type": "bytes"
				},
				{
					"internalType": "bytes",
					"name": "staticExtradataBuy",
					"type": "bytes"
				},
				{
					"internalType": "bytes",
					"name": "staticExtradataSell",
					"type": "bytes"
				}
			],
			"name": "calculateMatchPrice_",
			"outputs": [
				{
					"internalType": "uint256",
					"name": "",
					"type": "uint256"
				}
			],
			"stateMutability": "view",
			"type": "function"
		},
		{
			"inputs": [
				{
					"internalType": "address[7]",
					"name": "addrs",
					"type": "address[7]"
				},
				{
					"internalType": "uint256[9]",
					"name": "uints",
					"type": "uint256[9]"
				},
				{
					"internalType": "enum ExchangeCore.FeeMethod",
					"name": "feeMethod",
					"type": "uint8"
				},
				{
					"internalType": "enum SaleKindInterface.Side",
					"name": "side",
					"type": "uint8"
				},
				{
					"internalType": "enum SaleKindInterface.SaleKind",
					"name": "saleKind",
					"type": "uint8"
				},
				{
					"internalType": "enum AuthenticatedProxy.HowToCall",
					"name": "howToCall",
					"type": "uint8"
				},
				{
					"internalType": "bytes",
					"name": "callData",
					"type": "bytes"
				},
				{
					"internalType": "bytes",
					"name": "replacementPattern",
					"type": "bytes"
				},
				{
					"internalType": "bytes",
					"name": "staticExtradata",
					"type": "bytes"
				},
				{
					"internalType": "uint8",
					"name": "v",
					"type": "uint8"
				},
				{
					"internalType": "bytes32",
					"name": "r",
					"type": "bytes32"
				},
				{
					"internalType": "bytes32",
					"name": "s",
					"type": "bytes32"
				}
			],
			"name": "cancelOrder_",
			"outputs": [],
			"stateMutability": "nonpayable",
			"type": "function"
		},
		{
			"inputs": [
				{
					"internalType": "bytes32",
					"name": "",
					"type": "bytes32"
				}
			],
			"name": "cancelledOrFinalized",
			"outputs": [
				{
					"internalType": "bool",
					"name": "",
					"type": "bool"
				}
			],
			"stateMutability": "view",
			"type": "function"
		},
		{
			"inputs": [
				{
					"internalType": "uint256",
					"name": "newMinimumMakerProtocolFee",
					"type": "uint256"
				}
			],
			"name": "changeMinimumMakerProtocolFee",
			"outputs": [],
			"stateMutability": "nonpayable",
			"type": "function"
		},
		{
			"inputs": [
				{
					"internalType": "uint256",
					"name": "newMinimumTakerProtocolFee",
					"type": "uint256"
				}
			],
			"name": "changeMinimumTakerProtocolFee",
			"outputs": [],
			"stateMutability": "nonpayable",
			"type": "function"
		},
		{
			"inputs": [
				{
					"internalType": "address",
					"name": "newProtocolFeeRecipient",
					"type": "address"
				}
			],
			"name": "changeProtocolFeeRecipient",
			"outputs": [],
			"stateMutability": "nonpayable",
			"type": "function"
		},
		{
			"inputs": [
				{
					"internalType": "address",
					"name": "newTokenAddress",
					"type": "address"
				}
			],
			"name": "changeProtocolFeeTokenAddress",
			"outputs": [],
			"stateMutability": "nonpayable",
			"type": "function"
		},
		{
			"inputs": [],
			"name": "codename",
			"outputs": [
				{
					"internalType": "string",
					"name": "",
					"type": "string"
				}
			],
			"stateMutability": "view",
			"type": "function"
		},
		{
			"inputs": [],
			"name": "exchangeToken",
			"outputs": [
				{
					"internalType": "contract ERC20",
					"name": "",
					"type": "address"
				}
			],
			"stateMutability": "view",
			"type": "function"
		},
		{
			"inputs": [
				{
					"internalType": "address[7]",
					"name": "addrs",
					"type": "address[7]"
				},
				{
					"internalType": "uint256[9]",
					"name": "uints",
					"type": "uint256[9]"
				},
				{
					"internalType": "enum ExchangeCore.FeeMethod",
					"name": "feeMethod",
					"type": "uint8"
				},
				{
					"internalType": "enum SaleKindInterface.Side",
					"name": "side",
					"type": "uint8"
				},
				{
					"internalType": "enum SaleKindInterface.SaleKind",
					"name": "saleKind",
					"type": "uint8"
				},
				{
					"internalType": "enum AuthenticatedProxy.HowToCall",
					"name": "howToCall",
					"type": "uint8"
				},
				{
					"internalType": "bytes",
					"name": "callData",
					"type": "bytes"
				},
				{
					"internalType": "bytes",
					"name": "replacementPattern",
					"type": "bytes"
				},
				{
					"internalType": "bytes",
					"name": "staticExtradata",
					"type": "bytes"
				}
			],
			"name": "hashOrder_",
			"outputs": [
				{
					"internalType": "bytes32",
					"name": "",
					"type": "bytes32"
				}
			],
			"stateMutability": "pure",
			"type": "function"
		},
		{
			"inputs": [
				{
					"internalType": "address[7]",
					"name": "addrs",
					"type": "address[7]"
				},
				{
					"internalType": "uint256[9]",
					"name": "uints",
					"type": "uint256[9]"
				},
				{
					"internalType": "enum ExchangeCore.FeeMethod",
					"name": "feeMethod",
					"type": "uint8"
				},
				{
					"internalType": "enum SaleKindInterface.Side",
					"name": "side",
					"type": "uint8"
				},
				{
					"internalType": "enum SaleKindInterface.SaleKind",
					"name": "saleKind",
					"type": "uint8"
				},
				{
					"internalType": "enum AuthenticatedProxy.HowToCall",
					"name": "howToCall",
					"type": "uint8"
				},
				{
					"internalType": "bytes",
					"name": "callData",
					"type": "bytes"
				},
				{
					"internalType": "bytes",
					"name": "replacementPattern",
					"type": "bytes"
				},
				{
					"internalType": "bytes",
					"name": "staticExtradata",
					"type": "bytes"
				}
			],
			"name": "hashToSign_",
			"outputs": [
				{
					"internalType": "bytes32",
					"name": "",
					"type": "bytes32"
				}
			],
			"stateMutability": "pure",
			"type": "function"
		},
		{
			"inputs": [],
			"name": "minimumMakerProtocolFee",
			"outputs": [
				{
					"internalType": "uint256",
					"name": "",
					"type": "uint256"
				}
			],
			"stateMutability": "view",
			"type": "function"
		},
		{
			"inputs": [],
			"name": "minimumTakerProtocolFee",
			"outputs": [
				{
					"internalType": "uint256",
					"name": "",
					"type": "uint256"
				}
			],
			"stateMutability": "view",
			"type": "function"
		},
		{
			"inputs": [],
			"name": "name",
			"outputs": [
				{
					"internalType": "string",
					"name": "",
					"type": "string"
				}
			],
			"stateMutability": "view",
			"type": "function"
		},
		{
			"inputs": [],
			"name": "owner",
			"outputs": [
				{
					"internalType": "address",
					"name": "",
					"type": "address"
				}
			],
			"stateMutability": "view",
			"type": "function"
		},
		{
			"inputs": [],
			"name": "pause",
			"outputs": [],
			"stateMutability": "nonpayable",
			"type": "function"
		},
		{
			"inputs": [],
			"name": "paused",
			"outputs": [
				{
					"internalType": "bool",
					"name": "",
					"type": "bool"
				}
			],
			"stateMutability": "view",
			"type": "function"
		},
		{
			"inputs": [],
			"name": "protocolFeeRecipient",
			"outputs": [
				{
					"internalType": "address",
					"name": "",
					"type": "address"
				}
			],
			"stateMutability": "view",
			"type": "function"
		},
		{
			"inputs": [],
			"name": "registry",
			"outputs": [
				{
					"internalType": "contract ProxyRegistry",
					"name": "",
					"type": "address"
				}
			],
			"stateMutability": "view",
			"type": "function"
		},
		{
			"inputs": [],
			"name": "renounceOwnership",
			"outputs": [],
			"stateMutability": "nonpayable",
			"type": "function"
		},
		{
			"inputs": [
				{
					"internalType": "address",
					"name": "target",
					"type": "address"
				},
				{
					"internalType": "bytes",
					"name": "callData",
					"type": "bytes"
				},
				{
					"internalType": "bytes",
					"name": "extradata",
					"type": "bytes"
				}
			],
			"name": "staticCall",
			"outputs": [
				{
					"internalType": "bool",
					"name": "result",
					"type": "bool"
				}
			],
			"stateMutability": "view",
			"type": "function"
		},
		{
			"inputs": [],
			"name": "tokenTransferProxy",
			"outputs": [
				{
					"internalType": "contract TokenTransferProxy",
					"name": "",
					"type": "address"
				}
			],
			"stateMutability": "view",
			"type": "function"
		},
		{
			"inputs": [
				{
					"internalType": "address",
					"name": "newOwner",
					"type": "address"
				}
			],
			"name": "transferOwnership",
			"outputs": [],
			"stateMutability": "nonpayable",
			"type": "function"
		},
		{
			"inputs": [],
			"name": "unPause",
			"outputs": [],
			"stateMutability": "nonpayable",
			"type": "function"
		},
		{
			"inputs": [
				{
					"internalType": "address[7]",
					"name": "addrs",
					"type": "address[7]"
				},
				{
					"internalType": "uint256[9]",
					"name": "uints",
					"type": "uint256[9]"
				},
				{
					"internalType": "enum ExchangeCore.FeeMethod",
					"name": "feeMethod",
					"type": "uint8"
				},
				{
					"internalType": "enum SaleKindInterface.Side",
					"name": "side",
					"type": "uint8"
				},
				{
					"internalType": "enum SaleKindInterface.SaleKind",
					"name": "saleKind",
					"type": "uint8"
				},
				{
					"internalType": "enum AuthenticatedProxy.HowToCall",
					"name": "howToCall",
					"type": "uint8"
				},
				{
					"internalType": "bytes",
					"name": "callData",
					"type": "bytes"
				},
				{
					"internalType": "bytes",
					"name": "replacementPattern",
					"type": "bytes"
				},
				{
					"internalType": "bytes",
					"name": "staticExtradata",
					"type": "bytes"
				}
			],
			"name": "validateOrderParameters_",
			"outputs": [
				{
					"internalType": "bool",
					"name": "",
					"type": "bool"
				}
			],
			"stateMutability": "view",
			"type": "function"
		},
		{
			"inputs": [
				{
					"internalType": "address[7]",
					"name": "addrs",
					"type": "address[7]"
				},
				{
					"internalType": "uint256[9]",
					"name": "uints",
					"type": "uint256[9]"
				},
				{
					"internalType": "enum ExchangeCore.FeeMethod",
					"name": "feeMethod",
					"type": "uint8"
				},
				{
					"internalType": "enum SaleKindInterface.Side",
					"name": "side",
					"type": "uint8"
				},
				{
					"internalType": "enum SaleKindInterface.SaleKind",
					"name": "saleKind",
					"type": "uint8"
				},
				{
					"internalType": "enum AuthenticatedProxy.HowToCall",
					"name": "howToCall",
					"type": "uint8"
				},
				{
					"internalType": "bytes",
					"name": "callData",
					"type": "bytes"
				},
				{
					"internalType": "bytes",
					"name": "replacementPattern",
					"type": "bytes"
				},
				{
					"internalType": "bytes",
					"name": "staticExtradata",
					"type": "bytes"
				},
				{
					"internalType": "uint8",
					"name": "v",
					"type": "uint8"
				},
				{
					"internalType": "bytes32",
					"name": "r",
					"type": "bytes32"
				},
				{
					"internalType": "bytes32",
					"name": "s",
					"type": "bytes32"
				}
			],
			"name": "validateOrder_",
			"outputs": [
				{
					"internalType": "bool",
					"name": "",
					"type": "bool"
				}
			],
			"stateMutability": "view",
			"type": "function"
		},
		{
			"inputs": [],
			"name": "version",
			"outputs": [
				{
					"internalType": "string",
					"name": "",
					"type": "string"
				}
			],
			"stateMutability": "view",
			"type": "function"
		}
	]
}